{
	"data": {
		"bytecode": {
			"linkReferences": {
				"remix_tests.sol": {
					"Assert": [
						{
							"length": 20,
							"start": 203
						},
						{
							"length": 20,
							"start": 485
						},
						{
							"length": 20,
							"start": 799
						},
						{
							"length": 20,
							"start": 1082
						},
						{
							"length": 20,
							"start": 1365
						},
						{
							"length": 20,
							"start": 1990
						}
					]
				}
			},
			"object": "608060405234801561000f575f80fd5b5061171d8061001d5f395ff3fe608060405234801562000010575f80fd5b506004361062000044575f3560e01c80632e62bdb714620000485780637fea0d4b1462000054578063862fcc801462000060575b5f80fd5b620000526200006c565b005b6200005e62000672565b005b6200006a620006db565b005b620000ac6040518060400160405280601a81526020017f52756e6e696e6720636865636b496e697469616c56616c756573000000000000815250620008c3565b73__$acbfb1c35000d78352310b16a054a6b106$__63f5bae6b65f8054906101000a900473ffffffffffffffffffffffffffffffffffffffff1673ffffffffffffffffffffffffffffffffffffffff1663f72d0b3b5f6040518263ffffffff1660e01b815260040162000120919062000a19565b602060405180830381865afa1580156200013c573d5f803e3d5ffd5b505050506040513d601f19601f8201168201806040525081019062000162919062000a70565b602a6040518363ffffffff1660e01b81526004016200018392919062000b50565b602060405180830381865af41580156200019f573d5f803e3d5ffd5b505050506040513d601f19601f82011682018060405250810190620001c5919062000bca565b5073__$acbfb1c35000d78352310b16a054a6b106$__63f5bae6b65f8054906101000a900473ffffffffffffffffffffffffffffffffffffffff1673ffffffffffffffffffffffffffffffffffffffff1663f72d0b3b60016040518263ffffffff1660e01b81526004016200023b919062000c3b565b602060405180830381865afa15801562000257573d5f803e3d5ffd5b505050506040513d601f19601f820116820180604052508101906200027d919062000a70565b7fffffffffffffffffffffffffffffffffffffffffffffffffffffffffffffffaa6040518363ffffffff1660e01b8152600401620002bd92919062000ce5565b602060405180830381865af4158015620002d9573d5f803e3d5ffd5b505050506040513d601f19601f82011682018060405250810190620002ff919062000bca565b5073__$acbfb1c35000d78352310b16a054a6b106$__63f5bae6b65f8054906101000a900473ffffffffffffffffffffffffffffffffffffffff1673ffffffffffffffffffffffffffffffffffffffff1663f72d0b3b60026040518263ffffffff1660e01b815260040162000375919062000d66565b602060405180830381865afa15801562000391573d5f803e3d5ffd5b505050506040513d601f19601f82011682018060405250810190620003b7919062000a70565b60456040518363ffffffff1660e01b8152600401620003d892919062000e10565b602060405180830381865af4158015620003f4573d5f803e3d5ffd5b505050506040513d601f19601f820116820180604052508101906200041a919062000bca565b5073__$acbfb1c35000d78352310b16a054a6b106$__63f5bae6b65f8054906101000a900473ffffffffffffffffffffffffffffffffffffffff1673ffffffffffffffffffffffffffffffffffffffff1663f72d0b3b60036040518263ffffffff1660e01b815260040162000490919062000e91565b602060405180830381865afa158015620004ac573d5f803e3d5ffd5b505050506040513d601f19601f82011682018060405250810190620004d2919062000a70565b601e6040518363ffffffff1660e01b8152600401620004f392919062000f3b565b602060405180830381865af41580156200050f573d5f803e3d5ffd5b505050506040513d601f19601f8201168201806040525081019062000535919062000bca565b5073__$acbfb1c35000d78352310b16a054a6b106$__63f5bae6b65f8054906101000a900473ffffffffffffffffffffffffffffffffffffffff1673ffffffffffffffffffffffffffffffffffffffff1663f72d0b3b60046040518263ffffffff1660e01b8152600401620005ab919062000fbc565b602060405180830381865afa158015620005c7573d5f803e3d5ffd5b505050506040513d601f19601f82011682018060405250810190620005ed919062000a70565b7ffffffffffffffffffffffffffffffffffffffffffffffffffffffffffffeb1c56040518363ffffffff1660e01b81526004016200062d9291906200108c565b602060405180830381865af415801562000649573d5f803e3d5ffd5b505050506040513d601f19601f820116820180604052508101906200066f919062000bca565b50565b6040516200068090620009a9565b604051809103905ff0801580156200069a573d5f803e3d5ffd5b505f806101000a81548173ffffffffffffffffffffffffffffffffffffffff021916908373ffffffffffffffffffffffffffffffffffffffff160217905550565b6200071b6040518060400160405280601681526020017f52756e6e696e6720636865636b536574416e6447657400000000000000000000815250620008c3565b5f8054906101000a900473ffffffffffffffffffffffffffffffffffffffff1673ffffffffffffffffffffffffffffffffffffffff16634ac56d575f60646040518363ffffffff1660e01b8152600401620007789291906200110d565b5f604051808303815f87803b15801562000790575f80fd5b505af1158015620007a3573d5f803e3d5ffd5b5050505073__$acbfb1c35000d78352310b16a054a6b106$__63f5bae6b65f8054906101000a900473ffffffffffffffffffffffffffffffffffffffff1673ffffffffffffffffffffffffffffffffffffffff1663f72d0b3b5f6040518263ffffffff1660e01b81526004016200081b919062000a19565b602060405180830381865afa15801562000837573d5f803e3d5ffd5b505050506040513d601f19601f820116820180604052508101906200085d919062000a70565b60646040518363ffffffff1660e01b81526004016200087e929190620011bd565b602060405180830381865af41580156200089a573d5f803e3d5ffd5b505050506040513d601f19601f82011682018060405250810190620008c0919062000bca565b50565b6200095d81604051602401620008da919062001291565b6040516020818303038152906040527f41304fac000000000000000000000000000000000000000000000000000000007bffffffffffffffffffffffffffffffffffffffffffffffffffffffff19166020820180517bffffffffffffffffffffffffffffffffffffffffffffffffffffffff838183161783525050505062000960565b50565b6200097b81620009736200097e6200099d565b63ffffffff16565b50565b5f6a636f6e736f6c652e6c6f6790505f80835160208501845afa505050565b620009b7819050919050565b61040780620012e183390190565b620009c1620012b3565b565b5f819050919050565b5f60ff82169050919050565b5f819050919050565b5f62000a01620009fb620009f584620009c3565b620009d8565b620009cc565b9050919050565b62000a1381620009e1565b82525050565b5f60208201905062000a2e5f83018462000a08565b92915050565b5f80fd5b5f819050919050565b62000a4c8162000a38565b811462000a57575f80fd5b50565b5f8151905062000a6a8162000a41565b92915050565b5f6020828403121562000a885762000a8762000a34565b5b5f62000a978482850162000a5a565b91505092915050565b62000aab8162000a38565b82525050565b5f819050919050565b5f62000ada62000ad462000ace8462000ab1565b620009d8565b62000a38565b9050919050565b62000aec8162000aba565b82525050565b5f82825260208201905092915050565b7f56616c756520617420696e64657820302073686f756c642062652034320000005f82015250565b5f62000b38601d8362000af2565b915062000b458262000b02565b602082019050919050565b5f60608201905062000b655f83018562000aa0565b62000b74602083018462000ae1565b818103604083015262000b878162000b2a565b90509392505050565b5f8115159050919050565b62000ba68162000b90565b811462000bb1575f80fd5b50565b5f8151905062000bc48162000b9b565b92915050565b5f6020828403121562000be25762000be162000a34565b5b5f62000bf18482850162000bb4565b91505092915050565b5f819050919050565b5f62000c2362000c1d62000c178462000bfa565b620009d8565b620009cc565b9050919050565b62000c358162000c03565b82525050565b5f60208201905062000c505f83018462000c2a565b92915050565b5f819050919050565b5f62000c7f62000c7962000c738462000c56565b620009d8565b62000a38565b9050919050565b62000c918162000c5f565b82525050565b7f56616c756520617420696e64657820312073686f756c64206265202d383600005f82015250565b5f62000ccd601e8362000af2565b915062000cda8262000c97565b602082019050919050565b5f60608201905062000cfa5f83018562000aa0565b62000d09602083018462000c86565b818103604083015262000d1c8162000cbf565b90509392505050565b5f819050919050565b5f62000d4e62000d4862000d428462000d25565b620009d8565b620009cc565b9050919050565b62000d608162000d2e565b82525050565b5f60208201905062000d7b5f83018462000d55565b92915050565b5f819050919050565b5f62000daa62000da462000d9e8462000d81565b620009d8565b62000a38565b9050919050565b62000dbc8162000d8a565b82525050565b7f56616c756520617420696e64657820322073686f756c642062652036390000005f82015250565b5f62000df8601d8362000af2565b915062000e058262000dc2565b602082019050919050565b5f60608201905062000e255f83018562000aa0565b62000e34602083018462000db1565b818103604083015262000e478162000dea565b90509392505050565b5f819050919050565b5f62000e7962000e7362000e6d8462000e50565b620009d8565b620009cc565b9050919050565b62000e8b8162000e59565b82525050565b5f60208201905062000ea65f83018462000e80565b92915050565b5f819050919050565b5f62000ed562000ecf62000ec98462000eac565b620009d8565b62000a38565b9050919050565b62000ee78162000eb5565b82525050565b7f56616c756520617420696e64657820332073686f756c642062652033300000005f82015250565b5f62000f23601d8362000af2565b915062000f308262000eed565b602082019050919050565b5f60608201905062000f505f83018562000aa0565b62000f5f602083018462000edc565b818103604083015262000f728162000f15565b90509392505050565b5f819050919050565b5f62000fa462000f9e62000f988462000f7b565b620009d8565b620009cc565b9050919050565b62000fb68162000f84565b82525050565b5f60208201905062000fd15f83018462000fab565b92915050565b5f819050919050565b5f6200100062000ffa62000ff48462000fd7565b620009d8565b62000a38565b9050919050565b620010128162000fe0565b82525050565b7f56616c756520617420696e64657820342073686f756c64206265202d383535365f8201527f3300000000000000000000000000000000000000000000000000000000000000602082015250565b5f6200107460218362000af2565b9150620010818262001018565b604082019050919050565b5f606082019050620010a15f83018562000aa0565b620010b0602083018462001007565b8181036040830152620010c38162001066565b90509392505050565b5f819050919050565b5f620010f5620010ef620010e984620010cc565b620009d8565b62000a38565b9050919050565b6200110781620010d5565b82525050565b5f604082019050620011225f83018562000a08565b620011316020830184620010fc565b9392505050565b6200114381620010d5565b82525050565b7f56616c756520617420696e64657820302073686f756c642062652031303020615f8201527f6674657220736574000000000000000000000000000000000000000000000000602082015250565b5f620011a560288362000af2565b9150620011b28262001149565b604082019050919050565b5f606082019050620011d25f83018562000aa0565b620011e1602083018462001138565b8181036040830152620011f48162001197565b90509392505050565b5f81519050919050565b5f82825260208201905092915050565b5f5b838110156200123657808201518184015260208101905062001219565b5f8484015250505050565b5f601f19601f8301169050919050565b5f6200125d82620011fd565b62001269818562001207565b93506200127b81856020860162001217565b620012868162001241565b840191505092915050565b5f6020820190508181035f830152620012ab818462001251565b905092915050565b7f4e487b71000000000000000000000000000000000000000000000000000000005f52605160045260245ffdfe608060405234801561000f575f80fd5b50602a5f80600a8110610025576100246100d9565b5b01819055507fffffffffffffffffffffffffffffffffffffffffffffffffffffffffffffffaa5f6001600a811061005f5761005e6100d9565b5b018190555060455f6002600a811061007a576100796100d9565b5b0181905550601e5f6003600a8110610095576100946100d9565b5b01819055507ffffffffffffffffffffffffffffffffffffffffffffffffffffffffffffeb1c55f6004600a81106100cf576100ce6100d9565b5b0181905550610106565b7f4e487b71000000000000000000000000000000000000000000000000000000005f52603260045260245ffd5b6102f4806101135f395ff3fe608060405234801561000f575f80fd5b506004361061003f575f3560e01c80634ac56d5714610043578063cc3e57d91461005f578063f72d0b3b1461008f575b5f80fd5b61005d600480360381019061005891906101a2565b6100bf565b005b61007960048036038101906100749190610213565b6100ee565b604051610086919061024d565b60405180910390f35b6100a960048036038101906100a49190610266565b610106565b6040516100b6919061024d565b60405180910390f35b600a8260ff16106100ce575f80fd5b805f8360ff16600a81106100e5576100e4610291565b5b01819055505050565b5f81600a81106100fc575f80fd5b015f915090505481565b5f600a8260ff1610610116575f80fd5b5f8260ff16600a811061012c5761012b610291565b5b01549050919050565b5f80fd5b5f60ff82169050919050565b61014e81610139565b8114610158575f80fd5b50565b5f8135905061016981610145565b92915050565b5f819050919050565b6101818161016f565b811461018b575f80fd5b50565b5f8135905061019c81610178565b92915050565b5f80604083850312156101b8576101b7610135565b5b5f6101c58582860161015b565b92505060206101d68582860161018e565b9150509250929050565b5f819050919050565b6101f2816101e0565b81146101fc575f80fd5b50565b5f8135905061020d816101e9565b92915050565b5f6020828403121561022857610227610135565b5b5f610235848285016101ff565b91505092915050565b6102478161016f565b82525050565b5f6020820190506102605f83018461023e565b92915050565b5f6020828403121561027b5761027a610135565b5b5f6102888482850161015b565b91505092915050565b7f4e487b71000000000000000000000000000000000000000000000000000000005f52603260045260245ffdfea26469706673582212204f6b4acec192f6ac23e4ec32eab2ad14cc6bb5006a41c556e987bb3ec4fcf6f164736f6c63430008160033a26469706673582212200f50032fa5bb6dee22e645ac3fb362e4f27dd028d5b71f344258db03b84794ef64736f6c63430008160033",
			"opcodes": "PUSH1 0x80 PUSH1 0x40 MSTORE CALLVALUE DUP1 ISZERO PUSH2 0xF JUMPI PUSH0 DUP1 REVERT JUMPDEST POP PUSH2 0x171D DUP1 PUSH2 0x1D PUSH0 CODECOPY PUSH0 RETURN INVALID PUSH1 0x80 PUSH1 0x40 MSTORE CALLVALUE DUP1 ISZERO PUSH3 0x10 JUMPI PUSH0 DUP1 REVERT JUMPDEST POP PUSH1 0x4 CALLDATASIZE LT PUSH3 0x44 JUMPI PUSH0 CALLDATALOAD PUSH1 0xE0 SHR DUP1 PUSH4 0x2E62BDB7 EQ PUSH3 0x48 JUMPI DUP1 PUSH4 0x7FEA0D4B EQ PUSH3 0x54 JUMPI DUP1 PUSH4 0x862FCC80 EQ PUSH3 0x60 JUMPI JUMPDEST PUSH0 DUP1 REVERT JUMPDEST PUSH3 0x52 PUSH3 0x6C JUMP JUMPDEST STOP JUMPDEST PUSH3 0x5E PUSH3 0x672 JUMP JUMPDEST STOP JUMPDEST PUSH3 0x6A PUSH3 0x6DB JUMP JUMPDEST STOP JUMPDEST PUSH3 0xAC PUSH1 0x40 MLOAD DUP1 PUSH1 0x40 ADD PUSH1 0x40 MSTORE DUP1 PUSH1 0x1A DUP2 MSTORE PUSH1 0x20 ADD PUSH32 0x52756E6E696E6720636865636B496E697469616C56616C756573000000000000 DUP2 MSTORE POP PUSH3 0x8C3 JUMP JUMPDEST PUSH20 0x0 PUSH4 0xF5BAE6B6 PUSH0 DUP1 SLOAD SWAP1 PUSH2 0x100 EXP SWAP1 DIV PUSH20 0xFFFFFFFFFFFFFFFFFFFFFFFFFFFFFFFFFFFFFFFF AND PUSH20 0xFFFFFFFFFFFFFFFFFFFFFFFFFFFFFFFFFFFFFFFF AND PUSH4 0xF72D0B3B PUSH0 PUSH1 0x40 MLOAD DUP3 PUSH4 0xFFFFFFFF AND PUSH1 0xE0 SHL DUP2 MSTORE PUSH1 0x4 ADD PUSH3 0x120 SWAP2 SWAP1 PUSH3 0xA19 JUMP JUMPDEST PUSH1 0x20 PUSH1 0x40 MLOAD DUP1 DUP4 SUB DUP2 DUP7 GAS STATICCALL ISZERO DUP1 ISZERO PUSH3 0x13C JUMPI RETURNDATASIZE PUSH0 DUP1 RETURNDATACOPY RETURNDATASIZE PUSH0 REVERT JUMPDEST POP POP POP POP PUSH1 0x40 MLOAD RETURNDATASIZE PUSH1 0x1F NOT PUSH1 0x1F DUP3 ADD AND DUP3 ADD DUP1 PUSH1 0x40 MSTORE POP DUP2 ADD SWAP1 PUSH3 0x162 SWAP2 SWAP1 PUSH3 0xA70 JUMP JUMPDEST PUSH1 0x2A PUSH1 0x40 MLOAD DUP4 PUSH4 0xFFFFFFFF AND PUSH1 0xE0 SHL DUP2 MSTORE PUSH1 0x4 ADD PUSH3 0x183 SWAP3 SWAP2 SWAP1 PUSH3 0xB50 JUMP JUMPDEST PUSH1 0x20 PUSH1 0x40 MLOAD DUP1 DUP4 SUB DUP2 DUP7 GAS DELEGATECALL ISZERO DUP1 ISZERO PUSH3 0x19F JUMPI RETURNDATASIZE PUSH0 DUP1 RETURNDATACOPY RETURNDATASIZE PUSH0 REVERT JUMPDEST POP POP POP POP PUSH1 0x40 MLOAD RETURNDATASIZE PUSH1 0x1F NOT PUSH1 0x1F DUP3 ADD AND DUP3 ADD DUP1 PUSH1 0x40 MSTORE POP DUP2 ADD SWAP1 PUSH3 0x1C5 SWAP2 SWAP1 PUSH3 0xBCA JUMP JUMPDEST POP PUSH20 0x0 PUSH4 0xF5BAE6B6 PUSH0 DUP1 SLOAD SWAP1 PUSH2 0x100 EXP SWAP1 DIV PUSH20 0xFFFFFFFFFFFFFFFFFFFFFFFFFFFFFFFFFFFFFFFF AND PUSH20 0xFFFFFFFFFFFFFFFFFFFFFFFFFFFFFFFFFFFFFFFF AND PUSH4 0xF72D0B3B PUSH1 0x1 PUSH1 0x40 MLOAD DUP3 PUSH4 0xFFFFFFFF AND PUSH1 0xE0 SHL DUP2 MSTORE PUSH1 0x4 ADD PUSH3 0x23B SWAP2 SWAP1 PUSH3 0xC3B JUMP JUMPDEST PUSH1 0x20 PUSH1 0x40 MLOAD DUP1 DUP4 SUB DUP2 DUP7 GAS STATICCALL ISZERO DUP1 ISZERO PUSH3 0x257 JUMPI RETURNDATASIZE PUSH0 DUP1 RETURNDATACOPY RETURNDATASIZE PUSH0 REVERT JUMPDEST POP POP POP POP PUSH1 0x40 MLOAD RETURNDATASIZE PUSH1 0x1F NOT PUSH1 0x1F DUP3 ADD AND DUP3 ADD DUP1 PUSH1 0x40 MSTORE POP DUP2 ADD SWAP1 PUSH3 0x27D SWAP2 SWAP1 PUSH3 0xA70 JUMP JUMPDEST PUSH32 0xFFFFFFFFFFFFFFFFFFFFFFFFFFFFFFFFFFFFFFFFFFFFFFFFFFFFFFFFFFFFFFAA PUSH1 0x40 MLOAD DUP4 PUSH4 0xFFFFFFFF AND PUSH1 0xE0 SHL DUP2 MSTORE PUSH1 0x4 ADD PUSH3 0x2BD SWAP3 SWAP2 SWAP1 PUSH3 0xCE5 JUMP JUMPDEST PUSH1 0x20 PUSH1 0x40 MLOAD DUP1 DUP4 SUB DUP2 DUP7 GAS DELEGATECALL ISZERO DUP1 ISZERO PUSH3 0x2D9 JUMPI RETURNDATASIZE PUSH0 DUP1 RETURNDATACOPY RETURNDATASIZE PUSH0 REVERT JUMPDEST POP POP POP POP PUSH1 0x40 MLOAD RETURNDATASIZE PUSH1 0x1F NOT PUSH1 0x1F DUP3 ADD AND DUP3 ADD DUP1 PUSH1 0x40 MSTORE POP DUP2 ADD SWAP1 PUSH3 0x2FF SWAP2 SWAP1 PUSH3 0xBCA JUMP JUMPDEST POP PUSH20 0x0 PUSH4 0xF5BAE6B6 PUSH0 DUP1 SLOAD SWAP1 PUSH2 0x100 EXP SWAP1 DIV PUSH20 0xFFFFFFFFFFFFFFFFFFFFFFFFFFFFFFFFFFFFFFFF AND PUSH20 0xFFFFFFFFFFFFFFFFFFFFFFFFFFFFFFFFFFFFFFFF AND PUSH4 0xF72D0B3B PUSH1 0x2 PUSH1 0x40 MLOAD DUP3 PUSH4 0xFFFFFFFF AND PUSH1 0xE0 SHL DUP2 MSTORE PUSH1 0x4 ADD PUSH3 0x375 SWAP2 SWAP1 PUSH3 0xD66 JUMP JUMPDEST PUSH1 0x20 PUSH1 0x40 MLOAD DUP1 DUP4 SUB DUP2 DUP7 GAS STATICCALL ISZERO DUP1 ISZERO PUSH3 0x391 JUMPI RETURNDATASIZE PUSH0 DUP1 RETURNDATACOPY RETURNDATASIZE PUSH0 REVERT JUMPDEST POP POP POP POP PUSH1 0x40 MLOAD RETURNDATASIZE PUSH1 0x1F NOT PUSH1 0x1F DUP3 ADD AND DUP3 ADD DUP1 PUSH1 0x40 MSTORE POP DUP2 ADD SWAP1 PUSH3 0x3B7 SWAP2 SWAP1 PUSH3 0xA70 JUMP JUMPDEST PUSH1 0x45 PUSH1 0x40 MLOAD DUP4 PUSH4 0xFFFFFFFF AND PUSH1 0xE0 SHL DUP2 MSTORE PUSH1 0x4 ADD PUSH3 0x3D8 SWAP3 SWAP2 SWAP1 PUSH3 0xE10 JUMP JUMPDEST PUSH1 0x20 PUSH1 0x40 MLOAD DUP1 DUP4 SUB DUP2 DUP7 GAS DELEGATECALL ISZERO DUP1 ISZERO PUSH3 0x3F4 JUMPI RETURNDATASIZE PUSH0 DUP1 RETURNDATACOPY RETURNDATASIZE PUSH0 REVERT JUMPDEST POP POP POP POP PUSH1 0x40 MLOAD RETURNDATASIZE PUSH1 0x1F NOT PUSH1 0x1F DUP3 ADD AND DUP3 ADD DUP1 PUSH1 0x40 MSTORE POP DUP2 ADD SWAP1 PUSH3 0x41A SWAP2 SWAP1 PUSH3 0xBCA JUMP JUMPDEST POP PUSH20 0x0 PUSH4 0xF5BAE6B6 PUSH0 DUP1 SLOAD SWAP1 PUSH2 0x100 EXP SWAP1 DIV PUSH20 0xFFFFFFFFFFFFFFFFFFFFFFFFFFFFFFFFFFFFFFFF AND PUSH20 0xFFFFFFFFFFFFFFFFFFFFFFFFFFFFFFFFFFFFFFFF AND PUSH4 0xF72D0B3B PUSH1 0x3 PUSH1 0x40 MLOAD DUP3 PUSH4 0xFFFFFFFF AND PUSH1 0xE0 SHL DUP2 MSTORE PUSH1 0x4 ADD PUSH3 0x490 SWAP2 SWAP1 PUSH3 0xE91 JUMP JUMPDEST PUSH1 0x20 PUSH1 0x40 MLOAD DUP1 DUP4 SUB DUP2 DUP7 GAS STATICCALL ISZERO DUP1 ISZERO PUSH3 0x4AC JUMPI RETURNDATASIZE PUSH0 DUP1 RETURNDATACOPY RETURNDATASIZE PUSH0 REVERT JUMPDEST POP POP POP POP PUSH1 0x40 MLOAD RETURNDATASIZE PUSH1 0x1F NOT PUSH1 0x1F DUP3 ADD AND DUP3 ADD DUP1 PUSH1 0x40 MSTORE POP DUP2 ADD SWAP1 PUSH3 0x4D2 SWAP2 SWAP1 PUSH3 0xA70 JUMP JUMPDEST PUSH1 0x1E PUSH1 0x40 MLOAD DUP4 PUSH4 0xFFFFFFFF AND PUSH1 0xE0 SHL DUP2 MSTORE PUSH1 0x4 ADD PUSH3 0x4F3 SWAP3 SWAP2 SWAP1 PUSH3 0xF3B JUMP JUMPDEST PUSH1 0x20 PUSH1 0x40 MLOAD DUP1 DUP4 SUB DUP2 DUP7 GAS DELEGATECALL ISZERO DUP1 ISZERO PUSH3 0x50F JUMPI RETURNDATASIZE PUSH0 DUP1 RETURNDATACOPY RETURNDATASIZE PUSH0 REVERT JUMPDEST POP POP POP POP PUSH1 0x40 MLOAD RETURNDATASIZE PUSH1 0x1F NOT PUSH1 0x1F DUP3 ADD AND DUP3 ADD DUP1 PUSH1 0x40 MSTORE POP DUP2 ADD SWAP1 PUSH3 0x535 SWAP2 SWAP1 PUSH3 0xBCA JUMP JUMPDEST POP PUSH20 0x0 PUSH4 0xF5BAE6B6 PUSH0 DUP1 SLOAD SWAP1 PUSH2 0x100 EXP SWAP1 DIV PUSH20 0xFFFFFFFFFFFFFFFFFFFFFFFFFFFFFFFFFFFFFFFF AND PUSH20 0xFFFFFFFFFFFFFFFFFFFFFFFFFFFFFFFFFFFFFFFF AND PUSH4 0xF72D0B3B PUSH1 0x4 PUSH1 0x40 MLOAD DUP3 PUSH4 0xFFFFFFFF AND PUSH1 0xE0 SHL DUP2 MSTORE PUSH1 0x4 ADD PUSH3 0x5AB SWAP2 SWAP1 PUSH3 0xFBC JUMP JUMPDEST PUSH1 0x20 PUSH1 0x40 MLOAD DUP1 DUP4 SUB DUP2 DUP7 GAS STATICCALL ISZERO DUP1 ISZERO PUSH3 0x5C7 JUMPI RETURNDATASIZE PUSH0 DUP1 RETURNDATACOPY RETURNDATASIZE PUSH0 REVERT JUMPDEST POP POP POP POP PUSH1 0x40 MLOAD RETURNDATASIZE PUSH1 0x1F NOT PUSH1 0x1F DUP3 ADD AND DUP3 ADD DUP1 PUSH1 0x40 MSTORE POP DUP2 ADD SWAP1 PUSH3 0x5ED SWAP2 SWAP1 PUSH3 0xA70 JUMP JUMPDEST PUSH32 0xFFFFFFFFFFFFFFFFFFFFFFFFFFFFFFFFFFFFFFFFFFFFFFFFFFFFFFFFFFFEB1C5 PUSH1 0x40 MLOAD DUP4 PUSH4 0xFFFFFFFF AND PUSH1 0xE0 SHL DUP2 MSTORE PUSH1 0x4 ADD PUSH3 0x62D SWAP3 SWAP2 SWAP1 PUSH3 0x108C JUMP JUMPDEST PUSH1 0x20 PUSH1 0x40 MLOAD DUP1 DUP4 SUB DUP2 DUP7 GAS DELEGATECALL ISZERO DUP1 ISZERO PUSH3 0x649 JUMPI RETURNDATASIZE PUSH0 DUP1 RETURNDATACOPY RETURNDATASIZE PUSH0 REVERT JUMPDEST POP POP POP POP PUSH1 0x40 MLOAD RETURNDATASIZE PUSH1 0x1F NOT PUSH1 0x1F DUP3 ADD AND DUP3 ADD DUP1 PUSH1 0x40 MSTORE POP DUP2 ADD SWAP1 PUSH3 0x66F SWAP2 SWAP1 PUSH3 0xBCA JUMP JUMPDEST POP JUMP JUMPDEST PUSH1 0x40 MLOAD PUSH3 0x680 SWAP1 PUSH3 0x9A9 JUMP JUMPDEST PUSH1 0x40 MLOAD DUP1 SWAP2 SUB SWAP1 PUSH0 CREATE DUP1 ISZERO DUP1 ISZERO PUSH3 0x69A JUMPI RETURNDATASIZE PUSH0 DUP1 RETURNDATACOPY RETURNDATASIZE PUSH0 REVERT JUMPDEST POP PUSH0 DUP1 PUSH2 0x100 EXP DUP2 SLOAD DUP2 PUSH20 0xFFFFFFFFFFFFFFFFFFFFFFFFFFFFFFFFFFFFFFFF MUL NOT AND SWAP1 DUP4 PUSH20 0xFFFFFFFFFFFFFFFFFFFFFFFFFFFFFFFFFFFFFFFF AND MUL OR SWAP1 SSTORE POP JUMP JUMPDEST PUSH3 0x71B PUSH1 0x40 MLOAD DUP1 PUSH1 0x40 ADD PUSH1 0x40 MSTORE DUP1 PUSH1 0x16 DUP2 MSTORE PUSH1 0x20 ADD PUSH32 0x52756E6E696E6720636865636B536574416E6447657400000000000000000000 DUP2 MSTORE POP PUSH3 0x8C3 JUMP JUMPDEST PUSH0 DUP1 SLOAD SWAP1 PUSH2 0x100 EXP SWAP1 DIV PUSH20 0xFFFFFFFFFFFFFFFFFFFFFFFFFFFFFFFFFFFFFFFF AND PUSH20 0xFFFFFFFFFFFFFFFFFFFFFFFFFFFFFFFFFFFFFFFF AND PUSH4 0x4AC56D57 PUSH0 PUSH1 0x64 PUSH1 0x40 MLOAD DUP4 PUSH4 0xFFFFFFFF AND PUSH1 0xE0 SHL DUP2 MSTORE PUSH1 0x4 ADD PUSH3 0x778 SWAP3 SWAP2 SWAP1 PUSH3 0x110D JUMP JUMPDEST PUSH0 PUSH1 0x40 MLOAD DUP1 DUP4 SUB DUP2 PUSH0 DUP8 DUP1 EXTCODESIZE ISZERO DUP1 ISZERO PUSH3 0x790 JUMPI PUSH0 DUP1 REVERT JUMPDEST POP GAS CALL ISZERO DUP1 ISZERO PUSH3 0x7A3 JUMPI RETURNDATASIZE PUSH0 DUP1 RETURNDATACOPY RETURNDATASIZE PUSH0 REVERT JUMPDEST POP POP POP POP PUSH20 0x0 PUSH4 0xF5BAE6B6 PUSH0 DUP1 SLOAD SWAP1 PUSH2 0x100 EXP SWAP1 DIV PUSH20 0xFFFFFFFFFFFFFFFFFFFFFFFFFFFFFFFFFFFFFFFF AND PUSH20 0xFFFFFFFFFFFFFFFFFFFFFFFFFFFFFFFFFFFFFFFF AND PUSH4 0xF72D0B3B PUSH0 PUSH1 0x40 MLOAD DUP3 PUSH4 0xFFFFFFFF AND PUSH1 0xE0 SHL DUP2 MSTORE PUSH1 0x4 ADD PUSH3 0x81B SWAP2 SWAP1 PUSH3 0xA19 JUMP JUMPDEST PUSH1 0x20 PUSH1 0x40 MLOAD DUP1 DUP4 SUB DUP2 DUP7 GAS STATICCALL ISZERO DUP1 ISZERO PUSH3 0x837 JUMPI RETURNDATASIZE PUSH0 DUP1 RETURNDATACOPY RETURNDATASIZE PUSH0 REVERT JUMPDEST POP POP POP POP PUSH1 0x40 MLOAD RETURNDATASIZE PUSH1 0x1F NOT PUSH1 0x1F DUP3 ADD AND DUP3 ADD DUP1 PUSH1 0x40 MSTORE POP DUP2 ADD SWAP1 PUSH3 0x85D SWAP2 SWAP1 PUSH3 0xA70 JUMP JUMPDEST PUSH1 0x64 PUSH1 0x40 MLOAD DUP4 PUSH4 0xFFFFFFFF AND PUSH1 0xE0 SHL DUP2 MSTORE PUSH1 0x4 ADD PUSH3 0x87E SWAP3 SWAP2 SWAP1 PUSH3 0x11BD JUMP JUMPDEST PUSH1 0x20 PUSH1 0x40 MLOAD DUP1 DUP4 SUB DUP2 DUP7 GAS DELEGATECALL ISZERO DUP1 ISZERO PUSH3 0x89A JUMPI RETURNDATASIZE PUSH0 DUP1 RETURNDATACOPY RETURNDATASIZE PUSH0 REVERT JUMPDEST POP POP POP POP PUSH1 0x40 MLOAD RETURNDATASIZE PUSH1 0x1F NOT PUSH1 0x1F DUP3 ADD AND DUP3 ADD DUP1 PUSH1 0x40 MSTORE POP DUP2 ADD SWAP1 PUSH3 0x8C0 SWAP2 SWAP1 PUSH3 0xBCA JUMP JUMPDEST POP JUMP JUMPDEST PUSH3 0x95D DUP2 PUSH1 0x40 MLOAD PUSH1 0x24 ADD PUSH3 0x8DA SWAP2 SWAP1 PUSH3 0x1291 JUMP JUMPDEST PUSH1 0x40 MLOAD PUSH1 0x20 DUP2 DUP4 SUB SUB DUP2 MSTORE SWAP1 PUSH1 0x40 MSTORE PUSH32 0x41304FAC00000000000000000000000000000000000000000000000000000000 PUSH28 0xFFFFFFFFFFFFFFFFFFFFFFFFFFFFFFFFFFFFFFFFFFFFFFFFFFFFFFFF NOT AND PUSH1 0x20 DUP3 ADD DUP1 MLOAD PUSH28 0xFFFFFFFFFFFFFFFFFFFFFFFFFFFFFFFFFFFFFFFFFFFFFFFFFFFFFFFF DUP4 DUP2 DUP4 AND OR DUP4 MSTORE POP POP POP POP PUSH3 0x960 JUMP JUMPDEST POP JUMP JUMPDEST PUSH3 0x97B DUP2 PUSH3 0x973 PUSH3 0x97E PUSH3 0x99D JUMP JUMPDEST PUSH4 0xFFFFFFFF AND JUMP JUMPDEST POP JUMP JUMPDEST PUSH0 PUSH11 0x636F6E736F6C652E6C6F67 SWAP1 POP PUSH0 DUP1 DUP4 MLOAD PUSH1 0x20 DUP6 ADD DUP5 GAS STATICCALL POP POP POP JUMP JUMPDEST PUSH3 0x9B7 DUP2 SWAP1 POP SWAP2 SWAP1 POP JUMP JUMPDEST PUSH2 0x407 DUP1 PUSH3 0x12E1 DUP4 CODECOPY ADD SWAP1 JUMP JUMPDEST PUSH3 0x9C1 PUSH3 0x12B3 JUMP JUMPDEST JUMP JUMPDEST PUSH0 DUP2 SWAP1 POP SWAP2 SWAP1 POP JUMP JUMPDEST PUSH0 PUSH1 0xFF DUP3 AND SWAP1 POP SWAP2 SWAP1 POP JUMP JUMPDEST PUSH0 DUP2 SWAP1 POP SWAP2 SWAP1 POP JUMP JUMPDEST PUSH0 PUSH3 0xA01 PUSH3 0x9FB PUSH3 0x9F5 DUP5 PUSH3 0x9C3 JUMP JUMPDEST PUSH3 0x9D8 JUMP JUMPDEST PUSH3 0x9CC JUMP JUMPDEST SWAP1 POP SWAP2 SWAP1 POP JUMP JUMPDEST PUSH3 0xA13 DUP2 PUSH3 0x9E1 JUMP JUMPDEST DUP3 MSTORE POP POP JUMP JUMPDEST PUSH0 PUSH1 0x20 DUP3 ADD SWAP1 POP PUSH3 0xA2E PUSH0 DUP4 ADD DUP5 PUSH3 0xA08 JUMP JUMPDEST SWAP3 SWAP2 POP POP JUMP JUMPDEST PUSH0 DUP1 REVERT JUMPDEST PUSH0 DUP2 SWAP1 POP SWAP2 SWAP1 POP JUMP JUMPDEST PUSH3 0xA4C DUP2 PUSH3 0xA38 JUMP JUMPDEST DUP2 EQ PUSH3 0xA57 JUMPI PUSH0 DUP1 REVERT JUMPDEST POP JUMP JUMPDEST PUSH0 DUP2 MLOAD SWAP1 POP PUSH3 0xA6A DUP2 PUSH3 0xA41 JUMP JUMPDEST SWAP3 SWAP2 POP POP JUMP JUMPDEST PUSH0 PUSH1 0x20 DUP3 DUP5 SUB SLT ISZERO PUSH3 0xA88 JUMPI PUSH3 0xA87 PUSH3 0xA34 JUMP JUMPDEST JUMPDEST PUSH0 PUSH3 0xA97 DUP5 DUP3 DUP6 ADD PUSH3 0xA5A JUMP JUMPDEST SWAP2 POP POP SWAP3 SWAP2 POP POP JUMP JUMPDEST PUSH3 0xAAB DUP2 PUSH3 0xA38 JUMP JUMPDEST DUP3 MSTORE POP POP JUMP JUMPDEST PUSH0 DUP2 SWAP1 POP SWAP2 SWAP1 POP JUMP JUMPDEST PUSH0 PUSH3 0xADA PUSH3 0xAD4 PUSH3 0xACE DUP5 PUSH3 0xAB1 JUMP JUMPDEST PUSH3 0x9D8 JUMP JUMPDEST PUSH3 0xA38 JUMP JUMPDEST SWAP1 POP SWAP2 SWAP1 POP JUMP JUMPDEST PUSH3 0xAEC DUP2 PUSH3 0xABA JUMP JUMPDEST DUP3 MSTORE POP POP JUMP JUMPDEST PUSH0 DUP3 DUP3 MSTORE PUSH1 0x20 DUP3 ADD SWAP1 POP SWAP3 SWAP2 POP POP JUMP JUMPDEST PUSH32 0x56616C756520617420696E64657820302073686F756C64206265203432000000 PUSH0 DUP3 ADD MSTORE POP JUMP JUMPDEST PUSH0 PUSH3 0xB38 PUSH1 0x1D DUP4 PUSH3 0xAF2 JUMP JUMPDEST SWAP2 POP PUSH3 0xB45 DUP3 PUSH3 0xB02 JUMP JUMPDEST PUSH1 0x20 DUP3 ADD SWAP1 POP SWAP2 SWAP1 POP JUMP JUMPDEST PUSH0 PUSH1 0x60 DUP3 ADD SWAP1 POP PUSH3 0xB65 PUSH0 DUP4 ADD DUP6 PUSH3 0xAA0 JUMP JUMPDEST PUSH3 0xB74 PUSH1 0x20 DUP4 ADD DUP5 PUSH3 0xAE1 JUMP JUMPDEST DUP2 DUP2 SUB PUSH1 0x40 DUP4 ADD MSTORE PUSH3 0xB87 DUP2 PUSH3 0xB2A JUMP JUMPDEST SWAP1 POP SWAP4 SWAP3 POP POP POP JUMP JUMPDEST PUSH0 DUP2 ISZERO ISZERO SWAP1 POP SWAP2 SWAP1 POP JUMP JUMPDEST PUSH3 0xBA6 DUP2 PUSH3 0xB90 JUMP JUMPDEST DUP2 EQ PUSH3 0xBB1 JUMPI PUSH0 DUP1 REVERT JUMPDEST POP JUMP JUMPDEST PUSH0 DUP2 MLOAD SWAP1 POP PUSH3 0xBC4 DUP2 PUSH3 0xB9B JUMP JUMPDEST SWAP3 SWAP2 POP POP JUMP JUMPDEST PUSH0 PUSH1 0x20 DUP3 DUP5 SUB SLT ISZERO PUSH3 0xBE2 JUMPI PUSH3 0xBE1 PUSH3 0xA34 JUMP JUMPDEST JUMPDEST PUSH0 PUSH3 0xBF1 DUP5 DUP3 DUP6 ADD PUSH3 0xBB4 JUMP JUMPDEST SWAP2 POP POP SWAP3 SWAP2 POP POP JUMP JUMPDEST PUSH0 DUP2 SWAP1 POP SWAP2 SWAP1 POP JUMP JUMPDEST PUSH0 PUSH3 0xC23 PUSH3 0xC1D PUSH3 0xC17 DUP5 PUSH3 0xBFA JUMP JUMPDEST PUSH3 0x9D8 JUMP JUMPDEST PUSH3 0x9CC JUMP JUMPDEST SWAP1 POP SWAP2 SWAP1 POP JUMP JUMPDEST PUSH3 0xC35 DUP2 PUSH3 0xC03 JUMP JUMPDEST DUP3 MSTORE POP POP JUMP JUMPDEST PUSH0 PUSH1 0x20 DUP3 ADD SWAP1 POP PUSH3 0xC50 PUSH0 DUP4 ADD DUP5 PUSH3 0xC2A JUMP JUMPDEST SWAP3 SWAP2 POP POP JUMP JUMPDEST PUSH0 DUP2 SWAP1 POP SWAP2 SWAP1 POP JUMP JUMPDEST PUSH0 PUSH3 0xC7F PUSH3 0xC79 PUSH3 0xC73 DUP5 PUSH3 0xC56 JUMP JUMPDEST PUSH3 0x9D8 JUMP JUMPDEST PUSH3 0xA38 JUMP JUMPDEST SWAP1 POP SWAP2 SWAP1 POP JUMP JUMPDEST PUSH3 0xC91 DUP2 PUSH3 0xC5F JUMP JUMPDEST DUP3 MSTORE POP POP JUMP JUMPDEST PUSH32 0x56616C756520617420696E64657820312073686F756C64206265202D38360000 PUSH0 DUP3 ADD MSTORE POP JUMP JUMPDEST PUSH0 PUSH3 0xCCD PUSH1 0x1E DUP4 PUSH3 0xAF2 JUMP JUMPDEST SWAP2 POP PUSH3 0xCDA DUP3 PUSH3 0xC97 JUMP JUMPDEST PUSH1 0x20 DUP3 ADD SWAP1 POP SWAP2 SWAP1 POP JUMP JUMPDEST PUSH0 PUSH1 0x60 DUP3 ADD SWAP1 POP PUSH3 0xCFA PUSH0 DUP4 ADD DUP6 PUSH3 0xAA0 JUMP JUMPDEST PUSH3 0xD09 PUSH1 0x20 DUP4 ADD DUP5 PUSH3 0xC86 JUMP JUMPDEST DUP2 DUP2 SUB PUSH1 0x40 DUP4 ADD MSTORE PUSH3 0xD1C DUP2 PUSH3 0xCBF JUMP JUMPDEST SWAP1 POP SWAP4 SWAP3 POP POP POP JUMP JUMPDEST PUSH0 DUP2 SWAP1 POP SWAP2 SWAP1 POP JUMP JUMPDEST PUSH0 PUSH3 0xD4E PUSH3 0xD48 PUSH3 0xD42 DUP5 PUSH3 0xD25 JUMP JUMPDEST PUSH3 0x9D8 JUMP JUMPDEST PUSH3 0x9CC JUMP JUMPDEST SWAP1 POP SWAP2 SWAP1 POP JUMP JUMPDEST PUSH3 0xD60 DUP2 PUSH3 0xD2E JUMP JUMPDEST DUP3 MSTORE POP POP JUMP JUMPDEST PUSH0 PUSH1 0x20 DUP3 ADD SWAP1 POP PUSH3 0xD7B PUSH0 DUP4 ADD DUP5 PUSH3 0xD55 JUMP JUMPDEST SWAP3 SWAP2 POP POP JUMP JUMPDEST PUSH0 DUP2 SWAP1 POP SWAP2 SWAP1 POP JUMP JUMPDEST PUSH0 PUSH3 0xDAA PUSH3 0xDA4 PUSH3 0xD9E DUP5 PUSH3 0xD81 JUMP JUMPDEST PUSH3 0x9D8 JUMP JUMPDEST PUSH3 0xA38 JUMP JUMPDEST SWAP1 POP SWAP2 SWAP1 POP JUMP JUMPDEST PUSH3 0xDBC DUP2 PUSH3 0xD8A JUMP JUMPDEST DUP3 MSTORE POP POP JUMP JUMPDEST PUSH32 0x56616C756520617420696E64657820322073686F756C64206265203639000000 PUSH0 DUP3 ADD MSTORE POP JUMP JUMPDEST PUSH0 PUSH3 0xDF8 PUSH1 0x1D DUP4 PUSH3 0xAF2 JUMP JUMPDEST SWAP2 POP PUSH3 0xE05 DUP3 PUSH3 0xDC2 JUMP JUMPDEST PUSH1 0x20 DUP3 ADD SWAP1 POP SWAP2 SWAP1 POP JUMP JUMPDEST PUSH0 PUSH1 0x60 DUP3 ADD SWAP1 POP PUSH3 0xE25 PUSH0 DUP4 ADD DUP6 PUSH3 0xAA0 JUMP JUMPDEST PUSH3 0xE34 PUSH1 0x20 DUP4 ADD DUP5 PUSH3 0xDB1 JUMP JUMPDEST DUP2 DUP2 SUB PUSH1 0x40 DUP4 ADD MSTORE PUSH3 0xE47 DUP2 PUSH3 0xDEA JUMP JUMPDEST SWAP1 POP SWAP4 SWAP3 POP POP POP JUMP JUMPDEST PUSH0 DUP2 SWAP1 POP SWAP2 SWAP1 POP JUMP JUMPDEST PUSH0 PUSH3 0xE79 PUSH3 0xE73 PUSH3 0xE6D DUP5 PUSH3 0xE50 JUMP JUMPDEST PUSH3 0x9D8 JUMP JUMPDEST PUSH3 0x9CC JUMP JUMPDEST SWAP1 POP SWAP2 SWAP1 POP JUMP JUMPDEST PUSH3 0xE8B DUP2 PUSH3 0xE59 JUMP JUMPDEST DUP3 MSTORE POP POP JUMP JUMPDEST PUSH0 PUSH1 0x20 DUP3 ADD SWAP1 POP PUSH3 0xEA6 PUSH0 DUP4 ADD DUP5 PUSH3 0xE80 JUMP JUMPDEST SWAP3 SWAP2 POP POP JUMP JUMPDEST PUSH0 DUP2 SWAP1 POP SWAP2 SWAP1 POP JUMP JUMPDEST PUSH0 PUSH3 0xED5 PUSH3 0xECF PUSH3 0xEC9 DUP5 PUSH3 0xEAC JUMP JUMPDEST PUSH3 0x9D8 JUMP JUMPDEST PUSH3 0xA38 JUMP JUMPDEST SWAP1 POP SWAP2 SWAP1 POP JUMP JUMPDEST PUSH3 0xEE7 DUP2 PUSH3 0xEB5 JUMP JUMPDEST DUP3 MSTORE POP POP JUMP JUMPDEST PUSH32 0x56616C756520617420696E64657820332073686F756C64206265203330000000 PUSH0 DUP3 ADD MSTORE POP JUMP JUMPDEST PUSH0 PUSH3 0xF23 PUSH1 0x1D DUP4 PUSH3 0xAF2 JUMP JUMPDEST SWAP2 POP PUSH3 0xF30 DUP3 PUSH3 0xEED JUMP JUMPDEST PUSH1 0x20 DUP3 ADD SWAP1 POP SWAP2 SWAP1 POP JUMP JUMPDEST PUSH0 PUSH1 0x60 DUP3 ADD SWAP1 POP PUSH3 0xF50 PUSH0 DUP4 ADD DUP6 PUSH3 0xAA0 JUMP JUMPDEST PUSH3 0xF5F PUSH1 0x20 DUP4 ADD DUP5 PUSH3 0xEDC JUMP JUMPDEST DUP2 DUP2 SUB PUSH1 0x40 DUP4 ADD MSTORE PUSH3 0xF72 DUP2 PUSH3 0xF15 JUMP JUMPDEST SWAP1 POP SWAP4 SWAP3 POP POP POP JUMP JUMPDEST PUSH0 DUP2 SWAP1 POP SWAP2 SWAP1 POP JUMP JUMPDEST PUSH0 PUSH3 0xFA4 PUSH3 0xF9E PUSH3 0xF98 DUP5 PUSH3 0xF7B JUMP JUMPDEST PUSH3 0x9D8 JUMP JUMPDEST PUSH3 0x9CC JUMP JUMPDEST SWAP1 POP SWAP2 SWAP1 POP JUMP JUMPDEST PUSH3 0xFB6 DUP2 PUSH3 0xF84 JUMP JUMPDEST DUP3 MSTORE POP POP JUMP JUMPDEST PUSH0 PUSH1 0x20 DUP3 ADD SWAP1 POP PUSH3 0xFD1 PUSH0 DUP4 ADD DUP5 PUSH3 0xFAB JUMP JUMPDEST SWAP3 SWAP2 POP POP JUMP JUMPDEST PUSH0 DUP2 SWAP1 POP SWAP2 SWAP1 POP JUMP JUMPDEST PUSH0 PUSH3 0x1000 PUSH3 0xFFA PUSH3 0xFF4 DUP5 PUSH3 0xFD7 JUMP JUMPDEST PUSH3 0x9D8 JUMP JUMPDEST PUSH3 0xA38 JUMP JUMPDEST SWAP1 POP SWAP2 SWAP1 POP JUMP JUMPDEST PUSH3 0x1012 DUP2 PUSH3 0xFE0 JUMP JUMPDEST DUP3 MSTORE POP POP JUMP JUMPDEST PUSH32 0x56616C756520617420696E64657820342073686F756C64206265202D38353536 PUSH0 DUP3 ADD MSTORE PUSH32 0x3300000000000000000000000000000000000000000000000000000000000000 PUSH1 0x20 DUP3 ADD MSTORE POP JUMP JUMPDEST PUSH0 PUSH3 0x1074 PUSH1 0x21 DUP4 PUSH3 0xAF2 JUMP JUMPDEST SWAP2 POP PUSH3 0x1081 DUP3 PUSH3 0x1018 JUMP JUMPDEST PUSH1 0x40 DUP3 ADD SWAP1 POP SWAP2 SWAP1 POP JUMP JUMPDEST PUSH0 PUSH1 0x60 DUP3 ADD SWAP1 POP PUSH3 0x10A1 PUSH0 DUP4 ADD DUP6 PUSH3 0xAA0 JUMP JUMPDEST PUSH3 0x10B0 PUSH1 0x20 DUP4 ADD DUP5 PUSH3 0x1007 JUMP JUMPDEST DUP2 DUP2 SUB PUSH1 0x40 DUP4 ADD MSTORE PUSH3 0x10C3 DUP2 PUSH3 0x1066 JUMP JUMPDEST SWAP1 POP SWAP4 SWAP3 POP POP POP JUMP JUMPDEST PUSH0 DUP2 SWAP1 POP SWAP2 SWAP1 POP JUMP JUMPDEST PUSH0 PUSH3 0x10F5 PUSH3 0x10EF PUSH3 0x10E9 DUP5 PUSH3 0x10CC JUMP JUMPDEST PUSH3 0x9D8 JUMP JUMPDEST PUSH3 0xA38 JUMP JUMPDEST SWAP1 POP SWAP2 SWAP1 POP JUMP JUMPDEST PUSH3 0x1107 DUP2 PUSH3 0x10D5 JUMP JUMPDEST DUP3 MSTORE POP POP JUMP JUMPDEST PUSH0 PUSH1 0x40 DUP3 ADD SWAP1 POP PUSH3 0x1122 PUSH0 DUP4 ADD DUP6 PUSH3 0xA08 JUMP JUMPDEST PUSH3 0x1131 PUSH1 0x20 DUP4 ADD DUP5 PUSH3 0x10FC JUMP JUMPDEST SWAP4 SWAP3 POP POP POP JUMP JUMPDEST PUSH3 0x1143 DUP2 PUSH3 0x10D5 JUMP JUMPDEST DUP3 MSTORE POP POP JUMP JUMPDEST PUSH32 0x56616C756520617420696E64657820302073686F756C64206265203130302061 PUSH0 DUP3 ADD MSTORE PUSH32 0x6674657220736574000000000000000000000000000000000000000000000000 PUSH1 0x20 DUP3 ADD MSTORE POP JUMP JUMPDEST PUSH0 PUSH3 0x11A5 PUSH1 0x28 DUP4 PUSH3 0xAF2 JUMP JUMPDEST SWAP2 POP PUSH3 0x11B2 DUP3 PUSH3 0x1149 JUMP JUMPDEST PUSH1 0x40 DUP3 ADD SWAP1 POP SWAP2 SWAP1 POP JUMP JUMPDEST PUSH0 PUSH1 0x60 DUP3 ADD SWAP1 POP PUSH3 0x11D2 PUSH0 DUP4 ADD DUP6 PUSH3 0xAA0 JUMP JUMPDEST PUSH3 0x11E1 PUSH1 0x20 DUP4 ADD DUP5 PUSH3 0x1138 JUMP JUMPDEST DUP2 DUP2 SUB PUSH1 0x40 DUP4 ADD MSTORE PUSH3 0x11F4 DUP2 PUSH3 0x1197 JUMP JUMPDEST SWAP1 POP SWAP4 SWAP3 POP POP POP JUMP JUMPDEST PUSH0 DUP2 MLOAD SWAP1 POP SWAP2 SWAP1 POP JUMP JUMPDEST PUSH0 DUP3 DUP3 MSTORE PUSH1 0x20 DUP3 ADD SWAP1 POP SWAP3 SWAP2 POP POP JUMP JUMPDEST PUSH0 JUMPDEST DUP4 DUP2 LT ISZERO PUSH3 0x1236 JUMPI DUP1 DUP3 ADD MLOAD DUP2 DUP5 ADD MSTORE PUSH1 0x20 DUP2 ADD SWAP1 POP PUSH3 0x1219 JUMP JUMPDEST PUSH0 DUP5 DUP5 ADD MSTORE POP POP POP POP JUMP JUMPDEST PUSH0 PUSH1 0x1F NOT PUSH1 0x1F DUP4 ADD AND SWAP1 POP SWAP2 SWAP1 POP JUMP JUMPDEST PUSH0 PUSH3 0x125D DUP3 PUSH3 0x11FD JUMP JUMPDEST PUSH3 0x1269 DUP2 DUP6 PUSH3 0x1207 JUMP JUMPDEST SWAP4 POP PUSH3 0x127B DUP2 DUP6 PUSH1 0x20 DUP7 ADD PUSH3 0x1217 JUMP JUMPDEST PUSH3 0x1286 DUP2 PUSH3 0x1241 JUMP JUMPDEST DUP5 ADD SWAP2 POP POP SWAP3 SWAP2 POP POP JUMP JUMPDEST PUSH0 PUSH1 0x20 DUP3 ADD SWAP1 POP DUP2 DUP2 SUB PUSH0 DUP4 ADD MSTORE PUSH3 0x12AB DUP2 DUP5 PUSH3 0x1251 JUMP JUMPDEST SWAP1 POP SWAP3 SWAP2 POP POP JUMP JUMPDEST PUSH32 0x4E487B7100000000000000000000000000000000000000000000000000000000 PUSH0 MSTORE PUSH1 0x51 PUSH1 0x4 MSTORE PUSH1 0x24 PUSH0 REVERT INVALID PUSH1 0x80 PUSH1 0x40 MSTORE CALLVALUE DUP1 ISZERO PUSH2 0xF JUMPI PUSH0 DUP1 REVERT JUMPDEST POP PUSH1 0x2A PUSH0 DUP1 PUSH1 0xA DUP2 LT PUSH2 0x25 JUMPI PUSH2 0x24 PUSH2 0xD9 JUMP JUMPDEST JUMPDEST ADD DUP2 SWAP1 SSTORE POP PUSH32 0xFFFFFFFFFFFFFFFFFFFFFFFFFFFFFFFFFFFFFFFFFFFFFFFFFFFFFFFFFFFFFFAA PUSH0 PUSH1 0x1 PUSH1 0xA DUP2 LT PUSH2 0x5F JUMPI PUSH2 0x5E PUSH2 0xD9 JUMP JUMPDEST JUMPDEST ADD DUP2 SWAP1 SSTORE POP PUSH1 0x45 PUSH0 PUSH1 0x2 PUSH1 0xA DUP2 LT PUSH2 0x7A JUMPI PUSH2 0x79 PUSH2 0xD9 JUMP JUMPDEST JUMPDEST ADD DUP2 SWAP1 SSTORE POP PUSH1 0x1E PUSH0 PUSH1 0x3 PUSH1 0xA DUP2 LT PUSH2 0x95 JUMPI PUSH2 0x94 PUSH2 0xD9 JUMP JUMPDEST JUMPDEST ADD DUP2 SWAP1 SSTORE POP PUSH32 0xFFFFFFFFFFFFFFFFFFFFFFFFFFFFFFFFFFFFFFFFFFFFFFFFFFFFFFFFFFFEB1C5 PUSH0 PUSH1 0x4 PUSH1 0xA DUP2 LT PUSH2 0xCF JUMPI PUSH2 0xCE PUSH2 0xD9 JUMP JUMPDEST JUMPDEST ADD DUP2 SWAP1 SSTORE POP PUSH2 0x106 JUMP JUMPDEST PUSH32 0x4E487B7100000000000000000000000000000000000000000000000000000000 PUSH0 MSTORE PUSH1 0x32 PUSH1 0x4 MSTORE PUSH1 0x24 PUSH0 REVERT JUMPDEST PUSH2 0x2F4 DUP1 PUSH2 0x113 PUSH0 CODECOPY PUSH0 RETURN INVALID PUSH1 0x80 PUSH1 0x40 MSTORE CALLVALUE DUP1 ISZERO PUSH2 0xF JUMPI PUSH0 DUP1 REVERT JUMPDEST POP PUSH1 0x4 CALLDATASIZE LT PUSH2 0x3F JUMPI PUSH0 CALLDATALOAD PUSH1 0xE0 SHR DUP1 PUSH4 0x4AC56D57 EQ PUSH2 0x43 JUMPI DUP1 PUSH4 0xCC3E57D9 EQ PUSH2 0x5F JUMPI DUP1 PUSH4 0xF72D0B3B EQ PUSH2 0x8F JUMPI JUMPDEST PUSH0 DUP1 REVERT JUMPDEST PUSH2 0x5D PUSH1 0x4 DUP1 CALLDATASIZE SUB DUP2 ADD SWAP1 PUSH2 0x58 SWAP2 SWAP1 PUSH2 0x1A2 JUMP JUMPDEST PUSH2 0xBF JUMP JUMPDEST STOP JUMPDEST PUSH2 0x79 PUSH1 0x4 DUP1 CALLDATASIZE SUB DUP2 ADD SWAP1 PUSH2 0x74 SWAP2 SWAP1 PUSH2 0x213 JUMP JUMPDEST PUSH2 0xEE JUMP JUMPDEST PUSH1 0x40 MLOAD PUSH2 0x86 SWAP2 SWAP1 PUSH2 0x24D JUMP JUMPDEST PUSH1 0x40 MLOAD DUP1 SWAP2 SUB SWAP1 RETURN JUMPDEST PUSH2 0xA9 PUSH1 0x4 DUP1 CALLDATASIZE SUB DUP2 ADD SWAP1 PUSH2 0xA4 SWAP2 SWAP1 PUSH2 0x266 JUMP JUMPDEST PUSH2 0x106 JUMP JUMPDEST PUSH1 0x40 MLOAD PUSH2 0xB6 SWAP2 SWAP1 PUSH2 0x24D JUMP JUMPDEST PUSH1 0x40 MLOAD DUP1 SWAP2 SUB SWAP1 RETURN JUMPDEST PUSH1 0xA DUP3 PUSH1 0xFF AND LT PUSH2 0xCE JUMPI PUSH0 DUP1 REVERT JUMPDEST DUP1 PUSH0 DUP4 PUSH1 0xFF AND PUSH1 0xA DUP2 LT PUSH2 0xE5 JUMPI PUSH2 0xE4 PUSH2 0x291 JUMP JUMPDEST JUMPDEST ADD DUP2 SWAP1 SSTORE POP POP POP JUMP JUMPDEST PUSH0 DUP2 PUSH1 0xA DUP2 LT PUSH2 0xFC JUMPI PUSH0 DUP1 REVERT JUMPDEST ADD PUSH0 SWAP2 POP SWAP1 POP SLOAD DUP2 JUMP JUMPDEST PUSH0 PUSH1 0xA DUP3 PUSH1 0xFF AND LT PUSH2 0x116 JUMPI PUSH0 DUP1 REVERT JUMPDEST PUSH0 DUP3 PUSH1 0xFF AND PUSH1 0xA DUP2 LT PUSH2 0x12C JUMPI PUSH2 0x12B PUSH2 0x291 JUMP JUMPDEST JUMPDEST ADD SLOAD SWAP1 POP SWAP2 SWAP1 POP JUMP JUMPDEST PUSH0 DUP1 REVERT JUMPDEST PUSH0 PUSH1 0xFF DUP3 AND SWAP1 POP SWAP2 SWAP1 POP JUMP JUMPDEST PUSH2 0x14E DUP2 PUSH2 0x139 JUMP JUMPDEST DUP2 EQ PUSH2 0x158 JUMPI PUSH0 DUP1 REVERT JUMPDEST POP JUMP JUMPDEST PUSH0 DUP2 CALLDATALOAD SWAP1 POP PUSH2 0x169 DUP2 PUSH2 0x145 JUMP JUMPDEST SWAP3 SWAP2 POP POP JUMP JUMPDEST PUSH0 DUP2 SWAP1 POP SWAP2 SWAP1 POP JUMP JUMPDEST PUSH2 0x181 DUP2 PUSH2 0x16F JUMP JUMPDEST DUP2 EQ PUSH2 0x18B JUMPI PUSH0 DUP1 REVERT JUMPDEST POP JUMP JUMPDEST PUSH0 DUP2 CALLDATALOAD SWAP1 POP PUSH2 0x19C DUP2 PUSH2 0x178 JUMP JUMPDEST SWAP3 SWAP2 POP POP JUMP JUMPDEST PUSH0 DUP1 PUSH1 0x40 DUP4 DUP6 SUB SLT ISZERO PUSH2 0x1B8 JUMPI PUSH2 0x1B7 PUSH2 0x135 JUMP JUMPDEST JUMPDEST PUSH0 PUSH2 0x1C5 DUP6 DUP3 DUP7 ADD PUSH2 0x15B JUMP JUMPDEST SWAP3 POP POP PUSH1 0x20 PUSH2 0x1D6 DUP6 DUP3 DUP7 ADD PUSH2 0x18E JUMP JUMPDEST SWAP2 POP POP SWAP3 POP SWAP3 SWAP1 POP JUMP JUMPDEST PUSH0 DUP2 SWAP1 POP SWAP2 SWAP1 POP JUMP JUMPDEST PUSH2 0x1F2 DUP2 PUSH2 0x1E0 JUMP JUMPDEST DUP2 EQ PUSH2 0x1FC JUMPI PUSH0 DUP1 REVERT JUMPDEST POP JUMP JUMPDEST PUSH0 DUP2 CALLDATALOAD SWAP1 POP PUSH2 0x20D DUP2 PUSH2 0x1E9 JUMP JUMPDEST SWAP3 SWAP2 POP POP JUMP JUMPDEST PUSH0 PUSH1 0x20 DUP3 DUP5 SUB SLT ISZERO PUSH2 0x228 JUMPI PUSH2 0x227 PUSH2 0x135 JUMP JUMPDEST JUMPDEST PUSH0 PUSH2 0x235 DUP5 DUP3 DUP6 ADD PUSH2 0x1FF JUMP JUMPDEST SWAP2 POP POP SWAP3 SWAP2 POP POP JUMP JUMPDEST PUSH2 0x247 DUP2 PUSH2 0x16F JUMP JUMPDEST DUP3 MSTORE POP POP JUMP JUMPDEST PUSH0 PUSH1 0x20 DUP3 ADD SWAP1 POP PUSH2 0x260 PUSH0 DUP4 ADD DUP5 PUSH2 0x23E JUMP JUMPDEST SWAP3 SWAP2 POP POP JUMP JUMPDEST PUSH0 PUSH1 0x20 DUP3 DUP5 SUB SLT ISZERO PUSH2 0x27B JUMPI PUSH2 0x27A PUSH2 0x135 JUMP JUMPDEST JUMPDEST PUSH0 PUSH2 0x288 DUP5 DUP3 DUP6 ADD PUSH2 0x15B JUMP JUMPDEST SWAP2 POP POP SWAP3 SWAP2 POP POP JUMP JUMPDEST PUSH32 0x4E487B7100000000000000000000000000000000000000000000000000000000 PUSH0 MSTORE PUSH1 0x32 PUSH1 0x4 MSTORE PUSH1 0x24 PUSH0 REVERT INVALID LOG2 PUSH5 0x6970667358 0x22 SLT KECCAK256 0x4F PUSH12 0x4ACEC192F6AC23E4EC32EAB2 0xAD EQ 0xCC PUSH12 0xB5006A41C556E987BB3EC4FC 0xF6 CALL PUSH5 0x736F6C6343 STOP ADDMOD AND STOP CALLER LOG2 PUSH5 0x6970667358 0x22 SLT KECCAK256 0xF POP SUB 0x2F 0xA5 0xBB PUSH14 0xEE22E645AC3FB362E4F27DD028D5 0xB7 0x1F CALLVALUE TIMESTAMP PC 0xDB SUB 0xB8 SELFBALANCE SWAP5 0xEF PUSH5 0x736F6C6343 STOP ADDMOD AND STOP CALLER "
		},
		"gasEstimates": {
			"creation": {
				"codeDepositCost": "1183400",
				"executionCost": "1225",
				"totalCost": "1184625"
			},
			"external": {
				"beforeAll()": "infinite",
				"checkInitialValues()": "infinite",
				"checkSetAndGet()": "infinite"
			}
		},
		"methodIdentifiers": {
			"beforeAll()": "7fea0d4b",
			"checkInitialValues()": "2e62bdb7",
			"checkSetAndGet()": "862fcc80"
		}
	},
	"abi": [
		{
			"inputs": [],
			"name": "beforeAll",
			"outputs": [],
			"stateMutability": "nonpayable",
			"type": "function"
		},
		{
			"inputs": [],
			"name": "checkInitialValues",
			"outputs": [],
			"stateMutability": "nonpayable",
			"type": "function"
		},
		{
			"inputs": [],
			"name": "checkSetAndGet",
			"outputs": [],
			"stateMutability": "nonpayable",
			"type": "function"
		}
	]
}