{
	"data": {
		"bytecode": {
			"linkReferences": {},
			"object": "608060405260405180608001604052806040518060400160405280600581526020017f706570736900000000000000000000000000000000000000000000000000000081525081526020016040518060400160405280600981526020017f636f63612d636f6c61000000000000000000000000000000000000000000000081525081526020016040518060400160405280600581526020017f66616e746100000000000000000000000000000000000000000000000000000081525081526020016040518060400160405280600781526020017f696365207465610000000000000000000000000000000000000000000000000081525081525060039060046200010b929190620001c1565b5034801562000118575f80fd5b50335f806101000a81548173ffffffffffffffffffffffffffffffffffffffff021916908373ffffffffffffffffffffffffffffffffffffffff1602179055505f5b600380549050811015620001ba576064600160038381548110620001835762000182620002a6565b5b905f5260205f20016040516200019a9190620003dc565b90815260200160405180910390208190555080806001019150506200015a565b50620006c9565b828054828255905f5260205f209081019282156200020c579160200282015b828111156200020b578251829081620001fa9190620005e5565b5091602001919060010190620001e0565b5b5090506200021b91906200021f565b5090565b5b8082111562000242575f818162000238919062000246565b5060010162000220565b5090565b508054620002549062000300565b5f825580601f1062000267575062000286565b601f0160209004905f5260205f209081019062000285919062000289565b5b50565b5b80821115620002a2575f815f9055506001016200028a565b5090565b7f4e487b71000000000000000000000000000000000000000000000000000000005f52603260045260245ffd5b7f4e487b71000000000000000000000000000000000000000000000000000000005f52602260045260245ffd5b5f60028204905060018216806200031857607f821691505b6020821081036200032e576200032d620002d3565b5b50919050565b5f81905092915050565b5f819050815f5260205f209050919050565b5f81546200035e8162000300565b6200036a818662000334565b9450600182165f81146200038757600181146200039d57620003d3565b60ff1983168652811515820286019350620003d3565b620003a8856200033e565b5f5b83811015620003cb57815481890152600182019150602081019050620003aa565b838801955050505b50505092915050565b5f620003e9828462000350565b915081905092915050565b5f81519050919050565b7f4e487b71000000000000000000000000000000000000000000000000000000005f52604160045260245ffd5b5f6020601f8301049050919050565b5f82821b905092915050565b5f60088302620004777fffffffffffffffffffffffffffffffffffffffffffffffffffffffffffffffff826200043a565b6200048386836200043a565b95508019841693508086168417925050509392505050565b5f819050919050565b5f819050919050565b5f620004cd620004c7620004c1846200049b565b620004a4565b6200049b565b9050919050565b5f819050919050565b620004e883620004ad565b62000500620004f782620004d4565b84845462000446565b825550505050565b5f90565b6200051662000508565b62000523818484620004dd565b505050565b5b818110156200054a576200053e5f826200050c565b60018101905062000529565b5050565b601f821115620005995762000563816200033e565b6200056e846200042b565b810160208510156200057e578190505b620005966200058d856200042b565b83018262000528565b50505b505050565b5f82821c905092915050565b5f620005bb5f19846008026200059e565b1980831691505092915050565b5f620005d58383620005aa565b9150826002028217905092915050565b620005f082620003f4565b67ffffffffffffffff8111156200060c576200060b620003fe565b5b62000618825462000300565b620006258282856200054e565b5f60209050601f8311600181146200065b575f841562000646578287015190505b620006528582620005c8565b865550620006c1565b601f1984166200066b866200033e565b5f5b8281101562000694578489015182556001820191506020850194506020810190506200066d565b86831015620006b45784890151620006b0601f891682620005aa565b8355505b6001600288020188555050505b505050505050565b610c4880620006d75f395ff3fe60806040526004361061006f575f3560e01c80638da5cb5b1161004d5780638da5cb5b14610113578063aa38e38c1461013d578063bfb231d214610159578063d0618e26146101955761006f565b806338ec1d021461007357806371ae97a4146100af5780637e1b3117146100d7575b5f80fd5b34801561007e575f80fd5b5061009960048036038101906100949190610696565b6101d1565b6040516100a691906106f5565b60405180910390f35b3480156100ba575f80fd5b506100d560048036038101906100d09190610738565b6101f8565b005b3480156100e2575f80fd5b506100fd60048036038101906100f891906107ec565b6102bd565b60405161010a91906106f5565b60405180910390f35b34801561011e575f80fd5b506101276102f5565b6040516101349190610855565b60405180910390f35b61015760048036038101906101529190610738565b610318565b005b348015610164575f80fd5b5061017f600480360381019061017a919061086e565b610476565b60405161018c9190610913565b60405180910390f35b3480156101a0575f80fd5b506101bb60048036038101906101b69190610696565b61051c565b6040516101c891906106f5565b60405180910390f35b5f6001826040516101e2919061096d565b9081526020016040518091039020549050919050565b5f8054906101000a900473ffffffffffffffffffffffffffffffffffffffff1673ffffffffffffffffffffffffffffffffffffffff163373ffffffffffffffffffffffffffffffffffffffff1614610285576040517f08c379a000000000000000000000000000000000000000000000000000000000815260040161027c906109cd565b60405180910390fd5b80600183604051610296919061096d565b90815260200160405180910390205f8282546102b29190610a18565b925050819055505050565b6002602052815f5260405f20818051602081018201805184825260208301602085012081835280955050505050505f91509150505481565b5f8054906101000a900473ffffffffffffffffffffffffffffffffffffffff1681565b670de0b6b3a76400008161032c9190610a4b565b34101561036e576040517f08c379a000000000000000000000000000000000000000000000000000000000815260040161036590610ad6565b60405180910390fd5b8060018360405161037f919061096d565b90815260200160405180910390205410156103cf576040517f08c379a00000000000000000000000000000000000000000000000000000000081526004016103c690610b64565b60405180910390fd5b806001836040516103e0919061096d565b90815260200160405180910390205f8282546103fc9190610b82565b925050819055508060025f3373ffffffffffffffffffffffffffffffffffffffff1673ffffffffffffffffffffffffffffffffffffffff1681526020019081526020015f208360405161044f919061096d565b90815260200160405180910390205f82825461046b9190610a18565b925050819055505050565b60038181548110610485575f80fd5b905f5260205f20015f91509050805461049d90610be2565b80601f01602080910402602001604051908101604052809291908181526020018280546104c990610be2565b80156105145780601f106104eb57610100808354040283529160200191610514565b820191905f5260205f20905b8154815290600101906020018083116104f757829003601f168201915b505050505081565b6001818051602081018201805184825260208301602085012081835280955050505050505f915090505481565b5f604051905090565b5f80fd5b5f80fd5b5f80fd5b5f80fd5b5f601f19601f8301169050919050565b7f4e487b71000000000000000000000000000000000000000000000000000000005f52604160045260245ffd5b6105a882610562565b810181811067ffffffffffffffff821117156105c7576105c6610572565b5b80604052505050565b5f6105d9610549565b90506105e5828261059f565b919050565b5f67ffffffffffffffff82111561060457610603610572565b5b61060d82610562565b9050602081019050919050565b828183375f83830152505050565b5f61063a610635846105ea565b6105d0565b9050828152602081018484840111156106565761065561055e565b5b61066184828561061a565b509392505050565b5f82601f83011261067d5761067c61055a565b5b813561068d848260208601610628565b91505092915050565b5f602082840312156106ab576106aa610552565b5b5f82013567ffffffffffffffff8111156106c8576106c7610556565b5b6106d484828501610669565b91505092915050565b5f819050919050565b6106ef816106dd565b82525050565b5f6020820190506107085f8301846106e6565b92915050565b610717816106dd565b8114610721575f80fd5b50565b5f813590506107328161070e565b92915050565b5f806040838503121561074e5761074d610552565b5b5f83013567ffffffffffffffff81111561076b5761076a610556565b5b61077785828601610669565b925050602061078885828601610724565b9150509250929050565b5f73ffffffffffffffffffffffffffffffffffffffff82169050919050565b5f6107bb82610792565b9050919050565b6107cb816107b1565b81146107d5575f80fd5b50565b5f813590506107e6816107c2565b92915050565b5f806040838503121561080257610801610552565b5b5f61080f858286016107d8565b925050602083013567ffffffffffffffff8111156108305761082f610556565b5b61083c85828601610669565b9150509250929050565b61084f816107b1565b82525050565b5f6020820190506108685f830184610846565b92915050565b5f6020828403121561088357610882610552565b5b5f61089084828501610724565b91505092915050565b5f81519050919050565b5f82825260208201905092915050565b5f5b838110156108d05780820151818401526020810190506108b5565b5f8484015250505050565b5f6108e582610899565b6108ef81856108a3565b93506108ff8185602086016108b3565b61090881610562565b840191505092915050565b5f6020820190508181035f83015261092b81846108db565b905092915050565b5f81905092915050565b5f61094782610899565b6109518185610933565b93506109618185602086016108b3565b80840191505092915050565b5f610978828461093d565b915081905092915050565b7f4f6e6c7920746865206f776e65722063616e20726573746f636b2e00000000005f82015250565b5f6109b7601b836108a3565b91506109c282610983565b602082019050919050565b5f6020820190508181035f8301526109e4816109ab565b9050919050565b7f4e487b71000000000000000000000000000000000000000000000000000000005f52601160045260245ffd5b5f610a22826106dd565b9150610a2d836106dd565b9250828201905080821115610a4557610a446109eb565b5b92915050565b5f610a55826106dd565b9150610a60836106dd565b9250828202610a6e816106dd565b91508282048414831517610a8557610a846109eb565b5b5092915050565b7f596f75206d75737420706179206174206c6561737420312045544800000000005f82015250565b5f610ac0601b836108a3565b9150610acb82610a8c565b602082019050919050565b5f6020820190508181035f830152610aed81610ab4565b9050919050565b7f4e6f7420656e6f75676820696e2073746f636b20746f20636f6d706c657465205f8201527f7468697320707572636861736500000000000000000000000000000000000000602082015250565b5f610b4e602d836108a3565b9150610b5982610af4565b604082019050919050565b5f6020820190508181035f830152610b7b81610b42565b9050919050565b5f610b8c826106dd565b9150610b97836106dd565b9250828203905081811115610baf57610bae6109eb565b5b92915050565b7f4e487b71000000000000000000000000000000000000000000000000000000005f52602260045260245ffd5b5f6002820490506001821680610bf957607f821691505b602082108103610c0c57610c0b610bb5565b5b5091905056fea2646970667358221220f091ab200719bb2ca197dceb22c6b7619382b238665a999b5e61ad279b10776364736f6c63430008160033",
			"opcodes": "PUSH1 0x80 PUSH1 0x40 MSTORE PUSH1 0x40 MLOAD DUP1 PUSH1 0x80 ADD PUSH1 0x40 MSTORE DUP1 PUSH1 0x40 MLOAD DUP1 PUSH1 0x40 ADD PUSH1 0x40 MSTORE DUP1 PUSH1 0x5 DUP2 MSTORE PUSH1 0x20 ADD PUSH32 0x7065707369000000000000000000000000000000000000000000000000000000 DUP2 MSTORE POP DUP2 MSTORE PUSH1 0x20 ADD PUSH1 0x40 MLOAD DUP1 PUSH1 0x40 ADD PUSH1 0x40 MSTORE DUP1 PUSH1 0x9 DUP2 MSTORE PUSH1 0x20 ADD PUSH32 0x636F63612D636F6C610000000000000000000000000000000000000000000000 DUP2 MSTORE POP DUP2 MSTORE PUSH1 0x20 ADD PUSH1 0x40 MLOAD DUP1 PUSH1 0x40 ADD PUSH1 0x40 MSTORE DUP1 PUSH1 0x5 DUP2 MSTORE PUSH1 0x20 ADD PUSH32 0x66616E7461000000000000000000000000000000000000000000000000000000 DUP2 MSTORE POP DUP2 MSTORE PUSH1 0x20 ADD PUSH1 0x40 MLOAD DUP1 PUSH1 0x40 ADD PUSH1 0x40 MSTORE DUP1 PUSH1 0x7 DUP2 MSTORE PUSH1 0x20 ADD PUSH32 0x6963652074656100000000000000000000000000000000000000000000000000 DUP2 MSTORE POP DUP2 MSTORE POP PUSH1 0x3 SWAP1 PUSH1 0x4 PUSH3 0x10B SWAP3 SWAP2 SWAP1 PUSH3 0x1C1 JUMP JUMPDEST POP CALLVALUE DUP1 ISZERO PUSH3 0x118 JUMPI PUSH0 DUP1 REVERT JUMPDEST POP CALLER PUSH0 DUP1 PUSH2 0x100 EXP DUP2 SLOAD DUP2 PUSH20 0xFFFFFFFFFFFFFFFFFFFFFFFFFFFFFFFFFFFFFFFF MUL NOT AND SWAP1 DUP4 PUSH20 0xFFFFFFFFFFFFFFFFFFFFFFFFFFFFFFFFFFFFFFFF AND MUL OR SWAP1 SSTORE POP PUSH0 JUMPDEST PUSH1 0x3 DUP1 SLOAD SWAP1 POP DUP2 LT ISZERO PUSH3 0x1BA JUMPI PUSH1 0x64 PUSH1 0x1 PUSH1 0x3 DUP4 DUP2 SLOAD DUP2 LT PUSH3 0x183 JUMPI PUSH3 0x182 PUSH3 0x2A6 JUMP JUMPDEST JUMPDEST SWAP1 PUSH0 MSTORE PUSH1 0x20 PUSH0 KECCAK256 ADD PUSH1 0x40 MLOAD PUSH3 0x19A SWAP2 SWAP1 PUSH3 0x3DC JUMP JUMPDEST SWAP1 DUP2 MSTORE PUSH1 0x20 ADD PUSH1 0x40 MLOAD DUP1 SWAP2 SUB SWAP1 KECCAK256 DUP2 SWAP1 SSTORE POP DUP1 DUP1 PUSH1 0x1 ADD SWAP2 POP POP PUSH3 0x15A JUMP JUMPDEST POP PUSH3 0x6C9 JUMP JUMPDEST DUP3 DUP1 SLOAD DUP3 DUP3 SSTORE SWAP1 PUSH0 MSTORE PUSH1 0x20 PUSH0 KECCAK256 SWAP1 DUP2 ADD SWAP3 DUP3 ISZERO PUSH3 0x20C JUMPI SWAP2 PUSH1 0x20 MUL DUP3 ADD JUMPDEST DUP3 DUP2 GT ISZERO PUSH3 0x20B JUMPI DUP3 MLOAD DUP3 SWAP1 DUP2 PUSH3 0x1FA SWAP2 SWAP1 PUSH3 0x5E5 JUMP JUMPDEST POP SWAP2 PUSH1 0x20 ADD SWAP2 SWAP1 PUSH1 0x1 ADD SWAP1 PUSH3 0x1E0 JUMP JUMPDEST JUMPDEST POP SWAP1 POP PUSH3 0x21B SWAP2 SWAP1 PUSH3 0x21F JUMP JUMPDEST POP SWAP1 JUMP JUMPDEST JUMPDEST DUP1 DUP3 GT ISZERO PUSH3 0x242 JUMPI PUSH0 DUP2 DUP2 PUSH3 0x238 SWAP2 SWAP1 PUSH3 0x246 JUMP JUMPDEST POP PUSH1 0x1 ADD PUSH3 0x220 JUMP JUMPDEST POP SWAP1 JUMP JUMPDEST POP DUP1 SLOAD PUSH3 0x254 SWAP1 PUSH3 0x300 JUMP JUMPDEST PUSH0 DUP3 SSTORE DUP1 PUSH1 0x1F LT PUSH3 0x267 JUMPI POP PUSH3 0x286 JUMP JUMPDEST PUSH1 0x1F ADD PUSH1 0x20 SWAP1 DIV SWAP1 PUSH0 MSTORE PUSH1 0x20 PUSH0 KECCAK256 SWAP1 DUP2 ADD SWAP1 PUSH3 0x285 SWAP2 SWAP1 PUSH3 0x289 JUMP JUMPDEST JUMPDEST POP JUMP JUMPDEST JUMPDEST DUP1 DUP3 GT ISZERO PUSH3 0x2A2 JUMPI PUSH0 DUP2 PUSH0 SWAP1 SSTORE POP PUSH1 0x1 ADD PUSH3 0x28A JUMP JUMPDEST POP SWAP1 JUMP JUMPDEST PUSH32 0x4E487B7100000000000000000000000000000000000000000000000000000000 PUSH0 MSTORE PUSH1 0x32 PUSH1 0x4 MSTORE PUSH1 0x24 PUSH0 REVERT JUMPDEST PUSH32 0x4E487B7100000000000000000000000000000000000000000000000000000000 PUSH0 MSTORE PUSH1 0x22 PUSH1 0x4 MSTORE PUSH1 0x24 PUSH0 REVERT JUMPDEST PUSH0 PUSH1 0x2 DUP3 DIV SWAP1 POP PUSH1 0x1 DUP3 AND DUP1 PUSH3 0x318 JUMPI PUSH1 0x7F DUP3 AND SWAP2 POP JUMPDEST PUSH1 0x20 DUP3 LT DUP2 SUB PUSH3 0x32E JUMPI PUSH3 0x32D PUSH3 0x2D3 JUMP JUMPDEST JUMPDEST POP SWAP2 SWAP1 POP JUMP JUMPDEST PUSH0 DUP2 SWAP1 POP SWAP3 SWAP2 POP POP JUMP JUMPDEST PUSH0 DUP2 SWAP1 POP DUP2 PUSH0 MSTORE PUSH1 0x20 PUSH0 KECCAK256 SWAP1 POP SWAP2 SWAP1 POP JUMP JUMPDEST PUSH0 DUP2 SLOAD PUSH3 0x35E DUP2 PUSH3 0x300 JUMP JUMPDEST PUSH3 0x36A DUP2 DUP7 PUSH3 0x334 JUMP JUMPDEST SWAP5 POP PUSH1 0x1 DUP3 AND PUSH0 DUP2 EQ PUSH3 0x387 JUMPI PUSH1 0x1 DUP2 EQ PUSH3 0x39D JUMPI PUSH3 0x3D3 JUMP JUMPDEST PUSH1 0xFF NOT DUP4 AND DUP7 MSTORE DUP2 ISZERO ISZERO DUP3 MUL DUP7 ADD SWAP4 POP PUSH3 0x3D3 JUMP JUMPDEST PUSH3 0x3A8 DUP6 PUSH3 0x33E JUMP JUMPDEST PUSH0 JUMPDEST DUP4 DUP2 LT ISZERO PUSH3 0x3CB JUMPI DUP2 SLOAD DUP2 DUP10 ADD MSTORE PUSH1 0x1 DUP3 ADD SWAP2 POP PUSH1 0x20 DUP2 ADD SWAP1 POP PUSH3 0x3AA JUMP JUMPDEST DUP4 DUP9 ADD SWAP6 POP POP POP JUMPDEST POP POP POP SWAP3 SWAP2 POP POP JUMP JUMPDEST PUSH0 PUSH3 0x3E9 DUP3 DUP5 PUSH3 0x350 JUMP JUMPDEST SWAP2 POP DUP2 SWAP1 POP SWAP3 SWAP2 POP POP JUMP JUMPDEST PUSH0 DUP2 MLOAD SWAP1 POP SWAP2 SWAP1 POP JUMP JUMPDEST PUSH32 0x4E487B7100000000000000000000000000000000000000000000000000000000 PUSH0 MSTORE PUSH1 0x41 PUSH1 0x4 MSTORE PUSH1 0x24 PUSH0 REVERT JUMPDEST PUSH0 PUSH1 0x20 PUSH1 0x1F DUP4 ADD DIV SWAP1 POP SWAP2 SWAP1 POP JUMP JUMPDEST PUSH0 DUP3 DUP3 SHL SWAP1 POP SWAP3 SWAP2 POP POP JUMP JUMPDEST PUSH0 PUSH1 0x8 DUP4 MUL PUSH3 0x477 PUSH32 0xFFFFFFFFFFFFFFFFFFFFFFFFFFFFFFFFFFFFFFFFFFFFFFFFFFFFFFFFFFFFFFFF DUP3 PUSH3 0x43A JUMP JUMPDEST PUSH3 0x483 DUP7 DUP4 PUSH3 0x43A JUMP JUMPDEST SWAP6 POP DUP1 NOT DUP5 AND SWAP4 POP DUP1 DUP7 AND DUP5 OR SWAP3 POP POP POP SWAP4 SWAP3 POP POP POP JUMP JUMPDEST PUSH0 DUP2 SWAP1 POP SWAP2 SWAP1 POP JUMP JUMPDEST PUSH0 DUP2 SWAP1 POP SWAP2 SWAP1 POP JUMP JUMPDEST PUSH0 PUSH3 0x4CD PUSH3 0x4C7 PUSH3 0x4C1 DUP5 PUSH3 0x49B JUMP JUMPDEST PUSH3 0x4A4 JUMP JUMPDEST PUSH3 0x49B JUMP JUMPDEST SWAP1 POP SWAP2 SWAP1 POP JUMP JUMPDEST PUSH0 DUP2 SWAP1 POP SWAP2 SWAP1 POP JUMP JUMPDEST PUSH3 0x4E8 DUP4 PUSH3 0x4AD JUMP JUMPDEST PUSH3 0x500 PUSH3 0x4F7 DUP3 PUSH3 0x4D4 JUMP JUMPDEST DUP5 DUP5 SLOAD PUSH3 0x446 JUMP JUMPDEST DUP3 SSTORE POP POP POP POP JUMP JUMPDEST PUSH0 SWAP1 JUMP JUMPDEST PUSH3 0x516 PUSH3 0x508 JUMP JUMPDEST PUSH3 0x523 DUP2 DUP5 DUP5 PUSH3 0x4DD JUMP JUMPDEST POP POP POP JUMP JUMPDEST JUMPDEST DUP2 DUP2 LT ISZERO PUSH3 0x54A JUMPI PUSH3 0x53E PUSH0 DUP3 PUSH3 0x50C JUMP JUMPDEST PUSH1 0x1 DUP2 ADD SWAP1 POP PUSH3 0x529 JUMP JUMPDEST POP POP JUMP JUMPDEST PUSH1 0x1F DUP3 GT ISZERO PUSH3 0x599 JUMPI PUSH3 0x563 DUP2 PUSH3 0x33E JUMP JUMPDEST PUSH3 0x56E DUP5 PUSH3 0x42B JUMP JUMPDEST DUP2 ADD PUSH1 0x20 DUP6 LT ISZERO PUSH3 0x57E JUMPI DUP2 SWAP1 POP JUMPDEST PUSH3 0x596 PUSH3 0x58D DUP6 PUSH3 0x42B JUMP JUMPDEST DUP4 ADD DUP3 PUSH3 0x528 JUMP JUMPDEST POP POP JUMPDEST POP POP POP JUMP JUMPDEST PUSH0 DUP3 DUP3 SHR SWAP1 POP SWAP3 SWAP2 POP POP JUMP JUMPDEST PUSH0 PUSH3 0x5BB PUSH0 NOT DUP5 PUSH1 0x8 MUL PUSH3 0x59E JUMP JUMPDEST NOT DUP1 DUP4 AND SWAP2 POP POP SWAP3 SWAP2 POP POP JUMP JUMPDEST PUSH0 PUSH3 0x5D5 DUP4 DUP4 PUSH3 0x5AA JUMP JUMPDEST SWAP2 POP DUP3 PUSH1 0x2 MUL DUP3 OR SWAP1 POP SWAP3 SWAP2 POP POP JUMP JUMPDEST PUSH3 0x5F0 DUP3 PUSH3 0x3F4 JUMP JUMPDEST PUSH8 0xFFFFFFFFFFFFFFFF DUP2 GT ISZERO PUSH3 0x60C JUMPI PUSH3 0x60B PUSH3 0x3FE JUMP JUMPDEST JUMPDEST PUSH3 0x618 DUP3 SLOAD PUSH3 0x300 JUMP JUMPDEST PUSH3 0x625 DUP3 DUP3 DUP6 PUSH3 0x54E JUMP JUMPDEST PUSH0 PUSH1 0x20 SWAP1 POP PUSH1 0x1F DUP4 GT PUSH1 0x1 DUP2 EQ PUSH3 0x65B JUMPI PUSH0 DUP5 ISZERO PUSH3 0x646 JUMPI DUP3 DUP8 ADD MLOAD SWAP1 POP JUMPDEST PUSH3 0x652 DUP6 DUP3 PUSH3 0x5C8 JUMP JUMPDEST DUP7 SSTORE POP PUSH3 0x6C1 JUMP JUMPDEST PUSH1 0x1F NOT DUP5 AND PUSH3 0x66B DUP7 PUSH3 0x33E JUMP JUMPDEST PUSH0 JUMPDEST DUP3 DUP2 LT ISZERO PUSH3 0x694 JUMPI DUP5 DUP10 ADD MLOAD DUP3 SSTORE PUSH1 0x1 DUP3 ADD SWAP2 POP PUSH1 0x20 DUP6 ADD SWAP5 POP PUSH1 0x20 DUP2 ADD SWAP1 POP PUSH3 0x66D JUMP JUMPDEST DUP7 DUP4 LT ISZERO PUSH3 0x6B4 JUMPI DUP5 DUP10 ADD MLOAD PUSH3 0x6B0 PUSH1 0x1F DUP10 AND DUP3 PUSH3 0x5AA JUMP JUMPDEST DUP4 SSTORE POP JUMPDEST PUSH1 0x1 PUSH1 0x2 DUP9 MUL ADD DUP9 SSTORE POP POP POP JUMPDEST POP POP POP POP POP POP JUMP JUMPDEST PUSH2 0xC48 DUP1 PUSH3 0x6D7 PUSH0 CODECOPY PUSH0 RETURN INVALID PUSH1 0x80 PUSH1 0x40 MSTORE PUSH1 0x4 CALLDATASIZE LT PUSH2 0x6F JUMPI PUSH0 CALLDATALOAD PUSH1 0xE0 SHR DUP1 PUSH4 0x8DA5CB5B GT PUSH2 0x4D JUMPI DUP1 PUSH4 0x8DA5CB5B EQ PUSH2 0x113 JUMPI DUP1 PUSH4 0xAA38E38C EQ PUSH2 0x13D JUMPI DUP1 PUSH4 0xBFB231D2 EQ PUSH2 0x159 JUMPI DUP1 PUSH4 0xD0618E26 EQ PUSH2 0x195 JUMPI PUSH2 0x6F JUMP JUMPDEST DUP1 PUSH4 0x38EC1D02 EQ PUSH2 0x73 JUMPI DUP1 PUSH4 0x71AE97A4 EQ PUSH2 0xAF JUMPI DUP1 PUSH4 0x7E1B3117 EQ PUSH2 0xD7 JUMPI JUMPDEST PUSH0 DUP1 REVERT JUMPDEST CALLVALUE DUP1 ISZERO PUSH2 0x7E JUMPI PUSH0 DUP1 REVERT JUMPDEST POP PUSH2 0x99 PUSH1 0x4 DUP1 CALLDATASIZE SUB DUP2 ADD SWAP1 PUSH2 0x94 SWAP2 SWAP1 PUSH2 0x696 JUMP JUMPDEST PUSH2 0x1D1 JUMP JUMPDEST PUSH1 0x40 MLOAD PUSH2 0xA6 SWAP2 SWAP1 PUSH2 0x6F5 JUMP JUMPDEST PUSH1 0x40 MLOAD DUP1 SWAP2 SUB SWAP1 RETURN JUMPDEST CALLVALUE DUP1 ISZERO PUSH2 0xBA JUMPI PUSH0 DUP1 REVERT JUMPDEST POP PUSH2 0xD5 PUSH1 0x4 DUP1 CALLDATASIZE SUB DUP2 ADD SWAP1 PUSH2 0xD0 SWAP2 SWAP1 PUSH2 0x738 JUMP JUMPDEST PUSH2 0x1F8 JUMP JUMPDEST STOP JUMPDEST CALLVALUE DUP1 ISZERO PUSH2 0xE2 JUMPI PUSH0 DUP1 REVERT JUMPDEST POP PUSH2 0xFD PUSH1 0x4 DUP1 CALLDATASIZE SUB DUP2 ADD SWAP1 PUSH2 0xF8 SWAP2 SWAP1 PUSH2 0x7EC JUMP JUMPDEST PUSH2 0x2BD JUMP JUMPDEST PUSH1 0x40 MLOAD PUSH2 0x10A SWAP2 SWAP1 PUSH2 0x6F5 JUMP JUMPDEST PUSH1 0x40 MLOAD DUP1 SWAP2 SUB SWAP1 RETURN JUMPDEST CALLVALUE DUP1 ISZERO PUSH2 0x11E JUMPI PUSH0 DUP1 REVERT JUMPDEST POP PUSH2 0x127 PUSH2 0x2F5 JUMP JUMPDEST PUSH1 0x40 MLOAD PUSH2 0x134 SWAP2 SWAP1 PUSH2 0x855 JUMP JUMPDEST PUSH1 0x40 MLOAD DUP1 SWAP2 SUB SWAP1 RETURN JUMPDEST PUSH2 0x157 PUSH1 0x4 DUP1 CALLDATASIZE SUB DUP2 ADD SWAP1 PUSH2 0x152 SWAP2 SWAP1 PUSH2 0x738 JUMP JUMPDEST PUSH2 0x318 JUMP JUMPDEST STOP JUMPDEST CALLVALUE DUP1 ISZERO PUSH2 0x164 JUMPI PUSH0 DUP1 REVERT JUMPDEST POP PUSH2 0x17F PUSH1 0x4 DUP1 CALLDATASIZE SUB DUP2 ADD SWAP1 PUSH2 0x17A SWAP2 SWAP1 PUSH2 0x86E JUMP JUMPDEST PUSH2 0x476 JUMP JUMPDEST PUSH1 0x40 MLOAD PUSH2 0x18C SWAP2 SWAP1 PUSH2 0x913 JUMP JUMPDEST PUSH1 0x40 MLOAD DUP1 SWAP2 SUB SWAP1 RETURN JUMPDEST CALLVALUE DUP1 ISZERO PUSH2 0x1A0 JUMPI PUSH0 DUP1 REVERT JUMPDEST POP PUSH2 0x1BB PUSH1 0x4 DUP1 CALLDATASIZE SUB DUP2 ADD SWAP1 PUSH2 0x1B6 SWAP2 SWAP1 PUSH2 0x696 JUMP JUMPDEST PUSH2 0x51C JUMP JUMPDEST PUSH1 0x40 MLOAD PUSH2 0x1C8 SWAP2 SWAP1 PUSH2 0x6F5 JUMP JUMPDEST PUSH1 0x40 MLOAD DUP1 SWAP2 SUB SWAP1 RETURN JUMPDEST PUSH0 PUSH1 0x1 DUP3 PUSH1 0x40 MLOAD PUSH2 0x1E2 SWAP2 SWAP1 PUSH2 0x96D JUMP JUMPDEST SWAP1 DUP2 MSTORE PUSH1 0x20 ADD PUSH1 0x40 MLOAD DUP1 SWAP2 SUB SWAP1 KECCAK256 SLOAD SWAP1 POP SWAP2 SWAP1 POP JUMP JUMPDEST PUSH0 DUP1 SLOAD SWAP1 PUSH2 0x100 EXP SWAP1 DIV PUSH20 0xFFFFFFFFFFFFFFFFFFFFFFFFFFFFFFFFFFFFFFFF AND PUSH20 0xFFFFFFFFFFFFFFFFFFFFFFFFFFFFFFFFFFFFFFFF AND CALLER PUSH20 0xFFFFFFFFFFFFFFFFFFFFFFFFFFFFFFFFFFFFFFFF AND EQ PUSH2 0x285 JUMPI PUSH1 0x40 MLOAD PUSH32 0x8C379A000000000000000000000000000000000000000000000000000000000 DUP2 MSTORE PUSH1 0x4 ADD PUSH2 0x27C SWAP1 PUSH2 0x9CD JUMP JUMPDEST PUSH1 0x40 MLOAD DUP1 SWAP2 SUB SWAP1 REVERT JUMPDEST DUP1 PUSH1 0x1 DUP4 PUSH1 0x40 MLOAD PUSH2 0x296 SWAP2 SWAP1 PUSH2 0x96D JUMP JUMPDEST SWAP1 DUP2 MSTORE PUSH1 0x20 ADD PUSH1 0x40 MLOAD DUP1 SWAP2 SUB SWAP1 KECCAK256 PUSH0 DUP3 DUP3 SLOAD PUSH2 0x2B2 SWAP2 SWAP1 PUSH2 0xA18 JUMP JUMPDEST SWAP3 POP POP DUP2 SWAP1 SSTORE POP POP POP JUMP JUMPDEST PUSH1 0x2 PUSH1 0x20 MSTORE DUP2 PUSH0 MSTORE PUSH1 0x40 PUSH0 KECCAK256 DUP2 DUP1 MLOAD PUSH1 0x20 DUP2 ADD DUP3 ADD DUP1 MLOAD DUP5 DUP3 MSTORE PUSH1 0x20 DUP4 ADD PUSH1 0x20 DUP6 ADD KECCAK256 DUP2 DUP4 MSTORE DUP1 SWAP6 POP POP POP POP POP POP PUSH0 SWAP2 POP SWAP2 POP POP SLOAD DUP2 JUMP JUMPDEST PUSH0 DUP1 SLOAD SWAP1 PUSH2 0x100 EXP SWAP1 DIV PUSH20 0xFFFFFFFFFFFFFFFFFFFFFFFFFFFFFFFFFFFFFFFF AND DUP2 JUMP JUMPDEST PUSH8 0xDE0B6B3A7640000 DUP2 PUSH2 0x32C SWAP2 SWAP1 PUSH2 0xA4B JUMP JUMPDEST CALLVALUE LT ISZERO PUSH2 0x36E JUMPI PUSH1 0x40 MLOAD PUSH32 0x8C379A000000000000000000000000000000000000000000000000000000000 DUP2 MSTORE PUSH1 0x4 ADD PUSH2 0x365 SWAP1 PUSH2 0xAD6 JUMP JUMPDEST PUSH1 0x40 MLOAD DUP1 SWAP2 SUB SWAP1 REVERT JUMPDEST DUP1 PUSH1 0x1 DUP4 PUSH1 0x40 MLOAD PUSH2 0x37F SWAP2 SWAP1 PUSH2 0x96D JUMP JUMPDEST SWAP1 DUP2 MSTORE PUSH1 0x20 ADD PUSH1 0x40 MLOAD DUP1 SWAP2 SUB SWAP1 KECCAK256 SLOAD LT ISZERO PUSH2 0x3CF JUMPI PUSH1 0x40 MLOAD PUSH32 0x8C379A000000000000000000000000000000000000000000000000000000000 DUP2 MSTORE PUSH1 0x4 ADD PUSH2 0x3C6 SWAP1 PUSH2 0xB64 JUMP JUMPDEST PUSH1 0x40 MLOAD DUP1 SWAP2 SUB SWAP1 REVERT JUMPDEST DUP1 PUSH1 0x1 DUP4 PUSH1 0x40 MLOAD PUSH2 0x3E0 SWAP2 SWAP1 PUSH2 0x96D JUMP JUMPDEST SWAP1 DUP2 MSTORE PUSH1 0x20 ADD PUSH1 0x40 MLOAD DUP1 SWAP2 SUB SWAP1 KECCAK256 PUSH0 DUP3 DUP3 SLOAD PUSH2 0x3FC SWAP2 SWAP1 PUSH2 0xB82 JUMP JUMPDEST SWAP3 POP POP DUP2 SWAP1 SSTORE POP DUP1 PUSH1 0x2 PUSH0 CALLER PUSH20 0xFFFFFFFFFFFFFFFFFFFFFFFFFFFFFFFFFFFFFFFF AND PUSH20 0xFFFFFFFFFFFFFFFFFFFFFFFFFFFFFFFFFFFFFFFF AND DUP2 MSTORE PUSH1 0x20 ADD SWAP1 DUP2 MSTORE PUSH1 0x20 ADD PUSH0 KECCAK256 DUP4 PUSH1 0x40 MLOAD PUSH2 0x44F SWAP2 SWAP1 PUSH2 0x96D JUMP JUMPDEST SWAP1 DUP2 MSTORE PUSH1 0x20 ADD PUSH1 0x40 MLOAD DUP1 SWAP2 SUB SWAP1 KECCAK256 PUSH0 DUP3 DUP3 SLOAD PUSH2 0x46B SWAP2 SWAP1 PUSH2 0xA18 JUMP JUMPDEST SWAP3 POP POP DUP2 SWAP1 SSTORE POP POP POP JUMP JUMPDEST PUSH1 0x3 DUP2 DUP2 SLOAD DUP2 LT PUSH2 0x485 JUMPI PUSH0 DUP1 REVERT JUMPDEST SWAP1 PUSH0 MSTORE PUSH1 0x20 PUSH0 KECCAK256 ADD PUSH0 SWAP2 POP SWAP1 POP DUP1 SLOAD PUSH2 0x49D SWAP1 PUSH2 0xBE2 JUMP JUMPDEST DUP1 PUSH1 0x1F ADD PUSH1 0x20 DUP1 SWAP2 DIV MUL PUSH1 0x20 ADD PUSH1 0x40 MLOAD SWAP1 DUP2 ADD PUSH1 0x40 MSTORE DUP1 SWAP3 SWAP2 SWAP1 DUP2 DUP2 MSTORE PUSH1 0x20 ADD DUP3 DUP1 SLOAD PUSH2 0x4C9 SWAP1 PUSH2 0xBE2 JUMP JUMPDEST DUP1 ISZERO PUSH2 0x514 JUMPI DUP1 PUSH1 0x1F LT PUSH2 0x4EB JUMPI PUSH2 0x100 DUP1 DUP4 SLOAD DIV MUL DUP4 MSTORE SWAP2 PUSH1 0x20 ADD SWAP2 PUSH2 0x514 JUMP JUMPDEST DUP3 ADD SWAP2 SWAP1 PUSH0 MSTORE PUSH1 0x20 PUSH0 KECCAK256 SWAP1 JUMPDEST DUP2 SLOAD DUP2 MSTORE SWAP1 PUSH1 0x1 ADD SWAP1 PUSH1 0x20 ADD DUP1 DUP4 GT PUSH2 0x4F7 JUMPI DUP3 SWAP1 SUB PUSH1 0x1F AND DUP3 ADD SWAP2 JUMPDEST POP POP POP POP POP DUP2 JUMP JUMPDEST PUSH1 0x1 DUP2 DUP1 MLOAD PUSH1 0x20 DUP2 ADD DUP3 ADD DUP1 MLOAD DUP5 DUP3 MSTORE PUSH1 0x20 DUP4 ADD PUSH1 0x20 DUP6 ADD KECCAK256 DUP2 DUP4 MSTORE DUP1 SWAP6 POP POP POP POP POP POP PUSH0 SWAP2 POP SWAP1 POP SLOAD DUP2 JUMP JUMPDEST PUSH0 PUSH1 0x40 MLOAD SWAP1 POP SWAP1 JUMP JUMPDEST PUSH0 DUP1 REVERT JUMPDEST PUSH0 DUP1 REVERT JUMPDEST PUSH0 DUP1 REVERT JUMPDEST PUSH0 DUP1 REVERT JUMPDEST PUSH0 PUSH1 0x1F NOT PUSH1 0x1F DUP4 ADD AND SWAP1 POP SWAP2 SWAP1 POP JUMP JUMPDEST PUSH32 0x4E487B7100000000000000000000000000000000000000000000000000000000 PUSH0 MSTORE PUSH1 0x41 PUSH1 0x4 MSTORE PUSH1 0x24 PUSH0 REVERT JUMPDEST PUSH2 0x5A8 DUP3 PUSH2 0x562 JUMP JUMPDEST DUP2 ADD DUP2 DUP2 LT PUSH8 0xFFFFFFFFFFFFFFFF DUP3 GT OR ISZERO PUSH2 0x5C7 JUMPI PUSH2 0x5C6 PUSH2 0x572 JUMP JUMPDEST JUMPDEST DUP1 PUSH1 0x40 MSTORE POP POP POP JUMP JUMPDEST PUSH0 PUSH2 0x5D9 PUSH2 0x549 JUMP JUMPDEST SWAP1 POP PUSH2 0x5E5 DUP3 DUP3 PUSH2 0x59F JUMP JUMPDEST SWAP2 SWAP1 POP JUMP JUMPDEST PUSH0 PUSH8 0xFFFFFFFFFFFFFFFF DUP3 GT ISZERO PUSH2 0x604 JUMPI PUSH2 0x603 PUSH2 0x572 JUMP JUMPDEST JUMPDEST PUSH2 0x60D DUP3 PUSH2 0x562 JUMP JUMPDEST SWAP1 POP PUSH1 0x20 DUP2 ADD SWAP1 POP SWAP2 SWAP1 POP JUMP JUMPDEST DUP3 DUP2 DUP4 CALLDATACOPY PUSH0 DUP4 DUP4 ADD MSTORE POP POP POP JUMP JUMPDEST PUSH0 PUSH2 0x63A PUSH2 0x635 DUP5 PUSH2 0x5EA JUMP JUMPDEST PUSH2 0x5D0 JUMP JUMPDEST SWAP1 POP DUP3 DUP2 MSTORE PUSH1 0x20 DUP2 ADD DUP5 DUP5 DUP5 ADD GT ISZERO PUSH2 0x656 JUMPI PUSH2 0x655 PUSH2 0x55E JUMP JUMPDEST JUMPDEST PUSH2 0x661 DUP5 DUP3 DUP6 PUSH2 0x61A JUMP JUMPDEST POP SWAP4 SWAP3 POP POP POP JUMP JUMPDEST PUSH0 DUP3 PUSH1 0x1F DUP4 ADD SLT PUSH2 0x67D JUMPI PUSH2 0x67C PUSH2 0x55A JUMP JUMPDEST JUMPDEST DUP2 CALLDATALOAD PUSH2 0x68D DUP5 DUP3 PUSH1 0x20 DUP7 ADD PUSH2 0x628 JUMP JUMPDEST SWAP2 POP POP SWAP3 SWAP2 POP POP JUMP JUMPDEST PUSH0 PUSH1 0x20 DUP3 DUP5 SUB SLT ISZERO PUSH2 0x6AB JUMPI PUSH2 0x6AA PUSH2 0x552 JUMP JUMPDEST JUMPDEST PUSH0 DUP3 ADD CALLDATALOAD PUSH8 0xFFFFFFFFFFFFFFFF DUP2 GT ISZERO PUSH2 0x6C8 JUMPI PUSH2 0x6C7 PUSH2 0x556 JUMP JUMPDEST JUMPDEST PUSH2 0x6D4 DUP5 DUP3 DUP6 ADD PUSH2 0x669 JUMP JUMPDEST SWAP2 POP POP SWAP3 SWAP2 POP POP JUMP JUMPDEST PUSH0 DUP2 SWAP1 POP SWAP2 SWAP1 POP JUMP JUMPDEST PUSH2 0x6EF DUP2 PUSH2 0x6DD JUMP JUMPDEST DUP3 MSTORE POP POP JUMP JUMPDEST PUSH0 PUSH1 0x20 DUP3 ADD SWAP1 POP PUSH2 0x708 PUSH0 DUP4 ADD DUP5 PUSH2 0x6E6 JUMP JUMPDEST SWAP3 SWAP2 POP POP JUMP JUMPDEST PUSH2 0x717 DUP2 PUSH2 0x6DD JUMP JUMPDEST DUP2 EQ PUSH2 0x721 JUMPI PUSH0 DUP1 REVERT JUMPDEST POP JUMP JUMPDEST PUSH0 DUP2 CALLDATALOAD SWAP1 POP PUSH2 0x732 DUP2 PUSH2 0x70E JUMP JUMPDEST SWAP3 SWAP2 POP POP JUMP JUMPDEST PUSH0 DUP1 PUSH1 0x40 DUP4 DUP6 SUB SLT ISZERO PUSH2 0x74E JUMPI PUSH2 0x74D PUSH2 0x552 JUMP JUMPDEST JUMPDEST PUSH0 DUP4 ADD CALLDATALOAD PUSH8 0xFFFFFFFFFFFFFFFF DUP2 GT ISZERO PUSH2 0x76B JUMPI PUSH2 0x76A PUSH2 0x556 JUMP JUMPDEST JUMPDEST PUSH2 0x777 DUP6 DUP3 DUP7 ADD PUSH2 0x669 JUMP JUMPDEST SWAP3 POP POP PUSH1 0x20 PUSH2 0x788 DUP6 DUP3 DUP7 ADD PUSH2 0x724 JUMP JUMPDEST SWAP2 POP POP SWAP3 POP SWAP3 SWAP1 POP JUMP JUMPDEST PUSH0 PUSH20 0xFFFFFFFFFFFFFFFFFFFFFFFFFFFFFFFFFFFFFFFF DUP3 AND SWAP1 POP SWAP2 SWAP1 POP JUMP JUMPDEST PUSH0 PUSH2 0x7BB DUP3 PUSH2 0x792 JUMP JUMPDEST SWAP1 POP SWAP2 SWAP1 POP JUMP JUMPDEST PUSH2 0x7CB DUP2 PUSH2 0x7B1 JUMP JUMPDEST DUP2 EQ PUSH2 0x7D5 JUMPI PUSH0 DUP1 REVERT JUMPDEST POP JUMP JUMPDEST PUSH0 DUP2 CALLDATALOAD SWAP1 POP PUSH2 0x7E6 DUP2 PUSH2 0x7C2 JUMP JUMPDEST SWAP3 SWAP2 POP POP JUMP JUMPDEST PUSH0 DUP1 PUSH1 0x40 DUP4 DUP6 SUB SLT ISZERO PUSH2 0x802 JUMPI PUSH2 0x801 PUSH2 0x552 JUMP JUMPDEST JUMPDEST PUSH0 PUSH2 0x80F DUP6 DUP3 DUP7 ADD PUSH2 0x7D8 JUMP JUMPDEST SWAP3 POP POP PUSH1 0x20 DUP4 ADD CALLDATALOAD PUSH8 0xFFFFFFFFFFFFFFFF DUP2 GT ISZERO PUSH2 0x830 JUMPI PUSH2 0x82F PUSH2 0x556 JUMP JUMPDEST JUMPDEST PUSH2 0x83C DUP6 DUP3 DUP7 ADD PUSH2 0x669 JUMP JUMPDEST SWAP2 POP POP SWAP3 POP SWAP3 SWAP1 POP JUMP JUMPDEST PUSH2 0x84F DUP2 PUSH2 0x7B1 JUMP JUMPDEST DUP3 MSTORE POP POP JUMP JUMPDEST PUSH0 PUSH1 0x20 DUP3 ADD SWAP1 POP PUSH2 0x868 PUSH0 DUP4 ADD DUP5 PUSH2 0x846 JUMP JUMPDEST SWAP3 SWAP2 POP POP JUMP JUMPDEST PUSH0 PUSH1 0x20 DUP3 DUP5 SUB SLT ISZERO PUSH2 0x883 JUMPI PUSH2 0x882 PUSH2 0x552 JUMP JUMPDEST JUMPDEST PUSH0 PUSH2 0x890 DUP5 DUP3 DUP6 ADD PUSH2 0x724 JUMP JUMPDEST SWAP2 POP POP SWAP3 SWAP2 POP POP JUMP JUMPDEST PUSH0 DUP2 MLOAD SWAP1 POP SWAP2 SWAP1 POP JUMP JUMPDEST PUSH0 DUP3 DUP3 MSTORE PUSH1 0x20 DUP3 ADD SWAP1 POP SWAP3 SWAP2 POP POP JUMP JUMPDEST PUSH0 JUMPDEST DUP4 DUP2 LT ISZERO PUSH2 0x8D0 JUMPI DUP1 DUP3 ADD MLOAD DUP2 DUP5 ADD MSTORE PUSH1 0x20 DUP2 ADD SWAP1 POP PUSH2 0x8B5 JUMP JUMPDEST PUSH0 DUP5 DUP5 ADD MSTORE POP POP POP POP JUMP JUMPDEST PUSH0 PUSH2 0x8E5 DUP3 PUSH2 0x899 JUMP JUMPDEST PUSH2 0x8EF DUP2 DUP6 PUSH2 0x8A3 JUMP JUMPDEST SWAP4 POP PUSH2 0x8FF DUP2 DUP6 PUSH1 0x20 DUP7 ADD PUSH2 0x8B3 JUMP JUMPDEST PUSH2 0x908 DUP2 PUSH2 0x562 JUMP JUMPDEST DUP5 ADD SWAP2 POP POP SWAP3 SWAP2 POP POP JUMP JUMPDEST PUSH0 PUSH1 0x20 DUP3 ADD SWAP1 POP DUP2 DUP2 SUB PUSH0 DUP4 ADD MSTORE PUSH2 0x92B DUP2 DUP5 PUSH2 0x8DB JUMP JUMPDEST SWAP1 POP SWAP3 SWAP2 POP POP JUMP JUMPDEST PUSH0 DUP2 SWAP1 POP SWAP3 SWAP2 POP POP JUMP JUMPDEST PUSH0 PUSH2 0x947 DUP3 PUSH2 0x899 JUMP JUMPDEST PUSH2 0x951 DUP2 DUP6 PUSH2 0x933 JUMP JUMPDEST SWAP4 POP PUSH2 0x961 DUP2 DUP6 PUSH1 0x20 DUP7 ADD PUSH2 0x8B3 JUMP JUMPDEST DUP1 DUP5 ADD SWAP2 POP POP SWAP3 SWAP2 POP POP JUMP JUMPDEST PUSH0 PUSH2 0x978 DUP3 DUP5 PUSH2 0x93D JUMP JUMPDEST SWAP2 POP DUP2 SWAP1 POP SWAP3 SWAP2 POP POP JUMP JUMPDEST PUSH32 0x4F6E6C7920746865206F776E65722063616E20726573746F636B2E0000000000 PUSH0 DUP3 ADD MSTORE POP JUMP JUMPDEST PUSH0 PUSH2 0x9B7 PUSH1 0x1B DUP4 PUSH2 0x8A3 JUMP JUMPDEST SWAP2 POP PUSH2 0x9C2 DUP3 PUSH2 0x983 JUMP JUMPDEST PUSH1 0x20 DUP3 ADD SWAP1 POP SWAP2 SWAP1 POP JUMP JUMPDEST PUSH0 PUSH1 0x20 DUP3 ADD SWAP1 POP DUP2 DUP2 SUB PUSH0 DUP4 ADD MSTORE PUSH2 0x9E4 DUP2 PUSH2 0x9AB JUMP JUMPDEST SWAP1 POP SWAP2 SWAP1 POP JUMP JUMPDEST PUSH32 0x4E487B7100000000000000000000000000000000000000000000000000000000 PUSH0 MSTORE PUSH1 0x11 PUSH1 0x4 MSTORE PUSH1 0x24 PUSH0 REVERT JUMPDEST PUSH0 PUSH2 0xA22 DUP3 PUSH2 0x6DD JUMP JUMPDEST SWAP2 POP PUSH2 0xA2D DUP4 PUSH2 0x6DD JUMP JUMPDEST SWAP3 POP DUP3 DUP3 ADD SWAP1 POP DUP1 DUP3 GT ISZERO PUSH2 0xA45 JUMPI PUSH2 0xA44 PUSH2 0x9EB JUMP JUMPDEST JUMPDEST SWAP3 SWAP2 POP POP JUMP JUMPDEST PUSH0 PUSH2 0xA55 DUP3 PUSH2 0x6DD JUMP JUMPDEST SWAP2 POP PUSH2 0xA60 DUP4 PUSH2 0x6DD JUMP JUMPDEST SWAP3 POP DUP3 DUP3 MUL PUSH2 0xA6E DUP2 PUSH2 0x6DD JUMP JUMPDEST SWAP2 POP DUP3 DUP3 DIV DUP5 EQ DUP4 ISZERO OR PUSH2 0xA85 JUMPI PUSH2 0xA84 PUSH2 0x9EB JUMP JUMPDEST JUMPDEST POP SWAP3 SWAP2 POP POP JUMP JUMPDEST PUSH32 0x596F75206D75737420706179206174206C656173742031204554480000000000 PUSH0 DUP3 ADD MSTORE POP JUMP JUMPDEST PUSH0 PUSH2 0xAC0 PUSH1 0x1B DUP4 PUSH2 0x8A3 JUMP JUMPDEST SWAP2 POP PUSH2 0xACB DUP3 PUSH2 0xA8C JUMP JUMPDEST PUSH1 0x20 DUP3 ADD SWAP1 POP SWAP2 SWAP1 POP JUMP JUMPDEST PUSH0 PUSH1 0x20 DUP3 ADD SWAP1 POP DUP2 DUP2 SUB PUSH0 DUP4 ADD MSTORE PUSH2 0xAED DUP2 PUSH2 0xAB4 JUMP JUMPDEST SWAP1 POP SWAP2 SWAP1 POP JUMP JUMPDEST PUSH32 0x4E6F7420656E6F75676820696E2073746F636B20746F20636F6D706C65746520 PUSH0 DUP3 ADD MSTORE PUSH32 0x7468697320707572636861736500000000000000000000000000000000000000 PUSH1 0x20 DUP3 ADD MSTORE POP JUMP JUMPDEST PUSH0 PUSH2 0xB4E PUSH1 0x2D DUP4 PUSH2 0x8A3 JUMP JUMPDEST SWAP2 POP PUSH2 0xB59 DUP3 PUSH2 0xAF4 JUMP JUMPDEST PUSH1 0x40 DUP3 ADD SWAP1 POP SWAP2 SWAP1 POP JUMP JUMPDEST PUSH0 PUSH1 0x20 DUP3 ADD SWAP1 POP DUP2 DUP2 SUB PUSH0 DUP4 ADD MSTORE PUSH2 0xB7B DUP2 PUSH2 0xB42 JUMP JUMPDEST SWAP1 POP SWAP2 SWAP1 POP JUMP JUMPDEST PUSH0 PUSH2 0xB8C DUP3 PUSH2 0x6DD JUMP JUMPDEST SWAP2 POP PUSH2 0xB97 DUP4 PUSH2 0x6DD JUMP JUMPDEST SWAP3 POP DUP3 DUP3 SUB SWAP1 POP DUP2 DUP2 GT ISZERO PUSH2 0xBAF JUMPI PUSH2 0xBAE PUSH2 0x9EB JUMP JUMPDEST JUMPDEST SWAP3 SWAP2 POP POP JUMP JUMPDEST PUSH32 0x4E487B7100000000000000000000000000000000000000000000000000000000 PUSH0 MSTORE PUSH1 0x22 PUSH1 0x4 MSTORE PUSH1 0x24 PUSH0 REVERT JUMPDEST PUSH0 PUSH1 0x2 DUP3 DIV SWAP1 POP PUSH1 0x1 DUP3 AND DUP1 PUSH2 0xBF9 JUMPI PUSH1 0x7F DUP3 AND SWAP2 POP JUMPDEST PUSH1 0x20 DUP3 LT DUP2 SUB PUSH2 0xC0C JUMPI PUSH2 0xC0B PUSH2 0xBB5 JUMP JUMPDEST JUMPDEST POP SWAP2 SWAP1 POP JUMP INVALID LOG2 PUSH5 0x6970667358 0x22 SLT KECCAK256 CREATE SWAP2 0xAB KECCAK256 SMOD NOT 0xBB 0x2C LOG1 SWAP8 0xDC 0xEB 0x22 0xC6 0xB7 PUSH2 0x9382 0xB2 CODESIZE PUSH7 0x5A999B5E61AD27 SWAP12 LT PUSH24 0x6364736F6C63430008160033000000000000000000000000 "
		},
		"gasEstimates": {
			"creation": {
				"codeDepositCost": "628800",
				"executionCost": "infinite",
				"totalCost": "infinite"
			},
			"external": {
				"customerPurchases(address,string)": "infinite",
				"getItemStock(string)": "infinite",
				"itemStocks(string)": "infinite",
				"items(uint256)": "infinite",
				"owner()": "2505",
				"purchase(string,uint256)": "infinite",
				"restock(string,uint256)": "infinite"
			}
		},
		"methodIdentifiers": {
			"customerPurchases(address,string)": "7e1b3117",
			"getItemStock(string)": "38ec1d02",
			"itemStocks(string)": "d0618e26",
			"items(uint256)": "bfb231d2",
			"owner()": "8da5cb5b",
			"purchase(string,uint256)": "aa38e38c",
			"restock(string,uint256)": "71ae97a4"
		}
	},
	"abi": [
		{
			"inputs": [],
			"stateMutability": "nonpayable",
			"type": "constructor"
		},
		{
			"inputs": [
				{
					"internalType": "address",
					"name": "",
					"type": "address"
				},
				{
					"internalType": "string",
					"name": "",
					"type": "string"
				}
			],
			"name": "customerPurchases",
			"outputs": [
				{
					"internalType": "uint256",
					"name": "",
					"type": "uint256"
				}
			],
			"stateMutability": "view",
			"type": "function"
		},
		{
			"inputs": [
				{
					"internalType": "string",
					"name": "item",
					"type": "string"
				}
			],
			"name": "getItemStock",
			"outputs": [
				{
					"internalType": "uint256",
					"name": "",
					"type": "uint256"
				}
			],
			"stateMutability": "view",
			"type": "function"
		},
		{
			"inputs": [
				{
					"internalType": "string",
					"name": "",
					"type": "string"
				}
			],
			"name": "itemStocks",
			"outputs": [
				{
					"internalType": "uint256",
					"name": "",
					"type": "uint256"
				}
			],
			"stateMutability": "view",
			"type": "function"
		},
		{
			"inputs": [
				{
					"internalType": "uint256",
					"name": "",
					"type": "uint256"
				}
			],
			"name": "items",
			"outputs": [
				{
					"internalType": "string",
					"name": "",
					"type": "string"
				}
			],
			"stateMutability": "view",
			"type": "function"
		},
		{
			"inputs": [],
			"name": "owner",
			"outputs": [
				{
					"internalType": "address",
					"name": "",
					"type": "address"
				}
			],
			"stateMutability": "view",
			"type": "function"
		},
		{
			"inputs": [
				{
					"internalType": "string",
					"name": "item",
					"type": "string"
				},
				{
					"internalType": "uint256",
					"name": "amount",
					"type": "uint256"
				}
			],
			"name": "purchase",
			"outputs": [],
			"stateMutability": "payable",
			"type": "function"
		},
		{
			"inputs": [
				{
					"internalType": "string",
					"name": "item",
					"type": "string"
				},
				{
					"internalType": "uint256",
					"name": "amount",
					"type": "uint256"
				}
			],
			"name": "restock",
			"outputs": [],
			"stateMutability": "nonpayable",
			"type": "function"
		}
	]
}