{
	"contracts/vote.sol": {
		"SurvivorGame": {
			"abi": [
				{
					"inputs": [],
					"stateMutability": "nonpayable",
					"type": "constructor"
				},
				{
					"inputs": [],
					"name": "announceVotedOut",
					"outputs": [
						{
							"internalType": "string",
							"name": "",
							"type": "string"
						}
					],
					"stateMutability": "view",
					"type": "function"
				},
				{
					"inputs": [
						{
							"internalType": "uint256",
							"name": "",
							"type": "uint256"
						}
					],
					"name": "contestants",
					"outputs": [
						{
							"internalType": "string",
							"name": "name",
							"type": "string"
						},
						{
							"internalType": "uint256",
							"name": "voteCount",
							"type": "uint256"
						}
					],
					"stateMutability": "view",
					"type": "function"
				},
				{
					"inputs": [],
					"name": "getTotalVoteCounts",
					"outputs": [
						{
							"internalType": "uint256[5]",
							"name": "",
							"type": "uint256[5]"
						}
					],
					"stateMutability": "view",
					"type": "function"
				},
				{
					"inputs": [],
					"name": "host",
					"outputs": [
						{
							"internalType": "address",
							"name": "",
							"type": "address"
						}
					],
					"stateMutability": "view",
					"type": "function"
				},
				{
					"inputs": [
						{
							"internalType": "string",
							"name": "name",
							"type": "string"
						},
						{
							"internalType": "uint8",
							"name": "contestantIndex",
							"type": "uint8"
						}
					],
					"name": "initialize",
					"outputs": [],
					"stateMutability": "nonpayable",
					"type": "function"
				},
				{
					"inputs": [
						{
							"internalType": "address",
							"name": "",
							"type": "address"
						}
					],
					"name": "participants",
					"outputs": [
						{
							"internalType": "bool",
							"name": "alreadyVoted",
							"type": "bool"
						},
						{
							"internalType": "uint256",
							"name": "voteIndex",
							"type": "uint256"
						}
					],
					"stateMutability": "view",
					"type": "function"
				},
				{
					"inputs": [
						{
							"internalType": "string",
							"name": "_name",
							"type": "string"
						}
					],
					"name": "voteOut",
					"outputs": [],
					"stateMutability": "nonpayable",
					"type": "function"
				}
			],
			"devdoc": {
				"kind": "dev",
				"methods": {},
				"version": 1
			},
			"evm": {
				"assembly": "    /* \"contracts/vote.sol\":74:2515  contract SurvivorGame {... */\n  mstore(0x40, 0x80)\n    /* \"contracts/vote.sol\":650:700  constructor() {... */\n  callvalue\n  dup1\n  iszero\n  tag_1\n  jumpi\n  0x00\n  dup1\n  revert\ntag_1:\n  pop\n    /* \"contracts/vote.sol\":682:692  msg.sender */\n  caller\n    /* \"contracts/vote.sol\":675:679  host */\n  0x00\n  dup1\n    /* \"contracts/vote.sol\":675:692  host = msg.sender */\n  0x0100\n  exp\n  dup2\n  sload\n  dup2\n  0xffffffffffffffffffffffffffffffffffffffff\n  mul\n  not\n  and\n  swap1\n  dup4\n  0xffffffffffffffffffffffffffffffffffffffff\n  and\n  mul\n  or\n  swap1\n  sstore\n  pop\n    /* \"contracts/vote.sol\":74:2515  contract SurvivorGame {... */\n  dataSize(sub_0)\n  dup1\n  dataOffset(sub_0)\n  0x00\n  codecopy\n  0x00\n  return\nstop\n\nsub_0: assembly {\n        /* \"contracts/vote.sol\":74:2515  contract SurvivorGame {... */\n      mstore(0x40, 0x80)\n      callvalue\n      dup1\n      iszero\n      tag_1\n      jumpi\n      0x00\n      dup1\n      revert\n    tag_1:\n      pop\n      jumpi(tag_2, lt(calldatasize, 0x04))\n      shr(0xe0, calldataload(0x00))\n      dup1\n      0xcc1207c0\n      gt\n      tag_10\n      jumpi\n      dup1\n      0xcc1207c0\n      eq\n      tag_6\n      jumpi\n      dup1\n      0xd485f61b\n      eq\n      tag_7\n      jumpi\n      dup1\n      0xdfd50f52\n      eq\n      tag_8\n      jumpi\n      dup1\n      0xf437bc59\n      eq\n      tag_9\n      jumpi\n      jump(tag_2)\n    tag_10:\n      dup1\n      0x09e69ede\n      eq\n      tag_3\n      jumpi\n      dup1\n      0x28dd8045\n      eq\n      tag_4\n      jumpi\n      dup1\n      0x51181b28\n      eq\n      tag_5\n      jumpi\n    tag_2:\n      0x00\n      dup1\n      revert\n        /* \"contracts/vote.sol\":338:389  mapping(address => Participant) public participants */\n    tag_3:\n      tag_11\n      0x04\n      dup1\n      calldatasize\n      sub\n      dup2\n      add\n      swap1\n      tag_12\n      swap2\n      swap1\n      tag_13\n      jump\t// in\n    tag_12:\n      tag_14\n      jump\t// in\n    tag_11:\n      mload(0x40)\n      tag_15\n      swap3\n      swap2\n      swap1\n      tag_16\n      jump\t// in\n    tag_15:\n      mload(0x40)\n      dup1\n      swap2\n      sub\n      swap1\n      return\n        /* \"contracts/vote.sol\":2062:2512  function announceVotedOut() external view onlyHost returns (string memory) {... */\n    tag_4:\n      tag_17\n      tag_18\n      jump\t// in\n    tag_17:\n      mload(0x40)\n      tag_19\n      swap2\n      swap1\n      tag_20\n      jump\t// in\n    tag_19:\n      mload(0x40)\n      dup1\n      swap2\n      sub\n      swap1\n      return\n        /* \"contracts/vote.sol\":1425:1997  function voteOut(string memory _name) external {... */\n    tag_5:\n      tag_21\n      0x04\n      dup1\n      calldatasize\n      sub\n      dup2\n      add\n      swap1\n      tag_22\n      swap2\n      swap1\n      tag_23\n      jump\t// in\n    tag_22:\n      tag_24\n      jump\t// in\n    tag_21:\n      stop\n        /* \"contracts/vote.sol\":744:966  function initialize(string memory name, uint8 contestantIndex) external onlyHost {... */\n    tag_6:\n      tag_25\n      0x04\n      dup1\n      calldatasize\n      sub\n      dup2\n      add\n      swap1\n      tag_26\n      swap2\n      swap1\n      tag_27\n      jump\t// in\n    tag_26:\n      tag_28\n      jump\t// in\n    tag_25:\n      stop\n        /* \"contracts/vote.sol\":1027:1302  function getTotalVoteCounts() external view returns (uint256[5] memory) {... */\n    tag_7:\n      tag_29\n      tag_30\n      jump\t// in\n    tag_29:\n      mload(0x40)\n      tag_31\n      swap2\n      swap1\n      tag_32\n      jump\t// in\n    tag_31:\n      mload(0x40)\n      dup1\n      swap2\n      sub\n      swap1\n      return\n        /* \"contracts/vote.sol\":396:428  Contestant[5] public contestants */\n    tag_8:\n      tag_33\n      0x04\n      dup1\n      calldatasize\n      sub\n      dup2\n      add\n      swap1\n      tag_34\n      swap2\n      swap1\n      tag_35\n      jump\t// in\n    tag_34:\n      tag_36\n      jump\t// in\n    tag_33:\n      mload(0x40)\n      tag_37\n      swap3\n      swap2\n      swap1\n      tag_38\n      jump\t// in\n    tag_37:\n      mload(0x40)\n      dup1\n      swap2\n      sub\n      swap1\n      return\n        /* \"contracts/vote.sol\":108:127  address public host */\n    tag_9:\n      tag_39\n      tag_40\n      jump\t// in\n    tag_39:\n      mload(0x40)\n      tag_41\n      swap2\n      swap1\n      tag_42\n      jump\t// in\n    tag_41:\n      mload(0x40)\n      dup1\n      swap2\n      sub\n      swap1\n      return\n        /* \"contracts/vote.sol\":338:389  mapping(address => Participant) public participants */\n    tag_14:\n      mstore(0x20, 0x01)\n      dup1\n      0x00\n      mstore\n      keccak256(0x00, 0x40)\n      0x00\n      swap2\n      pop\n      swap1\n      pop\n      dup1\n      0x00\n      add\n      0x00\n      swap1\n      sload\n      swap1\n      0x0100\n      exp\n      swap1\n      div\n      0xff\n      and\n      swap1\n      dup1\n      0x01\n      add\n      sload\n      swap1\n      pop\n      dup3\n      jump\t// out\n        /* \"contracts/vote.sol\":2062:2512  function announceVotedOut() external view onlyHost returns (string memory) {... */\n    tag_18:\n        /* \"contracts/vote.sol\":2122:2135  string memory */\n      0x60\n        /* \"contracts/vote.sol\":529:533  host */\n      0x00\n      dup1\n      sload\n      swap1\n      0x0100\n      exp\n      swap1\n      div\n      0xffffffffffffffffffffffffffffffffffffffff\n      and\n        /* \"contracts/vote.sol\":515:533  msg.sender == host */\n      0xffffffffffffffffffffffffffffffffffffffff\n      and\n        /* \"contracts/vote.sol\":515:525  msg.sender */\n      caller\n        /* \"contracts/vote.sol\":515:533  msg.sender == host */\n      0xffffffffffffffffffffffffffffffffffffffff\n      and\n      eq\n        /* \"contracts/vote.sol\":507:568  require(msg.sender == host, \"Only the host can execute this\") */\n      tag_44\n      jumpi\n      mload(0x40)\n      0x08c379a000000000000000000000000000000000000000000000000000000000\n      dup2\n      mstore\n      0x04\n      add\n      tag_45\n      swap1\n      tag_46\n      jump\t// in\n    tag_45:\n      mload(0x40)\n      dup1\n      swap2\n      sub\n      swap1\n      revert\n    tag_44:\n        /* \"contracts/vote.sol\":2148:2164  uint256 maxVotes */\n      0x00\n        /* \"contracts/vote.sol\":2179:2211  string memory votedOutContestant */\n      0x60\n        /* \"contracts/vote.sol\":2229:2236  uint8 i */\n      0x00\n        /* \"contracts/vote.sol\":2224:2467  for (uint8 i = 0; i < contestants.length; i++) {... */\n    tag_48:\n        /* \"contracts/vote.sol\":2246:2264  contestants.length */\n      0x05\n        /* \"contracts/vote.sol\":2242:2243  i */\n      dup2\n        /* \"contracts/vote.sol\":2242:2264  i < contestants.length */\n      0xff\n      and\n      lt\n        /* \"contracts/vote.sol\":2224:2467  for (uint8 i = 0; i < contestants.length; i++) {... */\n      iszero\n      tag_49\n      jumpi\n        /* \"contracts/vote.sol\":2317:2325  maxVotes */\n      dup3\n        /* \"contracts/vote.sol\":2290:2301  contestants */\n      0x02\n        /* \"contracts/vote.sol\":2302:2303  i */\n      dup3\n        /* \"contracts/vote.sol\":2290:2304  contestants[i] */\n      0xff\n      and\n      0x05\n      dup2\n      lt\n      tag_51\n      jumpi\n      tag_52\n      tag_53\n      jump\t// in\n    tag_52:\n    tag_51:\n      0x02\n      mul\n      add\n        /* \"contracts/vote.sol\":2290:2314  contestants[i].voteCount */\n      0x01\n      add\n      sload\n        /* \"contracts/vote.sol\":2290:2325  contestants[i].voteCount > maxVotes */\n      gt\n        /* \"contracts/vote.sol\":2286:2456  if (contestants[i].voteCount > maxVotes) {... */\n      iszero\n      tag_55\n      jumpi\n        /* \"contracts/vote.sol\":2357:2368  contestants */\n      0x02\n        /* \"contracts/vote.sol\":2369:2370  i */\n      dup2\n        /* \"contracts/vote.sol\":2357:2371  contestants[i] */\n      0xff\n      and\n      0x05\n      dup2\n      lt\n      tag_56\n      jumpi\n      tag_57\n      tag_53\n      jump\t// in\n    tag_57:\n    tag_56:\n      0x02\n      mul\n      add\n        /* \"contracts/vote.sol\":2357:2381  contestants[i].voteCount */\n      0x01\n      add\n      sload\n        /* \"contracts/vote.sol\":2346:2381  maxVotes = contestants[i].voteCount */\n      swap3\n      pop\n        /* \"contracts/vote.sol\":2421:2432  contestants */\n      0x02\n        /* \"contracts/vote.sol\":2433:2434  i */\n      dup2\n        /* \"contracts/vote.sol\":2421:2435  contestants[i] */\n      0xff\n      and\n      0x05\n      dup2\n      lt\n      tag_59\n      jumpi\n      tag_60\n      tag_53\n      jump\t// in\n    tag_60:\n    tag_59:\n      0x02\n      mul\n      add\n        /* \"contracts/vote.sol\":2421:2440  contestants[i].name */\n      0x00\n      add\n        /* \"contracts/vote.sol\":2400:2440  votedOutContestant = contestants[i].name */\n      dup1\n      sload\n      tag_62\n      swap1\n      tag_63\n      jump\t// in\n    tag_62:\n      dup1\n      0x1f\n      add\n      0x20\n      dup1\n      swap2\n      div\n      mul\n      0x20\n      add\n      mload(0x40)\n      swap1\n      dup2\n      add\n      0x40\n      mstore\n      dup1\n      swap3\n      swap2\n      swap1\n      dup2\n      dup2\n      mstore\n      0x20\n      add\n      dup3\n      dup1\n      sload\n      tag_64\n      swap1\n      tag_63\n      jump\t// in\n    tag_64:\n      dup1\n      iszero\n      tag_65\n      jumpi\n      dup1\n      0x1f\n      lt\n      tag_66\n      jumpi\n      0x0100\n      dup1\n      dup4\n      sload\n      div\n      mul\n      dup4\n      mstore\n      swap2\n      0x20\n      add\n      swap2\n      jump(tag_65)\n    tag_66:\n      dup3\n      add\n      swap2\n      swap1\n      0x00\n      mstore\n      keccak256(0x00, 0x20)\n      swap1\n    tag_67:\n      dup2\n      sload\n      dup2\n      mstore\n      swap1\n      0x01\n      add\n      swap1\n      0x20\n      add\n      dup1\n      dup4\n      gt\n      tag_67\n      jumpi\n      dup3\n      swap1\n      sub\n      0x1f\n      and\n      dup3\n      add\n      swap2\n    tag_65:\n      pop\n      pop\n      pop\n      pop\n      pop\n      swap2\n      pop\n        /* \"contracts/vote.sol\":2286:2456  if (contestants[i].voteCount > maxVotes) {... */\n    tag_55:\n        /* \"contracts/vote.sol\":2266:2269  i++ */\n      dup1\n      dup1\n      tag_68\n      swap1\n      tag_69\n      jump\t// in\n    tag_68:\n      swap2\n      pop\n      pop\n        /* \"contracts/vote.sol\":2224:2467  for (uint8 i = 0; i < contestants.length; i++) {... */\n      jump(tag_48)\n    tag_49:\n      pop\n        /* \"contracts/vote.sol\":2486:2504  votedOutContestant */\n      dup1\n        /* \"contracts/vote.sol\":2479:2504  return votedOutContestant */\n      swap3\n      pop\n      pop\n      pop\n        /* \"contracts/vote.sol\":2062:2512  function announceVotedOut() external view onlyHost returns (string memory) {... */\n      swap1\n      jump\t// out\n        /* \"contracts/vote.sol\":1425:1997  function voteOut(string memory _name) external {... */\n    tag_24:\n        /* \"contracts/vote.sol\":1483:1514  Participant storage participant */\n      0x00\n        /* \"contracts/vote.sol\":1517:1529  participants */\n      0x01\n        /* \"contracts/vote.sol\":1517:1541  participants[msg.sender] */\n      0x00\n        /* \"contracts/vote.sol\":1530:1540  msg.sender */\n      caller\n        /* \"contracts/vote.sol\":1517:1541  participants[msg.sender] */\n      0xffffffffffffffffffffffffffffffffffffffff\n      and\n      0xffffffffffffffffffffffffffffffffffffffff\n      and\n      dup2\n      mstore\n      0x20\n      add\n      swap1\n      dup2\n      mstore\n      0x20\n      add\n      0x00\n      keccak256\n        /* \"contracts/vote.sol\":1483:1541  Participant storage participant = participants[msg.sender] */\n      swap1\n      pop\n        /* \"contracts/vote.sol\":1561:1572  participant */\n      dup1\n        /* \"contracts/vote.sol\":1561:1585  participant.alreadyVoted */\n      0x00\n      add\n      0x00\n      swap1\n      sload\n      swap1\n      0x0100\n      exp\n      swap1\n      div\n      0xff\n      and\n        /* \"contracts/vote.sol\":1560:1585  !participant.alreadyVoted */\n      iszero\n        /* \"contracts/vote.sol\":1552:1612  require(!participant.alreadyVoted, \"You have already voted\") */\n      tag_71\n      jumpi\n      mload(0x40)\n      0x08c379a000000000000000000000000000000000000000000000000000000000\n      dup2\n      mstore\n      0x04\n      add\n      tag_72\n      swap1\n      tag_73\n      jump\t// in\n    tag_72:\n      mload(0x40)\n      dup1\n      swap2\n      sub\n      swap1\n      revert\n    tag_71:\n        /* \"contracts/vote.sol\":1638:1645  uint8 i */\n      0x00\n        /* \"contracts/vote.sol\":1633:1990  for (uint8 i = 0; i < contestants.length; i++) {... */\n    tag_74:\n        /* \"contracts/vote.sol\":1655:1673  contestants.length */\n      0x05\n        /* \"contracts/vote.sol\":1651:1652  i */\n      dup2\n        /* \"contracts/vote.sol\":1651:1673  i < contestants.length */\n      0xff\n      and\n      lt\n        /* \"contracts/vote.sol\":1633:1990  for (uint8 i = 0; i < contestants.length; i++) {... */\n      iszero\n      tag_75\n      jumpi\n        /* \"contracts/vote.sol\":1756:1761  _name */\n      dup3\n        /* \"contracts/vote.sol\":1740:1763  keccak256(bytes(_name)) */\n      dup1\n      mload\n      swap1\n      0x20\n      add\n      keccak256\n        /* \"contracts/vote.sol\":1715:1726  contestants */\n      0x02\n        /* \"contracts/vote.sol\":1727:1728  i */\n      dup3\n        /* \"contracts/vote.sol\":1715:1729  contestants[i] */\n      0xff\n      and\n      0x05\n      dup2\n      lt\n      tag_77\n      jumpi\n      tag_78\n      tag_53\n      jump\t// in\n    tag_78:\n    tag_77:\n      0x02\n      mul\n      add\n        /* \"contracts/vote.sol\":1715:1734  contestants[i].name */\n      0x00\n      add\n        /* \"contracts/vote.sol\":1699:1736  keccak256(bytes(contestants[i].name)) */\n      mload(0x40)\n      tag_80\n      swap2\n      swap1\n      tag_81\n      jump\t// in\n    tag_80:\n      mload(0x40)\n      dup1\n      swap2\n      sub\n      swap1\n      keccak256\n        /* \"contracts/vote.sol\":1699:1763  keccak256(bytes(contestants[i].name)) == keccak256(bytes(_name)) */\n      sub\n        /* \"contracts/vote.sol\":1695:1979  if (keccak256(bytes(contestants[i].name)) == keccak256(bytes(_name))) {... */\n      tag_82\n      jumpi\n        /* \"contracts/vote.sol\":1811:1815  true */\n      0x01\n        /* \"contracts/vote.sol\":1784:1795  participant */\n      dup3\n        /* \"contracts/vote.sol\":1784:1808  participant.alreadyVoted */\n      0x00\n      add\n      0x00\n        /* \"contracts/vote.sol\":1784:1815  participant.alreadyVoted = true */\n      0x0100\n      exp\n      dup2\n      sload\n      dup2\n      0xff\n      mul\n      not\n      and\n      swap1\n      dup4\n      iszero\n      iszero\n      mul\n      or\n      swap1\n      sstore\n      pop\n        /* \"contracts/vote.sol\":1858:1859  i */\n      dup1\n        /* \"contracts/vote.sol\":1834:1859  participant.voteIndex = i */\n      0xff\n      and\n        /* \"contracts/vote.sol\":1834:1845  participant */\n      dup3\n        /* \"contracts/vote.sol\":1834:1855  participant.voteIndex */\n      0x01\n      add\n        /* \"contracts/vote.sol\":1834:1859  participant.voteIndex = i */\n      dup2\n      swap1\n      sstore\n      pop\n        /* \"contracts/vote.sol\":1878:1889  contestants */\n      0x02\n        /* \"contracts/vote.sol\":1890:1891  i */\n      dup2\n        /* \"contracts/vote.sol\":1878:1892  contestants[i] */\n      0xff\n      and\n      0x05\n      dup2\n      lt\n      tag_83\n      jumpi\n      tag_84\n      tag_53\n      jump\t// in\n    tag_84:\n    tag_83:\n      0x02\n      mul\n      add\n        /* \"contracts/vote.sol\":1878:1902  contestants[i].voteCount */\n      0x01\n      add\n      0x00\n        /* \"contracts/vote.sol\":1878:1904  contestants[i].voteCount++ */\n      dup2\n      sload\n      dup1\n      swap3\n      swap2\n      swap1\n      tag_86\n      swap1\n      tag_87\n      jump\t// in\n    tag_86:\n      swap2\n      swap1\n      pop\n      sstore\n      pop\n        /* \"contracts/vote.sol\":1923:1928  break */\n      jump(tag_75)\n        /* \"contracts/vote.sol\":1695:1979  if (keccak256(bytes(contestants[i].name)) == keccak256(bytes(_name))) {... */\n    tag_82:\n        /* \"contracts/vote.sol\":1675:1678  i++ */\n      dup1\n      dup1\n      tag_88\n      swap1\n      tag_69\n      jump\t// in\n    tag_88:\n      swap2\n      pop\n      pop\n        /* \"contracts/vote.sol\":1633:1990  for (uint8 i = 0; i < contestants.length; i++) {... */\n      jump(tag_74)\n    tag_75:\n      pop\n        /* \"contracts/vote.sol\":1472:1997  {... */\n      pop\n        /* \"contracts/vote.sol\":1425:1997  function voteOut(string memory _name) external {... */\n      pop\n      jump\t// out\n        /* \"contracts/vote.sol\":744:966  function initialize(string memory name, uint8 contestantIndex) external onlyHost {... */\n    tag_28:\n        /* \"contracts/vote.sol\":529:533  host */\n      0x00\n      dup1\n      sload\n      swap1\n      0x0100\n      exp\n      swap1\n      div\n      0xffffffffffffffffffffffffffffffffffffffff\n      and\n        /* \"contracts/vote.sol\":515:533  msg.sender == host */\n      0xffffffffffffffffffffffffffffffffffffffff\n      and\n        /* \"contracts/vote.sol\":515:525  msg.sender */\n      caller\n        /* \"contracts/vote.sol\":515:533  msg.sender == host */\n      0xffffffffffffffffffffffffffffffffffffffff\n      and\n      eq\n        /* \"contracts/vote.sol\":507:568  require(msg.sender == host, \"Only the host can execute this\") */\n      tag_90\n      jumpi\n      mload(0x40)\n      0x08c379a000000000000000000000000000000000000000000000000000000000\n      dup2\n      mstore\n      0x04\n      add\n      tag_91\n      swap1\n      tag_46\n      jump\t// in\n    tag_91:\n      mload(0x40)\n      dup1\n      swap2\n      sub\n      swap1\n      revert\n    tag_90:\n        /* \"contracts/vote.sol\":862:863  5 */\n      0x05\n        /* \"contracts/vote.sol\":844:859  contestantIndex */\n      dup2\n        /* \"contracts/vote.sol\":844:863  contestantIndex < 5 */\n      0xff\n      and\n      lt\n        /* \"contracts/vote.sol\":836:897  require(contestantIndex < 5, \"Contestant index out of range\") */\n      tag_93\n      jumpi\n      mload(0x40)\n      0x08c379a000000000000000000000000000000000000000000000000000000000\n      dup2\n      mstore\n      0x04\n      add\n      tag_94\n      swap1\n      tag_95\n      jump\t// in\n    tag_94:\n      mload(0x40)\n      dup1\n      swap2\n      sub\n      swap1\n      revert\n    tag_93:\n        /* \"contracts/vote.sol\":939:958  Contestant(name, 0) */\n      mload(0x40)\n      dup1\n      0x40\n      add\n      0x40\n      mstore\n      dup1\n        /* \"contracts/vote.sol\":950:954  name */\n      dup4\n        /* \"contracts/vote.sol\":939:958  Contestant(name, 0) */\n      dup2\n      mstore\n      0x20\n      add\n        /* \"contracts/vote.sol\":956:957  0 */\n      0x00\n        /* \"contracts/vote.sol\":939:958  Contestant(name, 0) */\n      dup2\n      mstore\n      pop\n        /* \"contracts/vote.sol\":908:919  contestants */\n      0x02\n        /* \"contracts/vote.sol\":920:935  contestantIndex */\n      dup3\n        /* \"contracts/vote.sol\":908:936  contestants[contestantIndex] */\n      0xff\n      and\n      0x05\n      dup2\n      lt\n      tag_96\n      jumpi\n      tag_97\n      tag_53\n      jump\t// in\n    tag_97:\n    tag_96:\n      0x02\n      mul\n      add\n        /* \"contracts/vote.sol\":908:958  contestants[contestantIndex] = Contestant(name, 0) */\n      0x00\n      dup3\n      add\n      mload\n      dup2\n      0x00\n      add\n      swap1\n      dup2\n      tag_99\n      swap2\n      swap1\n      tag_100\n      jump\t// in\n    tag_99:\n      pop\n      0x20\n      dup3\n      add\n      mload\n      dup2\n      0x01\n      add\n      sstore\n      swap1\n      pop\n      pop\n        /* \"contracts/vote.sol\":744:966  function initialize(string memory name, uint8 contestantIndex) external onlyHost {... */\n      pop\n      pop\n      jump\t// out\n        /* \"contracts/vote.sol\":1027:1302  function getTotalVoteCounts() external view returns (uint256[5] memory) {... */\n    tag_30:\n        /* \"contracts/vote.sol\":1080:1097  uint256[5] memory */\n      tag_101\n      tag_102\n      jump\t// in\n    tag_101:\n        /* \"contracts/vote.sol\":1110:1138  uint256[5] memory voteCounts */\n      tag_104\n      tag_102\n      jump\t// in\n    tag_104:\n        /* \"contracts/vote.sol\":1156:1163  uint8 i */\n      0x00\n        /* \"contracts/vote.sol\":1151:1265  for (uint8 i = 0; i < contestants.length; i++) {... */\n    tag_105:\n        /* \"contracts/vote.sol\":1173:1191  contestants.length */\n      0x05\n        /* \"contracts/vote.sol\":1169:1170  i */\n      dup2\n        /* \"contracts/vote.sol\":1169:1191  i < contestants.length */\n      0xff\n      and\n      lt\n        /* \"contracts/vote.sol\":1151:1265  for (uint8 i = 0; i < contestants.length; i++) {... */\n      iszero\n      tag_106\n      jumpi\n        /* \"contracts/vote.sol\":1229:1240  contestants */\n      0x02\n        /* \"contracts/vote.sol\":1241:1242  i */\n      dup2\n        /* \"contracts/vote.sol\":1229:1243  contestants[i] */\n      0xff\n      and\n      0x05\n      dup2\n      lt\n      tag_108\n      jumpi\n      tag_109\n      tag_53\n      jump\t// in\n    tag_109:\n    tag_108:\n      0x02\n      mul\n      add\n        /* \"contracts/vote.sol\":1229:1253  contestants[i].voteCount */\n      0x01\n      add\n      sload\n        /* \"contracts/vote.sol\":1213:1223  voteCounts */\n      dup3\n        /* \"contracts/vote.sol\":1224:1225  i */\n      dup3\n        /* \"contracts/vote.sol\":1213:1226  voteCounts[i] */\n      0xff\n      and\n      0x05\n      dup2\n      lt\n      tag_111\n      jumpi\n      tag_112\n      tag_53\n      jump\t// in\n    tag_112:\n    tag_111:\n      0x20\n      mul\n      add\n        /* \"contracts/vote.sol\":1213:1253  voteCounts[i] = contestants[i].voteCount */\n      dup2\n      dup2\n      mstore\n      pop\n      pop\n        /* \"contracts/vote.sol\":1193:1196  i++ */\n      dup1\n      dup1\n      tag_113\n      swap1\n      tag_69\n      jump\t// in\n    tag_113:\n      swap2\n      pop\n      pop\n        /* \"contracts/vote.sol\":1151:1265  for (uint8 i = 0; i < contestants.length; i++) {... */\n      jump(tag_105)\n    tag_106:\n      pop\n        /* \"contracts/vote.sol\":1284:1294  voteCounts */\n      dup1\n        /* \"contracts/vote.sol\":1277:1294  return voteCounts */\n      swap2\n      pop\n      pop\n        /* \"contracts/vote.sol\":1027:1302  function getTotalVoteCounts() external view returns (uint256[5] memory) {... */\n      swap1\n      jump\t// out\n        /* \"contracts/vote.sol\":396:428  Contestant[5] public contestants */\n    tag_36:\n      0x02\n      dup2\n      0x05\n      dup2\n      lt\n      tag_114\n      jumpi\n      0x00\n      dup1\n      revert\n    tag_114:\n      0x02\n      mul\n      add\n      0x00\n      swap2\n      pop\n      swap1\n      pop\n      dup1\n      0x00\n      add\n      dup1\n      sload\n      tag_116\n      swap1\n      tag_63\n      jump\t// in\n    tag_116:\n      dup1\n      0x1f\n      add\n      0x20\n      dup1\n      swap2\n      div\n      mul\n      0x20\n      add\n      mload(0x40)\n      swap1\n      dup2\n      add\n      0x40\n      mstore\n      dup1\n      swap3\n      swap2\n      swap1\n      dup2\n      dup2\n      mstore\n      0x20\n      add\n      dup3\n      dup1\n      sload\n      tag_117\n      swap1\n      tag_63\n      jump\t// in\n    tag_117:\n      dup1\n      iszero\n      tag_118\n      jumpi\n      dup1\n      0x1f\n      lt\n      tag_119\n      jumpi\n      0x0100\n      dup1\n      dup4\n      sload\n      div\n      mul\n      dup4\n      mstore\n      swap2\n      0x20\n      add\n      swap2\n      jump(tag_118)\n    tag_119:\n      dup3\n      add\n      swap2\n      swap1\n      0x00\n      mstore\n      keccak256(0x00, 0x20)\n      swap1\n    tag_120:\n      dup2\n      sload\n      dup2\n      mstore\n      swap1\n      0x01\n      add\n      swap1\n      0x20\n      add\n      dup1\n      dup4\n      gt\n      tag_120\n      jumpi\n      dup3\n      swap1\n      sub\n      0x1f\n      and\n      dup3\n      add\n      swap2\n    tag_118:\n      pop\n      pop\n      pop\n      pop\n      pop\n      swap1\n      dup1\n      0x01\n      add\n      sload\n      swap1\n      pop\n      dup3\n      jump\t// out\n        /* \"contracts/vote.sol\":108:127  address public host */\n    tag_40:\n      0x00\n      dup1\n      sload\n      swap1\n      0x0100\n      exp\n      swap1\n      div\n      0xffffffffffffffffffffffffffffffffffffffff\n      and\n      dup2\n      jump\t// out\n    tag_102:\n      mload(0x40)\n      dup1\n      0xa0\n      add\n      0x40\n      mstore\n      dup1\n      0x05\n      swap1\n      0x20\n      dup3\n      mul\n      dup1\n      calldatasize\n      dup4\n      calldatacopy\n      dup1\n      dup3\n      add\n      swap2\n      pop\n      pop\n      swap1\n      pop\n      pop\n      swap1\n      jump\t// out\n        /* \"#utility.yul\":7:82   */\n    tag_121:\n        /* \"#utility.yul\":40:46   */\n      0x00\n        /* \"#utility.yul\":73:75   */\n      0x40\n        /* \"#utility.yul\":67:76   */\n      mload\n        /* \"#utility.yul\":57:76   */\n      swap1\n      pop\n        /* \"#utility.yul\":7:82   */\n      swap1\n      jump\t// out\n        /* \"#utility.yul\":88:205   */\n    tag_122:\n        /* \"#utility.yul\":197:198   */\n      0x00\n        /* \"#utility.yul\":194:195   */\n      dup1\n        /* \"#utility.yul\":187:199   */\n      revert\n        /* \"#utility.yul\":211:328   */\n    tag_123:\n        /* \"#utility.yul\":320:321   */\n      0x00\n        /* \"#utility.yul\":317:318   */\n      dup1\n        /* \"#utility.yul\":310:322   */\n      revert\n        /* \"#utility.yul\":334:460   */\n    tag_124:\n        /* \"#utility.yul\":371:378   */\n      0x00\n        /* \"#utility.yul\":411:453   */\n      0xffffffffffffffffffffffffffffffffffffffff\n        /* \"#utility.yul\":404:409   */\n      dup3\n        /* \"#utility.yul\":400:454   */\n      and\n        /* \"#utility.yul\":389:454   */\n      swap1\n      pop\n        /* \"#utility.yul\":334:460   */\n      swap2\n      swap1\n      pop\n      jump\t// out\n        /* \"#utility.yul\":466:562   */\n    tag_125:\n        /* \"#utility.yul\":503:510   */\n      0x00\n        /* \"#utility.yul\":532:556   */\n      tag_191\n        /* \"#utility.yul\":550:555   */\n      dup3\n        /* \"#utility.yul\":532:556   */\n      tag_124\n      jump\t// in\n    tag_191:\n        /* \"#utility.yul\":521:556   */\n      swap1\n      pop\n        /* \"#utility.yul\":466:562   */\n      swap2\n      swap1\n      pop\n      jump\t// out\n        /* \"#utility.yul\":568:690   */\n    tag_126:\n        /* \"#utility.yul\":641:665   */\n      tag_193\n        /* \"#utility.yul\":659:664   */\n      dup2\n        /* \"#utility.yul\":641:665   */\n      tag_125\n      jump\t// in\n    tag_193:\n        /* \"#utility.yul\":634:639   */\n      dup2\n        /* \"#utility.yul\":631:666   */\n      eq\n        /* \"#utility.yul\":621:684   */\n      tag_194\n      jumpi\n        /* \"#utility.yul\":680:681   */\n      0x00\n        /* \"#utility.yul\":677:678   */\n      dup1\n        /* \"#utility.yul\":670:682   */\n      revert\n        /* \"#utility.yul\":621:684   */\n    tag_194:\n        /* \"#utility.yul\":568:690   */\n      pop\n      jump\t// out\n        /* \"#utility.yul\":696:835   */\n    tag_127:\n        /* \"#utility.yul\":742:747   */\n      0x00\n        /* \"#utility.yul\":780:786   */\n      dup2\n        /* \"#utility.yul\":767:787   */\n      calldataload\n        /* \"#utility.yul\":758:787   */\n      swap1\n      pop\n        /* \"#utility.yul\":796:829   */\n      tag_196\n        /* \"#utility.yul\":823:828   */\n      dup2\n        /* \"#utility.yul\":796:829   */\n      tag_126\n      jump\t// in\n    tag_196:\n        /* \"#utility.yul\":696:835   */\n      swap3\n      swap2\n      pop\n      pop\n      jump\t// out\n        /* \"#utility.yul\":841:1170   */\n    tag_13:\n        /* \"#utility.yul\":900:906   */\n      0x00\n        /* \"#utility.yul\":949:951   */\n      0x20\n        /* \"#utility.yul\":937:946   */\n      dup3\n        /* \"#utility.yul\":928:935   */\n      dup5\n        /* \"#utility.yul\":924:947   */\n      sub\n        /* \"#utility.yul\":920:952   */\n      slt\n        /* \"#utility.yul\":917:1036   */\n      iszero\n      tag_198\n      jumpi\n        /* \"#utility.yul\":955:1034   */\n      tag_199\n      tag_122\n      jump\t// in\n    tag_199:\n        /* \"#utility.yul\":917:1036   */\n    tag_198:\n        /* \"#utility.yul\":1075:1076   */\n      0x00\n        /* \"#utility.yul\":1100:1153   */\n      tag_200\n        /* \"#utility.yul\":1145:1152   */\n      dup5\n        /* \"#utility.yul\":1136:1142   */\n      dup3\n        /* \"#utility.yul\":1125:1134   */\n      dup6\n        /* \"#utility.yul\":1121:1143   */\n      add\n        /* \"#utility.yul\":1100:1153   */\n      tag_127\n      jump\t// in\n    tag_200:\n        /* \"#utility.yul\":1090:1153   */\n      swap2\n      pop\n        /* \"#utility.yul\":1046:1163   */\n      pop\n        /* \"#utility.yul\":841:1170   */\n      swap3\n      swap2\n      pop\n      pop\n      jump\t// out\n        /* \"#utility.yul\":1176:1266   */\n    tag_128:\n        /* \"#utility.yul\":1210:1217   */\n      0x00\n        /* \"#utility.yul\":1253:1258   */\n      dup2\n        /* \"#utility.yul\":1246:1259   */\n      iszero\n        /* \"#utility.yul\":1239:1260   */\n      iszero\n        /* \"#utility.yul\":1228:1260   */\n      swap1\n      pop\n        /* \"#utility.yul\":1176:1266   */\n      swap2\n      swap1\n      pop\n      jump\t// out\n        /* \"#utility.yul\":1272:1381   */\n    tag_129:\n        /* \"#utility.yul\":1353:1374   */\n      tag_203\n        /* \"#utility.yul\":1368:1373   */\n      dup2\n        /* \"#utility.yul\":1353:1374   */\n      tag_128\n      jump\t// in\n    tag_203:\n        /* \"#utility.yul\":1348:1351   */\n      dup3\n        /* \"#utility.yul\":1341:1375   */\n      mstore\n        /* \"#utility.yul\":1272:1381   */\n      pop\n      pop\n      jump\t// out\n        /* \"#utility.yul\":1387:1464   */\n    tag_130:\n        /* \"#utility.yul\":1424:1431   */\n      0x00\n        /* \"#utility.yul\":1453:1458   */\n      dup2\n        /* \"#utility.yul\":1442:1458   */\n      swap1\n      pop\n        /* \"#utility.yul\":1387:1464   */\n      swap2\n      swap1\n      pop\n      jump\t// out\n        /* \"#utility.yul\":1470:1588   */\n    tag_131:\n        /* \"#utility.yul\":1557:1581   */\n      tag_206\n        /* \"#utility.yul\":1575:1580   */\n      dup2\n        /* \"#utility.yul\":1557:1581   */\n      tag_130\n      jump\t// in\n    tag_206:\n        /* \"#utility.yul\":1552:1555   */\n      dup3\n        /* \"#utility.yul\":1545:1582   */\n      mstore\n        /* \"#utility.yul\":1470:1588   */\n      pop\n      pop\n      jump\t// out\n        /* \"#utility.yul\":1594:1914   */\n    tag_16:\n        /* \"#utility.yul\":1709:1713   */\n      0x00\n        /* \"#utility.yul\":1747:1749   */\n      0x40\n        /* \"#utility.yul\":1736:1745   */\n      dup3\n        /* \"#utility.yul\":1732:1750   */\n      add\n        /* \"#utility.yul\":1724:1750   */\n      swap1\n      pop\n        /* \"#utility.yul\":1760:1825   */\n      tag_208\n        /* \"#utility.yul\":1822:1823   */\n      0x00\n        /* \"#utility.yul\":1811:1820   */\n      dup4\n        /* \"#utility.yul\":1807:1824   */\n      add\n        /* \"#utility.yul\":1798:1804   */\n      dup6\n        /* \"#utility.yul\":1760:1825   */\n      tag_129\n      jump\t// in\n    tag_208:\n        /* \"#utility.yul\":1835:1907   */\n      tag_209\n        /* \"#utility.yul\":1903:1905   */\n      0x20\n        /* \"#utility.yul\":1892:1901   */\n      dup4\n        /* \"#utility.yul\":1888:1906   */\n      add\n        /* \"#utility.yul\":1879:1885   */\n      dup5\n        /* \"#utility.yul\":1835:1907   */\n      tag_131\n      jump\t// in\n    tag_209:\n        /* \"#utility.yul\":1594:1914   */\n      swap4\n      swap3\n      pop\n      pop\n      pop\n      jump\t// out\n        /* \"#utility.yul\":1920:2019   */\n    tag_132:\n        /* \"#utility.yul\":1972:1978   */\n      0x00\n        /* \"#utility.yul\":2006:2011   */\n      dup2\n        /* \"#utility.yul\":2000:2012   */\n      mload\n        /* \"#utility.yul\":1990:2012   */\n      swap1\n      pop\n        /* \"#utility.yul\":1920:2019   */\n      swap2\n      swap1\n      pop\n      jump\t// out\n        /* \"#utility.yul\":2025:2194   */\n    tag_133:\n        /* \"#utility.yul\":2109:2120   */\n      0x00\n        /* \"#utility.yul\":2143:2149   */\n      dup3\n        /* \"#utility.yul\":2138:2141   */\n      dup3\n        /* \"#utility.yul\":2131:2150   */\n      mstore\n        /* \"#utility.yul\":2183:2187   */\n      0x20\n        /* \"#utility.yul\":2178:2181   */\n      dup3\n        /* \"#utility.yul\":2174:2188   */\n      add\n        /* \"#utility.yul\":2159:2188   */\n      swap1\n      pop\n        /* \"#utility.yul\":2025:2194   */\n      swap3\n      swap2\n      pop\n      pop\n      jump\t// out\n        /* \"#utility.yul\":2200:2446   */\n    tag_134:\n        /* \"#utility.yul\":2281:2282   */\n      0x00\n        /* \"#utility.yul\":2291:2404   */\n    tag_213:\n        /* \"#utility.yul\":2305:2311   */\n      dup4\n        /* \"#utility.yul\":2302:2303   */\n      dup2\n        /* \"#utility.yul\":2299:2312   */\n      lt\n        /* \"#utility.yul\":2291:2404   */\n      iszero\n      tag_215\n      jumpi\n        /* \"#utility.yul\":2390:2391   */\n      dup1\n        /* \"#utility.yul\":2385:2388   */\n      dup3\n        /* \"#utility.yul\":2381:2392   */\n      add\n        /* \"#utility.yul\":2375:2393   */\n      mload\n        /* \"#utility.yul\":2371:2372   */\n      dup2\n        /* \"#utility.yul\":2366:2369   */\n      dup5\n        /* \"#utility.yul\":2362:2373   */\n      add\n        /* \"#utility.yul\":2355:2394   */\n      mstore\n        /* \"#utility.yul\":2327:2329   */\n      0x20\n        /* \"#utility.yul\":2324:2325   */\n      dup2\n        /* \"#utility.yul\":2320:2330   */\n      add\n        /* \"#utility.yul\":2315:2330   */\n      swap1\n      pop\n        /* \"#utility.yul\":2291:2404   */\n      jump(tag_213)\n    tag_215:\n        /* \"#utility.yul\":2438:2439   */\n      0x00\n        /* \"#utility.yul\":2429:2435   */\n      dup5\n        /* \"#utility.yul\":2424:2427   */\n      dup5\n        /* \"#utility.yul\":2420:2436   */\n      add\n        /* \"#utility.yul\":2413:2440   */\n      mstore\n        /* \"#utility.yul\":2262:2446   */\n      pop\n        /* \"#utility.yul\":2200:2446   */\n      pop\n      pop\n      pop\n      jump\t// out\n        /* \"#utility.yul\":2452:2554   */\n    tag_135:\n        /* \"#utility.yul\":2493:2499   */\n      0x00\n        /* \"#utility.yul\":2544:2546   */\n      0x1f\n        /* \"#utility.yul\":2540:2547   */\n      not\n        /* \"#utility.yul\":2535:2537   */\n      0x1f\n        /* \"#utility.yul\":2528:2533   */\n      dup4\n        /* \"#utility.yul\":2524:2538   */\n      add\n        /* \"#utility.yul\":2520:2548   */\n      and\n        /* \"#utility.yul\":2510:2548   */\n      swap1\n      pop\n        /* \"#utility.yul\":2452:2554   */\n      swap2\n      swap1\n      pop\n      jump\t// out\n        /* \"#utility.yul\":2560:2937   */\n    tag_136:\n        /* \"#utility.yul\":2648:2651   */\n      0x00\n        /* \"#utility.yul\":2676:2715   */\n      tag_218\n        /* \"#utility.yul\":2709:2714   */\n      dup3\n        /* \"#utility.yul\":2676:2715   */\n      tag_132\n      jump\t// in\n    tag_218:\n        /* \"#utility.yul\":2731:2802   */\n      tag_219\n        /* \"#utility.yul\":2795:2801   */\n      dup2\n        /* \"#utility.yul\":2790:2793   */\n      dup6\n        /* \"#utility.yul\":2731:2802   */\n      tag_133\n      jump\t// in\n    tag_219:\n        /* \"#utility.yul\":2724:2802   */\n      swap4\n      pop\n        /* \"#utility.yul\":2811:2876   */\n      tag_220\n        /* \"#utility.yul\":2869:2875   */\n      dup2\n        /* \"#utility.yul\":2864:2867   */\n      dup6\n        /* \"#utility.yul\":2857:2861   */\n      0x20\n        /* \"#utility.yul\":2850:2855   */\n      dup7\n        /* \"#utility.yul\":2846:2862   */\n      add\n        /* \"#utility.yul\":2811:2876   */\n      tag_134\n      jump\t// in\n    tag_220:\n        /* \"#utility.yul\":2901:2930   */\n      tag_221\n        /* \"#utility.yul\":2923:2929   */\n      dup2\n        /* \"#utility.yul\":2901:2930   */\n      tag_135\n      jump\t// in\n    tag_221:\n        /* \"#utility.yul\":2896:2899   */\n      dup5\n        /* \"#utility.yul\":2892:2931   */\n      add\n        /* \"#utility.yul\":2885:2931   */\n      swap2\n      pop\n        /* \"#utility.yul\":2652:2937   */\n      pop\n        /* \"#utility.yul\":2560:2937   */\n      swap3\n      swap2\n      pop\n      pop\n      jump\t// out\n        /* \"#utility.yul\":2943:3256   */\n    tag_20:\n        /* \"#utility.yul\":3056:3060   */\n      0x00\n        /* \"#utility.yul\":3094:3096   */\n      0x20\n        /* \"#utility.yul\":3083:3092   */\n      dup3\n        /* \"#utility.yul\":3079:3097   */\n      add\n        /* \"#utility.yul\":3071:3097   */\n      swap1\n      pop\n        /* \"#utility.yul\":3143:3152   */\n      dup2\n        /* \"#utility.yul\":3137:3141   */\n      dup2\n        /* \"#utility.yul\":3133:3153   */\n      sub\n        /* \"#utility.yul\":3129:3130   */\n      0x00\n        /* \"#utility.yul\":3118:3127   */\n      dup4\n        /* \"#utility.yul\":3114:3131   */\n      add\n        /* \"#utility.yul\":3107:3154   */\n      mstore\n        /* \"#utility.yul\":3171:3249   */\n      tag_223\n        /* \"#utility.yul\":3244:3248   */\n      dup2\n        /* \"#utility.yul\":3235:3241   */\n      dup5\n        /* \"#utility.yul\":3171:3249   */\n      tag_136\n      jump\t// in\n    tag_223:\n        /* \"#utility.yul\":3163:3249   */\n      swap1\n      pop\n        /* \"#utility.yul\":2943:3256   */\n      swap3\n      swap2\n      pop\n      pop\n      jump\t// out\n        /* \"#utility.yul\":3262:3379   */\n    tag_137:\n        /* \"#utility.yul\":3371:3372   */\n      0x00\n        /* \"#utility.yul\":3368:3369   */\n      dup1\n        /* \"#utility.yul\":3361:3373   */\n      revert\n        /* \"#utility.yul\":3385:3502   */\n    tag_138:\n        /* \"#utility.yul\":3494:3495   */\n      0x00\n        /* \"#utility.yul\":3491:3492   */\n      dup1\n        /* \"#utility.yul\":3484:3496   */\n      revert\n        /* \"#utility.yul\":3508:3688   */\n    tag_139:\n        /* \"#utility.yul\":3556:3633   */\n      0x4e487b7100000000000000000000000000000000000000000000000000000000\n        /* \"#utility.yul\":3553:3554   */\n      0x00\n        /* \"#utility.yul\":3546:3634   */\n      mstore\n        /* \"#utility.yul\":3653:3657   */\n      0x41\n        /* \"#utility.yul\":3650:3651   */\n      0x04\n        /* \"#utility.yul\":3643:3658   */\n      mstore\n        /* \"#utility.yul\":3677:3681   */\n      0x24\n        /* \"#utility.yul\":3674:3675   */\n      0x00\n        /* \"#utility.yul\":3667:3682   */\n      revert\n        /* \"#utility.yul\":3694:3975   */\n    tag_140:\n        /* \"#utility.yul\":3777:3804   */\n      tag_228\n        /* \"#utility.yul\":3799:3803   */\n      dup3\n        /* \"#utility.yul\":3777:3804   */\n      tag_135\n      jump\t// in\n    tag_228:\n        /* \"#utility.yul\":3769:3775   */\n      dup2\n        /* \"#utility.yul\":3765:3805   */\n      add\n        /* \"#utility.yul\":3907:3913   */\n      dup2\n        /* \"#utility.yul\":3895:3905   */\n      dup2\n        /* \"#utility.yul\":3892:3914   */\n      lt\n        /* \"#utility.yul\":3871:3889   */\n      0xffffffffffffffff\n        /* \"#utility.yul\":3859:3869   */\n      dup3\n        /* \"#utility.yul\":3856:3890   */\n      gt\n        /* \"#utility.yul\":3853:3915   */\n      or\n        /* \"#utility.yul\":3850:3938   */\n      iszero\n      tag_229\n      jumpi\n        /* \"#utility.yul\":3918:3936   */\n      tag_230\n      tag_139\n      jump\t// in\n    tag_230:\n        /* \"#utility.yul\":3850:3938   */\n    tag_229:\n        /* \"#utility.yul\":3958:3968   */\n      dup1\n        /* \"#utility.yul\":3954:3956   */\n      0x40\n        /* \"#utility.yul\":3947:3969   */\n      mstore\n        /* \"#utility.yul\":3737:3975   */\n      pop\n        /* \"#utility.yul\":3694:3975   */\n      pop\n      pop\n      jump\t// out\n        /* \"#utility.yul\":3981:4110   */\n    tag_141:\n        /* \"#utility.yul\":4015:4021   */\n      0x00\n        /* \"#utility.yul\":4042:4062   */\n      tag_232\n      tag_121\n      jump\t// in\n    tag_232:\n        /* \"#utility.yul\":4032:4062   */\n      swap1\n      pop\n        /* \"#utility.yul\":4071:4104   */\n      tag_233\n        /* \"#utility.yul\":4099:4103   */\n      dup3\n        /* \"#utility.yul\":4091:4097   */\n      dup3\n        /* \"#utility.yul\":4071:4104   */\n      tag_140\n      jump\t// in\n    tag_233:\n        /* \"#utility.yul\":3981:4110   */\n      swap2\n      swap1\n      pop\n      jump\t// out\n        /* \"#utility.yul\":4116:4424   */\n    tag_142:\n        /* \"#utility.yul\":4178:4182   */\n      0x00\n        /* \"#utility.yul\":4268:4286   */\n      0xffffffffffffffff\n        /* \"#utility.yul\":4260:4266   */\n      dup3\n        /* \"#utility.yul\":4257:4287   */\n      gt\n        /* \"#utility.yul\":4254:4310   */\n      iszero\n      tag_235\n      jumpi\n        /* \"#utility.yul\":4290:4308   */\n      tag_236\n      tag_139\n      jump\t// in\n    tag_236:\n        /* \"#utility.yul\":4254:4310   */\n    tag_235:\n        /* \"#utility.yul\":4328:4357   */\n      tag_237\n        /* \"#utility.yul\":4350:4356   */\n      dup3\n        /* \"#utility.yul\":4328:4357   */\n      tag_135\n      jump\t// in\n    tag_237:\n        /* \"#utility.yul\":4320:4357   */\n      swap1\n      pop\n        /* \"#utility.yul\":4412:4416   */\n      0x20\n        /* \"#utility.yul\":4406:4410   */\n      dup2\n        /* \"#utility.yul\":4402:4417   */\n      add\n        /* \"#utility.yul\":4394:4417   */\n      swap1\n      pop\n        /* \"#utility.yul\":4116:4424   */\n      swap2\n      swap1\n      pop\n      jump\t// out\n        /* \"#utility.yul\":4430:4576   */\n    tag_143:\n        /* \"#utility.yul\":4527:4533   */\n      dup3\n        /* \"#utility.yul\":4522:4525   */\n      dup2\n        /* \"#utility.yul\":4517:4520   */\n      dup4\n        /* \"#utility.yul\":4504:4534   */\n      calldatacopy\n        /* \"#utility.yul\":4568:4569   */\n      0x00\n        /* \"#utility.yul\":4559:4565   */\n      dup4\n        /* \"#utility.yul\":4554:4557   */\n      dup4\n        /* \"#utility.yul\":4550:4566   */\n      add\n        /* \"#utility.yul\":4543:4570   */\n      mstore\n        /* \"#utility.yul\":4430:4576   */\n      pop\n      pop\n      pop\n      jump\t// out\n        /* \"#utility.yul\":4582:5007   */\n    tag_144:\n        /* \"#utility.yul\":4660:4665   */\n      0x00\n        /* \"#utility.yul\":4685:4751   */\n      tag_240\n        /* \"#utility.yul\":4701:4750   */\n      tag_241\n        /* \"#utility.yul\":4743:4749   */\n      dup5\n        /* \"#utility.yul\":4701:4750   */\n      tag_142\n      jump\t// in\n    tag_241:\n        /* \"#utility.yul\":4685:4751   */\n      tag_141\n      jump\t// in\n    tag_240:\n        /* \"#utility.yul\":4676:4751   */\n      swap1\n      pop\n        /* \"#utility.yul\":4774:4780   */\n      dup3\n        /* \"#utility.yul\":4767:4772   */\n      dup2\n        /* \"#utility.yul\":4760:4781   */\n      mstore\n        /* \"#utility.yul\":4812:4816   */\n      0x20\n        /* \"#utility.yul\":4805:4810   */\n      dup2\n        /* \"#utility.yul\":4801:4817   */\n      add\n        /* \"#utility.yul\":4850:4853   */\n      dup5\n        /* \"#utility.yul\":4841:4847   */\n      dup5\n        /* \"#utility.yul\":4836:4839   */\n      dup5\n        /* \"#utility.yul\":4832:4848   */\n      add\n        /* \"#utility.yul\":4829:4854   */\n      gt\n        /* \"#utility.yul\":4826:4938   */\n      iszero\n      tag_242\n      jumpi\n        /* \"#utility.yul\":4857:4936   */\n      tag_243\n      tag_138\n      jump\t// in\n    tag_243:\n        /* \"#utility.yul\":4826:4938   */\n    tag_242:\n        /* \"#utility.yul\":4947:5001   */\n      tag_244\n        /* \"#utility.yul\":4994:5000   */\n      dup5\n        /* \"#utility.yul\":4989:4992   */\n      dup3\n        /* \"#utility.yul\":4984:4987   */\n      dup6\n        /* \"#utility.yul\":4947:5001   */\n      tag_143\n      jump\t// in\n    tag_244:\n        /* \"#utility.yul\":4666:5007   */\n      pop\n        /* \"#utility.yul\":4582:5007   */\n      swap4\n      swap3\n      pop\n      pop\n      pop\n      jump\t// out\n        /* \"#utility.yul\":5027:5367   */\n    tag_145:\n        /* \"#utility.yul\":5083:5088   */\n      0x00\n        /* \"#utility.yul\":5132:5135   */\n      dup3\n        /* \"#utility.yul\":5125:5129   */\n      0x1f\n        /* \"#utility.yul\":5117:5123   */\n      dup4\n        /* \"#utility.yul\":5113:5130   */\n      add\n        /* \"#utility.yul\":5109:5136   */\n      slt\n        /* \"#utility.yul\":5099:5221   */\n      tag_246\n      jumpi\n        /* \"#utility.yul\":5140:5219   */\n      tag_247\n      tag_137\n      jump\t// in\n    tag_247:\n        /* \"#utility.yul\":5099:5221   */\n    tag_246:\n        /* \"#utility.yul\":5257:5263   */\n      dup2\n        /* \"#utility.yul\":5244:5264   */\n      calldataload\n        /* \"#utility.yul\":5282:5361   */\n      tag_248\n        /* \"#utility.yul\":5357:5360   */\n      dup5\n        /* \"#utility.yul\":5349:5355   */\n      dup3\n        /* \"#utility.yul\":5342:5346   */\n      0x20\n        /* \"#utility.yul\":5334:5340   */\n      dup7\n        /* \"#utility.yul\":5330:5347   */\n      add\n        /* \"#utility.yul\":5282:5361   */\n      tag_144\n      jump\t// in\n    tag_248:\n        /* \"#utility.yul\":5273:5361   */\n      swap2\n      pop\n        /* \"#utility.yul\":5089:5367   */\n      pop\n        /* \"#utility.yul\":5027:5367   */\n      swap3\n      swap2\n      pop\n      pop\n      jump\t// out\n        /* \"#utility.yul\":5373:5882   */\n    tag_23:\n        /* \"#utility.yul\":5442:5448   */\n      0x00\n        /* \"#utility.yul\":5491:5493   */\n      0x20\n        /* \"#utility.yul\":5479:5488   */\n      dup3\n        /* \"#utility.yul\":5470:5477   */\n      dup5\n        /* \"#utility.yul\":5466:5489   */\n      sub\n        /* \"#utility.yul\":5462:5494   */\n      slt\n        /* \"#utility.yul\":5459:5578   */\n      iszero\n      tag_250\n      jumpi\n        /* \"#utility.yul\":5497:5576   */\n      tag_251\n      tag_122\n      jump\t// in\n    tag_251:\n        /* \"#utility.yul\":5459:5578   */\n    tag_250:\n        /* \"#utility.yul\":5645:5646   */\n      0x00\n        /* \"#utility.yul\":5634:5643   */\n      dup3\n        /* \"#utility.yul\":5630:5647   */\n      add\n        /* \"#utility.yul\":5617:5648   */\n      calldataload\n        /* \"#utility.yul\":5675:5693   */\n      0xffffffffffffffff\n        /* \"#utility.yul\":5667:5673   */\n      dup2\n        /* \"#utility.yul\":5664:5694   */\n      gt\n        /* \"#utility.yul\":5661:5778   */\n      iszero\n      tag_252\n      jumpi\n        /* \"#utility.yul\":5697:5776   */\n      tag_253\n      tag_123\n      jump\t// in\n    tag_253:\n        /* \"#utility.yul\":5661:5778   */\n    tag_252:\n        /* \"#utility.yul\":5802:5865   */\n      tag_254\n        /* \"#utility.yul\":5857:5864   */\n      dup5\n        /* \"#utility.yul\":5848:5854   */\n      dup3\n        /* \"#utility.yul\":5837:5846   */\n      dup6\n        /* \"#utility.yul\":5833:5855   */\n      add\n        /* \"#utility.yul\":5802:5865   */\n      tag_145\n      jump\t// in\n    tag_254:\n        /* \"#utility.yul\":5792:5865   */\n      swap2\n      pop\n        /* \"#utility.yul\":5588:5875   */\n      pop\n        /* \"#utility.yul\":5373:5882   */\n      swap3\n      swap2\n      pop\n      pop\n      jump\t// out\n        /* \"#utility.yul\":5888:5974   */\n    tag_146:\n        /* \"#utility.yul\":5923:5930   */\n      0x00\n        /* \"#utility.yul\":5963:5967   */\n      0xff\n        /* \"#utility.yul\":5956:5961   */\n      dup3\n        /* \"#utility.yul\":5952:5968   */\n      and\n        /* \"#utility.yul\":5941:5968   */\n      swap1\n      pop\n        /* \"#utility.yul\":5888:5974   */\n      swap2\n      swap1\n      pop\n      jump\t// out\n        /* \"#utility.yul\":5980:6098   */\n    tag_147:\n        /* \"#utility.yul\":6051:6073   */\n      tag_257\n        /* \"#utility.yul\":6067:6072   */\n      dup2\n        /* \"#utility.yul\":6051:6073   */\n      tag_146\n      jump\t// in\n    tag_257:\n        /* \"#utility.yul\":6044:6049   */\n      dup2\n        /* \"#utility.yul\":6041:6074   */\n      eq\n        /* \"#utility.yul\":6031:6092   */\n      tag_258\n      jumpi\n        /* \"#utility.yul\":6088:6089   */\n      0x00\n        /* \"#utility.yul\":6085:6086   */\n      dup1\n        /* \"#utility.yul\":6078:6090   */\n      revert\n        /* \"#utility.yul\":6031:6092   */\n    tag_258:\n        /* \"#utility.yul\":5980:6098   */\n      pop\n      jump\t// out\n        /* \"#utility.yul\":6104:6239   */\n    tag_148:\n        /* \"#utility.yul\":6148:6153   */\n      0x00\n        /* \"#utility.yul\":6186:6192   */\n      dup2\n        /* \"#utility.yul\":6173:6193   */\n      calldataload\n        /* \"#utility.yul\":6164:6193   */\n      swap1\n      pop\n        /* \"#utility.yul\":6202:6233   */\n      tag_260\n        /* \"#utility.yul\":6227:6232   */\n      dup2\n        /* \"#utility.yul\":6202:6233   */\n      tag_147\n      jump\t// in\n    tag_260:\n        /* \"#utility.yul\":6104:6239   */\n      swap3\n      swap2\n      pop\n      pop\n      jump\t// out\n        /* \"#utility.yul\":6245:6895   */\n    tag_27:\n        /* \"#utility.yul\":6321:6327   */\n      0x00\n        /* \"#utility.yul\":6329:6335   */\n      dup1\n        /* \"#utility.yul\":6378:6380   */\n      0x40\n        /* \"#utility.yul\":6366:6375   */\n      dup4\n        /* \"#utility.yul\":6357:6364   */\n      dup6\n        /* \"#utility.yul\":6353:6376   */\n      sub\n        /* \"#utility.yul\":6349:6381   */\n      slt\n        /* \"#utility.yul\":6346:6465   */\n      iszero\n      tag_262\n      jumpi\n        /* \"#utility.yul\":6384:6463   */\n      tag_263\n      tag_122\n      jump\t// in\n    tag_263:\n        /* \"#utility.yul\":6346:6465   */\n    tag_262:\n        /* \"#utility.yul\":6532:6533   */\n      0x00\n        /* \"#utility.yul\":6521:6530   */\n      dup4\n        /* \"#utility.yul\":6517:6534   */\n      add\n        /* \"#utility.yul\":6504:6535   */\n      calldataload\n        /* \"#utility.yul\":6562:6580   */\n      0xffffffffffffffff\n        /* \"#utility.yul\":6554:6560   */\n      dup2\n        /* \"#utility.yul\":6551:6581   */\n      gt\n        /* \"#utility.yul\":6548:6665   */\n      iszero\n      tag_264\n      jumpi\n        /* \"#utility.yul\":6584:6663   */\n      tag_265\n      tag_123\n      jump\t// in\n    tag_265:\n        /* \"#utility.yul\":6548:6665   */\n    tag_264:\n        /* \"#utility.yul\":6689:6752   */\n      tag_266\n        /* \"#utility.yul\":6744:6751   */\n      dup6\n        /* \"#utility.yul\":6735:6741   */\n      dup3\n        /* \"#utility.yul\":6724:6733   */\n      dup7\n        /* \"#utility.yul\":6720:6742   */\n      add\n        /* \"#utility.yul\":6689:6752   */\n      tag_145\n      jump\t// in\n    tag_266:\n        /* \"#utility.yul\":6679:6752   */\n      swap3\n      pop\n        /* \"#utility.yul\":6475:6762   */\n      pop\n        /* \"#utility.yul\":6801:6803   */\n      0x20\n        /* \"#utility.yul\":6827:6878   */\n      tag_267\n        /* \"#utility.yul\":6870:6877   */\n      dup6\n        /* \"#utility.yul\":6861:6867   */\n      dup3\n        /* \"#utility.yul\":6850:6859   */\n      dup7\n        /* \"#utility.yul\":6846:6868   */\n      add\n        /* \"#utility.yul\":6827:6878   */\n      tag_148\n      jump\t// in\n    tag_267:\n        /* \"#utility.yul\":6817:6878   */\n      swap2\n      pop\n        /* \"#utility.yul\":6772:6888   */\n      pop\n        /* \"#utility.yul\":6245:6895   */\n      swap3\n      pop\n      swap3\n      swap1\n      pop\n      jump\t// out\n        /* \"#utility.yul\":6901:7005   */\n    tag_149:\n        /* \"#utility.yul\":6966:6972   */\n      0x00\n        /* \"#utility.yul\":6994:6998   */\n      0x05\n        /* \"#utility.yul\":6984:6998   */\n      swap1\n      pop\n        /* \"#utility.yul\":6901:7005   */\n      swap2\n      swap1\n      pop\n      jump\t// out\n        /* \"#utility.yul\":7011:7154   */\n    tag_150:\n        /* \"#utility.yul\":7108:7119   */\n      0x00\n        /* \"#utility.yul\":7145:7148   */\n      dup2\n        /* \"#utility.yul\":7130:7148   */\n      swap1\n      pop\n        /* \"#utility.yul\":7011:7154   */\n      swap3\n      swap2\n      pop\n      pop\n      jump\t// out\n        /* \"#utility.yul\":7160:7258   */\n    tag_151:\n        /* \"#utility.yul\":7225:7229   */\n      0x00\n        /* \"#utility.yul\":7248:7251   */\n      dup2\n        /* \"#utility.yul\":7240:7251   */\n      swap1\n      pop\n        /* \"#utility.yul\":7160:7258   */\n      swap2\n      swap1\n      pop\n      jump\t// out\n        /* \"#utility.yul\":7264:7372   */\n    tag_152:\n        /* \"#utility.yul\":7341:7365   */\n      tag_272\n        /* \"#utility.yul\":7359:7364   */\n      dup2\n        /* \"#utility.yul\":7341:7365   */\n      tag_130\n      jump\t// in\n    tag_272:\n        /* \"#utility.yul\":7336:7339   */\n      dup3\n        /* \"#utility.yul\":7329:7366   */\n      mstore\n        /* \"#utility.yul\":7264:7372   */\n      pop\n      pop\n      jump\t// out\n        /* \"#utility.yul\":7378:7557   */\n    tag_153:\n        /* \"#utility.yul\":7447:7457   */\n      0x00\n        /* \"#utility.yul\":7468:7514   */\n      tag_274\n        /* \"#utility.yul\":7510:7513   */\n      dup4\n        /* \"#utility.yul\":7502:7508   */\n      dup4\n        /* \"#utility.yul\":7468:7514   */\n      tag_152\n      jump\t// in\n    tag_274:\n        /* \"#utility.yul\":7546:7550   */\n      0x20\n        /* \"#utility.yul\":7541:7544   */\n      dup4\n        /* \"#utility.yul\":7537:7551   */\n      add\n        /* \"#utility.yul\":7523:7551   */\n      swap1\n      pop\n        /* \"#utility.yul\":7378:7557   */\n      swap3\n      swap2\n      pop\n      pop\n      jump\t// out\n        /* \"#utility.yul\":7563:7674   */\n    tag_154:\n        /* \"#utility.yul\":7631:7635   */\n      0x00\n        /* \"#utility.yul\":7663:7667   */\n      0x20\n        /* \"#utility.yul\":7658:7661   */\n      dup3\n        /* \"#utility.yul\":7654:7668   */\n      add\n        /* \"#utility.yul\":7646:7668   */\n      swap1\n      pop\n        /* \"#utility.yul\":7563:7674   */\n      swap2\n      swap1\n      pop\n      jump\t// out\n        /* \"#utility.yul\":7712:8406   */\n    tag_155:\n        /* \"#utility.yul\":7848:7900   */\n      tag_277\n        /* \"#utility.yul\":7894:7899   */\n      dup2\n        /* \"#utility.yul\":7848:7900   */\n      tag_149\n      jump\t// in\n    tag_277:\n        /* \"#utility.yul\":7916:8000   */\n      tag_278\n        /* \"#utility.yul\":7993:7999   */\n      dup2\n        /* \"#utility.yul\":7988:7991   */\n      dup5\n        /* \"#utility.yul\":7916:8000   */\n      tag_150\n      jump\t// in\n    tag_278:\n        /* \"#utility.yul\":7909:8000   */\n      swap3\n      pop\n        /* \"#utility.yul\":8024:8078   */\n      tag_279\n        /* \"#utility.yul\":8072:8077   */\n      dup3\n        /* \"#utility.yul\":8024:8078   */\n      tag_151\n      jump\t// in\n    tag_279:\n        /* \"#utility.yul\":8101:8108   */\n      dup1\n        /* \"#utility.yul\":8132:8133   */\n      0x00\n        /* \"#utility.yul\":8117:8399   */\n    tag_280:\n        /* \"#utility.yul\":8142:8148   */\n      dup4\n        /* \"#utility.yul\":8139:8140   */\n      dup2\n        /* \"#utility.yul\":8136:8149   */\n      lt\n        /* \"#utility.yul\":8117:8399   */\n      iszero\n      tag_282\n      jumpi\n        /* \"#utility.yul\":8218:8224   */\n      dup2\n        /* \"#utility.yul\":8212:8225   */\n      mload\n        /* \"#utility.yul\":8245:8308   */\n      tag_283\n        /* \"#utility.yul\":8304:8307   */\n      dup8\n        /* \"#utility.yul\":8289:8302   */\n      dup3\n        /* \"#utility.yul\":8245:8308   */\n      tag_153\n      jump\t// in\n    tag_283:\n        /* \"#utility.yul\":8238:8308   */\n      swap7\n      pop\n        /* \"#utility.yul\":8331:8389   */\n      tag_284\n        /* \"#utility.yul\":8382:8388   */\n      dup4\n        /* \"#utility.yul\":8331:8389   */\n      tag_154\n      jump\t// in\n    tag_284:\n        /* \"#utility.yul\":8321:8389   */\n      swap3\n      pop\n        /* \"#utility.yul\":8177:8399   */\n      pop\n        /* \"#utility.yul\":8164:8165   */\n      0x01\n        /* \"#utility.yul\":8161:8162   */\n      dup2\n        /* \"#utility.yul\":8157:8166   */\n      add\n        /* \"#utility.yul\":8152:8166   */\n      swap1\n      pop\n        /* \"#utility.yul\":8117:8399   */\n      jump(tag_280)\n    tag_282:\n        /* \"#utility.yul\":8121:8135   */\n      pop\n        /* \"#utility.yul\":7824:8406   */\n      pop\n      pop\n      pop\n        /* \"#utility.yul\":7712:8406   */\n      pop\n      pop\n      jump\t// out\n        /* \"#utility.yul\":8412:8727   */\n    tag_32:\n        /* \"#utility.yul\":8551:8555   */\n      0x00\n        /* \"#utility.yul\":8589:8592   */\n      0xa0\n        /* \"#utility.yul\":8578:8587   */\n      dup3\n        /* \"#utility.yul\":8574:8593   */\n      add\n        /* \"#utility.yul\":8566:8593   */\n      swap1\n      pop\n        /* \"#utility.yul\":8603:8720   */\n      tag_286\n        /* \"#utility.yul\":8717:8718   */\n      0x00\n        /* \"#utility.yul\":8706:8715   */\n      dup4\n        /* \"#utility.yul\":8702:8719   */\n      add\n        /* \"#utility.yul\":8693:8699   */\n      dup5\n        /* \"#utility.yul\":8603:8720   */\n      tag_155\n      jump\t// in\n    tag_286:\n        /* \"#utility.yul\":8412:8727   */\n      swap3\n      swap2\n      pop\n      pop\n      jump\t// out\n        /* \"#utility.yul\":8733:8855   */\n    tag_156:\n        /* \"#utility.yul\":8806:8830   */\n      tag_288\n        /* \"#utility.yul\":8824:8829   */\n      dup2\n        /* \"#utility.yul\":8806:8830   */\n      tag_130\n      jump\t// in\n    tag_288:\n        /* \"#utility.yul\":8799:8804   */\n      dup2\n        /* \"#utility.yul\":8796:8831   */\n      eq\n        /* \"#utility.yul\":8786:8849   */\n      tag_289\n      jumpi\n        /* \"#utility.yul\":8845:8846   */\n      0x00\n        /* \"#utility.yul\":8842:8843   */\n      dup1\n        /* \"#utility.yul\":8835:8847   */\n      revert\n        /* \"#utility.yul\":8786:8849   */\n    tag_289:\n        /* \"#utility.yul\":8733:8855   */\n      pop\n      jump\t// out\n        /* \"#utility.yul\":8861:9000   */\n    tag_157:\n        /* \"#utility.yul\":8907:8912   */\n      0x00\n        /* \"#utility.yul\":8945:8951   */\n      dup2\n        /* \"#utility.yul\":8932:8952   */\n      calldataload\n        /* \"#utility.yul\":8923:8952   */\n      swap1\n      pop\n        /* \"#utility.yul\":8961:8994   */\n      tag_291\n        /* \"#utility.yul\":8988:8993   */\n      dup2\n        /* \"#utility.yul\":8961:8994   */\n      tag_156\n      jump\t// in\n    tag_291:\n        /* \"#utility.yul\":8861:9000   */\n      swap3\n      swap2\n      pop\n      pop\n      jump\t// out\n        /* \"#utility.yul\":9006:9335   */\n    tag_35:\n        /* \"#utility.yul\":9065:9071   */\n      0x00\n        /* \"#utility.yul\":9114:9116   */\n      0x20\n        /* \"#utility.yul\":9102:9111   */\n      dup3\n        /* \"#utility.yul\":9093:9100   */\n      dup5\n        /* \"#utility.yul\":9089:9112   */\n      sub\n        /* \"#utility.yul\":9085:9117   */\n      slt\n        /* \"#utility.yul\":9082:9201   */\n      iszero\n      tag_293\n      jumpi\n        /* \"#utility.yul\":9120:9199   */\n      tag_294\n      tag_122\n      jump\t// in\n    tag_294:\n        /* \"#utility.yul\":9082:9201   */\n    tag_293:\n        /* \"#utility.yul\":9240:9241   */\n      0x00\n        /* \"#utility.yul\":9265:9318   */\n      tag_295\n        /* \"#utility.yul\":9310:9317   */\n      dup5\n        /* \"#utility.yul\":9301:9307   */\n      dup3\n        /* \"#utility.yul\":9290:9299   */\n      dup6\n        /* \"#utility.yul\":9286:9308   */\n      add\n        /* \"#utility.yul\":9265:9318   */\n      tag_157\n      jump\t// in\n    tag_295:\n        /* \"#utility.yul\":9255:9318   */\n      swap2\n      pop\n        /* \"#utility.yul\":9211:9328   */\n      pop\n        /* \"#utility.yul\":9006:9335   */\n      swap3\n      swap2\n      pop\n      pop\n      jump\t// out\n        /* \"#utility.yul\":9341:9764   */\n    tag_38:\n        /* \"#utility.yul\":9482:9486   */\n      0x00\n        /* \"#utility.yul\":9520:9522   */\n      0x40\n        /* \"#utility.yul\":9509:9518   */\n      dup3\n        /* \"#utility.yul\":9505:9523   */\n      add\n        /* \"#utility.yul\":9497:9523   */\n      swap1\n      pop\n        /* \"#utility.yul\":9569:9578   */\n      dup2\n        /* \"#utility.yul\":9563:9567   */\n      dup2\n        /* \"#utility.yul\":9559:9579   */\n      sub\n        /* \"#utility.yul\":9555:9556   */\n      0x00\n        /* \"#utility.yul\":9544:9553   */\n      dup4\n        /* \"#utility.yul\":9540:9557   */\n      add\n        /* \"#utility.yul\":9533:9580   */\n      mstore\n        /* \"#utility.yul\":9597:9675   */\n      tag_297\n        /* \"#utility.yul\":9670:9674   */\n      dup2\n        /* \"#utility.yul\":9661:9667   */\n      dup6\n        /* \"#utility.yul\":9597:9675   */\n      tag_136\n      jump\t// in\n    tag_297:\n        /* \"#utility.yul\":9589:9675   */\n      swap1\n      pop\n        /* \"#utility.yul\":9685:9757   */\n      tag_298\n        /* \"#utility.yul\":9753:9755   */\n      0x20\n        /* \"#utility.yul\":9742:9751   */\n      dup4\n        /* \"#utility.yul\":9738:9756   */\n      add\n        /* \"#utility.yul\":9729:9735   */\n      dup5\n        /* \"#utility.yul\":9685:9757   */\n      tag_131\n      jump\t// in\n    tag_298:\n        /* \"#utility.yul\":9341:9764   */\n      swap4\n      swap3\n      pop\n      pop\n      pop\n      jump\t// out\n        /* \"#utility.yul\":9770:9888   */\n    tag_158:\n        /* \"#utility.yul\":9857:9881   */\n      tag_300\n        /* \"#utility.yul\":9875:9880   */\n      dup2\n        /* \"#utility.yul\":9857:9881   */\n      tag_125\n      jump\t// in\n    tag_300:\n        /* \"#utility.yul\":9852:9855   */\n      dup3\n        /* \"#utility.yul\":9845:9882   */\n      mstore\n        /* \"#utility.yul\":9770:9888   */\n      pop\n      pop\n      jump\t// out\n        /* \"#utility.yul\":9894:10116   */\n    tag_42:\n        /* \"#utility.yul\":9987:9991   */\n      0x00\n        /* \"#utility.yul\":10025:10027   */\n      0x20\n        /* \"#utility.yul\":10014:10023   */\n      dup3\n        /* \"#utility.yul\":10010:10028   */\n      add\n        /* \"#utility.yul\":10002:10028   */\n      swap1\n      pop\n        /* \"#utility.yul\":10038:10109   */\n      tag_302\n        /* \"#utility.yul\":10106:10107   */\n      0x00\n        /* \"#utility.yul\":10095:10104   */\n      dup4\n        /* \"#utility.yul\":10091:10108   */\n      add\n        /* \"#utility.yul\":10082:10088   */\n      dup5\n        /* \"#utility.yul\":10038:10109   */\n      tag_158\n      jump\t// in\n    tag_302:\n        /* \"#utility.yul\":9894:10116   */\n      swap3\n      swap2\n      pop\n      pop\n      jump\t// out\n        /* \"#utility.yul\":10122:10302   */\n    tag_159:\n        /* \"#utility.yul\":10262:10294   */\n      0x4f6e6c792074686520686f73742063616e206578656375746520746869730000\n        /* \"#utility.yul\":10258:10259   */\n      0x00\n        /* \"#utility.yul\":10250:10256   */\n      dup3\n        /* \"#utility.yul\":10246:10260   */\n      add\n        /* \"#utility.yul\":10239:10295   */\n      mstore\n        /* \"#utility.yul\":10122:10302   */\n      pop\n      jump\t// out\n        /* \"#utility.yul\":10308:10674   */\n    tag_160:\n        /* \"#utility.yul\":10450:10453   */\n      0x00\n        /* \"#utility.yul\":10471:10538   */\n      tag_305\n        /* \"#utility.yul\":10535:10537   */\n      0x1e\n        /* \"#utility.yul\":10530:10533   */\n      dup4\n        /* \"#utility.yul\":10471:10538   */\n      tag_133\n      jump\t// in\n    tag_305:\n        /* \"#utility.yul\":10464:10538   */\n      swap2\n      pop\n        /* \"#utility.yul\":10547:10640   */\n      tag_306\n        /* \"#utility.yul\":10636:10639   */\n      dup3\n        /* \"#utility.yul\":10547:10640   */\n      tag_159\n      jump\t// in\n    tag_306:\n        /* \"#utility.yul\":10665:10667   */\n      0x20\n        /* \"#utility.yul\":10660:10663   */\n      dup3\n        /* \"#utility.yul\":10656:10668   */\n      add\n        /* \"#utility.yul\":10649:10668   */\n      swap1\n      pop\n        /* \"#utility.yul\":10308:10674   */\n      swap2\n      swap1\n      pop\n      jump\t// out\n        /* \"#utility.yul\":10680:11099   */\n    tag_46:\n        /* \"#utility.yul\":10846:10850   */\n      0x00\n        /* \"#utility.yul\":10884:10886   */\n      0x20\n        /* \"#utility.yul\":10873:10882   */\n      dup3\n        /* \"#utility.yul\":10869:10887   */\n      add\n        /* \"#utility.yul\":10861:10887   */\n      swap1\n      pop\n        /* \"#utility.yul\":10933:10942   */\n      dup2\n        /* \"#utility.yul\":10927:10931   */\n      dup2\n        /* \"#utility.yul\":10923:10943   */\n      sub\n        /* \"#utility.yul\":10919:10920   */\n      0x00\n        /* \"#utility.yul\":10908:10917   */\n      dup4\n        /* \"#utility.yul\":10904:10921   */\n      add\n        /* \"#utility.yul\":10897:10944   */\n      mstore\n        /* \"#utility.yul\":10961:11092   */\n      tag_308\n        /* \"#utility.yul\":11087:11091   */\n      dup2\n        /* \"#utility.yul\":10961:11092   */\n      tag_160\n      jump\t// in\n    tag_308:\n        /* \"#utility.yul\":10953:11092   */\n      swap1\n      pop\n        /* \"#utility.yul\":10680:11099   */\n      swap2\n      swap1\n      pop\n      jump\t// out\n        /* \"#utility.yul\":11105:11285   */\n    tag_53:\n        /* \"#utility.yul\":11153:11230   */\n      0x4e487b7100000000000000000000000000000000000000000000000000000000\n        /* \"#utility.yul\":11150:11151   */\n      0x00\n        /* \"#utility.yul\":11143:11231   */\n      mstore\n        /* \"#utility.yul\":11250:11254   */\n      0x32\n        /* \"#utility.yul\":11247:11248   */\n      0x04\n        /* \"#utility.yul\":11240:11255   */\n      mstore\n        /* \"#utility.yul\":11274:11278   */\n      0x24\n        /* \"#utility.yul\":11271:11272   */\n      0x00\n        /* \"#utility.yul\":11264:11279   */\n      revert\n        /* \"#utility.yul\":11291:11471   */\n    tag_161:\n        /* \"#utility.yul\":11339:11416   */\n      0x4e487b7100000000000000000000000000000000000000000000000000000000\n        /* \"#utility.yul\":11336:11337   */\n      0x00\n        /* \"#utility.yul\":11329:11417   */\n      mstore\n        /* \"#utility.yul\":11436:11440   */\n      0x22\n        /* \"#utility.yul\":11433:11434   */\n      0x04\n        /* \"#utility.yul\":11426:11441   */\n      mstore\n        /* \"#utility.yul\":11460:11464   */\n      0x24\n        /* \"#utility.yul\":11457:11458   */\n      0x00\n        /* \"#utility.yul\":11450:11465   */\n      revert\n        /* \"#utility.yul\":11477:11797   */\n    tag_63:\n        /* \"#utility.yul\":11521:11527   */\n      0x00\n        /* \"#utility.yul\":11558:11559   */\n      0x02\n        /* \"#utility.yul\":11552:11556   */\n      dup3\n        /* \"#utility.yul\":11548:11560   */\n      div\n        /* \"#utility.yul\":11538:11560   */\n      swap1\n      pop\n        /* \"#utility.yul\":11605:11606   */\n      0x01\n        /* \"#utility.yul\":11599:11603   */\n      dup3\n        /* \"#utility.yul\":11595:11607   */\n      and\n        /* \"#utility.yul\":11626:11644   */\n      dup1\n        /* \"#utility.yul\":11616:11697   */\n      tag_312\n      jumpi\n        /* \"#utility.yul\":11682:11686   */\n      0x7f\n        /* \"#utility.yul\":11674:11680   */\n      dup3\n        /* \"#utility.yul\":11670:11687   */\n      and\n        /* \"#utility.yul\":11660:11687   */\n      swap2\n      pop\n        /* \"#utility.yul\":11616:11697   */\n    tag_312:\n        /* \"#utility.yul\":11744:11746   */\n      0x20\n        /* \"#utility.yul\":11736:11742   */\n      dup3\n        /* \"#utility.yul\":11733:11747   */\n      lt\n        /* \"#utility.yul\":11713:11731   */\n      dup2\n        /* \"#utility.yul\":11710:11748   */\n      sub\n        /* \"#utility.yul\":11707:11791   */\n      tag_313\n      jumpi\n        /* \"#utility.yul\":11763:11781   */\n      tag_314\n      tag_161\n      jump\t// in\n    tag_314:\n        /* \"#utility.yul\":11707:11791   */\n    tag_313:\n        /* \"#utility.yul\":11528:11797   */\n      pop\n        /* \"#utility.yul\":11477:11797   */\n      swap2\n      swap1\n      pop\n      jump\t// out\n        /* \"#utility.yul\":11803:11983   */\n    tag_162:\n        /* \"#utility.yul\":11851:11928   */\n      0x4e487b7100000000000000000000000000000000000000000000000000000000\n        /* \"#utility.yul\":11848:11849   */\n      0x00\n        /* \"#utility.yul\":11841:11929   */\n      mstore\n        /* \"#utility.yul\":11948:11952   */\n      0x11\n        /* \"#utility.yul\":11945:11946   */\n      0x04\n        /* \"#utility.yul\":11938:11953   */\n      mstore\n        /* \"#utility.yul\":11972:11976   */\n      0x24\n        /* \"#utility.yul\":11969:11970   */\n      0x00\n        /* \"#utility.yul\":11962:11977   */\n      revert\n        /* \"#utility.yul\":11989:12156   */\n    tag_69:\n        /* \"#utility.yul\":12026:12029   */\n      0x00\n        /* \"#utility.yul\":12049:12071   */\n      tag_317\n        /* \"#utility.yul\":12065:12070   */\n      dup3\n        /* \"#utility.yul\":12049:12071   */\n      tag_146\n      jump\t// in\n    tag_317:\n        /* \"#utility.yul\":12040:12071   */\n      swap2\n      pop\n        /* \"#utility.yul\":12093:12097   */\n      0xff\n        /* \"#utility.yul\":12086:12091   */\n      dup3\n        /* \"#utility.yul\":12083:12098   */\n      sub\n        /* \"#utility.yul\":12080:12121   */\n      tag_318\n      jumpi\n        /* \"#utility.yul\":12101:12119   */\n      tag_319\n      tag_162\n      jump\t// in\n    tag_319:\n        /* \"#utility.yul\":12080:12121   */\n    tag_318:\n        /* \"#utility.yul\":12148:12149   */\n      0x01\n        /* \"#utility.yul\":12141:12146   */\n      dup3\n        /* \"#utility.yul\":12137:12150   */\n      add\n        /* \"#utility.yul\":12130:12150   */\n      swap1\n      pop\n        /* \"#utility.yul\":11989:12156   */\n      swap2\n      swap1\n      pop\n      jump\t// out\n        /* \"#utility.yul\":12162:12334   */\n    tag_163:\n        /* \"#utility.yul\":12302:12326   */\n      0x596f75206861766520616c726561647920766f74656400000000000000000000\n        /* \"#utility.yul\":12298:12299   */\n      0x00\n        /* \"#utility.yul\":12290:12296   */\n      dup3\n        /* \"#utility.yul\":12286:12300   */\n      add\n        /* \"#utility.yul\":12279:12327   */\n      mstore\n        /* \"#utility.yul\":12162:12334   */\n      pop\n      jump\t// out\n        /* \"#utility.yul\":12340:12706   */\n    tag_164:\n        /* \"#utility.yul\":12482:12485   */\n      0x00\n        /* \"#utility.yul\":12503:12570   */\n      tag_322\n        /* \"#utility.yul\":12567:12569   */\n      0x16\n        /* \"#utility.yul\":12562:12565   */\n      dup4\n        /* \"#utility.yul\":12503:12570   */\n      tag_133\n      jump\t// in\n    tag_322:\n        /* \"#utility.yul\":12496:12570   */\n      swap2\n      pop\n        /* \"#utility.yul\":12579:12672   */\n      tag_323\n        /* \"#utility.yul\":12668:12671   */\n      dup3\n        /* \"#utility.yul\":12579:12672   */\n      tag_163\n      jump\t// in\n    tag_323:\n        /* \"#utility.yul\":12697:12699   */\n      0x20\n        /* \"#utility.yul\":12692:12695   */\n      dup3\n        /* \"#utility.yul\":12688:12700   */\n      add\n        /* \"#utility.yul\":12681:12700   */\n      swap1\n      pop\n        /* \"#utility.yul\":12340:12706   */\n      swap2\n      swap1\n      pop\n      jump\t// out\n        /* \"#utility.yul\":12712:13131   */\n    tag_73:\n        /* \"#utility.yul\":12878:12882   */\n      0x00\n        /* \"#utility.yul\":12916:12918   */\n      0x20\n        /* \"#utility.yul\":12905:12914   */\n      dup3\n        /* \"#utility.yul\":12901:12919   */\n      add\n        /* \"#utility.yul\":12893:12919   */\n      swap1\n      pop\n        /* \"#utility.yul\":12965:12974   */\n      dup2\n        /* \"#utility.yul\":12959:12963   */\n      dup2\n        /* \"#utility.yul\":12955:12975   */\n      sub\n        /* \"#utility.yul\":12951:12952   */\n      0x00\n        /* \"#utility.yul\":12940:12949   */\n      dup4\n        /* \"#utility.yul\":12936:12953   */\n      add\n        /* \"#utility.yul\":12929:12976   */\n      mstore\n        /* \"#utility.yul\":12993:13124   */\n      tag_325\n        /* \"#utility.yul\":13119:13123   */\n      dup2\n        /* \"#utility.yul\":12993:13124   */\n      tag_164\n      jump\t// in\n    tag_325:\n        /* \"#utility.yul\":12985:13124   */\n      swap1\n      pop\n        /* \"#utility.yul\":12712:13131   */\n      swap2\n      swap1\n      pop\n      jump\t// out\n        /* \"#utility.yul\":13137:13284   */\n    tag_165:\n        /* \"#utility.yul\":13238:13249   */\n      0x00\n        /* \"#utility.yul\":13275:13278   */\n      dup2\n        /* \"#utility.yul\":13260:13278   */\n      swap1\n      pop\n        /* \"#utility.yul\":13137:13284   */\n      swap3\n      swap2\n      pop\n      pop\n      jump\t// out\n        /* \"#utility.yul\":13290:13434   */\n    tag_166:\n        /* \"#utility.yul\":13342:13346   */\n      0x00\n        /* \"#utility.yul\":13365:13368   */\n      dup2\n        /* \"#utility.yul\":13357:13368   */\n      swap1\n      pop\n        /* \"#utility.yul\":13388:13391   */\n      dup2\n        /* \"#utility.yul\":13385:13386   */\n      0x00\n        /* \"#utility.yul\":13378:13392   */\n      mstore\n        /* \"#utility.yul\":13422:13426   */\n      0x20\n        /* \"#utility.yul\":13419:13420   */\n      0x00\n        /* \"#utility.yul\":13409:13427   */\n      keccak256\n        /* \"#utility.yul\":13401:13427   */\n      swap1\n      pop\n        /* \"#utility.yul\":13290:13434   */\n      swap2\n      swap1\n      pop\n      jump\t// out\n        /* \"#utility.yul\":13462:14340   */\n    tag_167:\n        /* \"#utility.yul\":13567:13570   */\n      0x00\n        /* \"#utility.yul\":13604:13609   */\n      dup2\n        /* \"#utility.yul\":13598:13610   */\n      sload\n        /* \"#utility.yul\":13633:13669   */\n      tag_329\n        /* \"#utility.yul\":13659:13668   */\n      dup2\n        /* \"#utility.yul\":13633:13669   */\n      tag_63\n      jump\t// in\n    tag_329:\n        /* \"#utility.yul\":13685:13773   */\n      tag_330\n        /* \"#utility.yul\":13766:13772   */\n      dup2\n        /* \"#utility.yul\":13761:13764   */\n      dup7\n        /* \"#utility.yul\":13685:13773   */\n      tag_165\n      jump\t// in\n    tag_330:\n        /* \"#utility.yul\":13678:13773   */\n      swap5\n      pop\n        /* \"#utility.yul\":13804:13805   */\n      0x01\n        /* \"#utility.yul\":13793:13802   */\n      dup3\n        /* \"#utility.yul\":13789:13806   */\n      and\n        /* \"#utility.yul\":13820:13821   */\n      0x00\n        /* \"#utility.yul\":13815:13981   */\n      dup2\n      eq\n      tag_332\n      jumpi\n        /* \"#utility.yul\":13995:13996   */\n      0x01\n        /* \"#utility.yul\":13990:14334   */\n      dup2\n      eq\n      tag_333\n      jumpi\n        /* \"#utility.yul\":13782:14334   */\n      jump(tag_331)\n        /* \"#utility.yul\":13815:13981   */\n    tag_332:\n        /* \"#utility.yul\":13899:13903   */\n      0xff\n        /* \"#utility.yul\":13895:13904   */\n      not\n        /* \"#utility.yul\":13884:13893   */\n      dup4\n        /* \"#utility.yul\":13880:13905   */\n      and\n        /* \"#utility.yul\":13875:13878   */\n      dup7\n        /* \"#utility.yul\":13868:13906   */\n      mstore\n        /* \"#utility.yul\":13961:13967   */\n      dup2\n        /* \"#utility.yul\":13954:13968   */\n      iszero\n        /* \"#utility.yul\":13947:13969   */\n      iszero\n        /* \"#utility.yul\":13939:13945   */\n      dup3\n        /* \"#utility.yul\":13935:13970   */\n      mul\n        /* \"#utility.yul\":13930:13933   */\n      dup7\n        /* \"#utility.yul\":13926:13971   */\n      add\n        /* \"#utility.yul\":13919:13971   */\n      swap4\n      pop\n        /* \"#utility.yul\":13815:13981   */\n      jump(tag_331)\n        /* \"#utility.yul\":13990:14334   */\n    tag_333:\n        /* \"#utility.yul\":14057:14098   */\n      tag_334\n        /* \"#utility.yul\":14092:14097   */\n      dup6\n        /* \"#utility.yul\":14057:14098   */\n      tag_166\n      jump\t// in\n    tag_334:\n        /* \"#utility.yul\":14120:14121   */\n      0x00\n        /* \"#utility.yul\":14134:14288   */\n    tag_335:\n        /* \"#utility.yul\":14148:14154   */\n      dup4\n        /* \"#utility.yul\":14145:14146   */\n      dup2\n        /* \"#utility.yul\":14142:14155   */\n      lt\n        /* \"#utility.yul\":14134:14288   */\n      iszero\n      tag_337\n      jumpi\n        /* \"#utility.yul\":14222:14229   */\n      dup2\n        /* \"#utility.yul\":14216:14230   */\n      sload\n        /* \"#utility.yul\":14212:14213   */\n      dup2\n        /* \"#utility.yul\":14207:14210   */\n      dup10\n        /* \"#utility.yul\":14203:14214   */\n      add\n        /* \"#utility.yul\":14196:14231   */\n      mstore\n        /* \"#utility.yul\":14272:14273   */\n      0x01\n        /* \"#utility.yul\":14263:14270   */\n      dup3\n        /* \"#utility.yul\":14259:14274   */\n      add\n        /* \"#utility.yul\":14248:14274   */\n      swap2\n      pop\n        /* \"#utility.yul\":14170:14174   */\n      0x20\n        /* \"#utility.yul\":14167:14168   */\n      dup2\n        /* \"#utility.yul\":14163:14175   */\n      add\n        /* \"#utility.yul\":14158:14175   */\n      swap1\n      pop\n        /* \"#utility.yul\":14134:14288   */\n      jump(tag_335)\n    tag_337:\n        /* \"#utility.yul\":14317:14323   */\n      dup4\n        /* \"#utility.yul\":14312:14315   */\n      dup9\n        /* \"#utility.yul\":14308:14324   */\n      add\n        /* \"#utility.yul\":14301:14324   */\n      swap6\n      pop\n        /* \"#utility.yul\":13997:14334   */\n      pop\n      pop\n        /* \"#utility.yul\":13782:14334   */\n    tag_331:\n      pop\n        /* \"#utility.yul\":13571:14340   */\n      pop\n      pop\n        /* \"#utility.yul\":13462:14340   */\n      swap3\n      swap2\n      pop\n      pop\n      jump\t// out\n        /* \"#utility.yul\":14346:14619   */\n    tag_81:\n        /* \"#utility.yul\":14477:14480   */\n      0x00\n        /* \"#utility.yul\":14499:14593   */\n      tag_339\n        /* \"#utility.yul\":14589:14592   */\n      dup3\n        /* \"#utility.yul\":14580:14586   */\n      dup5\n        /* \"#utility.yul\":14499:14593   */\n      tag_167\n      jump\t// in\n    tag_339:\n        /* \"#utility.yul\":14492:14593   */\n      swap2\n      pop\n        /* \"#utility.yul\":14610:14613   */\n      dup2\n        /* \"#utility.yul\":14603:14613   */\n      swap1\n      pop\n        /* \"#utility.yul\":14346:14619   */\n      swap3\n      swap2\n      pop\n      pop\n      jump\t// out\n        /* \"#utility.yul\":14625:14858   */\n    tag_87:\n        /* \"#utility.yul\":14664:14667   */\n      0x00\n        /* \"#utility.yul\":14687:14711   */\n      tag_341\n        /* \"#utility.yul\":14705:14710   */\n      dup3\n        /* \"#utility.yul\":14687:14711   */\n      tag_130\n      jump\t// in\n    tag_341:\n        /* \"#utility.yul\":14678:14711   */\n      swap2\n      pop\n        /* \"#utility.yul\":14733:14799   */\n      0xffffffffffffffffffffffffffffffffffffffffffffffffffffffffffffffff\n        /* \"#utility.yul\":14726:14731   */\n      dup3\n        /* \"#utility.yul\":14723:14800   */\n      sub\n        /* \"#utility.yul\":14720:14823   */\n      tag_342\n      jumpi\n        /* \"#utility.yul\":14803:14821   */\n      tag_343\n      tag_162\n      jump\t// in\n    tag_343:\n        /* \"#utility.yul\":14720:14823   */\n    tag_342:\n        /* \"#utility.yul\":14850:14851   */\n      0x01\n        /* \"#utility.yul\":14843:14848   */\n      dup3\n        /* \"#utility.yul\":14839:14852   */\n      add\n        /* \"#utility.yul\":14832:14852   */\n      swap1\n      pop\n        /* \"#utility.yul\":14625:14858   */\n      swap2\n      swap1\n      pop\n      jump\t// out\n        /* \"#utility.yul\":14864:15043   */\n    tag_168:\n        /* \"#utility.yul\":15004:15035   */\n      0x436f6e74657374616e7420696e646578206f7574206f662072616e6765000000\n        /* \"#utility.yul\":15000:15001   */\n      0x00\n        /* \"#utility.yul\":14992:14998   */\n      dup3\n        /* \"#utility.yul\":14988:15002   */\n      add\n        /* \"#utility.yul\":14981:15036   */\n      mstore\n        /* \"#utility.yul\":14864:15043   */\n      pop\n      jump\t// out\n        /* \"#utility.yul\":15049:15415   */\n    tag_169:\n        /* \"#utility.yul\":15191:15194   */\n      0x00\n        /* \"#utility.yul\":15212:15279   */\n      tag_346\n        /* \"#utility.yul\":15276:15278   */\n      0x1d\n        /* \"#utility.yul\":15271:15274   */\n      dup4\n        /* \"#utility.yul\":15212:15279   */\n      tag_133\n      jump\t// in\n    tag_346:\n        /* \"#utility.yul\":15205:15279   */\n      swap2\n      pop\n        /* \"#utility.yul\":15288:15381   */\n      tag_347\n        /* \"#utility.yul\":15377:15380   */\n      dup3\n        /* \"#utility.yul\":15288:15381   */\n      tag_168\n      jump\t// in\n    tag_347:\n        /* \"#utility.yul\":15406:15408   */\n      0x20\n        /* \"#utility.yul\":15401:15404   */\n      dup3\n        /* \"#utility.yul\":15397:15409   */\n      add\n        /* \"#utility.yul\":15390:15409   */\n      swap1\n      pop\n        /* \"#utility.yul\":15049:15415   */\n      swap2\n      swap1\n      pop\n      jump\t// out\n        /* \"#utility.yul\":15421:15840   */\n    tag_95:\n        /* \"#utility.yul\":15587:15591   */\n      0x00\n        /* \"#utility.yul\":15625:15627   */\n      0x20\n        /* \"#utility.yul\":15614:15623   */\n      dup3\n        /* \"#utility.yul\":15610:15628   */\n      add\n        /* \"#utility.yul\":15602:15628   */\n      swap1\n      pop\n        /* \"#utility.yul\":15674:15683   */\n      dup2\n        /* \"#utility.yul\":15668:15672   */\n      dup2\n        /* \"#utility.yul\":15664:15684   */\n      sub\n        /* \"#utility.yul\":15660:15661   */\n      0x00\n        /* \"#utility.yul\":15649:15658   */\n      dup4\n        /* \"#utility.yul\":15645:15662   */\n      add\n        /* \"#utility.yul\":15638:15685   */\n      mstore\n        /* \"#utility.yul\":15702:15833   */\n      tag_349\n        /* \"#utility.yul\":15828:15832   */\n      dup2\n        /* \"#utility.yul\":15702:15833   */\n      tag_169\n      jump\t// in\n    tag_349:\n        /* \"#utility.yul\":15694:15833   */\n      swap1\n      pop\n        /* \"#utility.yul\":15421:15840   */\n      swap2\n      swap1\n      pop\n      jump\t// out\n        /* \"#utility.yul\":15846:15987   */\n    tag_170:\n        /* \"#utility.yul\":15895:15899   */\n      0x00\n        /* \"#utility.yul\":15918:15921   */\n      dup2\n        /* \"#utility.yul\":15910:15921   */\n      swap1\n      pop\n        /* \"#utility.yul\":15941:15944   */\n      dup2\n        /* \"#utility.yul\":15938:15939   */\n      0x00\n        /* \"#utility.yul\":15931:15945   */\n      mstore\n        /* \"#utility.yul\":15975:15979   */\n      0x20\n        /* \"#utility.yul\":15972:15973   */\n      0x00\n        /* \"#utility.yul\":15962:15980   */\n      keccak256\n        /* \"#utility.yul\":15954:15980   */\n      swap1\n      pop\n        /* \"#utility.yul\":15846:15987   */\n      swap2\n      swap1\n      pop\n      jump\t// out\n        /* \"#utility.yul\":15993:16086   */\n    tag_171:\n        /* \"#utility.yul\":16030:16036   */\n      0x00\n        /* \"#utility.yul\":16077:16079   */\n      0x20\n        /* \"#utility.yul\":16072:16074   */\n      0x1f\n        /* \"#utility.yul\":16065:16070   */\n      dup4\n        /* \"#utility.yul\":16061:16075   */\n      add\n        /* \"#utility.yul\":16057:16080   */\n      div\n        /* \"#utility.yul\":16047:16080   */\n      swap1\n      pop\n        /* \"#utility.yul\":15993:16086   */\n      swap2\n      swap1\n      pop\n      jump\t// out\n        /* \"#utility.yul\":16092:16199   */\n    tag_172:\n        /* \"#utility.yul\":16136:16144   */\n      0x00\n        /* \"#utility.yul\":16186:16191   */\n      dup3\n        /* \"#utility.yul\":16180:16184   */\n      dup3\n        /* \"#utility.yul\":16176:16192   */\n      shl\n        /* \"#utility.yul\":16155:16192   */\n      swap1\n      pop\n        /* \"#utility.yul\":16092:16199   */\n      swap3\n      swap2\n      pop\n      pop\n      jump\t// out\n        /* \"#utility.yul\":16205:16598   */\n    tag_173:\n        /* \"#utility.yul\":16274:16280   */\n      0x00\n        /* \"#utility.yul\":16324:16325   */\n      0x08\n        /* \"#utility.yul\":16312:16322   */\n      dup4\n        /* \"#utility.yul\":16308:16326   */\n      mul\n        /* \"#utility.yul\":16347:16444   */\n      tag_354\n        /* \"#utility.yul\":16377:16443   */\n      0xffffffffffffffffffffffffffffffffffffffffffffffffffffffffffffffff\n        /* \"#utility.yul\":16366:16375   */\n      dup3\n        /* \"#utility.yul\":16347:16444   */\n      tag_172\n      jump\t// in\n    tag_354:\n        /* \"#utility.yul\":16465:16504   */\n      tag_355\n        /* \"#utility.yul\":16495:16503   */\n      dup7\n        /* \"#utility.yul\":16484:16493   */\n      dup4\n        /* \"#utility.yul\":16465:16504   */\n      tag_172\n      jump\t// in\n    tag_355:\n        /* \"#utility.yul\":16453:16504   */\n      swap6\n      pop\n        /* \"#utility.yul\":16537:16541   */\n      dup1\n        /* \"#utility.yul\":16533:16542   */\n      not\n        /* \"#utility.yul\":16526:16531   */\n      dup5\n        /* \"#utility.yul\":16522:16543   */\n      and\n        /* \"#utility.yul\":16513:16543   */\n      swap4\n      pop\n        /* \"#utility.yul\":16586:16590   */\n      dup1\n        /* \"#utility.yul\":16576:16584   */\n      dup7\n        /* \"#utility.yul\":16572:16591   */\n      and\n        /* \"#utility.yul\":16565:16570   */\n      dup5\n        /* \"#utility.yul\":16562:16592   */\n      or\n        /* \"#utility.yul\":16552:16592   */\n      swap3\n      pop\n        /* \"#utility.yul\":16281:16598   */\n      pop\n      pop\n        /* \"#utility.yul\":16205:16598   */\n      swap4\n      swap3\n      pop\n      pop\n      pop\n      jump\t// out\n        /* \"#utility.yul\":16604:16664   */\n    tag_174:\n        /* \"#utility.yul\":16632:16635   */\n      0x00\n        /* \"#utility.yul\":16653:16658   */\n      dup2\n        /* \"#utility.yul\":16646:16658   */\n      swap1\n      pop\n        /* \"#utility.yul\":16604:16664   */\n      swap2\n      swap1\n      pop\n      jump\t// out\n        /* \"#utility.yul\":16670:16812   */\n    tag_175:\n        /* \"#utility.yul\":16720:16729   */\n      0x00\n        /* \"#utility.yul\":16753:16806   */\n      tag_358\n        /* \"#utility.yul\":16771:16805   */\n      tag_359\n        /* \"#utility.yul\":16780:16804   */\n      tag_360\n        /* \"#utility.yul\":16798:16803   */\n      dup5\n        /* \"#utility.yul\":16780:16804   */\n      tag_130\n      jump\t// in\n    tag_360:\n        /* \"#utility.yul\":16771:16805   */\n      tag_174\n      jump\t// in\n    tag_359:\n        /* \"#utility.yul\":16753:16806   */\n      tag_130\n      jump\t// in\n    tag_358:\n        /* \"#utility.yul\":16740:16806   */\n      swap1\n      pop\n        /* \"#utility.yul\":16670:16812   */\n      swap2\n      swap1\n      pop\n      jump\t// out\n        /* \"#utility.yul\":16818:16893   */\n    tag_176:\n        /* \"#utility.yul\":16861:16864   */\n      0x00\n        /* \"#utility.yul\":16882:16887   */\n      dup2\n        /* \"#utility.yul\":16875:16887   */\n      swap1\n      pop\n        /* \"#utility.yul\":16818:16893   */\n      swap2\n      swap1\n      pop\n      jump\t// out\n        /* \"#utility.yul\":16899:17168   */\n    tag_177:\n        /* \"#utility.yul\":17009:17048   */\n      tag_363\n        /* \"#utility.yul\":17040:17047   */\n      dup4\n        /* \"#utility.yul\":17009:17048   */\n      tag_175\n      jump\t// in\n    tag_363:\n        /* \"#utility.yul\":17070:17161   */\n      tag_364\n        /* \"#utility.yul\":17119:17160   */\n      tag_365\n        /* \"#utility.yul\":17143:17159   */\n      dup3\n        /* \"#utility.yul\":17119:17160   */\n      tag_176\n      jump\t// in\n    tag_365:\n        /* \"#utility.yul\":17111:17117   */\n      dup5\n        /* \"#utility.yul\":17104:17108   */\n      dup5\n        /* \"#utility.yul\":17098:17109   */\n      sload\n        /* \"#utility.yul\":17070:17161   */\n      tag_173\n      jump\t// in\n    tag_364:\n        /* \"#utility.yul\":17064:17068   */\n      dup3\n        /* \"#utility.yul\":17057:17162   */\n      sstore\n        /* \"#utility.yul\":16975:17168   */\n      pop\n        /* \"#utility.yul\":16899:17168   */\n      pop\n      pop\n      pop\n      jump\t// out\n        /* \"#utility.yul\":17174:17247   */\n    tag_178:\n        /* \"#utility.yul\":17219:17222   */\n      0x00\n        /* \"#utility.yul\":17174:17247   */\n      swap1\n      jump\t// out\n        /* \"#utility.yul\":17253:17442   */\n    tag_179:\n        /* \"#utility.yul\":17330:17362   */\n      tag_368\n      tag_178\n      jump\t// in\n    tag_368:\n        /* \"#utility.yul\":17371:17436   */\n      tag_369\n        /* \"#utility.yul\":17429:17435   */\n      dup2\n        /* \"#utility.yul\":17421:17427   */\n      dup5\n        /* \"#utility.yul\":17415:17419   */\n      dup5\n        /* \"#utility.yul\":17371:17436   */\n      tag_177\n      jump\t// in\n    tag_369:\n        /* \"#utility.yul\":17306:17442   */\n      pop\n        /* \"#utility.yul\":17253:17442   */\n      pop\n      pop\n      jump\t// out\n        /* \"#utility.yul\":17448:17634   */\n    tag_180:\n        /* \"#utility.yul\":17508:17628   */\n    tag_371:\n        /* \"#utility.yul\":17525:17528   */\n      dup2\n        /* \"#utility.yul\":17518:17523   */\n      dup2\n        /* \"#utility.yul\":17515:17529   */\n      lt\n        /* \"#utility.yul\":17508:17628   */\n      iszero\n      tag_373\n      jumpi\n        /* \"#utility.yul\":17579:17618   */\n      tag_374\n        /* \"#utility.yul\":17616:17617   */\n      0x00\n        /* \"#utility.yul\":17609:17614   */\n      dup3\n        /* \"#utility.yul\":17579:17618   */\n      tag_179\n      jump\t// in\n    tag_374:\n        /* \"#utility.yul\":17552:17553   */\n      0x01\n        /* \"#utility.yul\":17545:17550   */\n      dup2\n        /* \"#utility.yul\":17541:17554   */\n      add\n        /* \"#utility.yul\":17532:17554   */\n      swap1\n      pop\n        /* \"#utility.yul\":17508:17628   */\n      jump(tag_371)\n    tag_373:\n        /* \"#utility.yul\":17448:17634   */\n      pop\n      pop\n      jump\t// out\n        /* \"#utility.yul\":17640:18183   */\n    tag_181:\n        /* \"#utility.yul\":17741:17743   */\n      0x1f\n        /* \"#utility.yul\":17736:17739   */\n      dup3\n        /* \"#utility.yul\":17733:17744   */\n      gt\n        /* \"#utility.yul\":17730:18176   */\n      iszero\n      tag_376\n      jumpi\n        /* \"#utility.yul\":17775:17813   */\n      tag_377\n        /* \"#utility.yul\":17807:17812   */\n      dup2\n        /* \"#utility.yul\":17775:17813   */\n      tag_170\n      jump\t// in\n    tag_377:\n        /* \"#utility.yul\":17859:17888   */\n      tag_378\n        /* \"#utility.yul\":17877:17887   */\n      dup5\n        /* \"#utility.yul\":17859:17888   */\n      tag_171\n      jump\t// in\n    tag_378:\n        /* \"#utility.yul\":17849:17857   */\n      dup2\n        /* \"#utility.yul\":17845:17889   */\n      add\n        /* \"#utility.yul\":18042:18044   */\n      0x20\n        /* \"#utility.yul\":18030:18040   */\n      dup6\n        /* \"#utility.yul\":18027:18045   */\n      lt\n        /* \"#utility.yul\":18024:18073   */\n      iszero\n      tag_379\n      jumpi\n        /* \"#utility.yul\":18063:18071   */\n      dup2\n        /* \"#utility.yul\":18048:18071   */\n      swap1\n      pop\n        /* \"#utility.yul\":18024:18073   */\n    tag_379:\n        /* \"#utility.yul\":18086:18166   */\n      tag_380\n        /* \"#utility.yul\":18142:18164   */\n      tag_381\n        /* \"#utility.yul\":18160:18163   */\n      dup6\n        /* \"#utility.yul\":18142:18164   */\n      tag_171\n      jump\t// in\n    tag_381:\n        /* \"#utility.yul\":18132:18140   */\n      dup4\n        /* \"#utility.yul\":18128:18165   */\n      add\n        /* \"#utility.yul\":18115:18126   */\n      dup3\n        /* \"#utility.yul\":18086:18166   */\n      tag_180\n      jump\t// in\n    tag_380:\n        /* \"#utility.yul\":17745:18176   */\n      pop\n      pop\n        /* \"#utility.yul\":17730:18176   */\n    tag_376:\n        /* \"#utility.yul\":17640:18183   */\n      pop\n      pop\n      pop\n      jump\t// out\n        /* \"#utility.yul\":18189:18306   */\n    tag_182:\n        /* \"#utility.yul\":18243:18251   */\n      0x00\n        /* \"#utility.yul\":18293:18298   */\n      dup3\n        /* \"#utility.yul\":18287:18291   */\n      dup3\n        /* \"#utility.yul\":18283:18299   */\n      shr\n        /* \"#utility.yul\":18262:18299   */\n      swap1\n      pop\n        /* \"#utility.yul\":18189:18306   */\n      swap3\n      swap2\n      pop\n      pop\n      jump\t// out\n        /* \"#utility.yul\":18312:18481   */\n    tag_183:\n        /* \"#utility.yul\":18356:18362   */\n      0x00\n        /* \"#utility.yul\":18389:18440   */\n      tag_384\n        /* \"#utility.yul\":18437:18438   */\n      0x00\n        /* \"#utility.yul\":18433:18439   */\n      not\n        /* \"#utility.yul\":18425:18430   */\n      dup5\n        /* \"#utility.yul\":18422:18423   */\n      0x08\n        /* \"#utility.yul\":18418:18431   */\n      mul\n        /* \"#utility.yul\":18389:18440   */\n      tag_182\n      jump\t// in\n    tag_384:\n        /* \"#utility.yul\":18385:18441   */\n      not\n        /* \"#utility.yul\":18470:18474   */\n      dup1\n        /* \"#utility.yul\":18464:18468   */\n      dup4\n        /* \"#utility.yul\":18460:18475   */\n      and\n        /* \"#utility.yul\":18450:18475   */\n      swap2\n      pop\n        /* \"#utility.yul\":18363:18481   */\n      pop\n        /* \"#utility.yul\":18312:18481   */\n      swap3\n      swap2\n      pop\n      pop\n      jump\t// out\n        /* \"#utility.yul\":18486:18781   */\n    tag_184:\n        /* \"#utility.yul\":18562:18566   */\n      0x00\n        /* \"#utility.yul\":18708:18737   */\n      tag_386\n        /* \"#utility.yul\":18733:18736   */\n      dup4\n        /* \"#utility.yul\":18727:18731   */\n      dup4\n        /* \"#utility.yul\":18708:18737   */\n      tag_183\n      jump\t// in\n    tag_386:\n        /* \"#utility.yul\":18700:18737   */\n      swap2\n      pop\n        /* \"#utility.yul\":18770:18773   */\n      dup3\n        /* \"#utility.yul\":18767:18768   */\n      0x02\n        /* \"#utility.yul\":18763:18774   */\n      mul\n        /* \"#utility.yul\":18757:18761   */\n      dup3\n        /* \"#utility.yul\":18754:18775   */\n      or\n        /* \"#utility.yul\":18746:18775   */\n      swap1\n      pop\n        /* \"#utility.yul\":18486:18781   */\n      swap3\n      swap2\n      pop\n      pop\n      jump\t// out\n        /* \"#utility.yul\":18786:20181   */\n    tag_100:\n        /* \"#utility.yul\":18903:18940   */\n      tag_388\n        /* \"#utility.yul\":18936:18939   */\n      dup3\n        /* \"#utility.yul\":18903:18940   */\n      tag_132\n      jump\t// in\n    tag_388:\n        /* \"#utility.yul\":19005:19023   */\n      0xffffffffffffffff\n        /* \"#utility.yul\":18997:19003   */\n      dup2\n        /* \"#utility.yul\":18994:19024   */\n      gt\n        /* \"#utility.yul\":18991:19047   */\n      iszero\n      tag_389\n      jumpi\n        /* \"#utility.yul\":19027:19045   */\n      tag_390\n      tag_139\n      jump\t// in\n    tag_390:\n        /* \"#utility.yul\":18991:19047   */\n    tag_389:\n        /* \"#utility.yul\":19071:19109   */\n      tag_391\n        /* \"#utility.yul\":19103:19107   */\n      dup3\n        /* \"#utility.yul\":19097:19108   */\n      sload\n        /* \"#utility.yul\":19071:19109   */\n      tag_63\n      jump\t// in\n    tag_391:\n        /* \"#utility.yul\":19156:19223   */\n      tag_392\n        /* \"#utility.yul\":19216:19222   */\n      dup3\n        /* \"#utility.yul\":19208:19214   */\n      dup3\n        /* \"#utility.yul\":19202:19206   */\n      dup6\n        /* \"#utility.yul\":19156:19223   */\n      tag_181\n      jump\t// in\n    tag_392:\n        /* \"#utility.yul\":19250:19251   */\n      0x00\n        /* \"#utility.yul\":19274:19278   */\n      0x20\n        /* \"#utility.yul\":19261:19278   */\n      swap1\n      pop\n        /* \"#utility.yul\":19306:19308   */\n      0x1f\n        /* \"#utility.yul\":19298:19304   */\n      dup4\n        /* \"#utility.yul\":19295:19309   */\n      gt\n        /* \"#utility.yul\":19323:19324   */\n      0x01\n        /* \"#utility.yul\":19318:19936   */\n      dup2\n      eq\n      tag_394\n      jumpi\n        /* \"#utility.yul\":19980:19981   */\n      0x00\n        /* \"#utility.yul\":19997:20003   */\n      dup5\n        /* \"#utility.yul\":19994:20071   */\n      iszero\n      tag_395\n      jumpi\n        /* \"#utility.yul\":20046:20055   */\n      dup3\n        /* \"#utility.yul\":20041:20044   */\n      dup8\n        /* \"#utility.yul\":20037:20056   */\n      add\n        /* \"#utility.yul\":20031:20057   */\n      mload\n        /* \"#utility.yul\":20022:20057   */\n      swap1\n      pop\n        /* \"#utility.yul\":19994:20071   */\n    tag_395:\n        /* \"#utility.yul\":20097:20164   */\n      tag_396\n        /* \"#utility.yul\":20157:20163   */\n      dup6\n        /* \"#utility.yul\":20150:20155   */\n      dup3\n        /* \"#utility.yul\":20097:20164   */\n      tag_184\n      jump\t// in\n    tag_396:\n        /* \"#utility.yul\":20091:20095   */\n      dup7\n        /* \"#utility.yul\":20084:20165   */\n      sstore\n        /* \"#utility.yul\":19953:20175   */\n      pop\n        /* \"#utility.yul\":19288:20175   */\n      jump(tag_393)\n        /* \"#utility.yul\":19318:19936   */\n    tag_394:\n        /* \"#utility.yul\":19370:19374   */\n      0x1f\n        /* \"#utility.yul\":19366:19375   */\n      not\n        /* \"#utility.yul\":19358:19364   */\n      dup5\n        /* \"#utility.yul\":19354:19376   */\n      and\n        /* \"#utility.yul\":19404:19441   */\n      tag_397\n        /* \"#utility.yul\":19436:19440   */\n      dup7\n        /* \"#utility.yul\":19404:19441   */\n      tag_170\n      jump\t// in\n    tag_397:\n        /* \"#utility.yul\":19463:19464   */\n      0x00\n        /* \"#utility.yul\":19477:19685   */\n    tag_398:\n        /* \"#utility.yul\":19491:19498   */\n      dup3\n        /* \"#utility.yul\":19488:19489   */\n      dup2\n        /* \"#utility.yul\":19485:19499   */\n      lt\n        /* \"#utility.yul\":19477:19685   */\n      iszero\n      tag_400\n      jumpi\n        /* \"#utility.yul\":19570:19579   */\n      dup5\n        /* \"#utility.yul\":19565:19568   */\n      dup10\n        /* \"#utility.yul\":19561:19580   */\n      add\n        /* \"#utility.yul\":19555:19581   */\n      mload\n        /* \"#utility.yul\":19547:19553   */\n      dup3\n        /* \"#utility.yul\":19540:19582   */\n      sstore\n        /* \"#utility.yul\":19621:19622   */\n      0x01\n        /* \"#utility.yul\":19613:19619   */\n      dup3\n        /* \"#utility.yul\":19609:19623   */\n      add\n        /* \"#utility.yul\":19599:19623   */\n      swap2\n      pop\n        /* \"#utility.yul\":19668:19670   */\n      0x20\n        /* \"#utility.yul\":19657:19666   */\n      dup6\n        /* \"#utility.yul\":19653:19671   */\n      add\n        /* \"#utility.yul\":19640:19671   */\n      swap5\n      pop\n        /* \"#utility.yul\":19514:19518   */\n      0x20\n        /* \"#utility.yul\":19511:19512   */\n      dup2\n        /* \"#utility.yul\":19507:19519   */\n      add\n        /* \"#utility.yul\":19502:19519   */\n      swap1\n      pop\n        /* \"#utility.yul\":19477:19685   */\n      jump(tag_398)\n    tag_400:\n        /* \"#utility.yul\":19713:19719   */\n      dup7\n        /* \"#utility.yul\":19704:19711   */\n      dup4\n        /* \"#utility.yul\":19701:19720   */\n      lt\n        /* \"#utility.yul\":19698:19877   */\n      iszero\n      tag_401\n      jumpi\n        /* \"#utility.yul\":19771:19780   */\n      dup5\n        /* \"#utility.yul\":19766:19769   */\n      dup10\n        /* \"#utility.yul\":19762:19781   */\n      add\n        /* \"#utility.yul\":19756:19782   */\n      mload\n        /* \"#utility.yul\":19814:19862   */\n      tag_402\n        /* \"#utility.yul\":19856:19860   */\n      0x1f\n        /* \"#utility.yul\":19848:19854   */\n      dup10\n        /* \"#utility.yul\":19844:19861   */\n      and\n        /* \"#utility.yul\":19833:19842   */\n      dup3\n        /* \"#utility.yul\":19814:19862   */\n      tag_183\n      jump\t// in\n    tag_402:\n        /* \"#utility.yul\":19806:19812   */\n      dup4\n        /* \"#utility.yul\":19799:19863   */\n      sstore\n        /* \"#utility.yul\":19721:19877   */\n      pop\n        /* \"#utility.yul\":19698:19877   */\n    tag_401:\n        /* \"#utility.yul\":19923:19924   */\n      0x01\n        /* \"#utility.yul\":19919:19920   */\n      0x02\n        /* \"#utility.yul\":19911:19917   */\n      dup9\n        /* \"#utility.yul\":19907:19921   */\n      mul\n        /* \"#utility.yul\":19903:19925   */\n      add\n        /* \"#utility.yul\":19897:19901   */\n      dup9\n        /* \"#utility.yul\":19890:19926   */\n      sstore\n        /* \"#utility.yul\":19325:19936   */\n      pop\n      pop\n      pop\n        /* \"#utility.yul\":19288:20175   */\n    tag_393:\n      pop\n        /* \"#utility.yul\":18878:20181   */\n      pop\n      pop\n      pop\n        /* \"#utility.yul\":18786:20181   */\n      pop\n      pop\n      jump\t// out\n\n    auxdata: 0xa2646970667358221220ec6b0c2d0ae3a9b4d4a58c9195afb743dc11efeed58bc3aa073bf3290612826964736f6c63430008160033\n}\n",
				"bytecode": {
					"linkReferences": {},
					"object": "608060405234801561000f575f80fd5b50335f806101000a81548173ffffffffffffffffffffffffffffffffffffffff021916908373ffffffffffffffffffffffffffffffffffffffff1602179055506111e58061005c5f395ff3fe608060405234801561000f575f80fd5b506004361061007b575f3560e01c8063cc1207c011610059578063cc1207c0146100ea578063d485f61b14610106578063dfd50f5214610124578063f437bc59146101555761007b565b806309e69ede1461007f57806328dd8045146100b057806351181b28146100ce575b5f80fd5b61009960048036038101906100949190610799565b610173565b6040516100a79291906107f6565b60405180910390f35b6100b861019f565b6040516100c591906108a7565b60405180910390f35b6100e860048036038101906100e391906109f3565b610349565b005b61010460048036038101906100ff9190610a70565b61049d565b005b61010e6105c5565b60405161011b9190610b6f565b60405180910390f35b61013e60048036038101906101399190610bb2565b61063c565b60405161014c929190610bdd565b60405180910390f35b61015d6106e9565b60405161016a9190610c1a565b60405180910390f35b6001602052805f5260405f205f91509050805f015f9054906101000a900460ff16908060010154905082565b60605f8054906101000a900473ffffffffffffffffffffffffffffffffffffffff1673ffffffffffffffffffffffffffffffffffffffff163373ffffffffffffffffffffffffffffffffffffffff161461022e576040517f08c379a000000000000000000000000000000000000000000000000000000000815260040161022590610c7d565b60405180910390fd5b5f60605f5b60058160ff161015610340578260028260ff166005811061025757610256610c9b565b5b6002020160010154111561032d5760028160ff166005811061027c5761027b610c9b565b5b6002020160010154925060028160ff166005811061029d5761029c610c9b565b5b600202015f0180546102ae90610cf5565b80601f01602080910402602001604051908101604052809291908181526020018280546102da90610cf5565b80156103255780601f106102fc57610100808354040283529160200191610325565b820191905f5260205f20905b81548152906001019060200180831161030857829003601f168201915b505050505091505b808061033890610d52565b915050610233565b50809250505090565b5f60015f3373ffffffffffffffffffffffffffffffffffffffff1673ffffffffffffffffffffffffffffffffffffffff1681526020019081526020015f209050805f015f9054906101000a900460ff16156103d9576040517f08c379a00000000000000000000000000000000000000000000000000000000081526004016103d090610dc4565b60405180910390fd5b5f5b60058160ff16101561049857828051906020012060028260ff166005811061040657610405610c9b565b5b600202015f016040516104199190610e7e565b604051809103902003610485576001825f015f6101000a81548160ff0219169083151502179055508060ff16826001018190555060028160ff166005811061046457610463610c9b565b5b600202016001015f81548092919061047b90610e94565b9190505550610498565b808061049090610d52565b9150506103db565b505050565b5f8054906101000a900473ffffffffffffffffffffffffffffffffffffffff1673ffffffffffffffffffffffffffffffffffffffff163373ffffffffffffffffffffffffffffffffffffffff161461052a576040517f08c379a000000000000000000000000000000000000000000000000000000000815260040161052190610c7d565b60405180910390fd5b60058160ff1610610570576040517f08c379a000000000000000000000000000000000000000000000000000000000815260040161056790610f25565b60405180910390fd5b60405180604001604052808381526020015f81525060028260ff166005811061059c5761059b610c9b565b5b600202015f820151815f0190816105b391906110e0565b50602082015181600101559050505050565b6105cd61070c565b6105d561070c565b5f5b60058160ff1610156106345760028160ff16600581106105fa576105f9610c9b565b5b6002020160010154828260ff166005811061061857610617610c9b565b5b602002018181525050808061062c90610d52565b9150506105d7565b508091505090565b6002816005811061064b575f80fd5b600202015f91509050805f01805461066290610cf5565b80601f016020809104026020016040519081016040528092919081815260200182805461068e90610cf5565b80156106d95780601f106106b0576101008083540402835291602001916106d9565b820191905f5260205f20905b8154815290600101906020018083116106bc57829003601f168201915b5050505050908060010154905082565b5f8054906101000a900473ffffffffffffffffffffffffffffffffffffffff1681565b6040518060a00160405280600590602082028036833780820191505090505090565b5f604051905090565b5f80fd5b5f80fd5b5f73ffffffffffffffffffffffffffffffffffffffff82169050919050565b5f6107688261073f565b9050919050565b6107788161075e565b8114610782575f80fd5b50565b5f813590506107938161076f565b92915050565b5f602082840312156107ae576107ad610737565b5b5f6107bb84828501610785565b91505092915050565b5f8115159050919050565b6107d8816107c4565b82525050565b5f819050919050565b6107f0816107de565b82525050565b5f6040820190506108095f8301856107cf565b61081660208301846107e7565b9392505050565b5f81519050919050565b5f82825260208201905092915050565b5f5b83811015610854578082015181840152602081019050610839565b5f8484015250505050565b5f601f19601f8301169050919050565b5f6108798261081d565b6108838185610827565b9350610893818560208601610837565b61089c8161085f565b840191505092915050565b5f6020820190508181035f8301526108bf818461086f565b905092915050565b5f80fd5b5f80fd5b7f4e487b71000000000000000000000000000000000000000000000000000000005f52604160045260245ffd5b6109058261085f565b810181811067ffffffffffffffff82111715610924576109236108cf565b5b80604052505050565b5f61093661072e565b905061094282826108fc565b919050565b5f67ffffffffffffffff821115610961576109606108cf565b5b61096a8261085f565b9050602081019050919050565b828183375f83830152505050565b5f61099761099284610947565b61092d565b9050828152602081018484840111156109b3576109b26108cb565b5b6109be848285610977565b509392505050565b5f82601f8301126109da576109d96108c7565b5b81356109ea848260208601610985565b91505092915050565b5f60208284031215610a0857610a07610737565b5b5f82013567ffffffffffffffff811115610a2557610a2461073b565b5b610a31848285016109c6565b91505092915050565b5f60ff82169050919050565b610a4f81610a3a565b8114610a59575f80fd5b50565b5f81359050610a6a81610a46565b92915050565b5f8060408385031215610a8657610a85610737565b5b5f83013567ffffffffffffffff811115610aa357610aa261073b565b5b610aaf858286016109c6565b9250506020610ac085828601610a5c565b9150509250929050565b5f60059050919050565b5f81905092915050565b5f819050919050565b610af0816107de565b82525050565b5f610b018383610ae7565b60208301905092915050565b5f602082019050919050565b610b2281610aca565b610b2c8184610ad4565b9250610b3782610ade565b805f5b83811015610b67578151610b4e8782610af6565b9650610b5983610b0d565b925050600181019050610b3a565b505050505050565b5f60a082019050610b825f830184610b19565b92915050565b610b91816107de565b8114610b9b575f80fd5b50565b5f81359050610bac81610b88565b92915050565b5f60208284031215610bc757610bc6610737565b5b5f610bd484828501610b9e565b91505092915050565b5f6040820190508181035f830152610bf5818561086f565b9050610c0460208301846107e7565b9392505050565b610c148161075e565b82525050565b5f602082019050610c2d5f830184610c0b565b92915050565b7f4f6e6c792074686520686f73742063616e2065786563757465207468697300005f82015250565b5f610c67601e83610827565b9150610c7282610c33565b602082019050919050565b5f6020820190508181035f830152610c9481610c5b565b9050919050565b7f4e487b71000000000000000000000000000000000000000000000000000000005f52603260045260245ffd5b7f4e487b71000000000000000000000000000000000000000000000000000000005f52602260045260245ffd5b5f6002820490506001821680610d0c57607f821691505b602082108103610d1f57610d1e610cc8565b5b50919050565b7f4e487b71000000000000000000000000000000000000000000000000000000005f52601160045260245ffd5b5f610d5c82610a3a565b915060ff8203610d6f57610d6e610d25565b5b600182019050919050565b7f596f75206861766520616c726561647920766f746564000000000000000000005f82015250565b5f610dae601683610827565b9150610db982610d7a565b602082019050919050565b5f6020820190508181035f830152610ddb81610da2565b9050919050565b5f81905092915050565b5f819050815f5260205f209050919050565b5f8154610e0a81610cf5565b610e148186610de2565b9450600182165f8114610e2e5760018114610e4357610e75565b60ff1983168652811515820286019350610e75565b610e4c85610dec565b5f5b83811015610e6d57815481890152600182019150602081019050610e4e565b838801955050505b50505092915050565b5f610e898284610dfe565b915081905092915050565b5f610e9e826107de565b91507fffffffffffffffffffffffffffffffffffffffffffffffffffffffffffffffff8203610ed057610ecf610d25565b5b600182019050919050565b7f436f6e74657374616e7420696e646578206f7574206f662072616e67650000005f82015250565b5f610f0f601d83610827565b9150610f1a82610edb565b602082019050919050565b5f6020820190508181035f830152610f3c81610f03565b9050919050565b5f819050815f5260205f209050919050565b5f6020601f8301049050919050565b5f82821b905092915050565b5f60088302610f9f7fffffffffffffffffffffffffffffffffffffffffffffffffffffffffffffffff82610f64565b610fa98683610f64565b95508019841693508086168417925050509392505050565b5f819050919050565b5f610fe4610fdf610fda846107de565b610fc1565b6107de565b9050919050565b5f819050919050565b610ffd83610fca565b61101161100982610feb565b848454610f70565b825550505050565b5f90565b611025611019565b611030818484610ff4565b505050565b5b81811015611053576110485f8261101d565b600181019050611036565b5050565b601f8211156110985761106981610f43565b61107284610f55565b81016020851015611081578190505b61109561108d85610f55565b830182611035565b50505b505050565b5f82821c905092915050565b5f6110b85f198460080261109d565b1980831691505092915050565b5f6110d083836110a9565b9150826002028217905092915050565b6110e98261081d565b67ffffffffffffffff811115611102576111016108cf565b5b61110c8254610cf5565b611117828285611057565b5f60209050601f831160018114611148575f8415611136578287015190505b61114085826110c5565b8655506111a7565b601f19841661115686610f43565b5f5b8281101561117d57848901518255600182019150602085019450602081019050611158565b8683101561119a5784890151611196601f8916826110a9565b8355505b6001600288020188555050505b50505050505056fea2646970667358221220ec6b0c2d0ae3a9b4d4a58c9195afb743dc11efeed58bc3aa073bf3290612826964736f6c63430008160033",
					"opcodes": "PUSH1 0x80 PUSH1 0x40 MSTORE CALLVALUE DUP1 ISZERO PUSH2 0xF JUMPI PUSH0 DUP1 REVERT JUMPDEST POP CALLER PUSH0 DUP1 PUSH2 0x100 EXP DUP2 SLOAD DUP2 PUSH20 0xFFFFFFFFFFFFFFFFFFFFFFFFFFFFFFFFFFFFFFFF MUL NOT AND SWAP1 DUP4 PUSH20 0xFFFFFFFFFFFFFFFFFFFFFFFFFFFFFFFFFFFFFFFF AND MUL OR SWAP1 SSTORE POP PUSH2 0x11E5 DUP1 PUSH2 0x5C PUSH0 CODECOPY PUSH0 RETURN INVALID PUSH1 0x80 PUSH1 0x40 MSTORE CALLVALUE DUP1 ISZERO PUSH2 0xF JUMPI PUSH0 DUP1 REVERT JUMPDEST POP PUSH1 0x4 CALLDATASIZE LT PUSH2 0x7B JUMPI PUSH0 CALLDATALOAD PUSH1 0xE0 SHR DUP1 PUSH4 0xCC1207C0 GT PUSH2 0x59 JUMPI DUP1 PUSH4 0xCC1207C0 EQ PUSH2 0xEA JUMPI DUP1 PUSH4 0xD485F61B EQ PUSH2 0x106 JUMPI DUP1 PUSH4 0xDFD50F52 EQ PUSH2 0x124 JUMPI DUP1 PUSH4 0xF437BC59 EQ PUSH2 0x155 JUMPI PUSH2 0x7B JUMP JUMPDEST DUP1 PUSH4 0x9E69EDE EQ PUSH2 0x7F JUMPI DUP1 PUSH4 0x28DD8045 EQ PUSH2 0xB0 JUMPI DUP1 PUSH4 0x51181B28 EQ PUSH2 0xCE JUMPI JUMPDEST PUSH0 DUP1 REVERT JUMPDEST PUSH2 0x99 PUSH1 0x4 DUP1 CALLDATASIZE SUB DUP2 ADD SWAP1 PUSH2 0x94 SWAP2 SWAP1 PUSH2 0x799 JUMP JUMPDEST PUSH2 0x173 JUMP JUMPDEST PUSH1 0x40 MLOAD PUSH2 0xA7 SWAP3 SWAP2 SWAP1 PUSH2 0x7F6 JUMP JUMPDEST PUSH1 0x40 MLOAD DUP1 SWAP2 SUB SWAP1 RETURN JUMPDEST PUSH2 0xB8 PUSH2 0x19F JUMP JUMPDEST PUSH1 0x40 MLOAD PUSH2 0xC5 SWAP2 SWAP1 PUSH2 0x8A7 JUMP JUMPDEST PUSH1 0x40 MLOAD DUP1 SWAP2 SUB SWAP1 RETURN JUMPDEST PUSH2 0xE8 PUSH1 0x4 DUP1 CALLDATASIZE SUB DUP2 ADD SWAP1 PUSH2 0xE3 SWAP2 SWAP1 PUSH2 0x9F3 JUMP JUMPDEST PUSH2 0x349 JUMP JUMPDEST STOP JUMPDEST PUSH2 0x104 PUSH1 0x4 DUP1 CALLDATASIZE SUB DUP2 ADD SWAP1 PUSH2 0xFF SWAP2 SWAP1 PUSH2 0xA70 JUMP JUMPDEST PUSH2 0x49D JUMP JUMPDEST STOP JUMPDEST PUSH2 0x10E PUSH2 0x5C5 JUMP JUMPDEST PUSH1 0x40 MLOAD PUSH2 0x11B SWAP2 SWAP1 PUSH2 0xB6F JUMP JUMPDEST PUSH1 0x40 MLOAD DUP1 SWAP2 SUB SWAP1 RETURN JUMPDEST PUSH2 0x13E PUSH1 0x4 DUP1 CALLDATASIZE SUB DUP2 ADD SWAP1 PUSH2 0x139 SWAP2 SWAP1 PUSH2 0xBB2 JUMP JUMPDEST PUSH2 0x63C JUMP JUMPDEST PUSH1 0x40 MLOAD PUSH2 0x14C SWAP3 SWAP2 SWAP1 PUSH2 0xBDD JUMP JUMPDEST PUSH1 0x40 MLOAD DUP1 SWAP2 SUB SWAP1 RETURN JUMPDEST PUSH2 0x15D PUSH2 0x6E9 JUMP JUMPDEST PUSH1 0x40 MLOAD PUSH2 0x16A SWAP2 SWAP1 PUSH2 0xC1A JUMP JUMPDEST PUSH1 0x40 MLOAD DUP1 SWAP2 SUB SWAP1 RETURN JUMPDEST PUSH1 0x1 PUSH1 0x20 MSTORE DUP1 PUSH0 MSTORE PUSH1 0x40 PUSH0 KECCAK256 PUSH0 SWAP2 POP SWAP1 POP DUP1 PUSH0 ADD PUSH0 SWAP1 SLOAD SWAP1 PUSH2 0x100 EXP SWAP1 DIV PUSH1 0xFF AND SWAP1 DUP1 PUSH1 0x1 ADD SLOAD SWAP1 POP DUP3 JUMP JUMPDEST PUSH1 0x60 PUSH0 DUP1 SLOAD SWAP1 PUSH2 0x100 EXP SWAP1 DIV PUSH20 0xFFFFFFFFFFFFFFFFFFFFFFFFFFFFFFFFFFFFFFFF AND PUSH20 0xFFFFFFFFFFFFFFFFFFFFFFFFFFFFFFFFFFFFFFFF AND CALLER PUSH20 0xFFFFFFFFFFFFFFFFFFFFFFFFFFFFFFFFFFFFFFFF AND EQ PUSH2 0x22E JUMPI PUSH1 0x40 MLOAD PUSH32 0x8C379A000000000000000000000000000000000000000000000000000000000 DUP2 MSTORE PUSH1 0x4 ADD PUSH2 0x225 SWAP1 PUSH2 0xC7D JUMP JUMPDEST PUSH1 0x40 MLOAD DUP1 SWAP2 SUB SWAP1 REVERT JUMPDEST PUSH0 PUSH1 0x60 PUSH0 JUMPDEST PUSH1 0x5 DUP2 PUSH1 0xFF AND LT ISZERO PUSH2 0x340 JUMPI DUP3 PUSH1 0x2 DUP3 PUSH1 0xFF AND PUSH1 0x5 DUP2 LT PUSH2 0x257 JUMPI PUSH2 0x256 PUSH2 0xC9B JUMP JUMPDEST JUMPDEST PUSH1 0x2 MUL ADD PUSH1 0x1 ADD SLOAD GT ISZERO PUSH2 0x32D JUMPI PUSH1 0x2 DUP2 PUSH1 0xFF AND PUSH1 0x5 DUP2 LT PUSH2 0x27C JUMPI PUSH2 0x27B PUSH2 0xC9B JUMP JUMPDEST JUMPDEST PUSH1 0x2 MUL ADD PUSH1 0x1 ADD SLOAD SWAP3 POP PUSH1 0x2 DUP2 PUSH1 0xFF AND PUSH1 0x5 DUP2 LT PUSH2 0x29D JUMPI PUSH2 0x29C PUSH2 0xC9B JUMP JUMPDEST JUMPDEST PUSH1 0x2 MUL ADD PUSH0 ADD DUP1 SLOAD PUSH2 0x2AE SWAP1 PUSH2 0xCF5 JUMP JUMPDEST DUP1 PUSH1 0x1F ADD PUSH1 0x20 DUP1 SWAP2 DIV MUL PUSH1 0x20 ADD PUSH1 0x40 MLOAD SWAP1 DUP2 ADD PUSH1 0x40 MSTORE DUP1 SWAP3 SWAP2 SWAP1 DUP2 DUP2 MSTORE PUSH1 0x20 ADD DUP3 DUP1 SLOAD PUSH2 0x2DA SWAP1 PUSH2 0xCF5 JUMP JUMPDEST DUP1 ISZERO PUSH2 0x325 JUMPI DUP1 PUSH1 0x1F LT PUSH2 0x2FC JUMPI PUSH2 0x100 DUP1 DUP4 SLOAD DIV MUL DUP4 MSTORE SWAP2 PUSH1 0x20 ADD SWAP2 PUSH2 0x325 JUMP JUMPDEST DUP3 ADD SWAP2 SWAP1 PUSH0 MSTORE PUSH1 0x20 PUSH0 KECCAK256 SWAP1 JUMPDEST DUP2 SLOAD DUP2 MSTORE SWAP1 PUSH1 0x1 ADD SWAP1 PUSH1 0x20 ADD DUP1 DUP4 GT PUSH2 0x308 JUMPI DUP3 SWAP1 SUB PUSH1 0x1F AND DUP3 ADD SWAP2 JUMPDEST POP POP POP POP POP SWAP2 POP JUMPDEST DUP1 DUP1 PUSH2 0x338 SWAP1 PUSH2 0xD52 JUMP JUMPDEST SWAP2 POP POP PUSH2 0x233 JUMP JUMPDEST POP DUP1 SWAP3 POP POP POP SWAP1 JUMP JUMPDEST PUSH0 PUSH1 0x1 PUSH0 CALLER PUSH20 0xFFFFFFFFFFFFFFFFFFFFFFFFFFFFFFFFFFFFFFFF AND PUSH20 0xFFFFFFFFFFFFFFFFFFFFFFFFFFFFFFFFFFFFFFFF AND DUP2 MSTORE PUSH1 0x20 ADD SWAP1 DUP2 MSTORE PUSH1 0x20 ADD PUSH0 KECCAK256 SWAP1 POP DUP1 PUSH0 ADD PUSH0 SWAP1 SLOAD SWAP1 PUSH2 0x100 EXP SWAP1 DIV PUSH1 0xFF AND ISZERO PUSH2 0x3D9 JUMPI PUSH1 0x40 MLOAD PUSH32 0x8C379A000000000000000000000000000000000000000000000000000000000 DUP2 MSTORE PUSH1 0x4 ADD PUSH2 0x3D0 SWAP1 PUSH2 0xDC4 JUMP JUMPDEST PUSH1 0x40 MLOAD DUP1 SWAP2 SUB SWAP1 REVERT JUMPDEST PUSH0 JUMPDEST PUSH1 0x5 DUP2 PUSH1 0xFF AND LT ISZERO PUSH2 0x498 JUMPI DUP3 DUP1 MLOAD SWAP1 PUSH1 0x20 ADD KECCAK256 PUSH1 0x2 DUP3 PUSH1 0xFF AND PUSH1 0x5 DUP2 LT PUSH2 0x406 JUMPI PUSH2 0x405 PUSH2 0xC9B JUMP JUMPDEST JUMPDEST PUSH1 0x2 MUL ADD PUSH0 ADD PUSH1 0x40 MLOAD PUSH2 0x419 SWAP2 SWAP1 PUSH2 0xE7E JUMP JUMPDEST PUSH1 0x40 MLOAD DUP1 SWAP2 SUB SWAP1 KECCAK256 SUB PUSH2 0x485 JUMPI PUSH1 0x1 DUP3 PUSH0 ADD PUSH0 PUSH2 0x100 EXP DUP2 SLOAD DUP2 PUSH1 0xFF MUL NOT AND SWAP1 DUP4 ISZERO ISZERO MUL OR SWAP1 SSTORE POP DUP1 PUSH1 0xFF AND DUP3 PUSH1 0x1 ADD DUP2 SWAP1 SSTORE POP PUSH1 0x2 DUP2 PUSH1 0xFF AND PUSH1 0x5 DUP2 LT PUSH2 0x464 JUMPI PUSH2 0x463 PUSH2 0xC9B JUMP JUMPDEST JUMPDEST PUSH1 0x2 MUL ADD PUSH1 0x1 ADD PUSH0 DUP2 SLOAD DUP1 SWAP3 SWAP2 SWAP1 PUSH2 0x47B SWAP1 PUSH2 0xE94 JUMP JUMPDEST SWAP2 SWAP1 POP SSTORE POP PUSH2 0x498 JUMP JUMPDEST DUP1 DUP1 PUSH2 0x490 SWAP1 PUSH2 0xD52 JUMP JUMPDEST SWAP2 POP POP PUSH2 0x3DB JUMP JUMPDEST POP POP POP JUMP JUMPDEST PUSH0 DUP1 SLOAD SWAP1 PUSH2 0x100 EXP SWAP1 DIV PUSH20 0xFFFFFFFFFFFFFFFFFFFFFFFFFFFFFFFFFFFFFFFF AND PUSH20 0xFFFFFFFFFFFFFFFFFFFFFFFFFFFFFFFFFFFFFFFF AND CALLER PUSH20 0xFFFFFFFFFFFFFFFFFFFFFFFFFFFFFFFFFFFFFFFF AND EQ PUSH2 0x52A JUMPI PUSH1 0x40 MLOAD PUSH32 0x8C379A000000000000000000000000000000000000000000000000000000000 DUP2 MSTORE PUSH1 0x4 ADD PUSH2 0x521 SWAP1 PUSH2 0xC7D JUMP JUMPDEST PUSH1 0x40 MLOAD DUP1 SWAP2 SUB SWAP1 REVERT JUMPDEST PUSH1 0x5 DUP2 PUSH1 0xFF AND LT PUSH2 0x570 JUMPI PUSH1 0x40 MLOAD PUSH32 0x8C379A000000000000000000000000000000000000000000000000000000000 DUP2 MSTORE PUSH1 0x4 ADD PUSH2 0x567 SWAP1 PUSH2 0xF25 JUMP JUMPDEST PUSH1 0x40 MLOAD DUP1 SWAP2 SUB SWAP1 REVERT JUMPDEST PUSH1 0x40 MLOAD DUP1 PUSH1 0x40 ADD PUSH1 0x40 MSTORE DUP1 DUP4 DUP2 MSTORE PUSH1 0x20 ADD PUSH0 DUP2 MSTORE POP PUSH1 0x2 DUP3 PUSH1 0xFF AND PUSH1 0x5 DUP2 LT PUSH2 0x59C JUMPI PUSH2 0x59B PUSH2 0xC9B JUMP JUMPDEST JUMPDEST PUSH1 0x2 MUL ADD PUSH0 DUP3 ADD MLOAD DUP2 PUSH0 ADD SWAP1 DUP2 PUSH2 0x5B3 SWAP2 SWAP1 PUSH2 0x10E0 JUMP JUMPDEST POP PUSH1 0x20 DUP3 ADD MLOAD DUP2 PUSH1 0x1 ADD SSTORE SWAP1 POP POP POP POP JUMP JUMPDEST PUSH2 0x5CD PUSH2 0x70C JUMP JUMPDEST PUSH2 0x5D5 PUSH2 0x70C JUMP JUMPDEST PUSH0 JUMPDEST PUSH1 0x5 DUP2 PUSH1 0xFF AND LT ISZERO PUSH2 0x634 JUMPI PUSH1 0x2 DUP2 PUSH1 0xFF AND PUSH1 0x5 DUP2 LT PUSH2 0x5FA JUMPI PUSH2 0x5F9 PUSH2 0xC9B JUMP JUMPDEST JUMPDEST PUSH1 0x2 MUL ADD PUSH1 0x1 ADD SLOAD DUP3 DUP3 PUSH1 0xFF AND PUSH1 0x5 DUP2 LT PUSH2 0x618 JUMPI PUSH2 0x617 PUSH2 0xC9B JUMP JUMPDEST JUMPDEST PUSH1 0x20 MUL ADD DUP2 DUP2 MSTORE POP POP DUP1 DUP1 PUSH2 0x62C SWAP1 PUSH2 0xD52 JUMP JUMPDEST SWAP2 POP POP PUSH2 0x5D7 JUMP JUMPDEST POP DUP1 SWAP2 POP POP SWAP1 JUMP JUMPDEST PUSH1 0x2 DUP2 PUSH1 0x5 DUP2 LT PUSH2 0x64B JUMPI PUSH0 DUP1 REVERT JUMPDEST PUSH1 0x2 MUL ADD PUSH0 SWAP2 POP SWAP1 POP DUP1 PUSH0 ADD DUP1 SLOAD PUSH2 0x662 SWAP1 PUSH2 0xCF5 JUMP JUMPDEST DUP1 PUSH1 0x1F ADD PUSH1 0x20 DUP1 SWAP2 DIV MUL PUSH1 0x20 ADD PUSH1 0x40 MLOAD SWAP1 DUP2 ADD PUSH1 0x40 MSTORE DUP1 SWAP3 SWAP2 SWAP1 DUP2 DUP2 MSTORE PUSH1 0x20 ADD DUP3 DUP1 SLOAD PUSH2 0x68E SWAP1 PUSH2 0xCF5 JUMP JUMPDEST DUP1 ISZERO PUSH2 0x6D9 JUMPI DUP1 PUSH1 0x1F LT PUSH2 0x6B0 JUMPI PUSH2 0x100 DUP1 DUP4 SLOAD DIV MUL DUP4 MSTORE SWAP2 PUSH1 0x20 ADD SWAP2 PUSH2 0x6D9 JUMP JUMPDEST DUP3 ADD SWAP2 SWAP1 PUSH0 MSTORE PUSH1 0x20 PUSH0 KECCAK256 SWAP1 JUMPDEST DUP2 SLOAD DUP2 MSTORE SWAP1 PUSH1 0x1 ADD SWAP1 PUSH1 0x20 ADD DUP1 DUP4 GT PUSH2 0x6BC JUMPI DUP3 SWAP1 SUB PUSH1 0x1F AND DUP3 ADD SWAP2 JUMPDEST POP POP POP POP POP SWAP1 DUP1 PUSH1 0x1 ADD SLOAD SWAP1 POP DUP3 JUMP JUMPDEST PUSH0 DUP1 SLOAD SWAP1 PUSH2 0x100 EXP SWAP1 DIV PUSH20 0xFFFFFFFFFFFFFFFFFFFFFFFFFFFFFFFFFFFFFFFF AND DUP2 JUMP JUMPDEST PUSH1 0x40 MLOAD DUP1 PUSH1 0xA0 ADD PUSH1 0x40 MSTORE DUP1 PUSH1 0x5 SWAP1 PUSH1 0x20 DUP3 MUL DUP1 CALLDATASIZE DUP4 CALLDATACOPY DUP1 DUP3 ADD SWAP2 POP POP SWAP1 POP POP SWAP1 JUMP JUMPDEST PUSH0 PUSH1 0x40 MLOAD SWAP1 POP SWAP1 JUMP JUMPDEST PUSH0 DUP1 REVERT JUMPDEST PUSH0 DUP1 REVERT JUMPDEST PUSH0 PUSH20 0xFFFFFFFFFFFFFFFFFFFFFFFFFFFFFFFFFFFFFFFF DUP3 AND SWAP1 POP SWAP2 SWAP1 POP JUMP JUMPDEST PUSH0 PUSH2 0x768 DUP3 PUSH2 0x73F JUMP JUMPDEST SWAP1 POP SWAP2 SWAP1 POP JUMP JUMPDEST PUSH2 0x778 DUP2 PUSH2 0x75E JUMP JUMPDEST DUP2 EQ PUSH2 0x782 JUMPI PUSH0 DUP1 REVERT JUMPDEST POP JUMP JUMPDEST PUSH0 DUP2 CALLDATALOAD SWAP1 POP PUSH2 0x793 DUP2 PUSH2 0x76F JUMP JUMPDEST SWAP3 SWAP2 POP POP JUMP JUMPDEST PUSH0 PUSH1 0x20 DUP3 DUP5 SUB SLT ISZERO PUSH2 0x7AE JUMPI PUSH2 0x7AD PUSH2 0x737 JUMP JUMPDEST JUMPDEST PUSH0 PUSH2 0x7BB DUP5 DUP3 DUP6 ADD PUSH2 0x785 JUMP JUMPDEST SWAP2 POP POP SWAP3 SWAP2 POP POP JUMP JUMPDEST PUSH0 DUP2 ISZERO ISZERO SWAP1 POP SWAP2 SWAP1 POP JUMP JUMPDEST PUSH2 0x7D8 DUP2 PUSH2 0x7C4 JUMP JUMPDEST DUP3 MSTORE POP POP JUMP JUMPDEST PUSH0 DUP2 SWAP1 POP SWAP2 SWAP1 POP JUMP JUMPDEST PUSH2 0x7F0 DUP2 PUSH2 0x7DE JUMP JUMPDEST DUP3 MSTORE POP POP JUMP JUMPDEST PUSH0 PUSH1 0x40 DUP3 ADD SWAP1 POP PUSH2 0x809 PUSH0 DUP4 ADD DUP6 PUSH2 0x7CF JUMP JUMPDEST PUSH2 0x816 PUSH1 0x20 DUP4 ADD DUP5 PUSH2 0x7E7 JUMP JUMPDEST SWAP4 SWAP3 POP POP POP JUMP JUMPDEST PUSH0 DUP2 MLOAD SWAP1 POP SWAP2 SWAP1 POP JUMP JUMPDEST PUSH0 DUP3 DUP3 MSTORE PUSH1 0x20 DUP3 ADD SWAP1 POP SWAP3 SWAP2 POP POP JUMP JUMPDEST PUSH0 JUMPDEST DUP4 DUP2 LT ISZERO PUSH2 0x854 JUMPI DUP1 DUP3 ADD MLOAD DUP2 DUP5 ADD MSTORE PUSH1 0x20 DUP2 ADD SWAP1 POP PUSH2 0x839 JUMP JUMPDEST PUSH0 DUP5 DUP5 ADD MSTORE POP POP POP POP JUMP JUMPDEST PUSH0 PUSH1 0x1F NOT PUSH1 0x1F DUP4 ADD AND SWAP1 POP SWAP2 SWAP1 POP JUMP JUMPDEST PUSH0 PUSH2 0x879 DUP3 PUSH2 0x81D JUMP JUMPDEST PUSH2 0x883 DUP2 DUP6 PUSH2 0x827 JUMP JUMPDEST SWAP4 POP PUSH2 0x893 DUP2 DUP6 PUSH1 0x20 DUP7 ADD PUSH2 0x837 JUMP JUMPDEST PUSH2 0x89C DUP2 PUSH2 0x85F JUMP JUMPDEST DUP5 ADD SWAP2 POP POP SWAP3 SWAP2 POP POP JUMP JUMPDEST PUSH0 PUSH1 0x20 DUP3 ADD SWAP1 POP DUP2 DUP2 SUB PUSH0 DUP4 ADD MSTORE PUSH2 0x8BF DUP2 DUP5 PUSH2 0x86F JUMP JUMPDEST SWAP1 POP SWAP3 SWAP2 POP POP JUMP JUMPDEST PUSH0 DUP1 REVERT JUMPDEST PUSH0 DUP1 REVERT JUMPDEST PUSH32 0x4E487B7100000000000000000000000000000000000000000000000000000000 PUSH0 MSTORE PUSH1 0x41 PUSH1 0x4 MSTORE PUSH1 0x24 PUSH0 REVERT JUMPDEST PUSH2 0x905 DUP3 PUSH2 0x85F JUMP JUMPDEST DUP2 ADD DUP2 DUP2 LT PUSH8 0xFFFFFFFFFFFFFFFF DUP3 GT OR ISZERO PUSH2 0x924 JUMPI PUSH2 0x923 PUSH2 0x8CF JUMP JUMPDEST JUMPDEST DUP1 PUSH1 0x40 MSTORE POP POP POP JUMP JUMPDEST PUSH0 PUSH2 0x936 PUSH2 0x72E JUMP JUMPDEST SWAP1 POP PUSH2 0x942 DUP3 DUP3 PUSH2 0x8FC JUMP JUMPDEST SWAP2 SWAP1 POP JUMP JUMPDEST PUSH0 PUSH8 0xFFFFFFFFFFFFFFFF DUP3 GT ISZERO PUSH2 0x961 JUMPI PUSH2 0x960 PUSH2 0x8CF JUMP JUMPDEST JUMPDEST PUSH2 0x96A DUP3 PUSH2 0x85F JUMP JUMPDEST SWAP1 POP PUSH1 0x20 DUP2 ADD SWAP1 POP SWAP2 SWAP1 POP JUMP JUMPDEST DUP3 DUP2 DUP4 CALLDATACOPY PUSH0 DUP4 DUP4 ADD MSTORE POP POP POP JUMP JUMPDEST PUSH0 PUSH2 0x997 PUSH2 0x992 DUP5 PUSH2 0x947 JUMP JUMPDEST PUSH2 0x92D JUMP JUMPDEST SWAP1 POP DUP3 DUP2 MSTORE PUSH1 0x20 DUP2 ADD DUP5 DUP5 DUP5 ADD GT ISZERO PUSH2 0x9B3 JUMPI PUSH2 0x9B2 PUSH2 0x8CB JUMP JUMPDEST JUMPDEST PUSH2 0x9BE DUP5 DUP3 DUP6 PUSH2 0x977 JUMP JUMPDEST POP SWAP4 SWAP3 POP POP POP JUMP JUMPDEST PUSH0 DUP3 PUSH1 0x1F DUP4 ADD SLT PUSH2 0x9DA JUMPI PUSH2 0x9D9 PUSH2 0x8C7 JUMP JUMPDEST JUMPDEST DUP2 CALLDATALOAD PUSH2 0x9EA DUP5 DUP3 PUSH1 0x20 DUP7 ADD PUSH2 0x985 JUMP JUMPDEST SWAP2 POP POP SWAP3 SWAP2 POP POP JUMP JUMPDEST PUSH0 PUSH1 0x20 DUP3 DUP5 SUB SLT ISZERO PUSH2 0xA08 JUMPI PUSH2 0xA07 PUSH2 0x737 JUMP JUMPDEST JUMPDEST PUSH0 DUP3 ADD CALLDATALOAD PUSH8 0xFFFFFFFFFFFFFFFF DUP2 GT ISZERO PUSH2 0xA25 JUMPI PUSH2 0xA24 PUSH2 0x73B JUMP JUMPDEST JUMPDEST PUSH2 0xA31 DUP5 DUP3 DUP6 ADD PUSH2 0x9C6 JUMP JUMPDEST SWAP2 POP POP SWAP3 SWAP2 POP POP JUMP JUMPDEST PUSH0 PUSH1 0xFF DUP3 AND SWAP1 POP SWAP2 SWAP1 POP JUMP JUMPDEST PUSH2 0xA4F DUP2 PUSH2 0xA3A JUMP JUMPDEST DUP2 EQ PUSH2 0xA59 JUMPI PUSH0 DUP1 REVERT JUMPDEST POP JUMP JUMPDEST PUSH0 DUP2 CALLDATALOAD SWAP1 POP PUSH2 0xA6A DUP2 PUSH2 0xA46 JUMP JUMPDEST SWAP3 SWAP2 POP POP JUMP JUMPDEST PUSH0 DUP1 PUSH1 0x40 DUP4 DUP6 SUB SLT ISZERO PUSH2 0xA86 JUMPI PUSH2 0xA85 PUSH2 0x737 JUMP JUMPDEST JUMPDEST PUSH0 DUP4 ADD CALLDATALOAD PUSH8 0xFFFFFFFFFFFFFFFF DUP2 GT ISZERO PUSH2 0xAA3 JUMPI PUSH2 0xAA2 PUSH2 0x73B JUMP JUMPDEST JUMPDEST PUSH2 0xAAF DUP6 DUP3 DUP7 ADD PUSH2 0x9C6 JUMP JUMPDEST SWAP3 POP POP PUSH1 0x20 PUSH2 0xAC0 DUP6 DUP3 DUP7 ADD PUSH2 0xA5C JUMP JUMPDEST SWAP2 POP POP SWAP3 POP SWAP3 SWAP1 POP JUMP JUMPDEST PUSH0 PUSH1 0x5 SWAP1 POP SWAP2 SWAP1 POP JUMP JUMPDEST PUSH0 DUP2 SWAP1 POP SWAP3 SWAP2 POP POP JUMP JUMPDEST PUSH0 DUP2 SWAP1 POP SWAP2 SWAP1 POP JUMP JUMPDEST PUSH2 0xAF0 DUP2 PUSH2 0x7DE JUMP JUMPDEST DUP3 MSTORE POP POP JUMP JUMPDEST PUSH0 PUSH2 0xB01 DUP4 DUP4 PUSH2 0xAE7 JUMP JUMPDEST PUSH1 0x20 DUP4 ADD SWAP1 POP SWAP3 SWAP2 POP POP JUMP JUMPDEST PUSH0 PUSH1 0x20 DUP3 ADD SWAP1 POP SWAP2 SWAP1 POP JUMP JUMPDEST PUSH2 0xB22 DUP2 PUSH2 0xACA JUMP JUMPDEST PUSH2 0xB2C DUP2 DUP5 PUSH2 0xAD4 JUMP JUMPDEST SWAP3 POP PUSH2 0xB37 DUP3 PUSH2 0xADE JUMP JUMPDEST DUP1 PUSH0 JUMPDEST DUP4 DUP2 LT ISZERO PUSH2 0xB67 JUMPI DUP2 MLOAD PUSH2 0xB4E DUP8 DUP3 PUSH2 0xAF6 JUMP JUMPDEST SWAP7 POP PUSH2 0xB59 DUP4 PUSH2 0xB0D JUMP JUMPDEST SWAP3 POP POP PUSH1 0x1 DUP2 ADD SWAP1 POP PUSH2 0xB3A JUMP JUMPDEST POP POP POP POP POP POP JUMP JUMPDEST PUSH0 PUSH1 0xA0 DUP3 ADD SWAP1 POP PUSH2 0xB82 PUSH0 DUP4 ADD DUP5 PUSH2 0xB19 JUMP JUMPDEST SWAP3 SWAP2 POP POP JUMP JUMPDEST PUSH2 0xB91 DUP2 PUSH2 0x7DE JUMP JUMPDEST DUP2 EQ PUSH2 0xB9B JUMPI PUSH0 DUP1 REVERT JUMPDEST POP JUMP JUMPDEST PUSH0 DUP2 CALLDATALOAD SWAP1 POP PUSH2 0xBAC DUP2 PUSH2 0xB88 JUMP JUMPDEST SWAP3 SWAP2 POP POP JUMP JUMPDEST PUSH0 PUSH1 0x20 DUP3 DUP5 SUB SLT ISZERO PUSH2 0xBC7 JUMPI PUSH2 0xBC6 PUSH2 0x737 JUMP JUMPDEST JUMPDEST PUSH0 PUSH2 0xBD4 DUP5 DUP3 DUP6 ADD PUSH2 0xB9E JUMP JUMPDEST SWAP2 POP POP SWAP3 SWAP2 POP POP JUMP JUMPDEST PUSH0 PUSH1 0x40 DUP3 ADD SWAP1 POP DUP2 DUP2 SUB PUSH0 DUP4 ADD MSTORE PUSH2 0xBF5 DUP2 DUP6 PUSH2 0x86F JUMP JUMPDEST SWAP1 POP PUSH2 0xC04 PUSH1 0x20 DUP4 ADD DUP5 PUSH2 0x7E7 JUMP JUMPDEST SWAP4 SWAP3 POP POP POP JUMP JUMPDEST PUSH2 0xC14 DUP2 PUSH2 0x75E JUMP JUMPDEST DUP3 MSTORE POP POP JUMP JUMPDEST PUSH0 PUSH1 0x20 DUP3 ADD SWAP1 POP PUSH2 0xC2D PUSH0 DUP4 ADD DUP5 PUSH2 0xC0B JUMP JUMPDEST SWAP3 SWAP2 POP POP JUMP JUMPDEST PUSH32 0x4F6E6C792074686520686F73742063616E206578656375746520746869730000 PUSH0 DUP3 ADD MSTORE POP JUMP JUMPDEST PUSH0 PUSH2 0xC67 PUSH1 0x1E DUP4 PUSH2 0x827 JUMP JUMPDEST SWAP2 POP PUSH2 0xC72 DUP3 PUSH2 0xC33 JUMP JUMPDEST PUSH1 0x20 DUP3 ADD SWAP1 POP SWAP2 SWAP1 POP JUMP JUMPDEST PUSH0 PUSH1 0x20 DUP3 ADD SWAP1 POP DUP2 DUP2 SUB PUSH0 DUP4 ADD MSTORE PUSH2 0xC94 DUP2 PUSH2 0xC5B JUMP JUMPDEST SWAP1 POP SWAP2 SWAP1 POP JUMP JUMPDEST PUSH32 0x4E487B7100000000000000000000000000000000000000000000000000000000 PUSH0 MSTORE PUSH1 0x32 PUSH1 0x4 MSTORE PUSH1 0x24 PUSH0 REVERT JUMPDEST PUSH32 0x4E487B7100000000000000000000000000000000000000000000000000000000 PUSH0 MSTORE PUSH1 0x22 PUSH1 0x4 MSTORE PUSH1 0x24 PUSH0 REVERT JUMPDEST PUSH0 PUSH1 0x2 DUP3 DIV SWAP1 POP PUSH1 0x1 DUP3 AND DUP1 PUSH2 0xD0C JUMPI PUSH1 0x7F DUP3 AND SWAP2 POP JUMPDEST PUSH1 0x20 DUP3 LT DUP2 SUB PUSH2 0xD1F JUMPI PUSH2 0xD1E PUSH2 0xCC8 JUMP JUMPDEST JUMPDEST POP SWAP2 SWAP1 POP JUMP JUMPDEST PUSH32 0x4E487B7100000000000000000000000000000000000000000000000000000000 PUSH0 MSTORE PUSH1 0x11 PUSH1 0x4 MSTORE PUSH1 0x24 PUSH0 REVERT JUMPDEST PUSH0 PUSH2 0xD5C DUP3 PUSH2 0xA3A JUMP JUMPDEST SWAP2 POP PUSH1 0xFF DUP3 SUB PUSH2 0xD6F JUMPI PUSH2 0xD6E PUSH2 0xD25 JUMP JUMPDEST JUMPDEST PUSH1 0x1 DUP3 ADD SWAP1 POP SWAP2 SWAP1 POP JUMP JUMPDEST PUSH32 0x596F75206861766520616C726561647920766F74656400000000000000000000 PUSH0 DUP3 ADD MSTORE POP JUMP JUMPDEST PUSH0 PUSH2 0xDAE PUSH1 0x16 DUP4 PUSH2 0x827 JUMP JUMPDEST SWAP2 POP PUSH2 0xDB9 DUP3 PUSH2 0xD7A JUMP JUMPDEST PUSH1 0x20 DUP3 ADD SWAP1 POP SWAP2 SWAP1 POP JUMP JUMPDEST PUSH0 PUSH1 0x20 DUP3 ADD SWAP1 POP DUP2 DUP2 SUB PUSH0 DUP4 ADD MSTORE PUSH2 0xDDB DUP2 PUSH2 0xDA2 JUMP JUMPDEST SWAP1 POP SWAP2 SWAP1 POP JUMP JUMPDEST PUSH0 DUP2 SWAP1 POP SWAP3 SWAP2 POP POP JUMP JUMPDEST PUSH0 DUP2 SWAP1 POP DUP2 PUSH0 MSTORE PUSH1 0x20 PUSH0 KECCAK256 SWAP1 POP SWAP2 SWAP1 POP JUMP JUMPDEST PUSH0 DUP2 SLOAD PUSH2 0xE0A DUP2 PUSH2 0xCF5 JUMP JUMPDEST PUSH2 0xE14 DUP2 DUP7 PUSH2 0xDE2 JUMP JUMPDEST SWAP5 POP PUSH1 0x1 DUP3 AND PUSH0 DUP2 EQ PUSH2 0xE2E JUMPI PUSH1 0x1 DUP2 EQ PUSH2 0xE43 JUMPI PUSH2 0xE75 JUMP JUMPDEST PUSH1 0xFF NOT DUP4 AND DUP7 MSTORE DUP2 ISZERO ISZERO DUP3 MUL DUP7 ADD SWAP4 POP PUSH2 0xE75 JUMP JUMPDEST PUSH2 0xE4C DUP6 PUSH2 0xDEC JUMP JUMPDEST PUSH0 JUMPDEST DUP4 DUP2 LT ISZERO PUSH2 0xE6D JUMPI DUP2 SLOAD DUP2 DUP10 ADD MSTORE PUSH1 0x1 DUP3 ADD SWAP2 POP PUSH1 0x20 DUP2 ADD SWAP1 POP PUSH2 0xE4E JUMP JUMPDEST DUP4 DUP9 ADD SWAP6 POP POP POP JUMPDEST POP POP POP SWAP3 SWAP2 POP POP JUMP JUMPDEST PUSH0 PUSH2 0xE89 DUP3 DUP5 PUSH2 0xDFE JUMP JUMPDEST SWAP2 POP DUP2 SWAP1 POP SWAP3 SWAP2 POP POP JUMP JUMPDEST PUSH0 PUSH2 0xE9E DUP3 PUSH2 0x7DE JUMP JUMPDEST SWAP2 POP PUSH32 0xFFFFFFFFFFFFFFFFFFFFFFFFFFFFFFFFFFFFFFFFFFFFFFFFFFFFFFFFFFFFFFFF DUP3 SUB PUSH2 0xED0 JUMPI PUSH2 0xECF PUSH2 0xD25 JUMP JUMPDEST JUMPDEST PUSH1 0x1 DUP3 ADD SWAP1 POP SWAP2 SWAP1 POP JUMP JUMPDEST PUSH32 0x436F6E74657374616E7420696E646578206F7574206F662072616E6765000000 PUSH0 DUP3 ADD MSTORE POP JUMP JUMPDEST PUSH0 PUSH2 0xF0F PUSH1 0x1D DUP4 PUSH2 0x827 JUMP JUMPDEST SWAP2 POP PUSH2 0xF1A DUP3 PUSH2 0xEDB JUMP JUMPDEST PUSH1 0x20 DUP3 ADD SWAP1 POP SWAP2 SWAP1 POP JUMP JUMPDEST PUSH0 PUSH1 0x20 DUP3 ADD SWAP1 POP DUP2 DUP2 SUB PUSH0 DUP4 ADD MSTORE PUSH2 0xF3C DUP2 PUSH2 0xF03 JUMP JUMPDEST SWAP1 POP SWAP2 SWAP1 POP JUMP JUMPDEST PUSH0 DUP2 SWAP1 POP DUP2 PUSH0 MSTORE PUSH1 0x20 PUSH0 KECCAK256 SWAP1 POP SWAP2 SWAP1 POP JUMP JUMPDEST PUSH0 PUSH1 0x20 PUSH1 0x1F DUP4 ADD DIV SWAP1 POP SWAP2 SWAP1 POP JUMP JUMPDEST PUSH0 DUP3 DUP3 SHL SWAP1 POP SWAP3 SWAP2 POP POP JUMP JUMPDEST PUSH0 PUSH1 0x8 DUP4 MUL PUSH2 0xF9F PUSH32 0xFFFFFFFFFFFFFFFFFFFFFFFFFFFFFFFFFFFFFFFFFFFFFFFFFFFFFFFFFFFFFFFF DUP3 PUSH2 0xF64 JUMP JUMPDEST PUSH2 0xFA9 DUP7 DUP4 PUSH2 0xF64 JUMP JUMPDEST SWAP6 POP DUP1 NOT DUP5 AND SWAP4 POP DUP1 DUP7 AND DUP5 OR SWAP3 POP POP POP SWAP4 SWAP3 POP POP POP JUMP JUMPDEST PUSH0 DUP2 SWAP1 POP SWAP2 SWAP1 POP JUMP JUMPDEST PUSH0 PUSH2 0xFE4 PUSH2 0xFDF PUSH2 0xFDA DUP5 PUSH2 0x7DE JUMP JUMPDEST PUSH2 0xFC1 JUMP JUMPDEST PUSH2 0x7DE JUMP JUMPDEST SWAP1 POP SWAP2 SWAP1 POP JUMP JUMPDEST PUSH0 DUP2 SWAP1 POP SWAP2 SWAP1 POP JUMP JUMPDEST PUSH2 0xFFD DUP4 PUSH2 0xFCA JUMP JUMPDEST PUSH2 0x1011 PUSH2 0x1009 DUP3 PUSH2 0xFEB JUMP JUMPDEST DUP5 DUP5 SLOAD PUSH2 0xF70 JUMP JUMPDEST DUP3 SSTORE POP POP POP POP JUMP JUMPDEST PUSH0 SWAP1 JUMP JUMPDEST PUSH2 0x1025 PUSH2 0x1019 JUMP JUMPDEST PUSH2 0x1030 DUP2 DUP5 DUP5 PUSH2 0xFF4 JUMP JUMPDEST POP POP POP JUMP JUMPDEST JUMPDEST DUP2 DUP2 LT ISZERO PUSH2 0x1053 JUMPI PUSH2 0x1048 PUSH0 DUP3 PUSH2 0x101D JUMP JUMPDEST PUSH1 0x1 DUP2 ADD SWAP1 POP PUSH2 0x1036 JUMP JUMPDEST POP POP JUMP JUMPDEST PUSH1 0x1F DUP3 GT ISZERO PUSH2 0x1098 JUMPI PUSH2 0x1069 DUP2 PUSH2 0xF43 JUMP JUMPDEST PUSH2 0x1072 DUP5 PUSH2 0xF55 JUMP JUMPDEST DUP2 ADD PUSH1 0x20 DUP6 LT ISZERO PUSH2 0x1081 JUMPI DUP2 SWAP1 POP JUMPDEST PUSH2 0x1095 PUSH2 0x108D DUP6 PUSH2 0xF55 JUMP JUMPDEST DUP4 ADD DUP3 PUSH2 0x1035 JUMP JUMPDEST POP POP JUMPDEST POP POP POP JUMP JUMPDEST PUSH0 DUP3 DUP3 SHR SWAP1 POP SWAP3 SWAP2 POP POP JUMP JUMPDEST PUSH0 PUSH2 0x10B8 PUSH0 NOT DUP5 PUSH1 0x8 MUL PUSH2 0x109D JUMP JUMPDEST NOT DUP1 DUP4 AND SWAP2 POP POP SWAP3 SWAP2 POP POP JUMP JUMPDEST PUSH0 PUSH2 0x10D0 DUP4 DUP4 PUSH2 0x10A9 JUMP JUMPDEST SWAP2 POP DUP3 PUSH1 0x2 MUL DUP3 OR SWAP1 POP SWAP3 SWAP2 POP POP JUMP JUMPDEST PUSH2 0x10E9 DUP3 PUSH2 0x81D JUMP JUMPDEST PUSH8 0xFFFFFFFFFFFFFFFF DUP2 GT ISZERO PUSH2 0x1102 JUMPI PUSH2 0x1101 PUSH2 0x8CF JUMP JUMPDEST JUMPDEST PUSH2 0x110C DUP3 SLOAD PUSH2 0xCF5 JUMP JUMPDEST PUSH2 0x1117 DUP3 DUP3 DUP6 PUSH2 0x1057 JUMP JUMPDEST PUSH0 PUSH1 0x20 SWAP1 POP PUSH1 0x1F DUP4 GT PUSH1 0x1 DUP2 EQ PUSH2 0x1148 JUMPI PUSH0 DUP5 ISZERO PUSH2 0x1136 JUMPI DUP3 DUP8 ADD MLOAD SWAP1 POP JUMPDEST PUSH2 0x1140 DUP6 DUP3 PUSH2 0x10C5 JUMP JUMPDEST DUP7 SSTORE POP PUSH2 0x11A7 JUMP JUMPDEST PUSH1 0x1F NOT DUP5 AND PUSH2 0x1156 DUP7 PUSH2 0xF43 JUMP JUMPDEST PUSH0 JUMPDEST DUP3 DUP2 LT ISZERO PUSH2 0x117D JUMPI DUP5 DUP10 ADD MLOAD DUP3 SSTORE PUSH1 0x1 DUP3 ADD SWAP2 POP PUSH1 0x20 DUP6 ADD SWAP5 POP PUSH1 0x20 DUP2 ADD SWAP1 POP PUSH2 0x1158 JUMP JUMPDEST DUP7 DUP4 LT ISZERO PUSH2 0x119A JUMPI DUP5 DUP10 ADD MLOAD PUSH2 0x1196 PUSH1 0x1F DUP10 AND DUP3 PUSH2 0x10A9 JUMP JUMPDEST DUP4 SSTORE POP JUMPDEST PUSH1 0x1 PUSH1 0x2 DUP9 MUL ADD DUP9 SSTORE POP POP POP JUMPDEST POP POP POP POP POP POP JUMP INVALID LOG2 PUSH5 0x6970667358 0x22 SLT KECCAK256 0xEC PUSH12 0xC2D0AE3A9B4D4A58C9195AF 0xB7 NUMBER 0xDC GT 0xEF 0xEE 0xD5 DUP12 0xC3 0xAA SMOD EXTCODESIZE RETURN 0x29 MOD SLT DUP3 PUSH10 0x64736F6C634300081600 CALLER "
				},
				"gasEstimates": {
					"creation": {
						"codeDepositCost": "916200",
						"executionCost": "25218",
						"totalCost": "941418"
					},
					"external": {
						"announceVotedOut()": "infinite",
						"contestants(uint256)": "infinite",
						"getTotalVoteCounts()": "infinite",
						"host()": "2571",
						"initialize(string,uint8)": "infinite",
						"participants(address)": "5068",
						"voteOut(string)": "infinite"
					}
				},
				"methodIdentifiers": {
					"announceVotedOut()": "28dd8045",
					"contestants(uint256)": "dfd50f52",
					"getTotalVoteCounts()": "d485f61b",
					"host()": "f437bc59",
					"initialize(string,uint8)": "cc1207c0",
					"participants(address)": "09e69ede",
					"voteOut(string)": "51181b28"
				}
			},
			"storageLayout": {
				"storage": [
					{
						"astId": 3,
						"contract": "contracts/vote.sol:SurvivorGame",
						"label": "host",
						"offset": 0,
						"slot": "0",
						"type": "t_address"
					},
					{
						"astId": 18,
						"contract": "contracts/vote.sol:SurvivorGame",
						"label": "participants",
						"offset": 0,
						"slot": "1",
						"type": "t_mapping(t_address,t_struct(Participant)8_storage)"
					},
					{
						"astId": 23,
						"contract": "contracts/vote.sol:SurvivorGame",
						"label": "contestants",
						"offset": 0,
						"slot": "2",
						"type": "t_array(t_struct(Contestant)13_storage)5_storage"
					}
				],
				"types": {
					"t_address": {
						"encoding": "inplace",
						"label": "address",
						"numberOfBytes": "20"
					},
					"t_array(t_struct(Contestant)13_storage)5_storage": {
						"base": "t_struct(Contestant)13_storage",
						"encoding": "inplace",
						"label": "struct SurvivorGame.Contestant[5]",
						"numberOfBytes": "320"
					},
					"t_bool": {
						"encoding": "inplace",
						"label": "bool",
						"numberOfBytes": "1"
					},
					"t_mapping(t_address,t_struct(Participant)8_storage)": {
						"encoding": "mapping",
						"key": "t_address",
						"label": "mapping(address => struct SurvivorGame.Participant)",
						"numberOfBytes": "32",
						"value": "t_struct(Participant)8_storage"
					},
					"t_string_storage": {
						"encoding": "bytes",
						"label": "string",
						"numberOfBytes": "32"
					},
					"t_struct(Contestant)13_storage": {
						"encoding": "inplace",
						"label": "struct SurvivorGame.Contestant",
						"members": [
							{
								"astId": 10,
								"contract": "contracts/vote.sol:SurvivorGame",
								"label": "name",
								"offset": 0,
								"slot": "0",
								"type": "t_string_storage"
							},
							{
								"astId": 12,
								"contract": "contracts/vote.sol:SurvivorGame",
								"label": "voteCount",
								"offset": 0,
								"slot": "1",
								"type": "t_uint256"
							}
						],
						"numberOfBytes": "64"
					},
					"t_struct(Participant)8_storage": {
						"encoding": "inplace",
						"label": "struct SurvivorGame.Participant",
						"members": [
							{
								"astId": 5,
								"contract": "contracts/vote.sol:SurvivorGame",
								"label": "alreadyVoted",
								"offset": 0,
								"slot": "0",
								"type": "t_bool"
							},
							{
								"astId": 7,
								"contract": "contracts/vote.sol:SurvivorGame",
								"label": "voteIndex",
								"offset": 0,
								"slot": "1",
								"type": "t_uint256"
							}
						],
						"numberOfBytes": "64"
					},
					"t_uint256": {
						"encoding": "inplace",
						"label": "uint256",
						"numberOfBytes": "32"
					}
				}
			},
			"userdoc": {
				"kind": "user",
				"methods": {},
				"version": 1
			}
		}
	}
}