{
	"contracts/guessmypassword.sol": {
		"PasswordGuesser": {
			"abi": [
				{
					"inputs": [
						{
							"internalType": "address",
							"name": "_contractAddress",
							"type": "address"
						}
					],
					"stateMutability": "nonpayable",
					"type": "constructor"
				},
				{
					"inputs": [],
					"name": "guessMyPasswordContract",
					"outputs": [
						{
							"internalType": "contract IGuessMyPassword",
							"name": "",
							"type": "address"
						}
					],
					"stateMutability": "view",
					"type": "function"
				},
				{
					"inputs": [],
					"name": "guessPassword",
					"outputs": [],
					"stateMutability": "nonpayable",
					"type": "function"
				}
			],
			"devdoc": {
				"kind": "dev",
				"methods": {},
				"version": 1
			},
			"evm": {
				"assembly": "    /* \"contracts/guessmypassword.sol\":168:498  contract PasswordGuesser {... */\n  mstore(0x40, 0x80)\n    /* \"contracts/guessmypassword.sol\":256:380  constructor(address _contractAddress) public {... */\n  callvalue\n  dup1\n  iszero\n  tag_1\n  jumpi\n  0x00\n  dup1\n  revert\ntag_1:\n  pop\n  mload(0x40)\n  sub(codesize, bytecodeSize)\n  dup1\n  bytecodeSize\n  dup4\n  codecopy\n  dup2\n  dup2\n  add\n  0x40\n  mstore\n  dup2\n  add\n  swap1\n  tag_2\n  swap2\n  swap1\n  tag_3\n  jump\t// in\ntag_2:\n    /* \"contracts/guessmypassword.sol\":355:371  _contractAddress */\n  dup1\n    /* \"contracts/guessmypassword.sol\":312:335  guessMyPasswordContract */\n  0x00\n  dup1\n    /* \"contracts/guessmypassword.sol\":312:372  guessMyPasswordContract = IGuessMyPassword(_contractAddress) */\n  0x0100\n  exp\n  dup2\n  sload\n  dup2\n  0xffffffffffffffffffffffffffffffffffffffff\n  mul\n  not\n  and\n  swap1\n  dup4\n  0xffffffffffffffffffffffffffffffffffffffff\n  and\n  mul\n  or\n  swap1\n  sstore\n  pop\n    /* \"contracts/guessmypassword.sol\":256:380  constructor(address _contractAddress) public {... */\n  pop\n    /* \"contracts/guessmypassword.sol\":168:498  contract PasswordGuesser {... */\n  jump(tag_6)\n    /* \"#utility.yul\":88:205   */\ntag_8:\n    /* \"#utility.yul\":197:198   */\n  0x00\n    /* \"#utility.yul\":194:195   */\n  dup1\n    /* \"#utility.yul\":187:199   */\n  revert\n    /* \"#utility.yul\":334:460   */\ntag_10:\n    /* \"#utility.yul\":371:378   */\n  0x00\n    /* \"#utility.yul\":411:453   */\n  0xffffffffffffffffffffffffffffffffffffffff\n    /* \"#utility.yul\":404:409   */\n  dup3\n    /* \"#utility.yul\":400:454   */\n  and\n    /* \"#utility.yul\":389:454   */\n  swap1\n  pop\n    /* \"#utility.yul\":334:460   */\n  swap2\n  swap1\n  pop\n  jump\t// out\n    /* \"#utility.yul\":466:562   */\ntag_11:\n    /* \"#utility.yul\":503:510   */\n  0x00\n    /* \"#utility.yul\":532:556   */\n  tag_20\n    /* \"#utility.yul\":550:555   */\n  dup3\n    /* \"#utility.yul\":532:556   */\n  tag_10\n  jump\t// in\ntag_20:\n    /* \"#utility.yul\":521:556   */\n  swap1\n  pop\n    /* \"#utility.yul\":466:562   */\n  swap2\n  swap1\n  pop\n  jump\t// out\n    /* \"#utility.yul\":568:690   */\ntag_12:\n    /* \"#utility.yul\":641:665   */\n  tag_22\n    /* \"#utility.yul\":659:664   */\n  dup2\n    /* \"#utility.yul\":641:665   */\n  tag_11\n  jump\t// in\ntag_22:\n    /* \"#utility.yul\":634:639   */\n  dup2\n    /* \"#utility.yul\":631:666   */\n  eq\n    /* \"#utility.yul\":621:684   */\n  tag_23\n  jumpi\n    /* \"#utility.yul\":680:681   */\n  0x00\n    /* \"#utility.yul\":677:678   */\n  dup1\n    /* \"#utility.yul\":670:682   */\n  revert\n    /* \"#utility.yul\":621:684   */\ntag_23:\n    /* \"#utility.yul\":568:690   */\n  pop\n  jump\t// out\n    /* \"#utility.yul\":696:839   */\ntag_13:\n    /* \"#utility.yul\":753:758   */\n  0x00\n    /* \"#utility.yul\":784:790   */\n  dup2\n    /* \"#utility.yul\":778:791   */\n  mload\n    /* \"#utility.yul\":769:791   */\n  swap1\n  pop\n    /* \"#utility.yul\":800:833   */\n  tag_25\n    /* \"#utility.yul\":827:832   */\n  dup2\n    /* \"#utility.yul\":800:833   */\n  tag_12\n  jump\t// in\ntag_25:\n    /* \"#utility.yul\":696:839   */\n  swap3\n  swap2\n  pop\n  pop\n  jump\t// out\n    /* \"#utility.yul\":845:1196   */\ntag_3:\n    /* \"#utility.yul\":915:921   */\n  0x00\n    /* \"#utility.yul\":964:966   */\n  0x20\n    /* \"#utility.yul\":952:961   */\n  dup3\n    /* \"#utility.yul\":943:950   */\n  dup5\n    /* \"#utility.yul\":939:962   */\n  sub\n    /* \"#utility.yul\":935:967   */\n  slt\n    /* \"#utility.yul\":932:1051   */\n  iszero\n  tag_27\n  jumpi\n    /* \"#utility.yul\":970:1049   */\n  tag_28\n  tag_8\n  jump\t// in\ntag_28:\n    /* \"#utility.yul\":932:1051   */\ntag_27:\n    /* \"#utility.yul\":1090:1091   */\n  0x00\n    /* \"#utility.yul\":1115:1179   */\n  tag_29\n    /* \"#utility.yul\":1171:1178   */\n  dup5\n    /* \"#utility.yul\":1162:1168   */\n  dup3\n    /* \"#utility.yul\":1151:1160   */\n  dup6\n    /* \"#utility.yul\":1147:1169   */\n  add\n    /* \"#utility.yul\":1115:1179   */\n  tag_13\n  jump\t// in\ntag_29:\n    /* \"#utility.yul\":1105:1179   */\n  swap2\n  pop\n    /* \"#utility.yul\":1061:1189   */\n  pop\n    /* \"#utility.yul\":845:1196   */\n  swap3\n  swap2\n  pop\n  pop\n  jump\t// out\n    /* \"contracts/guessmypassword.sol\":168:498  contract PasswordGuesser {... */\ntag_6:\n  dataSize(sub_0)\n  dup1\n  dataOffset(sub_0)\n  0x00\n  codecopy\n  0x00\n  return\nstop\n\nsub_0: assembly {\n        /* \"contracts/guessmypassword.sol\":168:498  contract PasswordGuesser {... */\n      mstore(0x40, 0x80)\n      callvalue\n      dup1\n      iszero\n      tag_1\n      jumpi\n      0x00\n      dup1\n      revert\n    tag_1:\n      pop\n      jumpi(tag_2, lt(calldatasize, 0x04))\n      shr(0xe0, calldataload(0x00))\n      dup1\n      0x533122a5\n      eq\n      tag_3\n      jumpi\n      dup1\n      0xdf6e3d31\n      eq\n      tag_4\n      jumpi\n    tag_2:\n      0x00\n      dup1\n      revert\n        /* \"contracts/guessmypassword.sol\":200:247  IGuessMyPassword public guessMyPasswordContract */\n    tag_3:\n      tag_5\n      tag_6\n      jump\t// in\n    tag_5:\n      mload(0x40)\n      tag_7\n      swap2\n      swap1\n      tag_8\n      jump\t// in\n    tag_7:\n      mload(0x40)\n      dup1\n      swap2\n      sub\n      swap1\n      return\n        /* \"contracts/guessmypassword.sol\":388:495  function guessPassword() public {... */\n    tag_4:\n      tag_9\n      tag_10\n      jump\t// in\n    tag_9:\n      stop\n        /* \"contracts/guessmypassword.sol\":200:247  IGuessMyPassword public guessMyPasswordContract */\n    tag_6:\n      0x00\n      dup1\n      sload\n      swap1\n      0x0100\n      exp\n      swap1\n      div\n      0xffffffffffffffffffffffffffffffffffffffff\n      and\n      dup2\n      jump\t// out\n        /* \"contracts/guessmypassword.sol\":388:495  function guessPassword() public {... */\n    tag_10:\n        /* \"contracts/guessmypassword.sol\":431:454  guessMyPasswordContract */\n      0x00\n      dup1\n      sload\n      swap1\n      0x0100\n      exp\n      swap1\n      div\n      0xffffffffffffffffffffffffffffffffffffffff\n      and\n        /* \"contracts/guessmypassword.sol\":431:470  guessMyPasswordContract.guessMyPassword */\n      0xffffffffffffffffffffffffffffffffffffffff\n      and\n      0x074d1dcc\n        /* \"contracts/guessmypassword.sol\":431:487  guessMyPasswordContract.guessMyPassword(\"I'Mz3p4SsW0rd\") */\n      mload(0x40)\n      dup2\n      0xffffffff\n      and\n      0xe0\n      shl\n      dup2\n      mstore\n      0x04\n      add\n      tag_12\n      swap1\n      tag_13\n      jump\t// in\n    tag_12:\n      0x00\n      mload(0x40)\n      dup1\n      dup4\n      sub\n      dup2\n      0x00\n      dup8\n      dup1\n      extcodesize\n      iszero\n      dup1\n      iszero\n      tag_14\n      jumpi\n      0x00\n      dup1\n      revert\n    tag_14:\n      pop\n      gas\n      call\n      iszero\n      dup1\n      iszero\n      tag_16\n      jumpi\n      returndatasize\n      0x00\n      dup1\n      returndatacopy\n      revert(0x00, returndatasize)\n    tag_16:\n      pop\n      pop\n      pop\n      pop\n        /* \"contracts/guessmypassword.sol\":388:495  function guessPassword() public {... */\n      jump\t// out\n        /* \"#utility.yul\":7:133   */\n    tag_17:\n        /* \"#utility.yul\":44:51   */\n      0x00\n        /* \"#utility.yul\":84:126   */\n      0xffffffffffffffffffffffffffffffffffffffff\n        /* \"#utility.yul\":77:82   */\n      dup3\n        /* \"#utility.yul\":73:127   */\n      and\n        /* \"#utility.yul\":62:127   */\n      swap1\n      pop\n        /* \"#utility.yul\":7:133   */\n      swap2\n      swap1\n      pop\n      jump\t// out\n        /* \"#utility.yul\":139:199   */\n    tag_18:\n        /* \"#utility.yul\":167:170   */\n      0x00\n        /* \"#utility.yul\":188:193   */\n      dup2\n        /* \"#utility.yul\":181:193   */\n      swap1\n      pop\n        /* \"#utility.yul\":139:199   */\n      swap2\n      swap1\n      pop\n      jump\t// out\n        /* \"#utility.yul\":205:347   */\n    tag_19:\n        /* \"#utility.yul\":255:264   */\n      0x00\n        /* \"#utility.yul\":288:341   */\n      tag_28\n        /* \"#utility.yul\":306:340   */\n      tag_29\n        /* \"#utility.yul\":315:339   */\n      tag_30\n        /* \"#utility.yul\":333:338   */\n      dup5\n        /* \"#utility.yul\":315:339   */\n      tag_17\n      jump\t// in\n    tag_30:\n        /* \"#utility.yul\":306:340   */\n      tag_18\n      jump\t// in\n    tag_29:\n        /* \"#utility.yul\":288:341   */\n      tag_17\n      jump\t// in\n    tag_28:\n        /* \"#utility.yul\":275:341   */\n      swap1\n      pop\n        /* \"#utility.yul\":205:347   */\n      swap2\n      swap1\n      pop\n      jump\t// out\n        /* \"#utility.yul\":353:479   */\n    tag_20:\n        /* \"#utility.yul\":403:412   */\n      0x00\n        /* \"#utility.yul\":436:473   */\n      tag_32\n        /* \"#utility.yul\":467:472   */\n      dup3\n        /* \"#utility.yul\":436:473   */\n      tag_19\n      jump\t// in\n    tag_32:\n        /* \"#utility.yul\":423:473   */\n      swap1\n      pop\n        /* \"#utility.yul\":353:479   */\n      swap2\n      swap1\n      pop\n      jump\t// out\n        /* \"#utility.yul\":485:633   */\n    tag_21:\n        /* \"#utility.yul\":557:566   */\n      0x00\n        /* \"#utility.yul\":590:627   */\n      tag_34\n        /* \"#utility.yul\":621:626   */\n      dup3\n        /* \"#utility.yul\":590:627   */\n      tag_20\n      jump\t// in\n    tag_34:\n        /* \"#utility.yul\":577:627   */\n      swap1\n      pop\n        /* \"#utility.yul\":485:633   */\n      swap2\n      swap1\n      pop\n      jump\t// out\n        /* \"#utility.yul\":639:814   */\n    tag_22:\n        /* \"#utility.yul\":748:807   */\n      tag_36\n        /* \"#utility.yul\":801:806   */\n      dup2\n        /* \"#utility.yul\":748:807   */\n      tag_21\n      jump\t// in\n    tag_36:\n        /* \"#utility.yul\":743:746   */\n      dup3\n        /* \"#utility.yul\":736:808   */\n      mstore\n        /* \"#utility.yul\":639:814   */\n      pop\n      pop\n      jump\t// out\n        /* \"#utility.yul\":820:1086   */\n    tag_8:\n        /* \"#utility.yul\":935:939   */\n      0x00\n        /* \"#utility.yul\":973:975   */\n      0x20\n        /* \"#utility.yul\":962:971   */\n      dup3\n        /* \"#utility.yul\":958:976   */\n      add\n        /* \"#utility.yul\":950:976   */\n      swap1\n      pop\n        /* \"#utility.yul\":986:1079   */\n      tag_38\n        /* \"#utility.yul\":1076:1077   */\n      0x00\n        /* \"#utility.yul\":1065:1074   */\n      dup4\n        /* \"#utility.yul\":1061:1078   */\n      add\n        /* \"#utility.yul\":1052:1058   */\n      dup5\n        /* \"#utility.yul\":986:1079   */\n      tag_22\n      jump\t// in\n    tag_38:\n        /* \"#utility.yul\":820:1086   */\n      swap3\n      swap2\n      pop\n      pop\n      jump\t// out\n        /* \"#utility.yul\":1092:1265   */\n    tag_23:\n        /* \"#utility.yul\":1243:1258   */\n      0x49274d7a33703453735730726400000000000000000000000000000000000000\n        /* \"#utility.yul\":1238:1241   */\n      dup2\n        /* \"#utility.yul\":1231:1259   */\n      mstore\n        /* \"#utility.yul\":1092:1265   */\n      pop\n      jump\t// out\n        /* \"#utility.yul\":1271:1619   */\n    tag_13:\n        /* \"#utility.yul\":1427:1431   */\n      0x00\n        /* \"#utility.yul\":1465:1467   */\n      0x20\n        /* \"#utility.yul\":1454:1463   */\n      dup3\n        /* \"#utility.yul\":1450:1468   */\n      add\n        /* \"#utility.yul\":1442:1468   */\n      swap1\n      pop\n        /* \"#utility.yul\":1478:1612   */\n      tag_41\n        /* \"#utility.yul\":1609:1610   */\n      0x00\n        /* \"#utility.yul\":1598:1607   */\n      dup4\n        /* \"#utility.yul\":1594:1611   */\n      add\n        /* \"#utility.yul\":1478:1612   */\n      tag_23\n      jump\t// in\n    tag_41:\n        /* \"#utility.yul\":1271:1619   */\n      swap2\n      swap1\n      pop\n      jump\t// out\n\n    auxdata: 0xa2646970667358221220c255f7efcf1cfa5a8041d454d5203732d95ac0a1d0352355bc6312c073e4906264736f6c63430008160033\n}\n",
				"bytecode": {
					"linkReferences": {},
					"object": "608060405234801561000f575f80fd5b5060405161031a38038061031a833981810160405281019061003191906100d4565b805f806101000a81548173ffffffffffffffffffffffffffffffffffffffff021916908373ffffffffffffffffffffffffffffffffffffffff160217905550506100ff565b5f80fd5b5f73ffffffffffffffffffffffffffffffffffffffff82169050919050565b5f6100a38261007a565b9050919050565b6100b381610099565b81146100bd575f80fd5b50565b5f815190506100ce816100aa565b92915050565b5f602082840312156100e9576100e8610076565b5b5f6100f6848285016100c0565b91505092915050565b61020e8061010c5f395ff3fe608060405234801561000f575f80fd5b5060043610610034575f3560e01c8063533122a514610038578063df6e3d3114610056575b5f80fd5b610040610060565b60405161004d9190610182565b60405180910390f35b61005e610083565b005b5f8054906101000a900473ffffffffffffffffffffffffffffffffffffffff1681565b5f8054906101000a900473ffffffffffffffffffffffffffffffffffffffff1673ffffffffffffffffffffffffffffffffffffffff1663074d1dcc6040518163ffffffff1660e01b81526004016100d9906101c1565b5f604051808303815f87803b1580156100f0575f80fd5b505af1158015610102573d5f803e3d5ffd5b50505050565b5f73ffffffffffffffffffffffffffffffffffffffff82169050919050565b5f819050919050565b5f61014a61014561014084610108565b610127565b610108565b9050919050565b5f61015b82610130565b9050919050565b5f61016c82610151565b9050919050565b61017c81610162565b82525050565b5f6020820190506101955f830184610173565b92915050565b7f49274d7a33703453735730726400000000000000000000000000000000000000815250565b5f6020820190506101d35f830161019b565b91905056fea2646970667358221220c255f7efcf1cfa5a8041d454d5203732d95ac0a1d0352355bc6312c073e4906264736f6c63430008160033",
					"opcodes": "PUSH1 0x80 PUSH1 0x40 MSTORE CALLVALUE DUP1 ISZERO PUSH2 0xF JUMPI PUSH0 DUP1 REVERT JUMPDEST POP PUSH1 0x40 MLOAD PUSH2 0x31A CODESIZE SUB DUP1 PUSH2 0x31A DUP4 CODECOPY DUP2 DUP2 ADD PUSH1 0x40 MSTORE DUP2 ADD SWAP1 PUSH2 0x31 SWAP2 SWAP1 PUSH2 0xD4 JUMP JUMPDEST DUP1 PUSH0 DUP1 PUSH2 0x100 EXP DUP2 SLOAD DUP2 PUSH20 0xFFFFFFFFFFFFFFFFFFFFFFFFFFFFFFFFFFFFFFFF MUL NOT AND SWAP1 DUP4 PUSH20 0xFFFFFFFFFFFFFFFFFFFFFFFFFFFFFFFFFFFFFFFF AND MUL OR SWAP1 SSTORE POP POP PUSH2 0xFF JUMP JUMPDEST PUSH0 DUP1 REVERT JUMPDEST PUSH0 PUSH20 0xFFFFFFFFFFFFFFFFFFFFFFFFFFFFFFFFFFFFFFFF DUP3 AND SWAP1 POP SWAP2 SWAP1 POP JUMP JUMPDEST PUSH0 PUSH2 0xA3 DUP3 PUSH2 0x7A JUMP JUMPDEST SWAP1 POP SWAP2 SWAP1 POP JUMP JUMPDEST PUSH2 0xB3 DUP2 PUSH2 0x99 JUMP JUMPDEST DUP2 EQ PUSH2 0xBD JUMPI PUSH0 DUP1 REVERT JUMPDEST POP JUMP JUMPDEST PUSH0 DUP2 MLOAD SWAP1 POP PUSH2 0xCE DUP2 PUSH2 0xAA JUMP JUMPDEST SWAP3 SWAP2 POP POP JUMP JUMPDEST PUSH0 PUSH1 0x20 DUP3 DUP5 SUB SLT ISZERO PUSH2 0xE9 JUMPI PUSH2 0xE8 PUSH2 0x76 JUMP JUMPDEST JUMPDEST PUSH0 PUSH2 0xF6 DUP5 DUP3 DUP6 ADD PUSH2 0xC0 JUMP JUMPDEST SWAP2 POP POP SWAP3 SWAP2 POP POP JUMP JUMPDEST PUSH2 0x20E DUP1 PUSH2 0x10C PUSH0 CODECOPY PUSH0 RETURN INVALID PUSH1 0x80 PUSH1 0x40 MSTORE CALLVALUE DUP1 ISZERO PUSH2 0xF JUMPI PUSH0 DUP1 REVERT JUMPDEST POP PUSH1 0x4 CALLDATASIZE LT PUSH2 0x34 JUMPI PUSH0 CALLDATALOAD PUSH1 0xE0 SHR DUP1 PUSH4 0x533122A5 EQ PUSH2 0x38 JUMPI DUP1 PUSH4 0xDF6E3D31 EQ PUSH2 0x56 JUMPI JUMPDEST PUSH0 DUP1 REVERT JUMPDEST PUSH2 0x40 PUSH2 0x60 JUMP JUMPDEST PUSH1 0x40 MLOAD PUSH2 0x4D SWAP2 SWAP1 PUSH2 0x182 JUMP JUMPDEST PUSH1 0x40 MLOAD DUP1 SWAP2 SUB SWAP1 RETURN JUMPDEST PUSH2 0x5E PUSH2 0x83 JUMP JUMPDEST STOP JUMPDEST PUSH0 DUP1 SLOAD SWAP1 PUSH2 0x100 EXP SWAP1 DIV PUSH20 0xFFFFFFFFFFFFFFFFFFFFFFFFFFFFFFFFFFFFFFFF AND DUP2 JUMP JUMPDEST PUSH0 DUP1 SLOAD SWAP1 PUSH2 0x100 EXP SWAP1 DIV PUSH20 0xFFFFFFFFFFFFFFFFFFFFFFFFFFFFFFFFFFFFFFFF AND PUSH20 0xFFFFFFFFFFFFFFFFFFFFFFFFFFFFFFFFFFFFFFFF AND PUSH4 0x74D1DCC PUSH1 0x40 MLOAD DUP2 PUSH4 0xFFFFFFFF AND PUSH1 0xE0 SHL DUP2 MSTORE PUSH1 0x4 ADD PUSH2 0xD9 SWAP1 PUSH2 0x1C1 JUMP JUMPDEST PUSH0 PUSH1 0x40 MLOAD DUP1 DUP4 SUB DUP2 PUSH0 DUP8 DUP1 EXTCODESIZE ISZERO DUP1 ISZERO PUSH2 0xF0 JUMPI PUSH0 DUP1 REVERT JUMPDEST POP GAS CALL ISZERO DUP1 ISZERO PUSH2 0x102 JUMPI RETURNDATASIZE PUSH0 DUP1 RETURNDATACOPY RETURNDATASIZE PUSH0 REVERT JUMPDEST POP POP POP POP JUMP JUMPDEST PUSH0 PUSH20 0xFFFFFFFFFFFFFFFFFFFFFFFFFFFFFFFFFFFFFFFF DUP3 AND SWAP1 POP SWAP2 SWAP1 POP JUMP JUMPDEST PUSH0 DUP2 SWAP1 POP SWAP2 SWAP1 POP JUMP JUMPDEST PUSH0 PUSH2 0x14A PUSH2 0x145 PUSH2 0x140 DUP5 PUSH2 0x108 JUMP JUMPDEST PUSH2 0x127 JUMP JUMPDEST PUSH2 0x108 JUMP JUMPDEST SWAP1 POP SWAP2 SWAP1 POP JUMP JUMPDEST PUSH0 PUSH2 0x15B DUP3 PUSH2 0x130 JUMP JUMPDEST SWAP1 POP SWAP2 SWAP1 POP JUMP JUMPDEST PUSH0 PUSH2 0x16C DUP3 PUSH2 0x151 JUMP JUMPDEST SWAP1 POP SWAP2 SWAP1 POP JUMP JUMPDEST PUSH2 0x17C DUP2 PUSH2 0x162 JUMP JUMPDEST DUP3 MSTORE POP POP JUMP JUMPDEST PUSH0 PUSH1 0x20 DUP3 ADD SWAP1 POP PUSH2 0x195 PUSH0 DUP4 ADD DUP5 PUSH2 0x173 JUMP JUMPDEST SWAP3 SWAP2 POP POP JUMP JUMPDEST PUSH32 0x49274D7A33703453735730726400000000000000000000000000000000000000 DUP2 MSTORE POP JUMP JUMPDEST PUSH0 PUSH1 0x20 DUP3 ADD SWAP1 POP PUSH2 0x1D3 PUSH0 DUP4 ADD PUSH2 0x19B JUMP JUMPDEST SWAP2 SWAP1 POP JUMP INVALID LOG2 PUSH5 0x6970667358 0x22 SLT KECCAK256 0xC2 SSTORE 0xF7 0xEF 0xCF SHR STATICCALL GAS DUP1 COINBASE 0xD4 SLOAD 0xD5 KECCAK256 CALLDATACOPY ORIGIN 0xD9 GAS 0xC0 LOG1 0xD0 CALLDATALOAD 0x23 SSTORE 0xBC PUSH4 0x12C073E4 SWAP1 PUSH3 0x64736F PUSH13 0x63430008160033000000000000 "
				},
				"gasEstimates": {
					"creation": {
						"codeDepositCost": "105200",
						"executionCost": "infinite",
						"totalCost": "infinite"
					},
					"external": {
						"guessMyPasswordContract()": "infinite",
						"guessPassword()": "infinite"
					}
				},
				"methodIdentifiers": {
					"guessMyPasswordContract()": "533122a5",
					"guessPassword()": "df6e3d31"
				}
			},
			"storageLayout": {
				"storage": [
					{
						"astId": 10,
						"contract": "contracts/guessmypassword.sol:PasswordGuesser",
						"label": "guessMyPasswordContract",
						"offset": 0,
						"slot": "0",
						"type": "t_contract(IGuessMyPassword)7"
					}
				],
				"types": {
					"t_contract(IGuessMyPassword)7": {
						"encoding": "inplace",
						"label": "contract IGuessMyPassword",
						"numberOfBytes": "20"
					}
				}
			},
			"userdoc": {
				"kind": "user",
				"methods": {},
				"version": 1
			}
		}
	}
}