{
	"contracts/SurvivorGame.sol": {
		"SurvivorGame": {
			"abi": [
				{
					"inputs": [],
					"stateMutability": "nonpayable",
					"type": "constructor"
				},
				{
					"inputs": [],
					"name": "announceVotedOut",
					"outputs": [
						{
							"internalType": "string",
							"name": "",
							"type": "string"
						}
					],
					"stateMutability": "view",
					"type": "function"
				},
				{
					"inputs": [
						{
							"internalType": "uint256",
							"name": "",
							"type": "uint256"
						}
					],
					"name": "contestants",
					"outputs": [
						{
							"internalType": "string",
							"name": "name",
							"type": "string"
						},
						{
							"internalType": "uint256",
							"name": "voteCount",
							"type": "uint256"
						}
					],
					"stateMutability": "view",
					"type": "function"
				},
				{
					"inputs": [],
					"name": "getTotalVoteCounts",
					"outputs": [
						{
							"internalType": "uint256[]",
							"name": "",
							"type": "uint256[]"
						}
					],
					"stateMutability": "view",
					"type": "function"
				},
				{
					"inputs": [],
					"name": "host",
					"outputs": [
						{
							"internalType": "address",
							"name": "",
							"type": "address"
						}
					],
					"stateMutability": "view",
					"type": "function"
				},
				{
					"inputs": [
						{
							"internalType": "string",
							"name": "name",
							"type": "string"
						}
					],
					"name": "initialize",
					"outputs": [],
					"stateMutability": "nonpayable",
					"type": "function"
				},
				{
					"inputs": [
						{
							"internalType": "string",
							"name": "_name",
							"type": "string"
						}
					],
					"name": "voteOut",
					"outputs": [],
					"stateMutability": "nonpayable",
					"type": "function"
				}
			],
			"devdoc": {
				"kind": "dev",
				"methods": {},
				"version": 1
			},
			"evm": {
				"assembly": "    /* \"contracts/SurvivorGame.sol\":74:2374  contract SurvivorGame {... */\n  mstore(0x40, 0x80)\n    /* \"contracts/SurvivorGame.sol\":614:664  constructor() {... */\n  callvalue\n  dup1\n  iszero\n  tag_1\n  jumpi\n  0x00\n  dup1\n  revert\ntag_1:\n  pop\n    /* \"contracts/SurvivorGame.sol\":646:656  msg.sender */\n  caller\n    /* \"contracts/SurvivorGame.sol\":639:643  host */\n  0x00\n  dup1\n    /* \"contracts/SurvivorGame.sol\":639:656  host = msg.sender */\n  0x0100\n  exp\n  dup2\n  sload\n  dup2\n  0xffffffffffffffffffffffffffffffffffffffff\n  mul\n  not\n  and\n  swap1\n  dup4\n  0xffffffffffffffffffffffffffffffffffffffff\n  and\n  mul\n  or\n  swap1\n  sstore\n  pop\n    /* \"contracts/SurvivorGame.sol\":74:2374  contract SurvivorGame {... */\n  dataSize(sub_0)\n  dup1\n  dataOffset(sub_0)\n  0x00\n  codecopy\n  0x00\n  return\nstop\n\nsub_0: assembly {\n        /* \"contracts/SurvivorGame.sol\":74:2374  contract SurvivorGame {... */\n      mstore(0x40, 0x80)\n      callvalue\n      dup1\n      iszero\n      tag_1\n      jumpi\n      0x00\n      dup1\n      revert\n    tag_1:\n      pop\n      jumpi(tag_2, lt(calldatasize, 0x04))\n      shr(0xe0, calldataload(0x00))\n      dup1\n      0x28dd8045\n      eq\n      tag_3\n      jumpi\n      dup1\n      0x51181b28\n      eq\n      tag_4\n      jumpi\n      dup1\n      0xd485f61b\n      eq\n      tag_5\n      jumpi\n      dup1\n      0xdfd50f52\n      eq\n      tag_6\n      jumpi\n      dup1\n      0xf437bc59\n      eq\n      tag_7\n      jumpi\n      dup1\n      0xf62d1888\n      eq\n      tag_8\n      jumpi\n    tag_2:\n      0x00\n      dup1\n      revert\n        /* \"contracts/SurvivorGame.sol\":1850:2371  function announceVotedOut() public view onlyHost returns (string memory) {... */\n    tag_3:\n      tag_9\n      tag_10\n      jump\t// in\n    tag_9:\n      mload(0x40)\n      tag_11\n      swap2\n      swap1\n      tag_12\n      jump\t// in\n    tag_11:\n      mload(0x40)\n      dup1\n      swap2\n      sub\n      swap1\n      return\n        /* \"contracts/SurvivorGame.sol\":1300:1791  function voteOut(string memory _name) public {... */\n    tag_4:\n      tag_13\n      0x04\n      dup1\n      calldatasize\n      sub\n      dup2\n      add\n      swap1\n      tag_14\n      swap2\n      swap1\n      tag_15\n      jump\t// in\n    tag_14:\n      tag_16\n      jump\t// in\n    tag_13:\n      stop\n        /* \"contracts/SurvivorGame.sol\":872:1177  function getTotalVoteCounts() public view returns (uint256[] memory) {... */\n    tag_5:\n      tag_17\n      tag_18\n      jump\t// in\n    tag_17:\n      mload(0x40)\n      tag_19\n      swap2\n      swap1\n      tag_20\n      jump\t// in\n    tag_19:\n      mload(0x40)\n      dup1\n      swap2\n      sub\n      swap1\n      return\n        /* \"contracts/SurvivorGame.sol\":400:431  Contestant[] public contestants */\n    tag_6:\n      tag_21\n      0x04\n      dup1\n      calldatasize\n      sub\n      dup2\n      add\n      swap1\n      tag_22\n      swap2\n      swap1\n      tag_23\n      jump\t// in\n    tag_22:\n      tag_24\n      jump\t// in\n    tag_21:\n      mload(0x40)\n      tag_25\n      swap3\n      swap2\n      swap1\n      tag_26\n      jump\t// in\n    tag_25:\n      mload(0x40)\n      dup1\n      swap2\n      sub\n      swap1\n      return\n        /* \"contracts/SurvivorGame.sol\":108:127  address public host */\n    tag_7:\n      tag_27\n      tag_28\n      jump\t// in\n    tag_27:\n      mload(0x40)\n      tag_29\n      swap2\n      swap1\n      tag_30\n      jump\t// in\n    tag_29:\n      mload(0x40)\n      dup1\n      swap2\n      sub\n      swap1\n      return\n        /* \"contracts/SurvivorGame.sol\":708:811  function initialize(string memory name) public {... */\n    tag_8:\n      tag_31\n      0x04\n      dup1\n      calldatasize\n      sub\n      dup2\n      add\n      swap1\n      tag_32\n      swap2\n      swap1\n      tag_15\n      jump\t// in\n    tag_32:\n      tag_33\n      jump\t// in\n    tag_31:\n      stop\n        /* \"contracts/SurvivorGame.sol\":1850:2371  function announceVotedOut() public view onlyHost returns (string memory) {... */\n    tag_10:\n        /* \"contracts/SurvivorGame.sol\":1908:1921  string memory */\n      0x60\n        /* \"contracts/SurvivorGame.sol\":493:497  host */\n      0x00\n      dup1\n      sload\n      swap1\n      0x0100\n      exp\n      swap1\n      div\n      0xffffffffffffffffffffffffffffffffffffffff\n      and\n        /* \"contracts/SurvivorGame.sol\":479:497  msg.sender == host */\n      0xffffffffffffffffffffffffffffffffffffffff\n      and\n        /* \"contracts/SurvivorGame.sol\":479:489  msg.sender */\n      caller\n        /* \"contracts/SurvivorGame.sol\":479:497  msg.sender == host */\n      0xffffffffffffffffffffffffffffffffffffffff\n      and\n      eq\n        /* \"contracts/SurvivorGame.sol\":471:532  require(msg.sender == host, \"Only the host can execute this\") */\n      tag_35\n      jumpi\n      mload(0x40)\n      0x08c379a000000000000000000000000000000000000000000000000000000000\n      dup2\n      mstore\n      0x04\n      add\n      tag_36\n      swap1\n      tag_37\n      jump\t// in\n    tag_36:\n      mload(0x40)\n      dup1\n      swap2\n      sub\n      swap1\n      revert\n    tag_35:\n        /* \"contracts/SurvivorGame.sol\":1934:1945  uint256 max */\n      0x00\n        /* \"contracts/SurvivorGame.sol\":1960:1992  string memory votedOutContestant */\n      0x60\n        /* \"contracts/SurvivorGame.sol\":2008:2017  uint256 i */\n      0x00\n        /* \"contracts/SurvivorGame.sol\":2003:2238  for (uint256 i = 0; i < contestants.length; i++) {... */\n    tag_39:\n        /* \"contracts/SurvivorGame.sol\":2027:2038  contestants */\n      0x02\n        /* \"contracts/SurvivorGame.sol\":2027:2045  contestants.length */\n      dup1\n      sload\n      swap1\n      pop\n        /* \"contracts/SurvivorGame.sol\":2023:2024  i */\n      dup2\n        /* \"contracts/SurvivorGame.sol\":2023:2045  i < contestants.length */\n      lt\n        /* \"contracts/SurvivorGame.sol\":2003:2238  for (uint256 i = 0; i < contestants.length; i++) {... */\n      iszero\n      tag_40\n      jumpi\n        /* \"contracts/SurvivorGame.sol\":2098:2101  max */\n      dup3\n        /* \"contracts/SurvivorGame.sol\":2071:2082  contestants */\n      0x02\n        /* \"contracts/SurvivorGame.sol\":2083:2084  i */\n      dup3\n        /* \"contracts/SurvivorGame.sol\":2071:2085  contestants[i] */\n      dup2\n      sload\n      dup2\n      lt\n      tag_42\n      jumpi\n      tag_43\n      tag_44\n      jump\t// in\n    tag_43:\n    tag_42:\n      swap1\n      0x00\n      mstore\n      keccak256(0x00, 0x20)\n      swap1\n      0x02\n      mul\n      add\n        /* \"contracts/SurvivorGame.sol\":2071:2095  contestants[i].voteCount */\n      0x01\n      add\n      sload\n        /* \"contracts/SurvivorGame.sol\":2071:2101  contestants[i].voteCount > max */\n      gt\n        /* \"contracts/SurvivorGame.sol\":2067:2227  if (contestants[i].voteCount > max) {... */\n      iszero\n      tag_46\n      jumpi\n        /* \"contracts/SurvivorGame.sol\":2128:2139  contestants */\n      0x02\n        /* \"contracts/SurvivorGame.sol\":2140:2141  i */\n      dup2\n        /* \"contracts/SurvivorGame.sol\":2128:2142  contestants[i] */\n      dup2\n      sload\n      dup2\n      lt\n      tag_47\n      jumpi\n      tag_48\n      tag_44\n      jump\t// in\n    tag_48:\n    tag_47:\n      swap1\n      0x00\n      mstore\n      keccak256(0x00, 0x20)\n      swap1\n      0x02\n      mul\n      add\n        /* \"contracts/SurvivorGame.sol\":2128:2152  contestants[i].voteCount */\n      0x01\n      add\n      sload\n        /* \"contracts/SurvivorGame.sol\":2122:2152  max = contestants[i].voteCount */\n      swap3\n      pop\n        /* \"contracts/SurvivorGame.sol\":2192:2203  contestants */\n      0x02\n        /* \"contracts/SurvivorGame.sol\":2204:2205  i */\n      dup2\n        /* \"contracts/SurvivorGame.sol\":2192:2206  contestants[i] */\n      dup2\n      sload\n      dup2\n      lt\n      tag_50\n      jumpi\n      tag_51\n      tag_44\n      jump\t// in\n    tag_51:\n    tag_50:\n      swap1\n      0x00\n      mstore\n      keccak256(0x00, 0x20)\n      swap1\n      0x02\n      mul\n      add\n        /* \"contracts/SurvivorGame.sol\":2192:2211  contestants[i].name */\n      0x00\n      add\n        /* \"contracts/SurvivorGame.sol\":2171:2211  votedOutContestant = contestants[i].name */\n      dup1\n      sload\n      tag_53\n      swap1\n      tag_54\n      jump\t// in\n    tag_53:\n      dup1\n      0x1f\n      add\n      0x20\n      dup1\n      swap2\n      div\n      mul\n      0x20\n      add\n      mload(0x40)\n      swap1\n      dup2\n      add\n      0x40\n      mstore\n      dup1\n      swap3\n      swap2\n      swap1\n      dup2\n      dup2\n      mstore\n      0x20\n      add\n      dup3\n      dup1\n      sload\n      tag_55\n      swap1\n      tag_54\n      jump\t// in\n    tag_55:\n      dup1\n      iszero\n      tag_56\n      jumpi\n      dup1\n      0x1f\n      lt\n      tag_57\n      jumpi\n      0x0100\n      dup1\n      dup4\n      sload\n      div\n      mul\n      dup4\n      mstore\n      swap2\n      0x20\n      add\n      swap2\n      jump(tag_56)\n    tag_57:\n      dup3\n      add\n      swap2\n      swap1\n      0x00\n      mstore\n      keccak256(0x00, 0x20)\n      swap1\n    tag_58:\n      dup2\n      sload\n      dup2\n      mstore\n      swap1\n      0x01\n      add\n      swap1\n      0x20\n      add\n      dup1\n      dup4\n      gt\n      tag_58\n      jumpi\n      dup3\n      swap1\n      sub\n      0x1f\n      and\n      dup3\n      add\n      swap2\n    tag_56:\n      pop\n      pop\n      pop\n      pop\n      pop\n      swap2\n      pop\n        /* \"contracts/SurvivorGame.sol\":2067:2227  if (contestants[i].voteCount > max) {... */\n    tag_46:\n        /* \"contracts/SurvivorGame.sol\":2047:2050  i++ */\n      dup1\n      dup1\n      0x01\n      add\n      swap2\n      pop\n      pop\n        /* \"contracts/SurvivorGame.sol\":2003:2238  for (uint256 i = 0; i < contestants.length; i++) {... */\n      jump(tag_39)\n    tag_40:\n      pop\n        /* \"contracts/SurvivorGame.sol\":2272:2273  0 */\n      0x00\n        /* \"contracts/SurvivorGame.sol\":2266:2269  max */\n      dup3\n        /* \"contracts/SurvivorGame.sol\":2266:2273  max > 0 */\n      gt\n        /* \"contracts/SurvivorGame.sol\":2258:2295  require(max > 0, \"No votes recorded\") */\n      tag_59\n      jumpi\n      mload(0x40)\n      0x08c379a000000000000000000000000000000000000000000000000000000000\n      dup2\n      mstore\n      0x04\n      add\n      tag_60\n      swap1\n      tag_61\n      jump\t// in\n    tag_60:\n      mload(0x40)\n      dup1\n      swap2\n      sub\n      swap1\n      revert\n    tag_59:\n        /* \"contracts/SurvivorGame.sol\":2345:2363  votedOutContestant */\n      dup1\n        /* \"contracts/SurvivorGame.sol\":2338:2363  return votedOutContestant */\n      swap3\n      pop\n      pop\n      pop\n        /* \"contracts/SurvivorGame.sol\":1850:2371  function announceVotedOut() public view onlyHost returns (string memory) {... */\n      swap1\n      jump\t// out\n        /* \"contracts/SurvivorGame.sol\":1300:1791  function voteOut(string memory _name) public {... */\n    tag_16:\n        /* \"contracts/SurvivorGame.sol\":1411:1416  false */\n      0x00\n        /* \"contracts/SurvivorGame.sol\":1364:1416  participantAddress[msg.sender].alreadyVoted == false */\n      iszero\n      iszero\n        /* \"contracts/SurvivorGame.sol\":1364:1382  participantAddress */\n      0x01\n        /* \"contracts/SurvivorGame.sol\":1364:1394  participantAddress[msg.sender] */\n      0x00\n        /* \"contracts/SurvivorGame.sol\":1383:1393  msg.sender */\n      caller\n        /* \"contracts/SurvivorGame.sol\":1364:1394  participantAddress[msg.sender] */\n      0xffffffffffffffffffffffffffffffffffffffff\n      and\n      0xffffffffffffffffffffffffffffffffffffffff\n      and\n      dup2\n      mstore\n      0x20\n      add\n      swap1\n      dup2\n      mstore\n      0x20\n      add\n      0x00\n      keccak256\n        /* \"contracts/SurvivorGame.sol\":1364:1407  participantAddress[msg.sender].alreadyVoted */\n      0x00\n      add\n      0x00\n      swap1\n      sload\n      swap1\n      0x0100\n      exp\n      swap1\n      div\n      0xff\n      and\n        /* \"contracts/SurvivorGame.sol\":1364:1416  participantAddress[msg.sender].alreadyVoted == false */\n      iszero\n      iszero\n      eq\n        /* \"contracts/SurvivorGame.sol\":1356:1443  require(participantAddress[msg.sender].alreadyVoted == false, \"You have already voted\") */\n      tag_63\n      jumpi\n      mload(0x40)\n      0x08c379a000000000000000000000000000000000000000000000000000000000\n      dup2\n      mstore\n      0x04\n      add\n      tag_64\n      swap1\n      tag_65\n      jump\t// in\n    tag_64:\n      mload(0x40)\n      dup1\n      swap2\n      sub\n      swap1\n      revert\n    tag_63:\n        /* \"contracts/SurvivorGame.sol\":1500:1504  true */\n      0x01\n        /* \"contracts/SurvivorGame.sol\":1454:1472  participantAddress */\n      dup1\n        /* \"contracts/SurvivorGame.sol\":1454:1484  participantAddress[msg.sender] */\n      0x00\n        /* \"contracts/SurvivorGame.sol\":1473:1483  msg.sender */\n      caller\n        /* \"contracts/SurvivorGame.sol\":1454:1484  participantAddress[msg.sender] */\n      0xffffffffffffffffffffffffffffffffffffffff\n      and\n      0xffffffffffffffffffffffffffffffffffffffff\n      and\n      dup2\n      mstore\n      0x20\n      add\n      swap1\n      dup2\n      mstore\n      0x20\n      add\n      0x00\n      keccak256\n        /* \"contracts/SurvivorGame.sol\":1454:1497  participantAddress[msg.sender].alreadyVoted */\n      0x00\n      add\n      0x00\n        /* \"contracts/SurvivorGame.sol\":1454:1504  participantAddress[msg.sender].alreadyVoted = true */\n      0x0100\n      exp\n      dup2\n      sload\n      dup2\n      0xff\n      mul\n      not\n      and\n      swap1\n      dup4\n      iszero\n      iszero\n      mul\n      or\n      swap1\n      sstore\n      pop\n        /* \"contracts/SurvivorGame.sol\":1520:1529  uint256 i */\n      0x00\n        /* \"contracts/SurvivorGame.sol\":1515:1784  for (uint256 i = 0; i < contestants.length; i++) {... */\n    tag_66:\n        /* \"contracts/SurvivorGame.sol\":1539:1550  contestants */\n      0x02\n        /* \"contracts/SurvivorGame.sol\":1539:1557  contestants.length */\n      dup1\n      sload\n      swap1\n      pop\n        /* \"contracts/SurvivorGame.sol\":1535:1536  i */\n      dup2\n        /* \"contracts/SurvivorGame.sol\":1535:1557  i < contestants.length */\n      lt\n        /* \"contracts/SurvivorGame.sol\":1515:1784  for (uint256 i = 0; i < contestants.length; i++) {... */\n      iszero\n      tag_67\n      jumpi\n        /* \"contracts/SurvivorGame.sol\":1640:1645  _name */\n      dup2\n        /* \"contracts/SurvivorGame.sol\":1624:1647  keccak256(bytes(_name)) */\n      dup1\n      mload\n      swap1\n      0x20\n      add\n      keccak256\n        /* \"contracts/SurvivorGame.sol\":1599:1610  contestants */\n      0x02\n        /* \"contracts/SurvivorGame.sol\":1611:1612  i */\n      dup3\n        /* \"contracts/SurvivorGame.sol\":1599:1613  contestants[i] */\n      dup2\n      sload\n      dup2\n      lt\n      tag_69\n      jumpi\n      tag_70\n      tag_44\n      jump\t// in\n    tag_70:\n    tag_69:\n      swap1\n      0x00\n      mstore\n      keccak256(0x00, 0x20)\n      swap1\n      0x02\n      mul\n      add\n        /* \"contracts/SurvivorGame.sol\":1599:1618  contestants[i].name */\n      0x00\n      add\n        /* \"contracts/SurvivorGame.sol\":1583:1620  keccak256(bytes(contestants[i].name)) */\n      mload(0x40)\n      tag_72\n      swap2\n      swap1\n      tag_73\n      jump\t// in\n    tag_72:\n      mload(0x40)\n      dup1\n      swap2\n      sub\n      swap1\n      keccak256\n        /* \"contracts/SurvivorGame.sol\":1583:1647  keccak256(bytes(contestants[i].name)) == keccak256(bytes(_name)) */\n      sub\n        /* \"contracts/SurvivorGame.sol\":1579:1773  if (keccak256(bytes(contestants[i].name)) == keccak256(bytes(_name))) {... */\n      tag_74\n      jumpi\n        /* \"contracts/SurvivorGame.sol\":1711:1712  i */\n      dup1\n        /* \"contracts/SurvivorGame.sol\":1668:1686  participantAddress */\n      0x01\n        /* \"contracts/SurvivorGame.sol\":1668:1698  participantAddress[msg.sender] */\n      0x00\n        /* \"contracts/SurvivorGame.sol\":1687:1697  msg.sender */\n      caller\n        /* \"contracts/SurvivorGame.sol\":1668:1698  participantAddress[msg.sender] */\n      0xffffffffffffffffffffffffffffffffffffffff\n      and\n      0xffffffffffffffffffffffffffffffffffffffff\n      and\n      dup2\n      mstore\n      0x20\n      add\n      swap1\n      dup2\n      mstore\n      0x20\n      add\n      0x00\n      keccak256\n        /* \"contracts/SurvivorGame.sol\":1668:1708  participantAddress[msg.sender].voteIndex */\n      0x01\n      add\n        /* \"contracts/SurvivorGame.sol\":1668:1712  participantAddress[msg.sender].voteIndex = i */\n      dup2\n      swap1\n      sstore\n      pop\n        /* \"contracts/SurvivorGame.sol\":1731:1742  contestants */\n      0x02\n        /* \"contracts/SurvivorGame.sol\":1743:1744  i */\n      dup2\n        /* \"contracts/SurvivorGame.sol\":1731:1745  contestants[i] */\n      dup2\n      sload\n      dup2\n      lt\n      tag_75\n      jumpi\n      tag_76\n      tag_44\n      jump\t// in\n    tag_76:\n    tag_75:\n      swap1\n      0x00\n      mstore\n      keccak256(0x00, 0x20)\n      swap1\n      0x02\n      mul\n      add\n        /* \"contracts/SurvivorGame.sol\":1731:1755  contestants[i].voteCount */\n      0x01\n      add\n      0x00\n        /* \"contracts/SurvivorGame.sol\":1731:1757  contestants[i].voteCount++ */\n      dup2\n      sload\n      dup1\n      swap3\n      swap2\n      swap1\n      tag_78\n      swap1\n      tag_79\n      jump\t// in\n    tag_78:\n      swap2\n      swap1\n      pop\n      sstore\n      pop\n        /* \"contracts/SurvivorGame.sol\":1579:1773  if (keccak256(bytes(contestants[i].name)) == keccak256(bytes(_name))) {... */\n    tag_74:\n        /* \"contracts/SurvivorGame.sol\":1559:1562  i++ */\n      dup1\n      dup1\n      0x01\n      add\n      swap2\n      pop\n      pop\n        /* \"contracts/SurvivorGame.sol\":1515:1784  for (uint256 i = 0; i < contestants.length; i++) {... */\n      jump(tag_66)\n    tag_67:\n      pop\n        /* \"contracts/SurvivorGame.sol\":1300:1791  function voteOut(string memory _name) public {... */\n      pop\n      jump\t// out\n        /* \"contracts/SurvivorGame.sol\":872:1177  function getTotalVoteCounts() public view returns (uint256[] memory) {... */\n    tag_18:\n        /* \"contracts/SurvivorGame.sol\":923:939  uint256[] memory */\n      0x60\n        /* \"contracts/SurvivorGame.sol\":952:979  uint256[] memory voteCounts */\n      0x00\n        /* \"contracts/SurvivorGame.sol\":996:1007  contestants */\n      0x02\n        /* \"contracts/SurvivorGame.sol\":996:1014  contestants.length */\n      dup1\n      sload\n      swap1\n      pop\n        /* \"contracts/SurvivorGame.sol\":982:1015  new uint256[](contestants.length) */\n      0xffffffffffffffff\n      dup2\n      gt\n      iszero\n      tag_81\n      jumpi\n      tag_82\n      tag_83\n      jump\t// in\n    tag_82:\n    tag_81:\n      mload(0x40)\n      swap1\n      dup1\n      dup3\n      mstore\n      dup1\n      0x20\n      mul\n      0x20\n      add\n      dup3\n      add\n      0x40\n      mstore\n      dup1\n      iszero\n      tag_84\n      jumpi\n      dup2\n      0x20\n      add\n      0x20\n      dup3\n      mul\n      dup1\n      calldatasize\n      dup4\n      calldatacopy\n      dup1\n      dup3\n      add\n      swap2\n      pop\n      pop\n      swap1\n      pop\n    tag_84:\n      pop\n        /* \"contracts/SurvivorGame.sol\":952:1015  uint256[] memory voteCounts = new uint256[](contestants.length) */\n      swap1\n      pop\n        /* \"contracts/SurvivorGame.sol\":1031:1040  uint256 i */\n      0x00\n        /* \"contracts/SurvivorGame.sol\":1026:1142  for (uint256 i = 0; i < contestants.length; i++) {... */\n    tag_85:\n        /* \"contracts/SurvivorGame.sol\":1050:1061  contestants */\n      0x02\n        /* \"contracts/SurvivorGame.sol\":1050:1068  contestants.length */\n      dup1\n      sload\n      swap1\n      pop\n        /* \"contracts/SurvivorGame.sol\":1046:1047  i */\n      dup2\n        /* \"contracts/SurvivorGame.sol\":1046:1068  i < contestants.length */\n      lt\n        /* \"contracts/SurvivorGame.sol\":1026:1142  for (uint256 i = 0; i < contestants.length; i++) {... */\n      iszero\n      tag_86\n      jumpi\n        /* \"contracts/SurvivorGame.sol\":1106:1117  contestants */\n      0x02\n        /* \"contracts/SurvivorGame.sol\":1118:1119  i */\n      dup2\n        /* \"contracts/SurvivorGame.sol\":1106:1120  contestants[i] */\n      dup2\n      sload\n      dup2\n      lt\n      tag_88\n      jumpi\n      tag_89\n      tag_44\n      jump\t// in\n    tag_89:\n    tag_88:\n      swap1\n      0x00\n      mstore\n      keccak256(0x00, 0x20)\n      swap1\n      0x02\n      mul\n      add\n        /* \"contracts/SurvivorGame.sol\":1106:1130  contestants[i].voteCount */\n      0x01\n      add\n      sload\n        /* \"contracts/SurvivorGame.sol\":1090:1100  voteCounts */\n      dup3\n        /* \"contracts/SurvivorGame.sol\":1101:1102  i */\n      dup3\n        /* \"contracts/SurvivorGame.sol\":1090:1103  voteCounts[i] */\n      dup2\n      mload\n      dup2\n      lt\n      tag_91\n      jumpi\n      tag_92\n      tag_44\n      jump\t// in\n    tag_92:\n    tag_91:\n      0x20\n      mul\n      0x20\n      add\n      add\n        /* \"contracts/SurvivorGame.sol\":1090:1130  voteCounts[i] = contestants[i].voteCount */\n      dup2\n      dup2\n      mstore\n      pop\n      pop\n        /* \"contracts/SurvivorGame.sol\":1070:1073  i++ */\n      dup1\n      dup1\n      0x01\n      add\n      swap2\n      pop\n      pop\n        /* \"contracts/SurvivorGame.sol\":1026:1142  for (uint256 i = 0; i < contestants.length; i++) {... */\n      jump(tag_85)\n    tag_86:\n      pop\n        /* \"contracts/SurvivorGame.sol\":1159:1169  voteCounts */\n      dup1\n        /* \"contracts/SurvivorGame.sol\":1152:1169  return voteCounts */\n      swap2\n      pop\n      pop\n        /* \"contracts/SurvivorGame.sol\":872:1177  function getTotalVoteCounts() public view returns (uint256[] memory) {... */\n      swap1\n      jump\t// out\n        /* \"contracts/SurvivorGame.sol\":400:431  Contestant[] public contestants */\n    tag_24:\n      0x02\n      dup2\n      dup2\n      sload\n      dup2\n      lt\n      tag_93\n      jumpi\n      0x00\n      dup1\n      revert\n    tag_93:\n      swap1\n      0x00\n      mstore\n      keccak256(0x00, 0x20)\n      swap1\n      0x02\n      mul\n      add\n      0x00\n      swap2\n      pop\n      swap1\n      pop\n      dup1\n      0x00\n      add\n      dup1\n      sload\n      tag_95\n      swap1\n      tag_54\n      jump\t// in\n    tag_95:\n      dup1\n      0x1f\n      add\n      0x20\n      dup1\n      swap2\n      div\n      mul\n      0x20\n      add\n      mload(0x40)\n      swap1\n      dup2\n      add\n      0x40\n      mstore\n      dup1\n      swap3\n      swap2\n      swap1\n      dup2\n      dup2\n      mstore\n      0x20\n      add\n      dup3\n      dup1\n      sload\n      tag_96\n      swap1\n      tag_54\n      jump\t// in\n    tag_96:\n      dup1\n      iszero\n      tag_97\n      jumpi\n      dup1\n      0x1f\n      lt\n      tag_98\n      jumpi\n      0x0100\n      dup1\n      dup4\n      sload\n      div\n      mul\n      dup4\n      mstore\n      swap2\n      0x20\n      add\n      swap2\n      jump(tag_97)\n    tag_98:\n      dup3\n      add\n      swap2\n      swap1\n      0x00\n      mstore\n      keccak256(0x00, 0x20)\n      swap1\n    tag_99:\n      dup2\n      sload\n      dup2\n      mstore\n      swap1\n      0x01\n      add\n      swap1\n      0x20\n      add\n      dup1\n      dup4\n      gt\n      tag_99\n      jumpi\n      dup3\n      swap1\n      sub\n      0x1f\n      and\n      dup3\n      add\n      swap2\n    tag_97:\n      pop\n      pop\n      pop\n      pop\n      pop\n      swap1\n      dup1\n      0x01\n      add\n      sload\n      swap1\n      pop\n      dup3\n      jump\t// out\n        /* \"contracts/SurvivorGame.sol\":108:127  address public host */\n    tag_28:\n      0x00\n      dup1\n      sload\n      swap1\n      0x0100\n      exp\n      swap1\n      div\n      0xffffffffffffffffffffffffffffffffffffffff\n      and\n      dup2\n      jump\t// out\n        /* \"contracts/SurvivorGame.sol\":708:811  function initialize(string memory name) public {... */\n    tag_33:\n        /* \"contracts/SurvivorGame.sol\":766:777  contestants */\n      0x02\n        /* \"contracts/SurvivorGame.sol\":783:802  Contestant(name, 0) */\n      mload(0x40)\n      dup1\n      0x40\n      add\n      0x40\n      mstore\n      dup1\n        /* \"contracts/SurvivorGame.sol\":794:798  name */\n      dup4\n        /* \"contracts/SurvivorGame.sol\":783:802  Contestant(name, 0) */\n      dup2\n      mstore\n      0x20\n      add\n        /* \"contracts/SurvivorGame.sol\":800:801  0 */\n      0x00\n        /* \"contracts/SurvivorGame.sol\":783:802  Contestant(name, 0) */\n      dup2\n      mstore\n      pop\n        /* \"contracts/SurvivorGame.sol\":766:803  contestants.push(Contestant(name, 0)) */\n      swap1\n      dup1\n      0x01\n      dup2\n      sload\n      add\n      dup1\n      dup3\n      sstore\n      dup1\n      swap2\n      pop\n      pop\n      0x01\n      swap1\n      sub\n      swap1\n      0x00\n      mstore\n      keccak256(0x00, 0x20)\n      swap1\n      0x02\n      mul\n      add\n      0x00\n      swap1\n      swap2\n      swap1\n      swap2\n      swap1\n      swap2\n      pop\n      0x00\n      dup3\n      add\n      mload\n      dup2\n      0x00\n      add\n      swap1\n      dup2\n      tag_102\n      swap2\n      swap1\n      tag_103\n      jump\t// in\n    tag_102:\n      pop\n      0x20\n      dup3\n      add\n      mload\n      dup2\n      0x01\n      add\n      sstore\n      pop\n      pop\n        /* \"contracts/SurvivorGame.sol\":708:811  function initialize(string memory name) public {... */\n      pop\n      jump\t// out\n        /* \"#utility.yul\":7:106   */\n    tag_104:\n        /* \"#utility.yul\":59:65   */\n      0x00\n        /* \"#utility.yul\":93:98   */\n      dup2\n        /* \"#utility.yul\":87:99   */\n      mload\n        /* \"#utility.yul\":77:99   */\n      swap1\n      pop\n        /* \"#utility.yul\":7:106   */\n      swap2\n      swap1\n      pop\n      jump\t// out\n        /* \"#utility.yul\":112:281   */\n    tag_105:\n        /* \"#utility.yul\":196:207   */\n      0x00\n        /* \"#utility.yul\":230:236   */\n      dup3\n        /* \"#utility.yul\":225:228   */\n      dup3\n        /* \"#utility.yul\":218:237   */\n      mstore\n        /* \"#utility.yul\":270:274   */\n      0x20\n        /* \"#utility.yul\":265:268   */\n      dup3\n        /* \"#utility.yul\":261:275   */\n      add\n        /* \"#utility.yul\":246:275   */\n      swap1\n      pop\n        /* \"#utility.yul\":112:281   */\n      swap3\n      swap2\n      pop\n      pop\n      jump\t// out\n        /* \"#utility.yul\":287:533   */\n    tag_106:\n        /* \"#utility.yul\":368:369   */\n      0x00\n        /* \"#utility.yul\":378:491   */\n    tag_164:\n        /* \"#utility.yul\":392:398   */\n      dup4\n        /* \"#utility.yul\":389:390   */\n      dup2\n        /* \"#utility.yul\":386:399   */\n      lt\n        /* \"#utility.yul\":378:491   */\n      iszero\n      tag_166\n      jumpi\n        /* \"#utility.yul\":477:478   */\n      dup1\n        /* \"#utility.yul\":472:475   */\n      dup3\n        /* \"#utility.yul\":468:479   */\n      add\n        /* \"#utility.yul\":462:480   */\n      mload\n        /* \"#utility.yul\":458:459   */\n      dup2\n        /* \"#utility.yul\":453:456   */\n      dup5\n        /* \"#utility.yul\":449:460   */\n      add\n        /* \"#utility.yul\":442:481   */\n      mstore\n        /* \"#utility.yul\":414:416   */\n      0x20\n        /* \"#utility.yul\":411:412   */\n      dup2\n        /* \"#utility.yul\":407:417   */\n      add\n        /* \"#utility.yul\":402:417   */\n      swap1\n      pop\n        /* \"#utility.yul\":378:491   */\n      jump(tag_164)\n    tag_166:\n        /* \"#utility.yul\":525:526   */\n      0x00\n        /* \"#utility.yul\":516:522   */\n      dup5\n        /* \"#utility.yul\":511:514   */\n      dup5\n        /* \"#utility.yul\":507:523   */\n      add\n        /* \"#utility.yul\":500:527   */\n      mstore\n        /* \"#utility.yul\":349:533   */\n      pop\n        /* \"#utility.yul\":287:533   */\n      pop\n      pop\n      pop\n      jump\t// out\n        /* \"#utility.yul\":539:641   */\n    tag_107:\n        /* \"#utility.yul\":580:586   */\n      0x00\n        /* \"#utility.yul\":631:633   */\n      0x1f\n        /* \"#utility.yul\":627:634   */\n      not\n        /* \"#utility.yul\":622:624   */\n      0x1f\n        /* \"#utility.yul\":615:620   */\n      dup4\n        /* \"#utility.yul\":611:625   */\n      add\n        /* \"#utility.yul\":607:635   */\n      and\n        /* \"#utility.yul\":597:635   */\n      swap1\n      pop\n        /* \"#utility.yul\":539:641   */\n      swap2\n      swap1\n      pop\n      jump\t// out\n        /* \"#utility.yul\":647:1024   */\n    tag_108:\n        /* \"#utility.yul\":735:738   */\n      0x00\n        /* \"#utility.yul\":763:802   */\n      tag_169\n        /* \"#utility.yul\":796:801   */\n      dup3\n        /* \"#utility.yul\":763:802   */\n      tag_104\n      jump\t// in\n    tag_169:\n        /* \"#utility.yul\":818:889   */\n      tag_170\n        /* \"#utility.yul\":882:888   */\n      dup2\n        /* \"#utility.yul\":877:880   */\n      dup6\n        /* \"#utility.yul\":818:889   */\n      tag_105\n      jump\t// in\n    tag_170:\n        /* \"#utility.yul\":811:889   */\n      swap4\n      pop\n        /* \"#utility.yul\":898:963   */\n      tag_171\n        /* \"#utility.yul\":956:962   */\n      dup2\n        /* \"#utility.yul\":951:954   */\n      dup6\n        /* \"#utility.yul\":944:948   */\n      0x20\n        /* \"#utility.yul\":937:942   */\n      dup7\n        /* \"#utility.yul\":933:949   */\n      add\n        /* \"#utility.yul\":898:963   */\n      tag_106\n      jump\t// in\n    tag_171:\n        /* \"#utility.yul\":988:1017   */\n      tag_172\n        /* \"#utility.yul\":1010:1016   */\n      dup2\n        /* \"#utility.yul\":988:1017   */\n      tag_107\n      jump\t// in\n    tag_172:\n        /* \"#utility.yul\":983:986   */\n      dup5\n        /* \"#utility.yul\":979:1018   */\n      add\n        /* \"#utility.yul\":972:1018   */\n      swap2\n      pop\n        /* \"#utility.yul\":739:1024   */\n      pop\n        /* \"#utility.yul\":647:1024   */\n      swap3\n      swap2\n      pop\n      pop\n      jump\t// out\n        /* \"#utility.yul\":1030:1343   */\n    tag_12:\n        /* \"#utility.yul\":1143:1147   */\n      0x00\n        /* \"#utility.yul\":1181:1183   */\n      0x20\n        /* \"#utility.yul\":1170:1179   */\n      dup3\n        /* \"#utility.yul\":1166:1184   */\n      add\n        /* \"#utility.yul\":1158:1184   */\n      swap1\n      pop\n        /* \"#utility.yul\":1230:1239   */\n      dup2\n        /* \"#utility.yul\":1224:1228   */\n      dup2\n        /* \"#utility.yul\":1220:1240   */\n      sub\n        /* \"#utility.yul\":1216:1217   */\n      0x00\n        /* \"#utility.yul\":1205:1214   */\n      dup4\n        /* \"#utility.yul\":1201:1218   */\n      add\n        /* \"#utility.yul\":1194:1241   */\n      mstore\n        /* \"#utility.yul\":1258:1336   */\n      tag_174\n        /* \"#utility.yul\":1331:1335   */\n      dup2\n        /* \"#utility.yul\":1322:1328   */\n      dup5\n        /* \"#utility.yul\":1258:1336   */\n      tag_108\n      jump\t// in\n    tag_174:\n        /* \"#utility.yul\":1250:1336   */\n      swap1\n      pop\n        /* \"#utility.yul\":1030:1343   */\n      swap3\n      swap2\n      pop\n      pop\n      jump\t// out\n        /* \"#utility.yul\":1349:1424   */\n    tag_109:\n        /* \"#utility.yul\":1382:1388   */\n      0x00\n        /* \"#utility.yul\":1415:1417   */\n      0x40\n        /* \"#utility.yul\":1409:1418   */\n      mload\n        /* \"#utility.yul\":1399:1418   */\n      swap1\n      pop\n        /* \"#utility.yul\":1349:1424   */\n      swap1\n      jump\t// out\n        /* \"#utility.yul\":1430:1547   */\n    tag_110:\n        /* \"#utility.yul\":1539:1540   */\n      0x00\n        /* \"#utility.yul\":1536:1537   */\n      dup1\n        /* \"#utility.yul\":1529:1541   */\n      revert\n        /* \"#utility.yul\":1553:1670   */\n    tag_111:\n        /* \"#utility.yul\":1662:1663   */\n      0x00\n        /* \"#utility.yul\":1659:1660   */\n      dup1\n        /* \"#utility.yul\":1652:1664   */\n      revert\n        /* \"#utility.yul\":1676:1793   */\n    tag_112:\n        /* \"#utility.yul\":1785:1786   */\n      0x00\n        /* \"#utility.yul\":1782:1783   */\n      dup1\n        /* \"#utility.yul\":1775:1787   */\n      revert\n        /* \"#utility.yul\":1799:1916   */\n    tag_113:\n        /* \"#utility.yul\":1908:1909   */\n      0x00\n        /* \"#utility.yul\":1905:1906   */\n      dup1\n        /* \"#utility.yul\":1898:1910   */\n      revert\n        /* \"#utility.yul\":1922:2102   */\n    tag_83:\n        /* \"#utility.yul\":1970:2047   */\n      0x4e487b7100000000000000000000000000000000000000000000000000000000\n        /* \"#utility.yul\":1967:1968   */\n      0x00\n        /* \"#utility.yul\":1960:2048   */\n      mstore\n        /* \"#utility.yul\":2067:2071   */\n      0x41\n        /* \"#utility.yul\":2064:2065   */\n      0x04\n        /* \"#utility.yul\":2057:2072   */\n      mstore\n        /* \"#utility.yul\":2091:2095   */\n      0x24\n        /* \"#utility.yul\":2088:2089   */\n      0x00\n        /* \"#utility.yul\":2081:2096   */\n      revert\n        /* \"#utility.yul\":2108:2389   */\n    tag_114:\n        /* \"#utility.yul\":2191:2218   */\n      tag_182\n        /* \"#utility.yul\":2213:2217   */\n      dup3\n        /* \"#utility.yul\":2191:2218   */\n      tag_107\n      jump\t// in\n    tag_182:\n        /* \"#utility.yul\":2183:2189   */\n      dup2\n        /* \"#utility.yul\":2179:2219   */\n      add\n        /* \"#utility.yul\":2321:2327   */\n      dup2\n        /* \"#utility.yul\":2309:2319   */\n      dup2\n        /* \"#utility.yul\":2306:2328   */\n      lt\n        /* \"#utility.yul\":2285:2303   */\n      0xffffffffffffffff\n        /* \"#utility.yul\":2273:2283   */\n      dup3\n        /* \"#utility.yul\":2270:2304   */\n      gt\n        /* \"#utility.yul\":2267:2329   */\n      or\n        /* \"#utility.yul\":2264:2352   */\n      iszero\n      tag_183\n      jumpi\n        /* \"#utility.yul\":2332:2350   */\n      tag_184\n      tag_83\n      jump\t// in\n    tag_184:\n        /* \"#utility.yul\":2264:2352   */\n    tag_183:\n        /* \"#utility.yul\":2372:2382   */\n      dup1\n        /* \"#utility.yul\":2368:2370   */\n      0x40\n        /* \"#utility.yul\":2361:2383   */\n      mstore\n        /* \"#utility.yul\":2151:2389   */\n      pop\n        /* \"#utility.yul\":2108:2389   */\n      pop\n      pop\n      jump\t// out\n        /* \"#utility.yul\":2395:2524   */\n    tag_115:\n        /* \"#utility.yul\":2429:2435   */\n      0x00\n        /* \"#utility.yul\":2456:2476   */\n      tag_186\n      tag_109\n      jump\t// in\n    tag_186:\n        /* \"#utility.yul\":2446:2476   */\n      swap1\n      pop\n        /* \"#utility.yul\":2485:2518   */\n      tag_187\n        /* \"#utility.yul\":2513:2517   */\n      dup3\n        /* \"#utility.yul\":2505:2511   */\n      dup3\n        /* \"#utility.yul\":2485:2518   */\n      tag_114\n      jump\t// in\n    tag_187:\n        /* \"#utility.yul\":2395:2524   */\n      swap2\n      swap1\n      pop\n      jump\t// out\n        /* \"#utility.yul\":2530:2838   */\n    tag_116:\n        /* \"#utility.yul\":2592:2596   */\n      0x00\n        /* \"#utility.yul\":2682:2700   */\n      0xffffffffffffffff\n        /* \"#utility.yul\":2674:2680   */\n      dup3\n        /* \"#utility.yul\":2671:2701   */\n      gt\n        /* \"#utility.yul\":2668:2724   */\n      iszero\n      tag_189\n      jumpi\n        /* \"#utility.yul\":2704:2722   */\n      tag_190\n      tag_83\n      jump\t// in\n    tag_190:\n        /* \"#utility.yul\":2668:2724   */\n    tag_189:\n        /* \"#utility.yul\":2742:2771   */\n      tag_191\n        /* \"#utility.yul\":2764:2770   */\n      dup3\n        /* \"#utility.yul\":2742:2771   */\n      tag_107\n      jump\t// in\n    tag_191:\n        /* \"#utility.yul\":2734:2771   */\n      swap1\n      pop\n        /* \"#utility.yul\":2826:2830   */\n      0x20\n        /* \"#utility.yul\":2820:2824   */\n      dup2\n        /* \"#utility.yul\":2816:2831   */\n      add\n        /* \"#utility.yul\":2808:2831   */\n      swap1\n      pop\n        /* \"#utility.yul\":2530:2838   */\n      swap2\n      swap1\n      pop\n      jump\t// out\n        /* \"#utility.yul\":2844:2990   */\n    tag_117:\n        /* \"#utility.yul\":2941:2947   */\n      dup3\n        /* \"#utility.yul\":2936:2939   */\n      dup2\n        /* \"#utility.yul\":2931:2934   */\n      dup4\n        /* \"#utility.yul\":2918:2948   */\n      calldatacopy\n        /* \"#utility.yul\":2982:2983   */\n      0x00\n        /* \"#utility.yul\":2973:2979   */\n      dup4\n        /* \"#utility.yul\":2968:2971   */\n      dup4\n        /* \"#utility.yul\":2964:2980   */\n      add\n        /* \"#utility.yul\":2957:2984   */\n      mstore\n        /* \"#utility.yul\":2844:2990   */\n      pop\n      pop\n      pop\n      jump\t// out\n        /* \"#utility.yul\":2996:3421   */\n    tag_118:\n        /* \"#utility.yul\":3074:3079   */\n      0x00\n        /* \"#utility.yul\":3099:3165   */\n      tag_194\n        /* \"#utility.yul\":3115:3164   */\n      tag_195\n        /* \"#utility.yul\":3157:3163   */\n      dup5\n        /* \"#utility.yul\":3115:3164   */\n      tag_116\n      jump\t// in\n    tag_195:\n        /* \"#utility.yul\":3099:3165   */\n      tag_115\n      jump\t// in\n    tag_194:\n        /* \"#utility.yul\":3090:3165   */\n      swap1\n      pop\n        /* \"#utility.yul\":3188:3194   */\n      dup3\n        /* \"#utility.yul\":3181:3186   */\n      dup2\n        /* \"#utility.yul\":3174:3195   */\n      mstore\n        /* \"#utility.yul\":3226:3230   */\n      0x20\n        /* \"#utility.yul\":3219:3224   */\n      dup2\n        /* \"#utility.yul\":3215:3231   */\n      add\n        /* \"#utility.yul\":3264:3267   */\n      dup5\n        /* \"#utility.yul\":3255:3261   */\n      dup5\n        /* \"#utility.yul\":3250:3253   */\n      dup5\n        /* \"#utility.yul\":3246:3262   */\n      add\n        /* \"#utility.yul\":3243:3268   */\n      gt\n        /* \"#utility.yul\":3240:3352   */\n      iszero\n      tag_196\n      jumpi\n        /* \"#utility.yul\":3271:3350   */\n      tag_197\n      tag_113\n      jump\t// in\n    tag_197:\n        /* \"#utility.yul\":3240:3352   */\n    tag_196:\n        /* \"#utility.yul\":3361:3415   */\n      tag_198\n        /* \"#utility.yul\":3408:3414   */\n      dup5\n        /* \"#utility.yul\":3403:3406   */\n      dup3\n        /* \"#utility.yul\":3398:3401   */\n      dup6\n        /* \"#utility.yul\":3361:3415   */\n      tag_117\n      jump\t// in\n    tag_198:\n        /* \"#utility.yul\":3080:3421   */\n      pop\n        /* \"#utility.yul\":2996:3421   */\n      swap4\n      swap3\n      pop\n      pop\n      pop\n      jump\t// out\n        /* \"#utility.yul\":3441:3781   */\n    tag_119:\n        /* \"#utility.yul\":3497:3502   */\n      0x00\n        /* \"#utility.yul\":3546:3549   */\n      dup3\n        /* \"#utility.yul\":3539:3543   */\n      0x1f\n        /* \"#utility.yul\":3531:3537   */\n      dup4\n        /* \"#utility.yul\":3527:3544   */\n      add\n        /* \"#utility.yul\":3523:3550   */\n      slt\n        /* \"#utility.yul\":3513:3635   */\n      tag_200\n      jumpi\n        /* \"#utility.yul\":3554:3633   */\n      tag_201\n      tag_112\n      jump\t// in\n    tag_201:\n        /* \"#utility.yul\":3513:3635   */\n    tag_200:\n        /* \"#utility.yul\":3671:3677   */\n      dup2\n        /* \"#utility.yul\":3658:3678   */\n      calldataload\n        /* \"#utility.yul\":3696:3775   */\n      tag_202\n        /* \"#utility.yul\":3771:3774   */\n      dup5\n        /* \"#utility.yul\":3763:3769   */\n      dup3\n        /* \"#utility.yul\":3756:3760   */\n      0x20\n        /* \"#utility.yul\":3748:3754   */\n      dup7\n        /* \"#utility.yul\":3744:3761   */\n      add\n        /* \"#utility.yul\":3696:3775   */\n      tag_118\n      jump\t// in\n    tag_202:\n        /* \"#utility.yul\":3687:3775   */\n      swap2\n      pop\n        /* \"#utility.yul\":3503:3781   */\n      pop\n        /* \"#utility.yul\":3441:3781   */\n      swap3\n      swap2\n      pop\n      pop\n      jump\t// out\n        /* \"#utility.yul\":3787:4296   */\n    tag_15:\n        /* \"#utility.yul\":3856:3862   */\n      0x00\n        /* \"#utility.yul\":3905:3907   */\n      0x20\n        /* \"#utility.yul\":3893:3902   */\n      dup3\n        /* \"#utility.yul\":3884:3891   */\n      dup5\n        /* \"#utility.yul\":3880:3903   */\n      sub\n        /* \"#utility.yul\":3876:3908   */\n      slt\n        /* \"#utility.yul\":3873:3992   */\n      iszero\n      tag_204\n      jumpi\n        /* \"#utility.yul\":3911:3990   */\n      tag_205\n      tag_110\n      jump\t// in\n    tag_205:\n        /* \"#utility.yul\":3873:3992   */\n    tag_204:\n        /* \"#utility.yul\":4059:4060   */\n      0x00\n        /* \"#utility.yul\":4048:4057   */\n      dup3\n        /* \"#utility.yul\":4044:4061   */\n      add\n        /* \"#utility.yul\":4031:4062   */\n      calldataload\n        /* \"#utility.yul\":4089:4107   */\n      0xffffffffffffffff\n        /* \"#utility.yul\":4081:4087   */\n      dup2\n        /* \"#utility.yul\":4078:4108   */\n      gt\n        /* \"#utility.yul\":4075:4192   */\n      iszero\n      tag_206\n      jumpi\n        /* \"#utility.yul\":4111:4190   */\n      tag_207\n      tag_111\n      jump\t// in\n    tag_207:\n        /* \"#utility.yul\":4075:4192   */\n    tag_206:\n        /* \"#utility.yul\":4216:4279   */\n      tag_208\n        /* \"#utility.yul\":4271:4278   */\n      dup5\n        /* \"#utility.yul\":4262:4268   */\n      dup3\n        /* \"#utility.yul\":4251:4260   */\n      dup6\n        /* \"#utility.yul\":4247:4269   */\n      add\n        /* \"#utility.yul\":4216:4279   */\n      tag_119\n      jump\t// in\n    tag_208:\n        /* \"#utility.yul\":4206:4279   */\n      swap2\n      pop\n        /* \"#utility.yul\":4002:4289   */\n      pop\n        /* \"#utility.yul\":3787:4296   */\n      swap3\n      swap2\n      pop\n      pop\n      jump\t// out\n        /* \"#utility.yul\":4302:4416   */\n    tag_120:\n        /* \"#utility.yul\":4369:4375   */\n      0x00\n        /* \"#utility.yul\":4403:4408   */\n      dup2\n        /* \"#utility.yul\":4397:4409   */\n      mload\n        /* \"#utility.yul\":4387:4409   */\n      swap1\n      pop\n        /* \"#utility.yul\":4302:4416   */\n      swap2\n      swap1\n      pop\n      jump\t// out\n        /* \"#utility.yul\":4422:4606   */\n    tag_121:\n        /* \"#utility.yul\":4521:4532   */\n      0x00\n        /* \"#utility.yul\":4555:4561   */\n      dup3\n        /* \"#utility.yul\":4550:4553   */\n      dup3\n        /* \"#utility.yul\":4543:4562   */\n      mstore\n        /* \"#utility.yul\":4595:4599   */\n      0x20\n        /* \"#utility.yul\":4590:4593   */\n      dup3\n        /* \"#utility.yul\":4586:4600   */\n      add\n        /* \"#utility.yul\":4571:4600   */\n      swap1\n      pop\n        /* \"#utility.yul\":4422:4606   */\n      swap3\n      swap2\n      pop\n      pop\n      jump\t// out\n        /* \"#utility.yul\":4612:4744   */\n    tag_122:\n        /* \"#utility.yul\":4679:4683   */\n      0x00\n        /* \"#utility.yul\":4702:4705   */\n      dup2\n        /* \"#utility.yul\":4694:4705   */\n      swap1\n      pop\n        /* \"#utility.yul\":4732:4736   */\n      0x20\n        /* \"#utility.yul\":4727:4730   */\n      dup3\n        /* \"#utility.yul\":4723:4737   */\n      add\n        /* \"#utility.yul\":4715:4737   */\n      swap1\n      pop\n        /* \"#utility.yul\":4612:4744   */\n      swap2\n      swap1\n      pop\n      jump\t// out\n        /* \"#utility.yul\":4750:4827   */\n    tag_123:\n        /* \"#utility.yul\":4787:4794   */\n      0x00\n        /* \"#utility.yul\":4816:4821   */\n      dup2\n        /* \"#utility.yul\":4805:4821   */\n      swap1\n      pop\n        /* \"#utility.yul\":4750:4827   */\n      swap2\n      swap1\n      pop\n      jump\t// out\n        /* \"#utility.yul\":4833:4941   */\n    tag_124:\n        /* \"#utility.yul\":4910:4934   */\n      tag_214\n        /* \"#utility.yul\":4928:4933   */\n      dup2\n        /* \"#utility.yul\":4910:4934   */\n      tag_123\n      jump\t// in\n    tag_214:\n        /* \"#utility.yul\":4905:4908   */\n      dup3\n        /* \"#utility.yul\":4898:4935   */\n      mstore\n        /* \"#utility.yul\":4833:4941   */\n      pop\n      pop\n      jump\t// out\n        /* \"#utility.yul\":4947:5126   */\n    tag_125:\n        /* \"#utility.yul\":5016:5026   */\n      0x00\n        /* \"#utility.yul\":5037:5083   */\n      tag_216\n        /* \"#utility.yul\":5079:5082   */\n      dup4\n        /* \"#utility.yul\":5071:5077   */\n      dup4\n        /* \"#utility.yul\":5037:5083   */\n      tag_124\n      jump\t// in\n    tag_216:\n        /* \"#utility.yul\":5115:5119   */\n      0x20\n        /* \"#utility.yul\":5110:5113   */\n      dup4\n        /* \"#utility.yul\":5106:5120   */\n      add\n        /* \"#utility.yul\":5092:5120   */\n      swap1\n      pop\n        /* \"#utility.yul\":4947:5126   */\n      swap3\n      swap2\n      pop\n      pop\n      jump\t// out\n        /* \"#utility.yul\":5132:5245   */\n    tag_126:\n        /* \"#utility.yul\":5202:5206   */\n      0x00\n        /* \"#utility.yul\":5234:5238   */\n      0x20\n        /* \"#utility.yul\":5229:5232   */\n      dup3\n        /* \"#utility.yul\":5225:5239   */\n      add\n        /* \"#utility.yul\":5217:5239   */\n      swap1\n      pop\n        /* \"#utility.yul\":5132:5245   */\n      swap2\n      swap1\n      pop\n      jump\t// out\n        /* \"#utility.yul\":5281:6013   */\n    tag_127:\n        /* \"#utility.yul\":5400:5403   */\n      0x00\n        /* \"#utility.yul\":5429:5483   */\n      tag_219\n        /* \"#utility.yul\":5477:5482   */\n      dup3\n        /* \"#utility.yul\":5429:5483   */\n      tag_120\n      jump\t// in\n    tag_219:\n        /* \"#utility.yul\":5499:5585   */\n      tag_220\n        /* \"#utility.yul\":5578:5584   */\n      dup2\n        /* \"#utility.yul\":5573:5576   */\n      dup6\n        /* \"#utility.yul\":5499:5585   */\n      tag_121\n      jump\t// in\n    tag_220:\n        /* \"#utility.yul\":5492:5585   */\n      swap4\n      pop\n        /* \"#utility.yul\":5609:5665   */\n      tag_221\n        /* \"#utility.yul\":5659:5664   */\n      dup4\n        /* \"#utility.yul\":5609:5665   */\n      tag_122\n      jump\t// in\n    tag_221:\n        /* \"#utility.yul\":5688:5695   */\n      dup1\n        /* \"#utility.yul\":5719:5720   */\n      0x00\n        /* \"#utility.yul\":5704:5988   */\n    tag_222:\n        /* \"#utility.yul\":5729:5735   */\n      dup4\n        /* \"#utility.yul\":5726:5727   */\n      dup2\n        /* \"#utility.yul\":5723:5736   */\n      lt\n        /* \"#utility.yul\":5704:5988   */\n      iszero\n      tag_224\n      jumpi\n        /* \"#utility.yul\":5805:5811   */\n      dup2\n        /* \"#utility.yul\":5799:5812   */\n      mload\n        /* \"#utility.yul\":5832:5895   */\n      tag_225\n        /* \"#utility.yul\":5891:5894   */\n      dup9\n        /* \"#utility.yul\":5876:5889   */\n      dup3\n        /* \"#utility.yul\":5832:5895   */\n      tag_125\n      jump\t// in\n    tag_225:\n        /* \"#utility.yul\":5825:5895   */\n      swap8\n      pop\n        /* \"#utility.yul\":5918:5978   */\n      tag_226\n        /* \"#utility.yul\":5971:5977   */\n      dup4\n        /* \"#utility.yul\":5918:5978   */\n      tag_126\n      jump\t// in\n    tag_226:\n        /* \"#utility.yul\":5908:5978   */\n      swap3\n      pop\n        /* \"#utility.yul\":5764:5988   */\n      pop\n        /* \"#utility.yul\":5751:5752   */\n      0x01\n        /* \"#utility.yul\":5748:5749   */\n      dup2\n        /* \"#utility.yul\":5744:5753   */\n      add\n        /* \"#utility.yul\":5739:5753   */\n      swap1\n      pop\n        /* \"#utility.yul\":5704:5988   */\n      jump(tag_222)\n    tag_224:\n        /* \"#utility.yul\":5708:5722   */\n      pop\n        /* \"#utility.yul\":6004:6007   */\n      dup6\n        /* \"#utility.yul\":5997:6007   */\n      swap4\n      pop\n        /* \"#utility.yul\":5405:6013   */\n      pop\n      pop\n      pop\n        /* \"#utility.yul\":5281:6013   */\n      swap3\n      swap2\n      pop\n      pop\n      jump\t// out\n        /* \"#utility.yul\":6019:6392   */\n    tag_20:\n        /* \"#utility.yul\":6162:6166   */\n      0x00\n        /* \"#utility.yul\":6200:6202   */\n      0x20\n        /* \"#utility.yul\":6189:6198   */\n      dup3\n        /* \"#utility.yul\":6185:6203   */\n      add\n        /* \"#utility.yul\":6177:6203   */\n      swap1\n      pop\n        /* \"#utility.yul\":6249:6258   */\n      dup2\n        /* \"#utility.yul\":6243:6247   */\n      dup2\n        /* \"#utility.yul\":6239:6259   */\n      sub\n        /* \"#utility.yul\":6235:6236   */\n      0x00\n        /* \"#utility.yul\":6224:6233   */\n      dup4\n        /* \"#utility.yul\":6220:6237   */\n      add\n        /* \"#utility.yul\":6213:6260   */\n      mstore\n        /* \"#utility.yul\":6277:6385   */\n      tag_228\n        /* \"#utility.yul\":6380:6384   */\n      dup2\n        /* \"#utility.yul\":6371:6377   */\n      dup5\n        /* \"#utility.yul\":6277:6385   */\n      tag_127\n      jump\t// in\n    tag_228:\n        /* \"#utility.yul\":6269:6385   */\n      swap1\n      pop\n        /* \"#utility.yul\":6019:6392   */\n      swap3\n      swap2\n      pop\n      pop\n      jump\t// out\n        /* \"#utility.yul\":6398:6520   */\n    tag_128:\n        /* \"#utility.yul\":6471:6495   */\n      tag_230\n        /* \"#utility.yul\":6489:6494   */\n      dup2\n        /* \"#utility.yul\":6471:6495   */\n      tag_123\n      jump\t// in\n    tag_230:\n        /* \"#utility.yul\":6464:6469   */\n      dup2\n        /* \"#utility.yul\":6461:6496   */\n      eq\n        /* \"#utility.yul\":6451:6514   */\n      tag_231\n      jumpi\n        /* \"#utility.yul\":6510:6511   */\n      0x00\n        /* \"#utility.yul\":6507:6508   */\n      dup1\n        /* \"#utility.yul\":6500:6512   */\n      revert\n        /* \"#utility.yul\":6451:6514   */\n    tag_231:\n        /* \"#utility.yul\":6398:6520   */\n      pop\n      jump\t// out\n        /* \"#utility.yul\":6526:6665   */\n    tag_129:\n        /* \"#utility.yul\":6572:6577   */\n      0x00\n        /* \"#utility.yul\":6610:6616   */\n      dup2\n        /* \"#utility.yul\":6597:6617   */\n      calldataload\n        /* \"#utility.yul\":6588:6617   */\n      swap1\n      pop\n        /* \"#utility.yul\":6626:6659   */\n      tag_233\n        /* \"#utility.yul\":6653:6658   */\n      dup2\n        /* \"#utility.yul\":6626:6659   */\n      tag_128\n      jump\t// in\n    tag_233:\n        /* \"#utility.yul\":6526:6665   */\n      swap3\n      swap2\n      pop\n      pop\n      jump\t// out\n        /* \"#utility.yul\":6671:7000   */\n    tag_23:\n        /* \"#utility.yul\":6730:6736   */\n      0x00\n        /* \"#utility.yul\":6779:6781   */\n      0x20\n        /* \"#utility.yul\":6767:6776   */\n      dup3\n        /* \"#utility.yul\":6758:6765   */\n      dup5\n        /* \"#utility.yul\":6754:6777   */\n      sub\n        /* \"#utility.yul\":6750:6782   */\n      slt\n        /* \"#utility.yul\":6747:6866   */\n      iszero\n      tag_235\n      jumpi\n        /* \"#utility.yul\":6785:6864   */\n      tag_236\n      tag_110\n      jump\t// in\n    tag_236:\n        /* \"#utility.yul\":6747:6866   */\n    tag_235:\n        /* \"#utility.yul\":6905:6906   */\n      0x00\n        /* \"#utility.yul\":6930:6983   */\n      tag_237\n        /* \"#utility.yul\":6975:6982   */\n      dup5\n        /* \"#utility.yul\":6966:6972   */\n      dup3\n        /* \"#utility.yul\":6955:6964   */\n      dup6\n        /* \"#utility.yul\":6951:6973   */\n      add\n        /* \"#utility.yul\":6930:6983   */\n      tag_129\n      jump\t// in\n    tag_237:\n        /* \"#utility.yul\":6920:6983   */\n      swap2\n      pop\n        /* \"#utility.yul\":6876:6993   */\n      pop\n        /* \"#utility.yul\":6671:7000   */\n      swap3\n      swap2\n      pop\n      pop\n      jump\t// out\n        /* \"#utility.yul\":7006:7124   */\n    tag_130:\n        /* \"#utility.yul\":7093:7117   */\n      tag_239\n        /* \"#utility.yul\":7111:7116   */\n      dup2\n        /* \"#utility.yul\":7093:7117   */\n      tag_123\n      jump\t// in\n    tag_239:\n        /* \"#utility.yul\":7088:7091   */\n      dup3\n        /* \"#utility.yul\":7081:7118   */\n      mstore\n        /* \"#utility.yul\":7006:7124   */\n      pop\n      pop\n      jump\t// out\n        /* \"#utility.yul\":7130:7553   */\n    tag_26:\n        /* \"#utility.yul\":7271:7275   */\n      0x00\n        /* \"#utility.yul\":7309:7311   */\n      0x40\n        /* \"#utility.yul\":7298:7307   */\n      dup3\n        /* \"#utility.yul\":7294:7312   */\n      add\n        /* \"#utility.yul\":7286:7312   */\n      swap1\n      pop\n        /* \"#utility.yul\":7358:7367   */\n      dup2\n        /* \"#utility.yul\":7352:7356   */\n      dup2\n        /* \"#utility.yul\":7348:7368   */\n      sub\n        /* \"#utility.yul\":7344:7345   */\n      0x00\n        /* \"#utility.yul\":7333:7342   */\n      dup4\n        /* \"#utility.yul\":7329:7346   */\n      add\n        /* \"#utility.yul\":7322:7369   */\n      mstore\n        /* \"#utility.yul\":7386:7464   */\n      tag_241\n        /* \"#utility.yul\":7459:7463   */\n      dup2\n        /* \"#utility.yul\":7450:7456   */\n      dup6\n        /* \"#utility.yul\":7386:7464   */\n      tag_108\n      jump\t// in\n    tag_241:\n        /* \"#utility.yul\":7378:7464   */\n      swap1\n      pop\n        /* \"#utility.yul\":7474:7546   */\n      tag_242\n        /* \"#utility.yul\":7542:7544   */\n      0x20\n        /* \"#utility.yul\":7531:7540   */\n      dup4\n        /* \"#utility.yul\":7527:7545   */\n      add\n        /* \"#utility.yul\":7518:7524   */\n      dup5\n        /* \"#utility.yul\":7474:7546   */\n      tag_130\n      jump\t// in\n    tag_242:\n        /* \"#utility.yul\":7130:7553   */\n      swap4\n      swap3\n      pop\n      pop\n      pop\n      jump\t// out\n        /* \"#utility.yul\":7559:7685   */\n    tag_131:\n        /* \"#utility.yul\":7596:7603   */\n      0x00\n        /* \"#utility.yul\":7636:7678   */\n      0xffffffffffffffffffffffffffffffffffffffff\n        /* \"#utility.yul\":7629:7634   */\n      dup3\n        /* \"#utility.yul\":7625:7679   */\n      and\n        /* \"#utility.yul\":7614:7679   */\n      swap1\n      pop\n        /* \"#utility.yul\":7559:7685   */\n      swap2\n      swap1\n      pop\n      jump\t// out\n        /* \"#utility.yul\":7691:7787   */\n    tag_132:\n        /* \"#utility.yul\":7728:7735   */\n      0x00\n        /* \"#utility.yul\":7757:7781   */\n      tag_245\n        /* \"#utility.yul\":7775:7780   */\n      dup3\n        /* \"#utility.yul\":7757:7781   */\n      tag_131\n      jump\t// in\n    tag_245:\n        /* \"#utility.yul\":7746:7781   */\n      swap1\n      pop\n        /* \"#utility.yul\":7691:7787   */\n      swap2\n      swap1\n      pop\n      jump\t// out\n        /* \"#utility.yul\":7793:7911   */\n    tag_133:\n        /* \"#utility.yul\":7880:7904   */\n      tag_247\n        /* \"#utility.yul\":7898:7903   */\n      dup2\n        /* \"#utility.yul\":7880:7904   */\n      tag_132\n      jump\t// in\n    tag_247:\n        /* \"#utility.yul\":7875:7878   */\n      dup3\n        /* \"#utility.yul\":7868:7905   */\n      mstore\n        /* \"#utility.yul\":7793:7911   */\n      pop\n      pop\n      jump\t// out\n        /* \"#utility.yul\":7917:8139   */\n    tag_30:\n        /* \"#utility.yul\":8010:8014   */\n      0x00\n        /* \"#utility.yul\":8048:8050   */\n      0x20\n        /* \"#utility.yul\":8037:8046   */\n      dup3\n        /* \"#utility.yul\":8033:8051   */\n      add\n        /* \"#utility.yul\":8025:8051   */\n      swap1\n      pop\n        /* \"#utility.yul\":8061:8132   */\n      tag_249\n        /* \"#utility.yul\":8129:8130   */\n      0x00\n        /* \"#utility.yul\":8118:8127   */\n      dup4\n        /* \"#utility.yul\":8114:8131   */\n      add\n        /* \"#utility.yul\":8105:8111   */\n      dup5\n        /* \"#utility.yul\":8061:8132   */\n      tag_133\n      jump\t// in\n    tag_249:\n        /* \"#utility.yul\":7917:8139   */\n      swap3\n      swap2\n      pop\n      pop\n      jump\t// out\n        /* \"#utility.yul\":8145:8325   */\n    tag_134:\n        /* \"#utility.yul\":8285:8317   */\n      0x4f6e6c792074686520686f73742063616e206578656375746520746869730000\n        /* \"#utility.yul\":8281:8282   */\n      0x00\n        /* \"#utility.yul\":8273:8279   */\n      dup3\n        /* \"#utility.yul\":8269:8283   */\n      add\n        /* \"#utility.yul\":8262:8318   */\n      mstore\n        /* \"#utility.yul\":8145:8325   */\n      pop\n      jump\t// out\n        /* \"#utility.yul\":8331:8697   */\n    tag_135:\n        /* \"#utility.yul\":8473:8476   */\n      0x00\n        /* \"#utility.yul\":8494:8561   */\n      tag_252\n        /* \"#utility.yul\":8558:8560   */\n      0x1e\n        /* \"#utility.yul\":8553:8556   */\n      dup4\n        /* \"#utility.yul\":8494:8561   */\n      tag_105\n      jump\t// in\n    tag_252:\n        /* \"#utility.yul\":8487:8561   */\n      swap2\n      pop\n        /* \"#utility.yul\":8570:8663   */\n      tag_253\n        /* \"#utility.yul\":8659:8662   */\n      dup3\n        /* \"#utility.yul\":8570:8663   */\n      tag_134\n      jump\t// in\n    tag_253:\n        /* \"#utility.yul\":8688:8690   */\n      0x20\n        /* \"#utility.yul\":8683:8686   */\n      dup3\n        /* \"#utility.yul\":8679:8691   */\n      add\n        /* \"#utility.yul\":8672:8691   */\n      swap1\n      pop\n        /* \"#utility.yul\":8331:8697   */\n      swap2\n      swap1\n      pop\n      jump\t// out\n        /* \"#utility.yul\":8703:9122   */\n    tag_37:\n        /* \"#utility.yul\":8869:8873   */\n      0x00\n        /* \"#utility.yul\":8907:8909   */\n      0x20\n        /* \"#utility.yul\":8896:8905   */\n      dup3\n        /* \"#utility.yul\":8892:8910   */\n      add\n        /* \"#utility.yul\":8884:8910   */\n      swap1\n      pop\n        /* \"#utility.yul\":8956:8965   */\n      dup2\n        /* \"#utility.yul\":8950:8954   */\n      dup2\n        /* \"#utility.yul\":8946:8966   */\n      sub\n        /* \"#utility.yul\":8942:8943   */\n      0x00\n        /* \"#utility.yul\":8931:8940   */\n      dup4\n        /* \"#utility.yul\":8927:8944   */\n      add\n        /* \"#utility.yul\":8920:8967   */\n      mstore\n        /* \"#utility.yul\":8984:9115   */\n      tag_255\n        /* \"#utility.yul\":9110:9114   */\n      dup2\n        /* \"#utility.yul\":8984:9115   */\n      tag_135\n      jump\t// in\n    tag_255:\n        /* \"#utility.yul\":8976:9115   */\n      swap1\n      pop\n        /* \"#utility.yul\":8703:9122   */\n      swap2\n      swap1\n      pop\n      jump\t// out\n        /* \"#utility.yul\":9128:9308   */\n    tag_44:\n        /* \"#utility.yul\":9176:9253   */\n      0x4e487b7100000000000000000000000000000000000000000000000000000000\n        /* \"#utility.yul\":9173:9174   */\n      0x00\n        /* \"#utility.yul\":9166:9254   */\n      mstore\n        /* \"#utility.yul\":9273:9277   */\n      0x32\n        /* \"#utility.yul\":9270:9271   */\n      0x04\n        /* \"#utility.yul\":9263:9278   */\n      mstore\n        /* \"#utility.yul\":9297:9301   */\n      0x24\n        /* \"#utility.yul\":9294:9295   */\n      0x00\n        /* \"#utility.yul\":9287:9302   */\n      revert\n        /* \"#utility.yul\":9314:9494   */\n    tag_136:\n        /* \"#utility.yul\":9362:9439   */\n      0x4e487b7100000000000000000000000000000000000000000000000000000000\n        /* \"#utility.yul\":9359:9360   */\n      0x00\n        /* \"#utility.yul\":9352:9440   */\n      mstore\n        /* \"#utility.yul\":9459:9463   */\n      0x22\n        /* \"#utility.yul\":9456:9457   */\n      0x04\n        /* \"#utility.yul\":9449:9464   */\n      mstore\n        /* \"#utility.yul\":9483:9487   */\n      0x24\n        /* \"#utility.yul\":9480:9481   */\n      0x00\n        /* \"#utility.yul\":9473:9488   */\n      revert\n        /* \"#utility.yul\":9500:9820   */\n    tag_54:\n        /* \"#utility.yul\":9544:9550   */\n      0x00\n        /* \"#utility.yul\":9581:9582   */\n      0x02\n        /* \"#utility.yul\":9575:9579   */\n      dup3\n        /* \"#utility.yul\":9571:9583   */\n      div\n        /* \"#utility.yul\":9561:9583   */\n      swap1\n      pop\n        /* \"#utility.yul\":9628:9629   */\n      0x01\n        /* \"#utility.yul\":9622:9626   */\n      dup3\n        /* \"#utility.yul\":9618:9630   */\n      and\n        /* \"#utility.yul\":9649:9667   */\n      dup1\n        /* \"#utility.yul\":9639:9720   */\n      tag_259\n      jumpi\n        /* \"#utility.yul\":9705:9709   */\n      0x7f\n        /* \"#utility.yul\":9697:9703   */\n      dup3\n        /* \"#utility.yul\":9693:9710   */\n      and\n        /* \"#utility.yul\":9683:9710   */\n      swap2\n      pop\n        /* \"#utility.yul\":9639:9720   */\n    tag_259:\n        /* \"#utility.yul\":9767:9769   */\n      0x20\n        /* \"#utility.yul\":9759:9765   */\n      dup3\n        /* \"#utility.yul\":9756:9770   */\n      lt\n        /* \"#utility.yul\":9736:9754   */\n      dup2\n        /* \"#utility.yul\":9733:9771   */\n      sub\n        /* \"#utility.yul\":9730:9814   */\n      tag_260\n      jumpi\n        /* \"#utility.yul\":9786:9804   */\n      tag_261\n      tag_136\n      jump\t// in\n    tag_261:\n        /* \"#utility.yul\":9730:9814   */\n    tag_260:\n        /* \"#utility.yul\":9551:9820   */\n      pop\n        /* \"#utility.yul\":9500:9820   */\n      swap2\n      swap1\n      pop\n      jump\t// out\n        /* \"#utility.yul\":9826:9993   */\n    tag_137:\n        /* \"#utility.yul\":9966:9985   */\n      0x4e6f20766f746573207265636f72646564000000000000000000000000000000\n        /* \"#utility.yul\":9962:9963   */\n      0x00\n        /* \"#utility.yul\":9954:9960   */\n      dup3\n        /* \"#utility.yul\":9950:9964   */\n      add\n        /* \"#utility.yul\":9943:9986   */\n      mstore\n        /* \"#utility.yul\":9826:9993   */\n      pop\n      jump\t// out\n        /* \"#utility.yul\":9999:10365   */\n    tag_138:\n        /* \"#utility.yul\":10141:10144   */\n      0x00\n        /* \"#utility.yul\":10162:10229   */\n      tag_264\n        /* \"#utility.yul\":10226:10228   */\n      0x11\n        /* \"#utility.yul\":10221:10224   */\n      dup4\n        /* \"#utility.yul\":10162:10229   */\n      tag_105\n      jump\t// in\n    tag_264:\n        /* \"#utility.yul\":10155:10229   */\n      swap2\n      pop\n        /* \"#utility.yul\":10238:10331   */\n      tag_265\n        /* \"#utility.yul\":10327:10330   */\n      dup3\n        /* \"#utility.yul\":10238:10331   */\n      tag_137\n      jump\t// in\n    tag_265:\n        /* \"#utility.yul\":10356:10358   */\n      0x20\n        /* \"#utility.yul\":10351:10354   */\n      dup3\n        /* \"#utility.yul\":10347:10359   */\n      add\n        /* \"#utility.yul\":10340:10359   */\n      swap1\n      pop\n        /* \"#utility.yul\":9999:10365   */\n      swap2\n      swap1\n      pop\n      jump\t// out\n        /* \"#utility.yul\":10371:10790   */\n    tag_61:\n        /* \"#utility.yul\":10537:10541   */\n      0x00\n        /* \"#utility.yul\":10575:10577   */\n      0x20\n        /* \"#utility.yul\":10564:10573   */\n      dup3\n        /* \"#utility.yul\":10560:10578   */\n      add\n        /* \"#utility.yul\":10552:10578   */\n      swap1\n      pop\n        /* \"#utility.yul\":10624:10633   */\n      dup2\n        /* \"#utility.yul\":10618:10622   */\n      dup2\n        /* \"#utility.yul\":10614:10634   */\n      sub\n        /* \"#utility.yul\":10610:10611   */\n      0x00\n        /* \"#utility.yul\":10599:10608   */\n      dup4\n        /* \"#utility.yul\":10595:10612   */\n      add\n        /* \"#utility.yul\":10588:10635   */\n      mstore\n        /* \"#utility.yul\":10652:10783   */\n      tag_267\n        /* \"#utility.yul\":10778:10782   */\n      dup2\n        /* \"#utility.yul\":10652:10783   */\n      tag_138\n      jump\t// in\n    tag_267:\n        /* \"#utility.yul\":10644:10783   */\n      swap1\n      pop\n        /* \"#utility.yul\":10371:10790   */\n      swap2\n      swap1\n      pop\n      jump\t// out\n        /* \"#utility.yul\":10796:10968   */\n    tag_139:\n        /* \"#utility.yul\":10936:10960   */\n      0x596f75206861766520616c726561647920766f74656400000000000000000000\n        /* \"#utility.yul\":10932:10933   */\n      0x00\n        /* \"#utility.yul\":10924:10930   */\n      dup3\n        /* \"#utility.yul\":10920:10934   */\n      add\n        /* \"#utility.yul\":10913:10961   */\n      mstore\n        /* \"#utility.yul\":10796:10968   */\n      pop\n      jump\t// out\n        /* \"#utility.yul\":10974:11340   */\n    tag_140:\n        /* \"#utility.yul\":11116:11119   */\n      0x00\n        /* \"#utility.yul\":11137:11204   */\n      tag_270\n        /* \"#utility.yul\":11201:11203   */\n      0x16\n        /* \"#utility.yul\":11196:11199   */\n      dup4\n        /* \"#utility.yul\":11137:11204   */\n      tag_105\n      jump\t// in\n    tag_270:\n        /* \"#utility.yul\":11130:11204   */\n      swap2\n      pop\n        /* \"#utility.yul\":11213:11306   */\n      tag_271\n        /* \"#utility.yul\":11302:11305   */\n      dup3\n        /* \"#utility.yul\":11213:11306   */\n      tag_139\n      jump\t// in\n    tag_271:\n        /* \"#utility.yul\":11331:11333   */\n      0x20\n        /* \"#utility.yul\":11326:11329   */\n      dup3\n        /* \"#utility.yul\":11322:11334   */\n      add\n        /* \"#utility.yul\":11315:11334   */\n      swap1\n      pop\n        /* \"#utility.yul\":10974:11340   */\n      swap2\n      swap1\n      pop\n      jump\t// out\n        /* \"#utility.yul\":11346:11765   */\n    tag_65:\n        /* \"#utility.yul\":11512:11516   */\n      0x00\n        /* \"#utility.yul\":11550:11552   */\n      0x20\n        /* \"#utility.yul\":11539:11548   */\n      dup3\n        /* \"#utility.yul\":11535:11553   */\n      add\n        /* \"#utility.yul\":11527:11553   */\n      swap1\n      pop\n        /* \"#utility.yul\":11599:11608   */\n      dup2\n        /* \"#utility.yul\":11593:11597   */\n      dup2\n        /* \"#utility.yul\":11589:11609   */\n      sub\n        /* \"#utility.yul\":11585:11586   */\n      0x00\n        /* \"#utility.yul\":11574:11583   */\n      dup4\n        /* \"#utility.yul\":11570:11587   */\n      add\n        /* \"#utility.yul\":11563:11610   */\n      mstore\n        /* \"#utility.yul\":11627:11758   */\n      tag_273\n        /* \"#utility.yul\":11753:11757   */\n      dup2\n        /* \"#utility.yul\":11627:11758   */\n      tag_140\n      jump\t// in\n    tag_273:\n        /* \"#utility.yul\":11619:11758   */\n      swap1\n      pop\n        /* \"#utility.yul\":11346:11765   */\n      swap2\n      swap1\n      pop\n      jump\t// out\n        /* \"#utility.yul\":11771:11918   */\n    tag_141:\n        /* \"#utility.yul\":11872:11883   */\n      0x00\n        /* \"#utility.yul\":11909:11912   */\n      dup2\n        /* \"#utility.yul\":11894:11912   */\n      swap1\n      pop\n        /* \"#utility.yul\":11771:11918   */\n      swap3\n      swap2\n      pop\n      pop\n      jump\t// out\n        /* \"#utility.yul\":11924:12068   */\n    tag_142:\n        /* \"#utility.yul\":11976:11980   */\n      0x00\n        /* \"#utility.yul\":11999:12002   */\n      dup2\n        /* \"#utility.yul\":11991:12002   */\n      swap1\n      pop\n        /* \"#utility.yul\":12022:12025   */\n      dup2\n        /* \"#utility.yul\":12019:12020   */\n      0x00\n        /* \"#utility.yul\":12012:12026   */\n      mstore\n        /* \"#utility.yul\":12056:12060   */\n      0x20\n        /* \"#utility.yul\":12053:12054   */\n      0x00\n        /* \"#utility.yul\":12043:12061   */\n      keccak256\n        /* \"#utility.yul\":12035:12061   */\n      swap1\n      pop\n        /* \"#utility.yul\":11924:12068   */\n      swap2\n      swap1\n      pop\n      jump\t// out\n        /* \"#utility.yul\":12096:12974   */\n    tag_143:\n        /* \"#utility.yul\":12201:12204   */\n      0x00\n        /* \"#utility.yul\":12238:12243   */\n      dup2\n        /* \"#utility.yul\":12232:12244   */\n      sload\n        /* \"#utility.yul\":12267:12303   */\n      tag_277\n        /* \"#utility.yul\":12293:12302   */\n      dup2\n        /* \"#utility.yul\":12267:12303   */\n      tag_54\n      jump\t// in\n    tag_277:\n        /* \"#utility.yul\":12319:12407   */\n      tag_278\n        /* \"#utility.yul\":12400:12406   */\n      dup2\n        /* \"#utility.yul\":12395:12398   */\n      dup7\n        /* \"#utility.yul\":12319:12407   */\n      tag_141\n      jump\t// in\n    tag_278:\n        /* \"#utility.yul\":12312:12407   */\n      swap5\n      pop\n        /* \"#utility.yul\":12438:12439   */\n      0x01\n        /* \"#utility.yul\":12427:12436   */\n      dup3\n        /* \"#utility.yul\":12423:12440   */\n      and\n        /* \"#utility.yul\":12454:12455   */\n      0x00\n        /* \"#utility.yul\":12449:12615   */\n      dup2\n      eq\n      tag_280\n      jumpi\n        /* \"#utility.yul\":12629:12630   */\n      0x01\n        /* \"#utility.yul\":12624:12968   */\n      dup2\n      eq\n      tag_281\n      jumpi\n        /* \"#utility.yul\":12416:12968   */\n      jump(tag_279)\n        /* \"#utility.yul\":12449:12615   */\n    tag_280:\n        /* \"#utility.yul\":12533:12537   */\n      0xff\n        /* \"#utility.yul\":12529:12538   */\n      not\n        /* \"#utility.yul\":12518:12527   */\n      dup4\n        /* \"#utility.yul\":12514:12539   */\n      and\n        /* \"#utility.yul\":12509:12512   */\n      dup7\n        /* \"#utility.yul\":12502:12540   */\n      mstore\n        /* \"#utility.yul\":12595:12601   */\n      dup2\n        /* \"#utility.yul\":12588:12602   */\n      iszero\n        /* \"#utility.yul\":12581:12603   */\n      iszero\n        /* \"#utility.yul\":12573:12579   */\n      dup3\n        /* \"#utility.yul\":12569:12604   */\n      mul\n        /* \"#utility.yul\":12564:12567   */\n      dup7\n        /* \"#utility.yul\":12560:12605   */\n      add\n        /* \"#utility.yul\":12553:12605   */\n      swap4\n      pop\n        /* \"#utility.yul\":12449:12615   */\n      jump(tag_279)\n        /* \"#utility.yul\":12624:12968   */\n    tag_281:\n        /* \"#utility.yul\":12691:12732   */\n      tag_282\n        /* \"#utility.yul\":12726:12731   */\n      dup6\n        /* \"#utility.yul\":12691:12732   */\n      tag_142\n      jump\t// in\n    tag_282:\n        /* \"#utility.yul\":12754:12755   */\n      0x00\n        /* \"#utility.yul\":12768:12922   */\n    tag_283:\n        /* \"#utility.yul\":12782:12788   */\n      dup4\n        /* \"#utility.yul\":12779:12780   */\n      dup2\n        /* \"#utility.yul\":12776:12789   */\n      lt\n        /* \"#utility.yul\":12768:12922   */\n      iszero\n      tag_285\n      jumpi\n        /* \"#utility.yul\":12856:12863   */\n      dup2\n        /* \"#utility.yul\":12850:12864   */\n      sload\n        /* \"#utility.yul\":12846:12847   */\n      dup2\n        /* \"#utility.yul\":12841:12844   */\n      dup10\n        /* \"#utility.yul\":12837:12848   */\n      add\n        /* \"#utility.yul\":12830:12865   */\n      mstore\n        /* \"#utility.yul\":12906:12907   */\n      0x01\n        /* \"#utility.yul\":12897:12904   */\n      dup3\n        /* \"#utility.yul\":12893:12908   */\n      add\n        /* \"#utility.yul\":12882:12908   */\n      swap2\n      pop\n        /* \"#utility.yul\":12804:12808   */\n      0x20\n        /* \"#utility.yul\":12801:12802   */\n      dup2\n        /* \"#utility.yul\":12797:12809   */\n      add\n        /* \"#utility.yul\":12792:12809   */\n      swap1\n      pop\n        /* \"#utility.yul\":12768:12922   */\n      jump(tag_283)\n    tag_285:\n        /* \"#utility.yul\":12951:12957   */\n      dup4\n        /* \"#utility.yul\":12946:12949   */\n      dup9\n        /* \"#utility.yul\":12942:12958   */\n      add\n        /* \"#utility.yul\":12935:12958   */\n      swap6\n      pop\n        /* \"#utility.yul\":12631:12968   */\n      pop\n      pop\n        /* \"#utility.yul\":12416:12968   */\n    tag_279:\n      pop\n        /* \"#utility.yul\":12205:12974   */\n      pop\n      pop\n        /* \"#utility.yul\":12096:12974   */\n      swap3\n      swap2\n      pop\n      pop\n      jump\t// out\n        /* \"#utility.yul\":12980:13253   */\n    tag_73:\n        /* \"#utility.yul\":13111:13114   */\n      0x00\n        /* \"#utility.yul\":13133:13227   */\n      tag_287\n        /* \"#utility.yul\":13223:13226   */\n      dup3\n        /* \"#utility.yul\":13214:13220   */\n      dup5\n        /* \"#utility.yul\":13133:13227   */\n      tag_143\n      jump\t// in\n    tag_287:\n        /* \"#utility.yul\":13126:13227   */\n      swap2\n      pop\n        /* \"#utility.yul\":13244:13247   */\n      dup2\n        /* \"#utility.yul\":13237:13247   */\n      swap1\n      pop\n        /* \"#utility.yul\":12980:13253   */\n      swap3\n      swap2\n      pop\n      pop\n      jump\t// out\n        /* \"#utility.yul\":13259:13439   */\n    tag_144:\n        /* \"#utility.yul\":13307:13384   */\n      0x4e487b7100000000000000000000000000000000000000000000000000000000\n        /* \"#utility.yul\":13304:13305   */\n      0x00\n        /* \"#utility.yul\":13297:13385   */\n      mstore\n        /* \"#utility.yul\":13404:13408   */\n      0x11\n        /* \"#utility.yul\":13401:13402   */\n      0x04\n        /* \"#utility.yul\":13394:13409   */\n      mstore\n        /* \"#utility.yul\":13428:13432   */\n      0x24\n        /* \"#utility.yul\":13425:13426   */\n      0x00\n        /* \"#utility.yul\":13418:13433   */\n      revert\n        /* \"#utility.yul\":13445:13678   */\n    tag_79:\n        /* \"#utility.yul\":13484:13487   */\n      0x00\n        /* \"#utility.yul\":13507:13531   */\n      tag_290\n        /* \"#utility.yul\":13525:13530   */\n      dup3\n        /* \"#utility.yul\":13507:13531   */\n      tag_123\n      jump\t// in\n    tag_290:\n        /* \"#utility.yul\":13498:13531   */\n      swap2\n      pop\n        /* \"#utility.yul\":13553:13619   */\n      0xffffffffffffffffffffffffffffffffffffffffffffffffffffffffffffffff\n        /* \"#utility.yul\":13546:13551   */\n      dup3\n        /* \"#utility.yul\":13543:13620   */\n      sub\n        /* \"#utility.yul\":13540:13643   */\n      tag_291\n      jumpi\n        /* \"#utility.yul\":13623:13641   */\n      tag_292\n      tag_144\n      jump\t// in\n    tag_292:\n        /* \"#utility.yul\":13540:13643   */\n    tag_291:\n        /* \"#utility.yul\":13670:13671   */\n      0x01\n        /* \"#utility.yul\":13663:13668   */\n      dup3\n        /* \"#utility.yul\":13659:13672   */\n      add\n        /* \"#utility.yul\":13652:13672   */\n      swap1\n      pop\n        /* \"#utility.yul\":13445:13678   */\n      swap2\n      swap1\n      pop\n      jump\t// out\n        /* \"#utility.yul\":13684:13825   */\n    tag_145:\n        /* \"#utility.yul\":13733:13737   */\n      0x00\n        /* \"#utility.yul\":13756:13759   */\n      dup2\n        /* \"#utility.yul\":13748:13759   */\n      swap1\n      pop\n        /* \"#utility.yul\":13779:13782   */\n      dup2\n        /* \"#utility.yul\":13776:13777   */\n      0x00\n        /* \"#utility.yul\":13769:13783   */\n      mstore\n        /* \"#utility.yul\":13813:13817   */\n      0x20\n        /* \"#utility.yul\":13810:13811   */\n      0x00\n        /* \"#utility.yul\":13800:13818   */\n      keccak256\n        /* \"#utility.yul\":13792:13818   */\n      swap1\n      pop\n        /* \"#utility.yul\":13684:13825   */\n      swap2\n      swap1\n      pop\n      jump\t// out\n        /* \"#utility.yul\":13831:13924   */\n    tag_146:\n        /* \"#utility.yul\":13868:13874   */\n      0x00\n        /* \"#utility.yul\":13915:13917   */\n      0x20\n        /* \"#utility.yul\":13910:13912   */\n      0x1f\n        /* \"#utility.yul\":13903:13908   */\n      dup4\n        /* \"#utility.yul\":13899:13913   */\n      add\n        /* \"#utility.yul\":13895:13918   */\n      div\n        /* \"#utility.yul\":13885:13918   */\n      swap1\n      pop\n        /* \"#utility.yul\":13831:13924   */\n      swap2\n      swap1\n      pop\n      jump\t// out\n        /* \"#utility.yul\":13930:14037   */\n    tag_147:\n        /* \"#utility.yul\":13974:13982   */\n      0x00\n        /* \"#utility.yul\":14024:14029   */\n      dup3\n        /* \"#utility.yul\":14018:14022   */\n      dup3\n        /* \"#utility.yul\":14014:14030   */\n      shl\n        /* \"#utility.yul\":13993:14030   */\n      swap1\n      pop\n        /* \"#utility.yul\":13930:14037   */\n      swap3\n      swap2\n      pop\n      pop\n      jump\t// out\n        /* \"#utility.yul\":14043:14436   */\n    tag_148:\n        /* \"#utility.yul\":14112:14118   */\n      0x00\n        /* \"#utility.yul\":14162:14163   */\n      0x08\n        /* \"#utility.yul\":14150:14160   */\n      dup4\n        /* \"#utility.yul\":14146:14164   */\n      mul\n        /* \"#utility.yul\":14185:14282   */\n      tag_297\n        /* \"#utility.yul\":14215:14281   */\n      0xffffffffffffffffffffffffffffffffffffffffffffffffffffffffffffffff\n        /* \"#utility.yul\":14204:14213   */\n      dup3\n        /* \"#utility.yul\":14185:14282   */\n      tag_147\n      jump\t// in\n    tag_297:\n        /* \"#utility.yul\":14303:14342   */\n      tag_298\n        /* \"#utility.yul\":14333:14341   */\n      dup7\n        /* \"#utility.yul\":14322:14331   */\n      dup4\n        /* \"#utility.yul\":14303:14342   */\n      tag_147\n      jump\t// in\n    tag_298:\n        /* \"#utility.yul\":14291:14342   */\n      swap6\n      pop\n        /* \"#utility.yul\":14375:14379   */\n      dup1\n        /* \"#utility.yul\":14371:14380   */\n      not\n        /* \"#utility.yul\":14364:14369   */\n      dup5\n        /* \"#utility.yul\":14360:14381   */\n      and\n        /* \"#utility.yul\":14351:14381   */\n      swap4\n      pop\n        /* \"#utility.yul\":14424:14428   */\n      dup1\n        /* \"#utility.yul\":14414:14422   */\n      dup7\n        /* \"#utility.yul\":14410:14429   */\n      and\n        /* \"#utility.yul\":14403:14408   */\n      dup5\n        /* \"#utility.yul\":14400:14430   */\n      or\n        /* \"#utility.yul\":14390:14430   */\n      swap3\n      pop\n        /* \"#utility.yul\":14119:14436   */\n      pop\n      pop\n        /* \"#utility.yul\":14043:14436   */\n      swap4\n      swap3\n      pop\n      pop\n      pop\n      jump\t// out\n        /* \"#utility.yul\":14442:14502   */\n    tag_149:\n        /* \"#utility.yul\":14470:14473   */\n      0x00\n        /* \"#utility.yul\":14491:14496   */\n      dup2\n        /* \"#utility.yul\":14484:14496   */\n      swap1\n      pop\n        /* \"#utility.yul\":14442:14502   */\n      swap2\n      swap1\n      pop\n      jump\t// out\n        /* \"#utility.yul\":14508:14650   */\n    tag_150:\n        /* \"#utility.yul\":14558:14567   */\n      0x00\n        /* \"#utility.yul\":14591:14644   */\n      tag_301\n        /* \"#utility.yul\":14609:14643   */\n      tag_302\n        /* \"#utility.yul\":14618:14642   */\n      tag_303\n        /* \"#utility.yul\":14636:14641   */\n      dup5\n        /* \"#utility.yul\":14618:14642   */\n      tag_123\n      jump\t// in\n    tag_303:\n        /* \"#utility.yul\":14609:14643   */\n      tag_149\n      jump\t// in\n    tag_302:\n        /* \"#utility.yul\":14591:14644   */\n      tag_123\n      jump\t// in\n    tag_301:\n        /* \"#utility.yul\":14578:14644   */\n      swap1\n      pop\n        /* \"#utility.yul\":14508:14650   */\n      swap2\n      swap1\n      pop\n      jump\t// out\n        /* \"#utility.yul\":14656:14731   */\n    tag_151:\n        /* \"#utility.yul\":14699:14702   */\n      0x00\n        /* \"#utility.yul\":14720:14725   */\n      dup2\n        /* \"#utility.yul\":14713:14725   */\n      swap1\n      pop\n        /* \"#utility.yul\":14656:14731   */\n      swap2\n      swap1\n      pop\n      jump\t// out\n        /* \"#utility.yul\":14737:15006   */\n    tag_152:\n        /* \"#utility.yul\":14847:14886   */\n      tag_306\n        /* \"#utility.yul\":14878:14885   */\n      dup4\n        /* \"#utility.yul\":14847:14886   */\n      tag_150\n      jump\t// in\n    tag_306:\n        /* \"#utility.yul\":14908:14999   */\n      tag_307\n        /* \"#utility.yul\":14957:14998   */\n      tag_308\n        /* \"#utility.yul\":14981:14997   */\n      dup3\n        /* \"#utility.yul\":14957:14998   */\n      tag_151\n      jump\t// in\n    tag_308:\n        /* \"#utility.yul\":14949:14955   */\n      dup5\n        /* \"#utility.yul\":14942:14946   */\n      dup5\n        /* \"#utility.yul\":14936:14947   */\n      sload\n        /* \"#utility.yul\":14908:14999   */\n      tag_148\n      jump\t// in\n    tag_307:\n        /* \"#utility.yul\":14902:14906   */\n      dup3\n        /* \"#utility.yul\":14895:15000   */\n      sstore\n        /* \"#utility.yul\":14813:15006   */\n      pop\n        /* \"#utility.yul\":14737:15006   */\n      pop\n      pop\n      pop\n      jump\t// out\n        /* \"#utility.yul\":15012:15085   */\n    tag_153:\n        /* \"#utility.yul\":15057:15060   */\n      0x00\n        /* \"#utility.yul\":15012:15085   */\n      swap1\n      jump\t// out\n        /* \"#utility.yul\":15091:15280   */\n    tag_154:\n        /* \"#utility.yul\":15168:15200   */\n      tag_311\n      tag_153\n      jump\t// in\n    tag_311:\n        /* \"#utility.yul\":15209:15274   */\n      tag_312\n        /* \"#utility.yul\":15267:15273   */\n      dup2\n        /* \"#utility.yul\":15259:15265   */\n      dup5\n        /* \"#utility.yul\":15253:15257   */\n      dup5\n        /* \"#utility.yul\":15209:15274   */\n      tag_152\n      jump\t// in\n    tag_312:\n        /* \"#utility.yul\":15144:15280   */\n      pop\n        /* \"#utility.yul\":15091:15280   */\n      pop\n      pop\n      jump\t// out\n        /* \"#utility.yul\":15286:15472   */\n    tag_155:\n        /* \"#utility.yul\":15346:15466   */\n    tag_314:\n        /* \"#utility.yul\":15363:15366   */\n      dup2\n        /* \"#utility.yul\":15356:15361   */\n      dup2\n        /* \"#utility.yul\":15353:15367   */\n      lt\n        /* \"#utility.yul\":15346:15466   */\n      iszero\n      tag_316\n      jumpi\n        /* \"#utility.yul\":15417:15456   */\n      tag_317\n        /* \"#utility.yul\":15454:15455   */\n      0x00\n        /* \"#utility.yul\":15447:15452   */\n      dup3\n        /* \"#utility.yul\":15417:15456   */\n      tag_154\n      jump\t// in\n    tag_317:\n        /* \"#utility.yul\":15390:15391   */\n      0x01\n        /* \"#utility.yul\":15383:15388   */\n      dup2\n        /* \"#utility.yul\":15379:15392   */\n      add\n        /* \"#utility.yul\":15370:15392   */\n      swap1\n      pop\n        /* \"#utility.yul\":15346:15466   */\n      jump(tag_314)\n    tag_316:\n        /* \"#utility.yul\":15286:15472   */\n      pop\n      pop\n      jump\t// out\n        /* \"#utility.yul\":15478:16021   */\n    tag_156:\n        /* \"#utility.yul\":15579:15581   */\n      0x1f\n        /* \"#utility.yul\":15574:15577   */\n      dup3\n        /* \"#utility.yul\":15571:15582   */\n      gt\n        /* \"#utility.yul\":15568:16014   */\n      iszero\n      tag_319\n      jumpi\n        /* \"#utility.yul\":15613:15651   */\n      tag_320\n        /* \"#utility.yul\":15645:15650   */\n      dup2\n        /* \"#utility.yul\":15613:15651   */\n      tag_145\n      jump\t// in\n    tag_320:\n        /* \"#utility.yul\":15697:15726   */\n      tag_321\n        /* \"#utility.yul\":15715:15725   */\n      dup5\n        /* \"#utility.yul\":15697:15726   */\n      tag_146\n      jump\t// in\n    tag_321:\n        /* \"#utility.yul\":15687:15695   */\n      dup2\n        /* \"#utility.yul\":15683:15727   */\n      add\n        /* \"#utility.yul\":15880:15882   */\n      0x20\n        /* \"#utility.yul\":15868:15878   */\n      dup6\n        /* \"#utility.yul\":15865:15883   */\n      lt\n        /* \"#utility.yul\":15862:15911   */\n      iszero\n      tag_322\n      jumpi\n        /* \"#utility.yul\":15901:15909   */\n      dup2\n        /* \"#utility.yul\":15886:15909   */\n      swap1\n      pop\n        /* \"#utility.yul\":15862:15911   */\n    tag_322:\n        /* \"#utility.yul\":15924:16004   */\n      tag_323\n        /* \"#utility.yul\":15980:16002   */\n      tag_324\n        /* \"#utility.yul\":15998:16001   */\n      dup6\n        /* \"#utility.yul\":15980:16002   */\n      tag_146\n      jump\t// in\n    tag_324:\n        /* \"#utility.yul\":15970:15978   */\n      dup4\n        /* \"#utility.yul\":15966:16003   */\n      add\n        /* \"#utility.yul\":15953:15964   */\n      dup3\n        /* \"#utility.yul\":15924:16004   */\n      tag_155\n      jump\t// in\n    tag_323:\n        /* \"#utility.yul\":15583:16014   */\n      pop\n      pop\n        /* \"#utility.yul\":15568:16014   */\n    tag_319:\n        /* \"#utility.yul\":15478:16021   */\n      pop\n      pop\n      pop\n      jump\t// out\n        /* \"#utility.yul\":16027:16144   */\n    tag_157:\n        /* \"#utility.yul\":16081:16089   */\n      0x00\n        /* \"#utility.yul\":16131:16136   */\n      dup3\n        /* \"#utility.yul\":16125:16129   */\n      dup3\n        /* \"#utility.yul\":16121:16137   */\n      shr\n        /* \"#utility.yul\":16100:16137   */\n      swap1\n      pop\n        /* \"#utility.yul\":16027:16144   */\n      swap3\n      swap2\n      pop\n      pop\n      jump\t// out\n        /* \"#utility.yul\":16150:16319   */\n    tag_158:\n        /* \"#utility.yul\":16194:16200   */\n      0x00\n        /* \"#utility.yul\":16227:16278   */\n      tag_327\n        /* \"#utility.yul\":16275:16276   */\n      0x00\n        /* \"#utility.yul\":16271:16277   */\n      not\n        /* \"#utility.yul\":16263:16268   */\n      dup5\n        /* \"#utility.yul\":16260:16261   */\n      0x08\n        /* \"#utility.yul\":16256:16269   */\n      mul\n        /* \"#utility.yul\":16227:16278   */\n      tag_157\n      jump\t// in\n    tag_327:\n        /* \"#utility.yul\":16223:16279   */\n      not\n        /* \"#utility.yul\":16308:16312   */\n      dup1\n        /* \"#utility.yul\":16302:16306   */\n      dup4\n        /* \"#utility.yul\":16298:16313   */\n      and\n        /* \"#utility.yul\":16288:16313   */\n      swap2\n      pop\n        /* \"#utility.yul\":16201:16319   */\n      pop\n        /* \"#utility.yul\":16150:16319   */\n      swap3\n      swap2\n      pop\n      pop\n      jump\t// out\n        /* \"#utility.yul\":16324:16619   */\n    tag_159:\n        /* \"#utility.yul\":16400:16404   */\n      0x00\n        /* \"#utility.yul\":16546:16575   */\n      tag_329\n        /* \"#utility.yul\":16571:16574   */\n      dup4\n        /* \"#utility.yul\":16565:16569   */\n      dup4\n        /* \"#utility.yul\":16546:16575   */\n      tag_158\n      jump\t// in\n    tag_329:\n        /* \"#utility.yul\":16538:16575   */\n      swap2\n      pop\n        /* \"#utility.yul\":16608:16611   */\n      dup3\n        /* \"#utility.yul\":16605:16606   */\n      0x02\n        /* \"#utility.yul\":16601:16612   */\n      mul\n        /* \"#utility.yul\":16595:16599   */\n      dup3\n        /* \"#utility.yul\":16592:16613   */\n      or\n        /* \"#utility.yul\":16584:16613   */\n      swap1\n      pop\n        /* \"#utility.yul\":16324:16619   */\n      swap3\n      swap2\n      pop\n      pop\n      jump\t// out\n        /* \"#utility.yul\":16624:18019   */\n    tag_103:\n        /* \"#utility.yul\":16741:16778   */\n      tag_331\n        /* \"#utility.yul\":16774:16777   */\n      dup3\n        /* \"#utility.yul\":16741:16778   */\n      tag_104\n      jump\t// in\n    tag_331:\n        /* \"#utility.yul\":16843:16861   */\n      0xffffffffffffffff\n        /* \"#utility.yul\":16835:16841   */\n      dup2\n        /* \"#utility.yul\":16832:16862   */\n      gt\n        /* \"#utility.yul\":16829:16885   */\n      iszero\n      tag_332\n      jumpi\n        /* \"#utility.yul\":16865:16883   */\n      tag_333\n      tag_83\n      jump\t// in\n    tag_333:\n        /* \"#utility.yul\":16829:16885   */\n    tag_332:\n        /* \"#utility.yul\":16909:16947   */\n      tag_334\n        /* \"#utility.yul\":16941:16945   */\n      dup3\n        /* \"#utility.yul\":16935:16946   */\n      sload\n        /* \"#utility.yul\":16909:16947   */\n      tag_54\n      jump\t// in\n    tag_334:\n        /* \"#utility.yul\":16994:17061   */\n      tag_335\n        /* \"#utility.yul\":17054:17060   */\n      dup3\n        /* \"#utility.yul\":17046:17052   */\n      dup3\n        /* \"#utility.yul\":17040:17044   */\n      dup6\n        /* \"#utility.yul\":16994:17061   */\n      tag_156\n      jump\t// in\n    tag_335:\n        /* \"#utility.yul\":17088:17089   */\n      0x00\n        /* \"#utility.yul\":17112:17116   */\n      0x20\n        /* \"#utility.yul\":17099:17116   */\n      swap1\n      pop\n        /* \"#utility.yul\":17144:17146   */\n      0x1f\n        /* \"#utility.yul\":17136:17142   */\n      dup4\n        /* \"#utility.yul\":17133:17147   */\n      gt\n        /* \"#utility.yul\":17161:17162   */\n      0x01\n        /* \"#utility.yul\":17156:17774   */\n      dup2\n      eq\n      tag_337\n      jumpi\n        /* \"#utility.yul\":17818:17819   */\n      0x00\n        /* \"#utility.yul\":17835:17841   */\n      dup5\n        /* \"#utility.yul\":17832:17909   */\n      iszero\n      tag_338\n      jumpi\n        /* \"#utility.yul\":17884:17893   */\n      dup3\n        /* \"#utility.yul\":17879:17882   */\n      dup8\n        /* \"#utility.yul\":17875:17894   */\n      add\n        /* \"#utility.yul\":17869:17895   */\n      mload\n        /* \"#utility.yul\":17860:17895   */\n      swap1\n      pop\n        /* \"#utility.yul\":17832:17909   */\n    tag_338:\n        /* \"#utility.yul\":17935:18002   */\n      tag_339\n        /* \"#utility.yul\":17995:18001   */\n      dup6\n        /* \"#utility.yul\":17988:17993   */\n      dup3\n        /* \"#utility.yul\":17935:18002   */\n      tag_159\n      jump\t// in\n    tag_339:\n        /* \"#utility.yul\":17929:17933   */\n      dup7\n        /* \"#utility.yul\":17922:18003   */\n      sstore\n        /* \"#utility.yul\":17791:18013   */\n      pop\n        /* \"#utility.yul\":17126:18013   */\n      jump(tag_336)\n        /* \"#utility.yul\":17156:17774   */\n    tag_337:\n        /* \"#utility.yul\":17208:17212   */\n      0x1f\n        /* \"#utility.yul\":17204:17213   */\n      not\n        /* \"#utility.yul\":17196:17202   */\n      dup5\n        /* \"#utility.yul\":17192:17214   */\n      and\n        /* \"#utility.yul\":17242:17279   */\n      tag_340\n        /* \"#utility.yul\":17274:17278   */\n      dup7\n        /* \"#utility.yul\":17242:17279   */\n      tag_145\n      jump\t// in\n    tag_340:\n        /* \"#utility.yul\":17301:17302   */\n      0x00\n        /* \"#utility.yul\":17315:17523   */\n    tag_341:\n        /* \"#utility.yul\":17329:17336   */\n      dup3\n        /* \"#utility.yul\":17326:17327   */\n      dup2\n        /* \"#utility.yul\":17323:17337   */\n      lt\n        /* \"#utility.yul\":17315:17523   */\n      iszero\n      tag_343\n      jumpi\n        /* \"#utility.yul\":17408:17417   */\n      dup5\n        /* \"#utility.yul\":17403:17406   */\n      dup10\n        /* \"#utility.yul\":17399:17418   */\n      add\n        /* \"#utility.yul\":17393:17419   */\n      mload\n        /* \"#utility.yul\":17385:17391   */\n      dup3\n        /* \"#utility.yul\":17378:17420   */\n      sstore\n        /* \"#utility.yul\":17459:17460   */\n      0x01\n        /* \"#utility.yul\":17451:17457   */\n      dup3\n        /* \"#utility.yul\":17447:17461   */\n      add\n        /* \"#utility.yul\":17437:17461   */\n      swap2\n      pop\n        /* \"#utility.yul\":17506:17508   */\n      0x20\n        /* \"#utility.yul\":17495:17504   */\n      dup6\n        /* \"#utility.yul\":17491:17509   */\n      add\n        /* \"#utility.yul\":17478:17509   */\n      swap5\n      pop\n        /* \"#utility.yul\":17352:17356   */\n      0x20\n        /* \"#utility.yul\":17349:17350   */\n      dup2\n        /* \"#utility.yul\":17345:17357   */\n      add\n        /* \"#utility.yul\":17340:17357   */\n      swap1\n      pop\n        /* \"#utility.yul\":17315:17523   */\n      jump(tag_341)\n    tag_343:\n        /* \"#utility.yul\":17551:17557   */\n      dup7\n        /* \"#utility.yul\":17542:17549   */\n      dup4\n        /* \"#utility.yul\":17539:17558   */\n      lt\n        /* \"#utility.yul\":17536:17715   */\n      iszero\n      tag_344\n      jumpi\n        /* \"#utility.yul\":17609:17618   */\n      dup5\n        /* \"#utility.yul\":17604:17607   */\n      dup10\n        /* \"#utility.yul\":17600:17619   */\n      add\n        /* \"#utility.yul\":17594:17620   */\n      mload\n        /* \"#utility.yul\":17652:17700   */\n      tag_345\n        /* \"#utility.yul\":17694:17698   */\n      0x1f\n        /* \"#utility.yul\":17686:17692   */\n      dup10\n        /* \"#utility.yul\":17682:17699   */\n      and\n        /* \"#utility.yul\":17671:17680   */\n      dup3\n        /* \"#utility.yul\":17652:17700   */\n      tag_158\n      jump\t// in\n    tag_345:\n        /* \"#utility.yul\":17644:17650   */\n      dup4\n        /* \"#utility.yul\":17637:17701   */\n      sstore\n        /* \"#utility.yul\":17559:17715   */\n      pop\n        /* \"#utility.yul\":17536:17715   */\n    tag_344:\n        /* \"#utility.yul\":17761:17762   */\n      0x01\n        /* \"#utility.yul\":17757:17758   */\n      0x02\n        /* \"#utility.yul\":17749:17755   */\n      dup9\n        /* \"#utility.yul\":17745:17759   */\n      mul\n        /* \"#utility.yul\":17741:17763   */\n      add\n        /* \"#utility.yul\":17735:17739   */\n      dup9\n        /* \"#utility.yul\":17728:17764   */\n      sstore\n        /* \"#utility.yul\":17163:17774   */\n      pop\n      pop\n      pop\n        /* \"#utility.yul\":17126:18013   */\n    tag_336:\n      pop\n        /* \"#utility.yul\":16716:18019   */\n      pop\n      pop\n      pop\n        /* \"#utility.yul\":16624:18019   */\n      pop\n      pop\n      jump\t// out\n\n    auxdata: 0xa264697066735822122031065aa8e59c7f5f2d4071557a2226ee1e6071b934dede849092379be8d5705964736f6c63430008160033\n}\n",
				"bytecode": {
					"linkReferences": {},
					"object": "608060405234801561000f575f80fd5b50335f806101000a81548173ffffffffffffffffffffffffffffffffffffffff021916908373ffffffffffffffffffffffffffffffffffffffff16021790555061105a8061005c5f395ff3fe608060405234801561000f575f80fd5b5060043610610060575f3560e01c806328dd80451461006457806351181b2814610082578063d485f61b1461009e578063dfd50f52146100bc578063f437bc59146100ed578063f62d18881461010b575b5f80fd5b61006c610127565b6040516100799190610762565b60405180910390f35b61009c600480360381019061009791906108bf565b61031d565b005b6100a66104e6565b6040516100b391906109c6565b60405180910390f35b6100d660048036038101906100d19190610a10565b6105a0565b6040516100e4929190610a4a565b60405180910390f35b6100f5610655565b6040516101029190610ab7565b60405180910390f35b610125600480360381019061012091906108bf565b610678565b005b60605f8054906101000a900473ffffffffffffffffffffffffffffffffffffffff1673ffffffffffffffffffffffffffffffffffffffff163373ffffffffffffffffffffffffffffffffffffffff16146101b6576040517f08c379a00000000000000000000000000000000000000000000000000000000081526004016101ad90610b1a565b60405180910390fd5b5f60605f5b6002805490508110156102d25782600282815481106101dd576101dc610b38565b5b905f5260205f2090600202016001015411156102c5576002818154811061020757610206610b38565b5b905f5260205f2090600202016001015492506002818154811061022d5761022c610b38565b5b905f5260205f2090600202015f01805461024690610b92565b80601f016020809104026020016040519081016040528092919081815260200182805461027290610b92565b80156102bd5780601f10610294576101008083540402835291602001916102bd565b820191905f5260205f20905b8154815290600101906020018083116102a057829003601f168201915b505050505091505b80806001019150506101bb565b505f8211610315576040517f08c379a000000000000000000000000000000000000000000000000000000000815260040161030c90610c0c565b60405180910390fd5b809250505090565b5f151560015f3373ffffffffffffffffffffffffffffffffffffffff1673ffffffffffffffffffffffffffffffffffffffff1681526020019081526020015f205f015f9054906101000a900460ff161515146103ae576040517f08c379a00000000000000000000000000000000000000000000000000000000081526004016103a590610c74565b60405180910390fd5b6001805f3373ffffffffffffffffffffffffffffffffffffffff1673ffffffffffffffffffffffffffffffffffffffff1681526020019081526020015f205f015f6101000a81548160ff0219169083151502179055505f5b6002805490508110156104e25781805190602001206002828154811061042f5761042e610b38565b5b905f5260205f2090600202015f0160405161044a9190610d2e565b6040518091039020036104d5578060015f3373ffffffffffffffffffffffffffffffffffffffff1673ffffffffffffffffffffffffffffffffffffffff1681526020019081526020015f2060010181905550600281815481106104b0576104af610b38565b5b905f5260205f2090600202016001015f8154809291906104cf90610d71565b91905055505b8080600101915050610406565b5050565b60605f60028054905067ffffffffffffffff8111156105085761050761079b565b5b6040519080825280602002602001820160405280156105365781602001602082028036833780820191505090505b5090505f5b600280549050811015610598576002818154811061055c5761055b610b38565b5b905f5260205f2090600202016001015482828151811061057f5761057e610b38565b5b602002602001018181525050808060010191505061053b565b508091505090565b600281815481106105af575f80fd5b905f5260205f2090600202015f91509050805f0180546105ce90610b92565b80601f01602080910402602001604051908101604052809291908181526020018280546105fa90610b92565b80156106455780601f1061061c57610100808354040283529160200191610645565b820191905f5260205f20905b81548152906001019060200180831161062857829003601f168201915b5050505050908060010154905082565b5f8054906101000a900473ffffffffffffffffffffffffffffffffffffffff1681565b600260405180604001604052808381526020015f815250908060018154018082558091505060019003905f5260205f2090600202015f909190919091505f820151815f0190816106c89190610f55565b5060208201518160010155505050565b5f81519050919050565b5f82825260208201905092915050565b5f5b8381101561070f5780820151818401526020810190506106f4565b5f8484015250505050565b5f601f19601f8301169050919050565b5f610734826106d8565b61073e81856106e2565b935061074e8185602086016106f2565b6107578161071a565b840191505092915050565b5f6020820190508181035f83015261077a818461072a565b905092915050565b5f604051905090565b5f80fd5b5f80fd5b5f80fd5b5f80fd5b7f4e487b71000000000000000000000000000000000000000000000000000000005f52604160045260245ffd5b6107d18261071a565b810181811067ffffffffffffffff821117156107f0576107ef61079b565b5b80604052505050565b5f610802610782565b905061080e82826107c8565b919050565b5f67ffffffffffffffff82111561082d5761082c61079b565b5b6108368261071a565b9050602081019050919050565b828183375f83830152505050565b5f61086361085e84610813565b6107f9565b90508281526020810184848401111561087f5761087e610797565b5b61088a848285610843565b509392505050565b5f82601f8301126108a6576108a5610793565b5b81356108b6848260208601610851565b91505092915050565b5f602082840312156108d4576108d361078b565b5b5f82013567ffffffffffffffff8111156108f1576108f061078f565b5b6108fd84828501610892565b91505092915050565b5f81519050919050565b5f82825260208201905092915050565b5f819050602082019050919050565b5f819050919050565b6109418161092f565b82525050565b5f6109528383610938565b60208301905092915050565b5f602082019050919050565b5f61097482610906565b61097e8185610910565b935061098983610920565b805f5b838110156109b95781516109a08882610947565b97506109ab8361095e565b92505060018101905061098c565b5085935050505092915050565b5f6020820190508181035f8301526109de818461096a565b905092915050565b6109ef8161092f565b81146109f9575f80fd5b50565b5f81359050610a0a816109e6565b92915050565b5f60208284031215610a2557610a2461078b565b5b5f610a32848285016109fc565b91505092915050565b610a448161092f565b82525050565b5f6040820190508181035f830152610a62818561072a565b9050610a716020830184610a3b565b9392505050565b5f73ffffffffffffffffffffffffffffffffffffffff82169050919050565b5f610aa182610a78565b9050919050565b610ab181610a97565b82525050565b5f602082019050610aca5f830184610aa8565b92915050565b7f4f6e6c792074686520686f73742063616e2065786563757465207468697300005f82015250565b5f610b04601e836106e2565b9150610b0f82610ad0565b602082019050919050565b5f6020820190508181035f830152610b3181610af8565b9050919050565b7f4e487b71000000000000000000000000000000000000000000000000000000005f52603260045260245ffd5b7f4e487b71000000000000000000000000000000000000000000000000000000005f52602260045260245ffd5b5f6002820490506001821680610ba957607f821691505b602082108103610bbc57610bbb610b65565b5b50919050565b7f4e6f20766f746573207265636f726465640000000000000000000000000000005f82015250565b5f610bf66011836106e2565b9150610c0182610bc2565b602082019050919050565b5f6020820190508181035f830152610c2381610bea565b9050919050565b7f596f75206861766520616c726561647920766f746564000000000000000000005f82015250565b5f610c5e6016836106e2565b9150610c6982610c2a565b602082019050919050565b5f6020820190508181035f830152610c8b81610c52565b9050919050565b5f81905092915050565b5f819050815f5260205f209050919050565b5f8154610cba81610b92565b610cc48186610c92565b9450600182165f8114610cde5760018114610cf357610d25565b60ff1983168652811515820286019350610d25565b610cfc85610c9c565b5f5b83811015610d1d57815481890152600182019150602081019050610cfe565b838801955050505b50505092915050565b5f610d398284610cae565b915081905092915050565b7f4e487b71000000000000000000000000000000000000000000000000000000005f52601160045260245ffd5b5f610d7b8261092f565b91507fffffffffffffffffffffffffffffffffffffffffffffffffffffffffffffffff8203610dad57610dac610d44565b5b600182019050919050565b5f819050815f5260205f209050919050565b5f6020601f8301049050919050565b5f82821b905092915050565b5f60088302610e147fffffffffffffffffffffffffffffffffffffffffffffffffffffffffffffffff82610dd9565b610e1e8683610dd9565b95508019841693508086168417925050509392505050565b5f819050919050565b5f610e59610e54610e4f8461092f565b610e36565b61092f565b9050919050565b5f819050919050565b610e7283610e3f565b610e86610e7e82610e60565b848454610de5565b825550505050565b5f90565b610e9a610e8e565b610ea5818484610e69565b505050565b5b81811015610ec857610ebd5f82610e92565b600181019050610eab565b5050565b601f821115610f0d57610ede81610db8565b610ee784610dca565b81016020851015610ef6578190505b610f0a610f0285610dca565b830182610eaa565b50505b505050565b5f82821c905092915050565b5f610f2d5f1984600802610f12565b1980831691505092915050565b5f610f458383610f1e565b9150826002028217905092915050565b610f5e826106d8565b67ffffffffffffffff811115610f7757610f7661079b565b5b610f818254610b92565b610f8c828285610ecc565b5f60209050601f831160018114610fbd575f8415610fab578287015190505b610fb58582610f3a565b86555061101c565b601f198416610fcb86610db8565b5f5b82811015610ff257848901518255600182019150602085019450602081019050610fcd565b8683101561100f578489015161100b601f891682610f1e565b8355505b6001600288020188555050505b50505050505056fea264697066735822122031065aa8e59c7f5f2d4071557a2226ee1e6071b934dede849092379be8d5705964736f6c63430008160033",
					"opcodes": "PUSH1 0x80 PUSH1 0x40 MSTORE CALLVALUE DUP1 ISZERO PUSH2 0xF JUMPI PUSH0 DUP1 REVERT JUMPDEST POP CALLER PUSH0 DUP1 PUSH2 0x100 EXP DUP2 SLOAD DUP2 PUSH20 0xFFFFFFFFFFFFFFFFFFFFFFFFFFFFFFFFFFFFFFFF MUL NOT AND SWAP1 DUP4 PUSH20 0xFFFFFFFFFFFFFFFFFFFFFFFFFFFFFFFFFFFFFFFF AND MUL OR SWAP1 SSTORE POP PUSH2 0x105A DUP1 PUSH2 0x5C PUSH0 CODECOPY PUSH0 RETURN INVALID PUSH1 0x80 PUSH1 0x40 MSTORE CALLVALUE DUP1 ISZERO PUSH2 0xF JUMPI PUSH0 DUP1 REVERT JUMPDEST POP PUSH1 0x4 CALLDATASIZE LT PUSH2 0x60 JUMPI PUSH0 CALLDATALOAD PUSH1 0xE0 SHR DUP1 PUSH4 0x28DD8045 EQ PUSH2 0x64 JUMPI DUP1 PUSH4 0x51181B28 EQ PUSH2 0x82 JUMPI DUP1 PUSH4 0xD485F61B EQ PUSH2 0x9E JUMPI DUP1 PUSH4 0xDFD50F52 EQ PUSH2 0xBC JUMPI DUP1 PUSH4 0xF437BC59 EQ PUSH2 0xED JUMPI DUP1 PUSH4 0xF62D1888 EQ PUSH2 0x10B JUMPI JUMPDEST PUSH0 DUP1 REVERT JUMPDEST PUSH2 0x6C PUSH2 0x127 JUMP JUMPDEST PUSH1 0x40 MLOAD PUSH2 0x79 SWAP2 SWAP1 PUSH2 0x762 JUMP JUMPDEST PUSH1 0x40 MLOAD DUP1 SWAP2 SUB SWAP1 RETURN JUMPDEST PUSH2 0x9C PUSH1 0x4 DUP1 CALLDATASIZE SUB DUP2 ADD SWAP1 PUSH2 0x97 SWAP2 SWAP1 PUSH2 0x8BF JUMP JUMPDEST PUSH2 0x31D JUMP JUMPDEST STOP JUMPDEST PUSH2 0xA6 PUSH2 0x4E6 JUMP JUMPDEST PUSH1 0x40 MLOAD PUSH2 0xB3 SWAP2 SWAP1 PUSH2 0x9C6 JUMP JUMPDEST PUSH1 0x40 MLOAD DUP1 SWAP2 SUB SWAP1 RETURN JUMPDEST PUSH2 0xD6 PUSH1 0x4 DUP1 CALLDATASIZE SUB DUP2 ADD SWAP1 PUSH2 0xD1 SWAP2 SWAP1 PUSH2 0xA10 JUMP JUMPDEST PUSH2 0x5A0 JUMP JUMPDEST PUSH1 0x40 MLOAD PUSH2 0xE4 SWAP3 SWAP2 SWAP1 PUSH2 0xA4A JUMP JUMPDEST PUSH1 0x40 MLOAD DUP1 SWAP2 SUB SWAP1 RETURN JUMPDEST PUSH2 0xF5 PUSH2 0x655 JUMP JUMPDEST PUSH1 0x40 MLOAD PUSH2 0x102 SWAP2 SWAP1 PUSH2 0xAB7 JUMP JUMPDEST PUSH1 0x40 MLOAD DUP1 SWAP2 SUB SWAP1 RETURN JUMPDEST PUSH2 0x125 PUSH1 0x4 DUP1 CALLDATASIZE SUB DUP2 ADD SWAP1 PUSH2 0x120 SWAP2 SWAP1 PUSH2 0x8BF JUMP JUMPDEST PUSH2 0x678 JUMP JUMPDEST STOP JUMPDEST PUSH1 0x60 PUSH0 DUP1 SLOAD SWAP1 PUSH2 0x100 EXP SWAP1 DIV PUSH20 0xFFFFFFFFFFFFFFFFFFFFFFFFFFFFFFFFFFFFFFFF AND PUSH20 0xFFFFFFFFFFFFFFFFFFFFFFFFFFFFFFFFFFFFFFFF AND CALLER PUSH20 0xFFFFFFFFFFFFFFFFFFFFFFFFFFFFFFFFFFFFFFFF AND EQ PUSH2 0x1B6 JUMPI PUSH1 0x40 MLOAD PUSH32 0x8C379A000000000000000000000000000000000000000000000000000000000 DUP2 MSTORE PUSH1 0x4 ADD PUSH2 0x1AD SWAP1 PUSH2 0xB1A JUMP JUMPDEST PUSH1 0x40 MLOAD DUP1 SWAP2 SUB SWAP1 REVERT JUMPDEST PUSH0 PUSH1 0x60 PUSH0 JUMPDEST PUSH1 0x2 DUP1 SLOAD SWAP1 POP DUP2 LT ISZERO PUSH2 0x2D2 JUMPI DUP3 PUSH1 0x2 DUP3 DUP2 SLOAD DUP2 LT PUSH2 0x1DD JUMPI PUSH2 0x1DC PUSH2 0xB38 JUMP JUMPDEST JUMPDEST SWAP1 PUSH0 MSTORE PUSH1 0x20 PUSH0 KECCAK256 SWAP1 PUSH1 0x2 MUL ADD PUSH1 0x1 ADD SLOAD GT ISZERO PUSH2 0x2C5 JUMPI PUSH1 0x2 DUP2 DUP2 SLOAD DUP2 LT PUSH2 0x207 JUMPI PUSH2 0x206 PUSH2 0xB38 JUMP JUMPDEST JUMPDEST SWAP1 PUSH0 MSTORE PUSH1 0x20 PUSH0 KECCAK256 SWAP1 PUSH1 0x2 MUL ADD PUSH1 0x1 ADD SLOAD SWAP3 POP PUSH1 0x2 DUP2 DUP2 SLOAD DUP2 LT PUSH2 0x22D JUMPI PUSH2 0x22C PUSH2 0xB38 JUMP JUMPDEST JUMPDEST SWAP1 PUSH0 MSTORE PUSH1 0x20 PUSH0 KECCAK256 SWAP1 PUSH1 0x2 MUL ADD PUSH0 ADD DUP1 SLOAD PUSH2 0x246 SWAP1 PUSH2 0xB92 JUMP JUMPDEST DUP1 PUSH1 0x1F ADD PUSH1 0x20 DUP1 SWAP2 DIV MUL PUSH1 0x20 ADD PUSH1 0x40 MLOAD SWAP1 DUP2 ADD PUSH1 0x40 MSTORE DUP1 SWAP3 SWAP2 SWAP1 DUP2 DUP2 MSTORE PUSH1 0x20 ADD DUP3 DUP1 SLOAD PUSH2 0x272 SWAP1 PUSH2 0xB92 JUMP JUMPDEST DUP1 ISZERO PUSH2 0x2BD JUMPI DUP1 PUSH1 0x1F LT PUSH2 0x294 JUMPI PUSH2 0x100 DUP1 DUP4 SLOAD DIV MUL DUP4 MSTORE SWAP2 PUSH1 0x20 ADD SWAP2 PUSH2 0x2BD JUMP JUMPDEST DUP3 ADD SWAP2 SWAP1 PUSH0 MSTORE PUSH1 0x20 PUSH0 KECCAK256 SWAP1 JUMPDEST DUP2 SLOAD DUP2 MSTORE SWAP1 PUSH1 0x1 ADD SWAP1 PUSH1 0x20 ADD DUP1 DUP4 GT PUSH2 0x2A0 JUMPI DUP3 SWAP1 SUB PUSH1 0x1F AND DUP3 ADD SWAP2 JUMPDEST POP POP POP POP POP SWAP2 POP JUMPDEST DUP1 DUP1 PUSH1 0x1 ADD SWAP2 POP POP PUSH2 0x1BB JUMP JUMPDEST POP PUSH0 DUP3 GT PUSH2 0x315 JUMPI PUSH1 0x40 MLOAD PUSH32 0x8C379A000000000000000000000000000000000000000000000000000000000 DUP2 MSTORE PUSH1 0x4 ADD PUSH2 0x30C SWAP1 PUSH2 0xC0C JUMP JUMPDEST PUSH1 0x40 MLOAD DUP1 SWAP2 SUB SWAP1 REVERT JUMPDEST DUP1 SWAP3 POP POP POP SWAP1 JUMP JUMPDEST PUSH0 ISZERO ISZERO PUSH1 0x1 PUSH0 CALLER PUSH20 0xFFFFFFFFFFFFFFFFFFFFFFFFFFFFFFFFFFFFFFFF AND PUSH20 0xFFFFFFFFFFFFFFFFFFFFFFFFFFFFFFFFFFFFFFFF AND DUP2 MSTORE PUSH1 0x20 ADD SWAP1 DUP2 MSTORE PUSH1 0x20 ADD PUSH0 KECCAK256 PUSH0 ADD PUSH0 SWAP1 SLOAD SWAP1 PUSH2 0x100 EXP SWAP1 DIV PUSH1 0xFF AND ISZERO ISZERO EQ PUSH2 0x3AE JUMPI PUSH1 0x40 MLOAD PUSH32 0x8C379A000000000000000000000000000000000000000000000000000000000 DUP2 MSTORE PUSH1 0x4 ADD PUSH2 0x3A5 SWAP1 PUSH2 0xC74 JUMP JUMPDEST PUSH1 0x40 MLOAD DUP1 SWAP2 SUB SWAP1 REVERT JUMPDEST PUSH1 0x1 DUP1 PUSH0 CALLER PUSH20 0xFFFFFFFFFFFFFFFFFFFFFFFFFFFFFFFFFFFFFFFF AND PUSH20 0xFFFFFFFFFFFFFFFFFFFFFFFFFFFFFFFFFFFFFFFF AND DUP2 MSTORE PUSH1 0x20 ADD SWAP1 DUP2 MSTORE PUSH1 0x20 ADD PUSH0 KECCAK256 PUSH0 ADD PUSH0 PUSH2 0x100 EXP DUP2 SLOAD DUP2 PUSH1 0xFF MUL NOT AND SWAP1 DUP4 ISZERO ISZERO MUL OR SWAP1 SSTORE POP PUSH0 JUMPDEST PUSH1 0x2 DUP1 SLOAD SWAP1 POP DUP2 LT ISZERO PUSH2 0x4E2 JUMPI DUP2 DUP1 MLOAD SWAP1 PUSH1 0x20 ADD KECCAK256 PUSH1 0x2 DUP3 DUP2 SLOAD DUP2 LT PUSH2 0x42F JUMPI PUSH2 0x42E PUSH2 0xB38 JUMP JUMPDEST JUMPDEST SWAP1 PUSH0 MSTORE PUSH1 0x20 PUSH0 KECCAK256 SWAP1 PUSH1 0x2 MUL ADD PUSH0 ADD PUSH1 0x40 MLOAD PUSH2 0x44A SWAP2 SWAP1 PUSH2 0xD2E JUMP JUMPDEST PUSH1 0x40 MLOAD DUP1 SWAP2 SUB SWAP1 KECCAK256 SUB PUSH2 0x4D5 JUMPI DUP1 PUSH1 0x1 PUSH0 CALLER PUSH20 0xFFFFFFFFFFFFFFFFFFFFFFFFFFFFFFFFFFFFFFFF AND PUSH20 0xFFFFFFFFFFFFFFFFFFFFFFFFFFFFFFFFFFFFFFFF AND DUP2 MSTORE PUSH1 0x20 ADD SWAP1 DUP2 MSTORE PUSH1 0x20 ADD PUSH0 KECCAK256 PUSH1 0x1 ADD DUP2 SWAP1 SSTORE POP PUSH1 0x2 DUP2 DUP2 SLOAD DUP2 LT PUSH2 0x4B0 JUMPI PUSH2 0x4AF PUSH2 0xB38 JUMP JUMPDEST JUMPDEST SWAP1 PUSH0 MSTORE PUSH1 0x20 PUSH0 KECCAK256 SWAP1 PUSH1 0x2 MUL ADD PUSH1 0x1 ADD PUSH0 DUP2 SLOAD DUP1 SWAP3 SWAP2 SWAP1 PUSH2 0x4CF SWAP1 PUSH2 0xD71 JUMP JUMPDEST SWAP2 SWAP1 POP SSTORE POP JUMPDEST DUP1 DUP1 PUSH1 0x1 ADD SWAP2 POP POP PUSH2 0x406 JUMP JUMPDEST POP POP JUMP JUMPDEST PUSH1 0x60 PUSH0 PUSH1 0x2 DUP1 SLOAD SWAP1 POP PUSH8 0xFFFFFFFFFFFFFFFF DUP2 GT ISZERO PUSH2 0x508 JUMPI PUSH2 0x507 PUSH2 0x79B JUMP JUMPDEST JUMPDEST PUSH1 0x40 MLOAD SWAP1 DUP1 DUP3 MSTORE DUP1 PUSH1 0x20 MUL PUSH1 0x20 ADD DUP3 ADD PUSH1 0x40 MSTORE DUP1 ISZERO PUSH2 0x536 JUMPI DUP2 PUSH1 0x20 ADD PUSH1 0x20 DUP3 MUL DUP1 CALLDATASIZE DUP4 CALLDATACOPY DUP1 DUP3 ADD SWAP2 POP POP SWAP1 POP JUMPDEST POP SWAP1 POP PUSH0 JUMPDEST PUSH1 0x2 DUP1 SLOAD SWAP1 POP DUP2 LT ISZERO PUSH2 0x598 JUMPI PUSH1 0x2 DUP2 DUP2 SLOAD DUP2 LT PUSH2 0x55C JUMPI PUSH2 0x55B PUSH2 0xB38 JUMP JUMPDEST JUMPDEST SWAP1 PUSH0 MSTORE PUSH1 0x20 PUSH0 KECCAK256 SWAP1 PUSH1 0x2 MUL ADD PUSH1 0x1 ADD SLOAD DUP3 DUP3 DUP2 MLOAD DUP2 LT PUSH2 0x57F JUMPI PUSH2 0x57E PUSH2 0xB38 JUMP JUMPDEST JUMPDEST PUSH1 0x20 MUL PUSH1 0x20 ADD ADD DUP2 DUP2 MSTORE POP POP DUP1 DUP1 PUSH1 0x1 ADD SWAP2 POP POP PUSH2 0x53B JUMP JUMPDEST POP DUP1 SWAP2 POP POP SWAP1 JUMP JUMPDEST PUSH1 0x2 DUP2 DUP2 SLOAD DUP2 LT PUSH2 0x5AF JUMPI PUSH0 DUP1 REVERT JUMPDEST SWAP1 PUSH0 MSTORE PUSH1 0x20 PUSH0 KECCAK256 SWAP1 PUSH1 0x2 MUL ADD PUSH0 SWAP2 POP SWAP1 POP DUP1 PUSH0 ADD DUP1 SLOAD PUSH2 0x5CE SWAP1 PUSH2 0xB92 JUMP JUMPDEST DUP1 PUSH1 0x1F ADD PUSH1 0x20 DUP1 SWAP2 DIV MUL PUSH1 0x20 ADD PUSH1 0x40 MLOAD SWAP1 DUP2 ADD PUSH1 0x40 MSTORE DUP1 SWAP3 SWAP2 SWAP1 DUP2 DUP2 MSTORE PUSH1 0x20 ADD DUP3 DUP1 SLOAD PUSH2 0x5FA SWAP1 PUSH2 0xB92 JUMP JUMPDEST DUP1 ISZERO PUSH2 0x645 JUMPI DUP1 PUSH1 0x1F LT PUSH2 0x61C JUMPI PUSH2 0x100 DUP1 DUP4 SLOAD DIV MUL DUP4 MSTORE SWAP2 PUSH1 0x20 ADD SWAP2 PUSH2 0x645 JUMP JUMPDEST DUP3 ADD SWAP2 SWAP1 PUSH0 MSTORE PUSH1 0x20 PUSH0 KECCAK256 SWAP1 JUMPDEST DUP2 SLOAD DUP2 MSTORE SWAP1 PUSH1 0x1 ADD SWAP1 PUSH1 0x20 ADD DUP1 DUP4 GT PUSH2 0x628 JUMPI DUP3 SWAP1 SUB PUSH1 0x1F AND DUP3 ADD SWAP2 JUMPDEST POP POP POP POP POP SWAP1 DUP1 PUSH1 0x1 ADD SLOAD SWAP1 POP DUP3 JUMP JUMPDEST PUSH0 DUP1 SLOAD SWAP1 PUSH2 0x100 EXP SWAP1 DIV PUSH20 0xFFFFFFFFFFFFFFFFFFFFFFFFFFFFFFFFFFFFFFFF AND DUP2 JUMP JUMPDEST PUSH1 0x2 PUSH1 0x40 MLOAD DUP1 PUSH1 0x40 ADD PUSH1 0x40 MSTORE DUP1 DUP4 DUP2 MSTORE PUSH1 0x20 ADD PUSH0 DUP2 MSTORE POP SWAP1 DUP1 PUSH1 0x1 DUP2 SLOAD ADD DUP1 DUP3 SSTORE DUP1 SWAP2 POP POP PUSH1 0x1 SWAP1 SUB SWAP1 PUSH0 MSTORE PUSH1 0x20 PUSH0 KECCAK256 SWAP1 PUSH1 0x2 MUL ADD PUSH0 SWAP1 SWAP2 SWAP1 SWAP2 SWAP1 SWAP2 POP PUSH0 DUP3 ADD MLOAD DUP2 PUSH0 ADD SWAP1 DUP2 PUSH2 0x6C8 SWAP2 SWAP1 PUSH2 0xF55 JUMP JUMPDEST POP PUSH1 0x20 DUP3 ADD MLOAD DUP2 PUSH1 0x1 ADD SSTORE POP POP POP JUMP JUMPDEST PUSH0 DUP2 MLOAD SWAP1 POP SWAP2 SWAP1 POP JUMP JUMPDEST PUSH0 DUP3 DUP3 MSTORE PUSH1 0x20 DUP3 ADD SWAP1 POP SWAP3 SWAP2 POP POP JUMP JUMPDEST PUSH0 JUMPDEST DUP4 DUP2 LT ISZERO PUSH2 0x70F JUMPI DUP1 DUP3 ADD MLOAD DUP2 DUP5 ADD MSTORE PUSH1 0x20 DUP2 ADD SWAP1 POP PUSH2 0x6F4 JUMP JUMPDEST PUSH0 DUP5 DUP5 ADD MSTORE POP POP POP POP JUMP JUMPDEST PUSH0 PUSH1 0x1F NOT PUSH1 0x1F DUP4 ADD AND SWAP1 POP SWAP2 SWAP1 POP JUMP JUMPDEST PUSH0 PUSH2 0x734 DUP3 PUSH2 0x6D8 JUMP JUMPDEST PUSH2 0x73E DUP2 DUP6 PUSH2 0x6E2 JUMP JUMPDEST SWAP4 POP PUSH2 0x74E DUP2 DUP6 PUSH1 0x20 DUP7 ADD PUSH2 0x6F2 JUMP JUMPDEST PUSH2 0x757 DUP2 PUSH2 0x71A JUMP JUMPDEST DUP5 ADD SWAP2 POP POP SWAP3 SWAP2 POP POP JUMP JUMPDEST PUSH0 PUSH1 0x20 DUP3 ADD SWAP1 POP DUP2 DUP2 SUB PUSH0 DUP4 ADD MSTORE PUSH2 0x77A DUP2 DUP5 PUSH2 0x72A JUMP JUMPDEST SWAP1 POP SWAP3 SWAP2 POP POP JUMP JUMPDEST PUSH0 PUSH1 0x40 MLOAD SWAP1 POP SWAP1 JUMP JUMPDEST PUSH0 DUP1 REVERT JUMPDEST PUSH0 DUP1 REVERT JUMPDEST PUSH0 DUP1 REVERT JUMPDEST PUSH0 DUP1 REVERT JUMPDEST PUSH32 0x4E487B7100000000000000000000000000000000000000000000000000000000 PUSH0 MSTORE PUSH1 0x41 PUSH1 0x4 MSTORE PUSH1 0x24 PUSH0 REVERT JUMPDEST PUSH2 0x7D1 DUP3 PUSH2 0x71A JUMP JUMPDEST DUP2 ADD DUP2 DUP2 LT PUSH8 0xFFFFFFFFFFFFFFFF DUP3 GT OR ISZERO PUSH2 0x7F0 JUMPI PUSH2 0x7EF PUSH2 0x79B JUMP JUMPDEST JUMPDEST DUP1 PUSH1 0x40 MSTORE POP POP POP JUMP JUMPDEST PUSH0 PUSH2 0x802 PUSH2 0x782 JUMP JUMPDEST SWAP1 POP PUSH2 0x80E DUP3 DUP3 PUSH2 0x7C8 JUMP JUMPDEST SWAP2 SWAP1 POP JUMP JUMPDEST PUSH0 PUSH8 0xFFFFFFFFFFFFFFFF DUP3 GT ISZERO PUSH2 0x82D JUMPI PUSH2 0x82C PUSH2 0x79B JUMP JUMPDEST JUMPDEST PUSH2 0x836 DUP3 PUSH2 0x71A JUMP JUMPDEST SWAP1 POP PUSH1 0x20 DUP2 ADD SWAP1 POP SWAP2 SWAP1 POP JUMP JUMPDEST DUP3 DUP2 DUP4 CALLDATACOPY PUSH0 DUP4 DUP4 ADD MSTORE POP POP POP JUMP JUMPDEST PUSH0 PUSH2 0x863 PUSH2 0x85E DUP5 PUSH2 0x813 JUMP JUMPDEST PUSH2 0x7F9 JUMP JUMPDEST SWAP1 POP DUP3 DUP2 MSTORE PUSH1 0x20 DUP2 ADD DUP5 DUP5 DUP5 ADD GT ISZERO PUSH2 0x87F JUMPI PUSH2 0x87E PUSH2 0x797 JUMP JUMPDEST JUMPDEST PUSH2 0x88A DUP5 DUP3 DUP6 PUSH2 0x843 JUMP JUMPDEST POP SWAP4 SWAP3 POP POP POP JUMP JUMPDEST PUSH0 DUP3 PUSH1 0x1F DUP4 ADD SLT PUSH2 0x8A6 JUMPI PUSH2 0x8A5 PUSH2 0x793 JUMP JUMPDEST JUMPDEST DUP2 CALLDATALOAD PUSH2 0x8B6 DUP5 DUP3 PUSH1 0x20 DUP7 ADD PUSH2 0x851 JUMP JUMPDEST SWAP2 POP POP SWAP3 SWAP2 POP POP JUMP JUMPDEST PUSH0 PUSH1 0x20 DUP3 DUP5 SUB SLT ISZERO PUSH2 0x8D4 JUMPI PUSH2 0x8D3 PUSH2 0x78B JUMP JUMPDEST JUMPDEST PUSH0 DUP3 ADD CALLDATALOAD PUSH8 0xFFFFFFFFFFFFFFFF DUP2 GT ISZERO PUSH2 0x8F1 JUMPI PUSH2 0x8F0 PUSH2 0x78F JUMP JUMPDEST JUMPDEST PUSH2 0x8FD DUP5 DUP3 DUP6 ADD PUSH2 0x892 JUMP JUMPDEST SWAP2 POP POP SWAP3 SWAP2 POP POP JUMP JUMPDEST PUSH0 DUP2 MLOAD SWAP1 POP SWAP2 SWAP1 POP JUMP JUMPDEST PUSH0 DUP3 DUP3 MSTORE PUSH1 0x20 DUP3 ADD SWAP1 POP SWAP3 SWAP2 POP POP JUMP JUMPDEST PUSH0 DUP2 SWAP1 POP PUSH1 0x20 DUP3 ADD SWAP1 POP SWAP2 SWAP1 POP JUMP JUMPDEST PUSH0 DUP2 SWAP1 POP SWAP2 SWAP1 POP JUMP JUMPDEST PUSH2 0x941 DUP2 PUSH2 0x92F JUMP JUMPDEST DUP3 MSTORE POP POP JUMP JUMPDEST PUSH0 PUSH2 0x952 DUP4 DUP4 PUSH2 0x938 JUMP JUMPDEST PUSH1 0x20 DUP4 ADD SWAP1 POP SWAP3 SWAP2 POP POP JUMP JUMPDEST PUSH0 PUSH1 0x20 DUP3 ADD SWAP1 POP SWAP2 SWAP1 POP JUMP JUMPDEST PUSH0 PUSH2 0x974 DUP3 PUSH2 0x906 JUMP JUMPDEST PUSH2 0x97E DUP2 DUP6 PUSH2 0x910 JUMP JUMPDEST SWAP4 POP PUSH2 0x989 DUP4 PUSH2 0x920 JUMP JUMPDEST DUP1 PUSH0 JUMPDEST DUP4 DUP2 LT ISZERO PUSH2 0x9B9 JUMPI DUP2 MLOAD PUSH2 0x9A0 DUP9 DUP3 PUSH2 0x947 JUMP JUMPDEST SWAP8 POP PUSH2 0x9AB DUP4 PUSH2 0x95E JUMP JUMPDEST SWAP3 POP POP PUSH1 0x1 DUP2 ADD SWAP1 POP PUSH2 0x98C JUMP JUMPDEST POP DUP6 SWAP4 POP POP POP POP SWAP3 SWAP2 POP POP JUMP JUMPDEST PUSH0 PUSH1 0x20 DUP3 ADD SWAP1 POP DUP2 DUP2 SUB PUSH0 DUP4 ADD MSTORE PUSH2 0x9DE DUP2 DUP5 PUSH2 0x96A JUMP JUMPDEST SWAP1 POP SWAP3 SWAP2 POP POP JUMP JUMPDEST PUSH2 0x9EF DUP2 PUSH2 0x92F JUMP JUMPDEST DUP2 EQ PUSH2 0x9F9 JUMPI PUSH0 DUP1 REVERT JUMPDEST POP JUMP JUMPDEST PUSH0 DUP2 CALLDATALOAD SWAP1 POP PUSH2 0xA0A DUP2 PUSH2 0x9E6 JUMP JUMPDEST SWAP3 SWAP2 POP POP JUMP JUMPDEST PUSH0 PUSH1 0x20 DUP3 DUP5 SUB SLT ISZERO PUSH2 0xA25 JUMPI PUSH2 0xA24 PUSH2 0x78B JUMP JUMPDEST JUMPDEST PUSH0 PUSH2 0xA32 DUP5 DUP3 DUP6 ADD PUSH2 0x9FC JUMP JUMPDEST SWAP2 POP POP SWAP3 SWAP2 POP POP JUMP JUMPDEST PUSH2 0xA44 DUP2 PUSH2 0x92F JUMP JUMPDEST DUP3 MSTORE POP POP JUMP JUMPDEST PUSH0 PUSH1 0x40 DUP3 ADD SWAP1 POP DUP2 DUP2 SUB PUSH0 DUP4 ADD MSTORE PUSH2 0xA62 DUP2 DUP6 PUSH2 0x72A JUMP JUMPDEST SWAP1 POP PUSH2 0xA71 PUSH1 0x20 DUP4 ADD DUP5 PUSH2 0xA3B JUMP JUMPDEST SWAP4 SWAP3 POP POP POP JUMP JUMPDEST PUSH0 PUSH20 0xFFFFFFFFFFFFFFFFFFFFFFFFFFFFFFFFFFFFFFFF DUP3 AND SWAP1 POP SWAP2 SWAP1 POP JUMP JUMPDEST PUSH0 PUSH2 0xAA1 DUP3 PUSH2 0xA78 JUMP JUMPDEST SWAP1 POP SWAP2 SWAP1 POP JUMP JUMPDEST PUSH2 0xAB1 DUP2 PUSH2 0xA97 JUMP JUMPDEST DUP3 MSTORE POP POP JUMP JUMPDEST PUSH0 PUSH1 0x20 DUP3 ADD SWAP1 POP PUSH2 0xACA PUSH0 DUP4 ADD DUP5 PUSH2 0xAA8 JUMP JUMPDEST SWAP3 SWAP2 POP POP JUMP JUMPDEST PUSH32 0x4F6E6C792074686520686F73742063616E206578656375746520746869730000 PUSH0 DUP3 ADD MSTORE POP JUMP JUMPDEST PUSH0 PUSH2 0xB04 PUSH1 0x1E DUP4 PUSH2 0x6E2 JUMP JUMPDEST SWAP2 POP PUSH2 0xB0F DUP3 PUSH2 0xAD0 JUMP JUMPDEST PUSH1 0x20 DUP3 ADD SWAP1 POP SWAP2 SWAP1 POP JUMP JUMPDEST PUSH0 PUSH1 0x20 DUP3 ADD SWAP1 POP DUP2 DUP2 SUB PUSH0 DUP4 ADD MSTORE PUSH2 0xB31 DUP2 PUSH2 0xAF8 JUMP JUMPDEST SWAP1 POP SWAP2 SWAP1 POP JUMP JUMPDEST PUSH32 0x4E487B7100000000000000000000000000000000000000000000000000000000 PUSH0 MSTORE PUSH1 0x32 PUSH1 0x4 MSTORE PUSH1 0x24 PUSH0 REVERT JUMPDEST PUSH32 0x4E487B7100000000000000000000000000000000000000000000000000000000 PUSH0 MSTORE PUSH1 0x22 PUSH1 0x4 MSTORE PUSH1 0x24 PUSH0 REVERT JUMPDEST PUSH0 PUSH1 0x2 DUP3 DIV SWAP1 POP PUSH1 0x1 DUP3 AND DUP1 PUSH2 0xBA9 JUMPI PUSH1 0x7F DUP3 AND SWAP2 POP JUMPDEST PUSH1 0x20 DUP3 LT DUP2 SUB PUSH2 0xBBC JUMPI PUSH2 0xBBB PUSH2 0xB65 JUMP JUMPDEST JUMPDEST POP SWAP2 SWAP1 POP JUMP JUMPDEST PUSH32 0x4E6F20766F746573207265636F72646564000000000000000000000000000000 PUSH0 DUP3 ADD MSTORE POP JUMP JUMPDEST PUSH0 PUSH2 0xBF6 PUSH1 0x11 DUP4 PUSH2 0x6E2 JUMP JUMPDEST SWAP2 POP PUSH2 0xC01 DUP3 PUSH2 0xBC2 JUMP JUMPDEST PUSH1 0x20 DUP3 ADD SWAP1 POP SWAP2 SWAP1 POP JUMP JUMPDEST PUSH0 PUSH1 0x20 DUP3 ADD SWAP1 POP DUP2 DUP2 SUB PUSH0 DUP4 ADD MSTORE PUSH2 0xC23 DUP2 PUSH2 0xBEA JUMP JUMPDEST SWAP1 POP SWAP2 SWAP1 POP JUMP JUMPDEST PUSH32 0x596F75206861766520616C726561647920766F74656400000000000000000000 PUSH0 DUP3 ADD MSTORE POP JUMP JUMPDEST PUSH0 PUSH2 0xC5E PUSH1 0x16 DUP4 PUSH2 0x6E2 JUMP JUMPDEST SWAP2 POP PUSH2 0xC69 DUP3 PUSH2 0xC2A JUMP JUMPDEST PUSH1 0x20 DUP3 ADD SWAP1 POP SWAP2 SWAP1 POP JUMP JUMPDEST PUSH0 PUSH1 0x20 DUP3 ADD SWAP1 POP DUP2 DUP2 SUB PUSH0 DUP4 ADD MSTORE PUSH2 0xC8B DUP2 PUSH2 0xC52 JUMP JUMPDEST SWAP1 POP SWAP2 SWAP1 POP JUMP JUMPDEST PUSH0 DUP2 SWAP1 POP SWAP3 SWAP2 POP POP JUMP JUMPDEST PUSH0 DUP2 SWAP1 POP DUP2 PUSH0 MSTORE PUSH1 0x20 PUSH0 KECCAK256 SWAP1 POP SWAP2 SWAP1 POP JUMP JUMPDEST PUSH0 DUP2 SLOAD PUSH2 0xCBA DUP2 PUSH2 0xB92 JUMP JUMPDEST PUSH2 0xCC4 DUP2 DUP7 PUSH2 0xC92 JUMP JUMPDEST SWAP5 POP PUSH1 0x1 DUP3 AND PUSH0 DUP2 EQ PUSH2 0xCDE JUMPI PUSH1 0x1 DUP2 EQ PUSH2 0xCF3 JUMPI PUSH2 0xD25 JUMP JUMPDEST PUSH1 0xFF NOT DUP4 AND DUP7 MSTORE DUP2 ISZERO ISZERO DUP3 MUL DUP7 ADD SWAP4 POP PUSH2 0xD25 JUMP JUMPDEST PUSH2 0xCFC DUP6 PUSH2 0xC9C JUMP JUMPDEST PUSH0 JUMPDEST DUP4 DUP2 LT ISZERO PUSH2 0xD1D JUMPI DUP2 SLOAD DUP2 DUP10 ADD MSTORE PUSH1 0x1 DUP3 ADD SWAP2 POP PUSH1 0x20 DUP2 ADD SWAP1 POP PUSH2 0xCFE JUMP JUMPDEST DUP4 DUP9 ADD SWAP6 POP POP POP JUMPDEST POP POP POP SWAP3 SWAP2 POP POP JUMP JUMPDEST PUSH0 PUSH2 0xD39 DUP3 DUP5 PUSH2 0xCAE JUMP JUMPDEST SWAP2 POP DUP2 SWAP1 POP SWAP3 SWAP2 POP POP JUMP JUMPDEST PUSH32 0x4E487B7100000000000000000000000000000000000000000000000000000000 PUSH0 MSTORE PUSH1 0x11 PUSH1 0x4 MSTORE PUSH1 0x24 PUSH0 REVERT JUMPDEST PUSH0 PUSH2 0xD7B DUP3 PUSH2 0x92F JUMP JUMPDEST SWAP2 POP PUSH32 0xFFFFFFFFFFFFFFFFFFFFFFFFFFFFFFFFFFFFFFFFFFFFFFFFFFFFFFFFFFFFFFFF DUP3 SUB PUSH2 0xDAD JUMPI PUSH2 0xDAC PUSH2 0xD44 JUMP JUMPDEST JUMPDEST PUSH1 0x1 DUP3 ADD SWAP1 POP SWAP2 SWAP1 POP JUMP JUMPDEST PUSH0 DUP2 SWAP1 POP DUP2 PUSH0 MSTORE PUSH1 0x20 PUSH0 KECCAK256 SWAP1 POP SWAP2 SWAP1 POP JUMP JUMPDEST PUSH0 PUSH1 0x20 PUSH1 0x1F DUP4 ADD DIV SWAP1 POP SWAP2 SWAP1 POP JUMP JUMPDEST PUSH0 DUP3 DUP3 SHL SWAP1 POP SWAP3 SWAP2 POP POP JUMP JUMPDEST PUSH0 PUSH1 0x8 DUP4 MUL PUSH2 0xE14 PUSH32 0xFFFFFFFFFFFFFFFFFFFFFFFFFFFFFFFFFFFFFFFFFFFFFFFFFFFFFFFFFFFFFFFF DUP3 PUSH2 0xDD9 JUMP JUMPDEST PUSH2 0xE1E DUP7 DUP4 PUSH2 0xDD9 JUMP JUMPDEST SWAP6 POP DUP1 NOT DUP5 AND SWAP4 POP DUP1 DUP7 AND DUP5 OR SWAP3 POP POP POP SWAP4 SWAP3 POP POP POP JUMP JUMPDEST PUSH0 DUP2 SWAP1 POP SWAP2 SWAP1 POP JUMP JUMPDEST PUSH0 PUSH2 0xE59 PUSH2 0xE54 PUSH2 0xE4F DUP5 PUSH2 0x92F JUMP JUMPDEST PUSH2 0xE36 JUMP JUMPDEST PUSH2 0x92F JUMP JUMPDEST SWAP1 POP SWAP2 SWAP1 POP JUMP JUMPDEST PUSH0 DUP2 SWAP1 POP SWAP2 SWAP1 POP JUMP JUMPDEST PUSH2 0xE72 DUP4 PUSH2 0xE3F JUMP JUMPDEST PUSH2 0xE86 PUSH2 0xE7E DUP3 PUSH2 0xE60 JUMP JUMPDEST DUP5 DUP5 SLOAD PUSH2 0xDE5 JUMP JUMPDEST DUP3 SSTORE POP POP POP POP JUMP JUMPDEST PUSH0 SWAP1 JUMP JUMPDEST PUSH2 0xE9A PUSH2 0xE8E JUMP JUMPDEST PUSH2 0xEA5 DUP2 DUP5 DUP5 PUSH2 0xE69 JUMP JUMPDEST POP POP POP JUMP JUMPDEST JUMPDEST DUP2 DUP2 LT ISZERO PUSH2 0xEC8 JUMPI PUSH2 0xEBD PUSH0 DUP3 PUSH2 0xE92 JUMP JUMPDEST PUSH1 0x1 DUP2 ADD SWAP1 POP PUSH2 0xEAB JUMP JUMPDEST POP POP JUMP JUMPDEST PUSH1 0x1F DUP3 GT ISZERO PUSH2 0xF0D JUMPI PUSH2 0xEDE DUP2 PUSH2 0xDB8 JUMP JUMPDEST PUSH2 0xEE7 DUP5 PUSH2 0xDCA JUMP JUMPDEST DUP2 ADD PUSH1 0x20 DUP6 LT ISZERO PUSH2 0xEF6 JUMPI DUP2 SWAP1 POP JUMPDEST PUSH2 0xF0A PUSH2 0xF02 DUP6 PUSH2 0xDCA JUMP JUMPDEST DUP4 ADD DUP3 PUSH2 0xEAA JUMP JUMPDEST POP POP JUMPDEST POP POP POP JUMP JUMPDEST PUSH0 DUP3 DUP3 SHR SWAP1 POP SWAP3 SWAP2 POP POP JUMP JUMPDEST PUSH0 PUSH2 0xF2D PUSH0 NOT DUP5 PUSH1 0x8 MUL PUSH2 0xF12 JUMP JUMPDEST NOT DUP1 DUP4 AND SWAP2 POP POP SWAP3 SWAP2 POP POP JUMP JUMPDEST PUSH0 PUSH2 0xF45 DUP4 DUP4 PUSH2 0xF1E JUMP JUMPDEST SWAP2 POP DUP3 PUSH1 0x2 MUL DUP3 OR SWAP1 POP SWAP3 SWAP2 POP POP JUMP JUMPDEST PUSH2 0xF5E DUP3 PUSH2 0x6D8 JUMP JUMPDEST PUSH8 0xFFFFFFFFFFFFFFFF DUP2 GT ISZERO PUSH2 0xF77 JUMPI PUSH2 0xF76 PUSH2 0x79B JUMP JUMPDEST JUMPDEST PUSH2 0xF81 DUP3 SLOAD PUSH2 0xB92 JUMP JUMPDEST PUSH2 0xF8C DUP3 DUP3 DUP6 PUSH2 0xECC JUMP JUMPDEST PUSH0 PUSH1 0x20 SWAP1 POP PUSH1 0x1F DUP4 GT PUSH1 0x1 DUP2 EQ PUSH2 0xFBD JUMPI PUSH0 DUP5 ISZERO PUSH2 0xFAB JUMPI DUP3 DUP8 ADD MLOAD SWAP1 POP JUMPDEST PUSH2 0xFB5 DUP6 DUP3 PUSH2 0xF3A JUMP JUMPDEST DUP7 SSTORE POP PUSH2 0x101C JUMP JUMPDEST PUSH1 0x1F NOT DUP5 AND PUSH2 0xFCB DUP7 PUSH2 0xDB8 JUMP JUMPDEST PUSH0 JUMPDEST DUP3 DUP2 LT ISZERO PUSH2 0xFF2 JUMPI DUP5 DUP10 ADD MLOAD DUP3 SSTORE PUSH1 0x1 DUP3 ADD SWAP2 POP PUSH1 0x20 DUP6 ADD SWAP5 POP PUSH1 0x20 DUP2 ADD SWAP1 POP PUSH2 0xFCD JUMP JUMPDEST DUP7 DUP4 LT ISZERO PUSH2 0x100F JUMPI DUP5 DUP10 ADD MLOAD PUSH2 0x100B PUSH1 0x1F DUP10 AND DUP3 PUSH2 0xF1E JUMP JUMPDEST DUP4 SSTORE POP JUMPDEST PUSH1 0x1 PUSH1 0x2 DUP9 MUL ADD DUP9 SSTORE POP POP POP JUMPDEST POP POP POP POP POP POP JUMP INVALID LOG2 PUSH5 0x6970667358 0x22 SLT KECCAK256 BALANCE MOD GAS 0xA8 0xE5 SWAP13 PUSH32 0x5F2D4071557A2226EE1E6071B934DEDE849092379BE8D5705964736F6C634300 ADDMOD AND STOP CALLER "
				},
				"gasEstimates": {
					"creation": {
						"codeDepositCost": "837200",
						"executionCost": "25133",
						"totalCost": "862333"
					},
					"external": {
						"announceVotedOut()": "infinite",
						"contestants(uint256)": "infinite",
						"getTotalVoteCounts()": "infinite",
						"host()": "2571",
						"initialize(string)": "infinite",
						"voteOut(string)": "infinite"
					}
				},
				"methodIdentifiers": {
					"announceVotedOut()": "28dd8045",
					"contestants(uint256)": "dfd50f52",
					"getTotalVoteCounts()": "d485f61b",
					"host()": "f437bc59",
					"initialize(string)": "f62d1888",
					"voteOut(string)": "51181b28"
				}
			},
			"storageLayout": {
				"storage": [
					{
						"astId": 3,
						"contract": "contracts/SurvivorGame.sol:SurvivorGame",
						"label": "host",
						"offset": 0,
						"slot": "0",
						"type": "t_address"
					},
					{
						"astId": 18,
						"contract": "contracts/SurvivorGame.sol:SurvivorGame",
						"label": "participantAddress",
						"offset": 0,
						"slot": "1",
						"type": "t_mapping(t_address,t_struct(Participant)8_storage)"
					},
					{
						"astId": 22,
						"contract": "contracts/SurvivorGame.sol:SurvivorGame",
						"label": "contestants",
						"offset": 0,
						"slot": "2",
						"type": "t_array(t_struct(Contestant)13_storage)dyn_storage"
					}
				],
				"types": {
					"t_address": {
						"encoding": "inplace",
						"label": "address",
						"numberOfBytes": "20"
					},
					"t_array(t_struct(Contestant)13_storage)dyn_storage": {
						"base": "t_struct(Contestant)13_storage",
						"encoding": "dynamic_array",
						"label": "struct SurvivorGame.Contestant[]",
						"numberOfBytes": "32"
					},
					"t_bool": {
						"encoding": "inplace",
						"label": "bool",
						"numberOfBytes": "1"
					},
					"t_mapping(t_address,t_struct(Participant)8_storage)": {
						"encoding": "mapping",
						"key": "t_address",
						"label": "mapping(address => struct SurvivorGame.Participant)",
						"numberOfBytes": "32",
						"value": "t_struct(Participant)8_storage"
					},
					"t_string_storage": {
						"encoding": "bytes",
						"label": "string",
						"numberOfBytes": "32"
					},
					"t_struct(Contestant)13_storage": {
						"encoding": "inplace",
						"label": "struct SurvivorGame.Contestant",
						"members": [
							{
								"astId": 10,
								"contract": "contracts/SurvivorGame.sol:SurvivorGame",
								"label": "name",
								"offset": 0,
								"slot": "0",
								"type": "t_string_storage"
							},
							{
								"astId": 12,
								"contract": "contracts/SurvivorGame.sol:SurvivorGame",
								"label": "voteCount",
								"offset": 0,
								"slot": "1",
								"type": "t_uint256"
							}
						],
						"numberOfBytes": "64"
					},
					"t_struct(Participant)8_storage": {
						"encoding": "inplace",
						"label": "struct SurvivorGame.Participant",
						"members": [
							{
								"astId": 5,
								"contract": "contracts/SurvivorGame.sol:SurvivorGame",
								"label": "alreadyVoted",
								"offset": 0,
								"slot": "0",
								"type": "t_bool"
							},
							{
								"astId": 7,
								"contract": "contracts/SurvivorGame.sol:SurvivorGame",
								"label": "voteIndex",
								"offset": 0,
								"slot": "1",
								"type": "t_uint256"
							}
						],
						"numberOfBytes": "64"
					},
					"t_uint256": {
						"encoding": "inplace",
						"label": "uint256",
						"numberOfBytes": "32"
					}
				}
			},
			"userdoc": {
				"kind": "user",
				"methods": {},
				"version": 1
			}
		}
	}
}