{
	"contracts/test.sol": {
		"Payable": {
			"abi": [
				{
					"inputs": [],
					"stateMutability": "payable",
					"type": "constructor"
				},
				{
					"inputs": [],
					"name": "owner",
					"outputs": [
						{
							"internalType": "address payable",
							"name": "",
							"type": "address"
						}
					],
					"stateMutability": "view",
					"type": "function"
				},
				{
					"inputs": [
						{
							"internalType": "address payable",
							"name": "_to",
							"type": "address"
						},
						{
							"internalType": "uint256",
							"name": "_amount",
							"type": "uint256"
						}
					],
					"name": "transfer",
					"outputs": [],
					"stateMutability": "nonpayable",
					"type": "function"
				}
			],
			"devdoc": {
				"kind": "dev",
				"methods": {},
				"version": 1
			},
			"evm": {
				"assembly": "    /* \"contracts/test.sol\":60:272  contract Payable {... */\n  mstore(0x40, 0x80)\n    /* \"contracts/test.sol\":172:182  msg.sender */\n  caller\n    /* \"contracts/test.sol\":156:161  owner */\n  0x00\n  dup1\n    /* \"contracts/test.sol\":156:183  owner = payable(msg.sender) */\n  0x0100\n  exp\n  dup2\n  sload\n  dup2\n  0xffffffffffffffffffffffffffffffffffffffff\n  mul\n  not\n  and\n  swap1\n  dup4\n  0xffffffffffffffffffffffffffffffffffffffff\n  and\n  mul\n  or\n  swap1\n  sstore\n  pop\n    /* \"contracts/test.sol\":60:272  contract Payable {... */\n  dataSize(sub_0)\n  dup1\n  dataOffset(sub_0)\n  0x00\n  codecopy\n  0x00\n  return\nstop\n\nsub_0: assembly {\n        /* \"contracts/test.sol\":60:272  contract Payable {... */\n      mstore(0x40, 0x80)\n      callvalue\n      dup1\n      iszero\n      tag_1\n      jumpi\n      0x00\n      dup1\n      revert\n    tag_1:\n      pop\n      jumpi(tag_2, lt(calldatasize, 0x04))\n      shr(0xe0, calldataload(0x00))\n      dup1\n      0x8da5cb5b\n      eq\n      tag_3\n      jumpi\n      dup1\n      0xa9059cbb\n      eq\n      tag_4\n      jumpi\n    tag_2:\n      0x00\n      dup1\n      revert\n        /* \"contracts/test.sol\":86:114  address payable public owner */\n    tag_3:\n      tag_5\n      tag_6\n      jump\t// in\n    tag_5:\n      mload(0x40)\n      tag_7\n      swap2\n      swap1\n      tag_8\n      jump\t// in\n    tag_7:\n      mload(0x40)\n      dup1\n      swap2\n      sub\n      swap1\n      return\n        /* \"contracts/test.sol\":199:269  function transfer(address payable _to, uint _amount) public {... */\n    tag_4:\n      tag_9\n      0x04\n      dup1\n      calldatasize\n      sub\n      dup2\n      add\n      swap1\n      tag_10\n      swap2\n      swap1\n      tag_11\n      jump\t// in\n    tag_10:\n      tag_12\n      jump\t// in\n    tag_9:\n      stop\n        /* \"contracts/test.sol\":86:114  address payable public owner */\n    tag_6:\n      0x00\n      dup1\n      sload\n      swap1\n      0x0100\n      exp\n      swap1\n      div\n      0xffffffffffffffffffffffffffffffffffffffff\n      and\n      dup2\n      jump\t// out\n        /* \"contracts/test.sol\":199:269  function transfer(address payable _to, uint _amount) public {... */\n    tag_12:\n      pop\n      pop\n      jump\t// out\n        /* \"#utility.yul\":7:133   */\n    tag_14:\n        /* \"#utility.yul\":44:51   */\n      0x00\n        /* \"#utility.yul\":84:126   */\n      0xffffffffffffffffffffffffffffffffffffffff\n        /* \"#utility.yul\":77:82   */\n      dup3\n        /* \"#utility.yul\":73:127   */\n      and\n        /* \"#utility.yul\":62:127   */\n      swap1\n      pop\n        /* \"#utility.yul\":7:133   */\n      swap2\n      swap1\n      pop\n      jump\t// out\n        /* \"#utility.yul\":139:243   */\n    tag_15:\n        /* \"#utility.yul\":184:191   */\n      0x00\n        /* \"#utility.yul\":213:237   */\n      tag_28\n        /* \"#utility.yul\":231:236   */\n      dup3\n        /* \"#utility.yul\":213:237   */\n      tag_14\n      jump\t// in\n    tag_28:\n        /* \"#utility.yul\":202:237   */\n      swap1\n      pop\n        /* \"#utility.yul\":139:243   */\n      swap2\n      swap1\n      pop\n      jump\t// out\n        /* \"#utility.yul\":249:391   */\n    tag_16:\n        /* \"#utility.yul\":352:384   */\n      tag_30\n        /* \"#utility.yul\":378:383   */\n      dup2\n        /* \"#utility.yul\":352:384   */\n      tag_15\n      jump\t// in\n    tag_30:\n        /* \"#utility.yul\":347:350   */\n      dup3\n        /* \"#utility.yul\":340:385   */\n      mstore\n        /* \"#utility.yul\":249:391   */\n      pop\n      pop\n      jump\t// out\n        /* \"#utility.yul\":397:651   */\n    tag_8:\n        /* \"#utility.yul\":506:510   */\n      0x00\n        /* \"#utility.yul\":544:546   */\n      0x20\n        /* \"#utility.yul\":533:542   */\n      dup3\n        /* \"#utility.yul\":529:547   */\n      add\n        /* \"#utility.yul\":521:547   */\n      swap1\n      pop\n        /* \"#utility.yul\":557:644   */\n      tag_32\n        /* \"#utility.yul\":641:642   */\n      0x00\n        /* \"#utility.yul\":630:639   */\n      dup4\n        /* \"#utility.yul\":626:643   */\n      add\n        /* \"#utility.yul\":617:623   */\n      dup5\n        /* \"#utility.yul\":557:644   */\n      tag_16\n      jump\t// in\n    tag_32:\n        /* \"#utility.yul\":397:651   */\n      swap3\n      swap2\n      pop\n      pop\n      jump\t// out\n        /* \"#utility.yul\":738:855   */\n    tag_18:\n        /* \"#utility.yul\":847:848   */\n      0x00\n        /* \"#utility.yul\":844:845   */\n      dup1\n        /* \"#utility.yul\":837:849   */\n      revert\n        /* \"#utility.yul\":984:1122   */\n    tag_20:\n        /* \"#utility.yul\":1065:1097   */\n      tag_37\n        /* \"#utility.yul\":1091:1096   */\n      dup2\n        /* \"#utility.yul\":1065:1097   */\n      tag_15\n      jump\t// in\n    tag_37:\n        /* \"#utility.yul\":1058:1063   */\n      dup2\n        /* \"#utility.yul\":1055:1098   */\n      eq\n        /* \"#utility.yul\":1045:1116   */\n      tag_38\n      jumpi\n        /* \"#utility.yul\":1112:1113   */\n      0x00\n        /* \"#utility.yul\":1109:1110   */\n      dup1\n        /* \"#utility.yul\":1102:1114   */\n      revert\n        /* \"#utility.yul\":1045:1116   */\n    tag_38:\n        /* \"#utility.yul\":984:1122   */\n      pop\n      jump\t// out\n        /* \"#utility.yul\":1128:1283   */\n    tag_21:\n        /* \"#utility.yul\":1182:1187   */\n      0x00\n        /* \"#utility.yul\":1220:1226   */\n      dup2\n        /* \"#utility.yul\":1207:1227   */\n      calldataload\n        /* \"#utility.yul\":1198:1227   */\n      swap1\n      pop\n        /* \"#utility.yul\":1236:1277   */\n      tag_40\n        /* \"#utility.yul\":1271:1276   */\n      dup2\n        /* \"#utility.yul\":1236:1277   */\n      tag_20\n      jump\t// in\n    tag_40:\n        /* \"#utility.yul\":1128:1283   */\n      swap3\n      swap2\n      pop\n      pop\n      jump\t// out\n        /* \"#utility.yul\":1289:1366   */\n    tag_22:\n        /* \"#utility.yul\":1326:1333   */\n      0x00\n        /* \"#utility.yul\":1355:1360   */\n      dup2\n        /* \"#utility.yul\":1344:1360   */\n      swap1\n      pop\n        /* \"#utility.yul\":1289:1366   */\n      swap2\n      swap1\n      pop\n      jump\t// out\n        /* \"#utility.yul\":1372:1494   */\n    tag_23:\n        /* \"#utility.yul\":1445:1469   */\n      tag_43\n        /* \"#utility.yul\":1463:1468   */\n      dup2\n        /* \"#utility.yul\":1445:1469   */\n      tag_22\n      jump\t// in\n    tag_43:\n        /* \"#utility.yul\":1438:1443   */\n      dup2\n        /* \"#utility.yul\":1435:1470   */\n      eq\n        /* \"#utility.yul\":1425:1488   */\n      tag_44\n      jumpi\n        /* \"#utility.yul\":1484:1485   */\n      0x00\n        /* \"#utility.yul\":1481:1482   */\n      dup1\n        /* \"#utility.yul\":1474:1486   */\n      revert\n        /* \"#utility.yul\":1425:1488   */\n    tag_44:\n        /* \"#utility.yul\":1372:1494   */\n      pop\n      jump\t// out\n        /* \"#utility.yul\":1500:1639   */\n    tag_24:\n        /* \"#utility.yul\":1546:1551   */\n      0x00\n        /* \"#utility.yul\":1584:1590   */\n      dup2\n        /* \"#utility.yul\":1571:1591   */\n      calldataload\n        /* \"#utility.yul\":1562:1591   */\n      swap1\n      pop\n        /* \"#utility.yul\":1600:1633   */\n      tag_46\n        /* \"#utility.yul\":1627:1632   */\n      dup2\n        /* \"#utility.yul\":1600:1633   */\n      tag_23\n      jump\t// in\n    tag_46:\n        /* \"#utility.yul\":1500:1639   */\n      swap3\n      swap2\n      pop\n      pop\n      jump\t// out\n        /* \"#utility.yul\":1645:2135   */\n    tag_11:\n        /* \"#utility.yul\":1721:1727   */\n      0x00\n        /* \"#utility.yul\":1729:1735   */\n      dup1\n        /* \"#utility.yul\":1778:1780   */\n      0x40\n        /* \"#utility.yul\":1766:1775   */\n      dup4\n        /* \"#utility.yul\":1757:1764   */\n      dup6\n        /* \"#utility.yul\":1753:1776   */\n      sub\n        /* \"#utility.yul\":1749:1781   */\n      slt\n        /* \"#utility.yul\":1746:1865   */\n      iszero\n      tag_48\n      jumpi\n        /* \"#utility.yul\":1784:1863   */\n      tag_49\n      tag_18\n      jump\t// in\n    tag_49:\n        /* \"#utility.yul\":1746:1865   */\n    tag_48:\n        /* \"#utility.yul\":1904:1905   */\n      0x00\n        /* \"#utility.yul\":1929:1990   */\n      tag_50\n        /* \"#utility.yul\":1982:1989   */\n      dup6\n        /* \"#utility.yul\":1973:1979   */\n      dup3\n        /* \"#utility.yul\":1962:1971   */\n      dup7\n        /* \"#utility.yul\":1958:1980   */\n      add\n        /* \"#utility.yul\":1929:1990   */\n      tag_21\n      jump\t// in\n    tag_50:\n        /* \"#utility.yul\":1919:1990   */\n      swap3\n      pop\n        /* \"#utility.yul\":1875:2000   */\n      pop\n        /* \"#utility.yul\":2039:2041   */\n      0x20\n        /* \"#utility.yul\":2065:2118   */\n      tag_51\n        /* \"#utility.yul\":2110:2117   */\n      dup6\n        /* \"#utility.yul\":2101:2107   */\n      dup3\n        /* \"#utility.yul\":2090:2099   */\n      dup7\n        /* \"#utility.yul\":2086:2108   */\n      add\n        /* \"#utility.yul\":2065:2118   */\n      tag_24\n      jump\t// in\n    tag_51:\n        /* \"#utility.yul\":2055:2118   */\n      swap2\n      pop\n        /* \"#utility.yul\":2010:2128   */\n      pop\n        /* \"#utility.yul\":1645:2135   */\n      swap3\n      pop\n      swap3\n      swap1\n      pop\n      jump\t// out\n\n    auxdata: 0xa264697066735822122049c3a386406f4768f5c1c4700085db05847afbf6c18043c206d42705209afa5864736f6c63430008160033\n}\n",
				"bytecode": {
					"linkReferences": {},
					"object": "6080604052335f806101000a81548173ffffffffffffffffffffffffffffffffffffffff021916908373ffffffffffffffffffffffffffffffffffffffff1602179055506101c6806100505f395ff3fe608060405234801561000f575f80fd5b5060043610610034575f3560e01c80638da5cb5b14610038578063a9059cbb14610056575b5f80fd5b610040610072565b60405161004d91906100d8565b60405180910390f35b610070600480360381019061006b9190610152565b610095565b005b5f8054906101000a900473ffffffffffffffffffffffffffffffffffffffff1681565b5050565b5f73ffffffffffffffffffffffffffffffffffffffff82169050919050565b5f6100c282610099565b9050919050565b6100d2816100b8565b82525050565b5f6020820190506100eb5f8301846100c9565b92915050565b5f80fd5b6100fe816100b8565b8114610108575f80fd5b50565b5f81359050610119816100f5565b92915050565b5f819050919050565b6101318161011f565b811461013b575f80fd5b50565b5f8135905061014c81610128565b92915050565b5f8060408385031215610168576101676100f1565b5b5f6101758582860161010b565b92505060206101868582860161013e565b915050925092905056fea264697066735822122049c3a386406f4768f5c1c4700085db05847afbf6c18043c206d42705209afa5864736f6c63430008160033",
					"opcodes": "PUSH1 0x80 PUSH1 0x40 MSTORE CALLER PUSH0 DUP1 PUSH2 0x100 EXP DUP2 SLOAD DUP2 PUSH20 0xFFFFFFFFFFFFFFFFFFFFFFFFFFFFFFFFFFFFFFFF MUL NOT AND SWAP1 DUP4 PUSH20 0xFFFFFFFFFFFFFFFFFFFFFFFFFFFFFFFFFFFFFFFF AND MUL OR SWAP1 SSTORE POP PUSH2 0x1C6 DUP1 PUSH2 0x50 PUSH0 CODECOPY PUSH0 RETURN INVALID PUSH1 0x80 PUSH1 0x40 MSTORE CALLVALUE DUP1 ISZERO PUSH2 0xF JUMPI PUSH0 DUP1 REVERT JUMPDEST POP PUSH1 0x4 CALLDATASIZE LT PUSH2 0x34 JUMPI PUSH0 CALLDATALOAD PUSH1 0xE0 SHR DUP1 PUSH4 0x8DA5CB5B EQ PUSH2 0x38 JUMPI DUP1 PUSH4 0xA9059CBB EQ PUSH2 0x56 JUMPI JUMPDEST PUSH0 DUP1 REVERT JUMPDEST PUSH2 0x40 PUSH2 0x72 JUMP JUMPDEST PUSH1 0x40 MLOAD PUSH2 0x4D SWAP2 SWAP1 PUSH2 0xD8 JUMP JUMPDEST PUSH1 0x40 MLOAD DUP1 SWAP2 SUB SWAP1 RETURN JUMPDEST PUSH2 0x70 PUSH1 0x4 DUP1 CALLDATASIZE SUB DUP2 ADD SWAP1 PUSH2 0x6B SWAP2 SWAP1 PUSH2 0x152 JUMP JUMPDEST PUSH2 0x95 JUMP JUMPDEST STOP JUMPDEST PUSH0 DUP1 SLOAD SWAP1 PUSH2 0x100 EXP SWAP1 DIV PUSH20 0xFFFFFFFFFFFFFFFFFFFFFFFFFFFFFFFFFFFFFFFF AND DUP2 JUMP JUMPDEST POP POP JUMP JUMPDEST PUSH0 PUSH20 0xFFFFFFFFFFFFFFFFFFFFFFFFFFFFFFFFFFFFFFFF DUP3 AND SWAP1 POP SWAP2 SWAP1 POP JUMP JUMPDEST PUSH0 PUSH2 0xC2 DUP3 PUSH2 0x99 JUMP JUMPDEST SWAP1 POP SWAP2 SWAP1 POP JUMP JUMPDEST PUSH2 0xD2 DUP2 PUSH2 0xB8 JUMP JUMPDEST DUP3 MSTORE POP POP JUMP JUMPDEST PUSH0 PUSH1 0x20 DUP3 ADD SWAP1 POP PUSH2 0xEB PUSH0 DUP4 ADD DUP5 PUSH2 0xC9 JUMP JUMPDEST SWAP3 SWAP2 POP POP JUMP JUMPDEST PUSH0 DUP1 REVERT JUMPDEST PUSH2 0xFE DUP2 PUSH2 0xB8 JUMP JUMPDEST DUP2 EQ PUSH2 0x108 JUMPI PUSH0 DUP1 REVERT JUMPDEST POP JUMP JUMPDEST PUSH0 DUP2 CALLDATALOAD SWAP1 POP PUSH2 0x119 DUP2 PUSH2 0xF5 JUMP JUMPDEST SWAP3 SWAP2 POP POP JUMP JUMPDEST PUSH0 DUP2 SWAP1 POP SWAP2 SWAP1 POP JUMP JUMPDEST PUSH2 0x131 DUP2 PUSH2 0x11F JUMP JUMPDEST DUP2 EQ PUSH2 0x13B JUMPI PUSH0 DUP1 REVERT JUMPDEST POP JUMP JUMPDEST PUSH0 DUP2 CALLDATALOAD SWAP1 POP PUSH2 0x14C DUP2 PUSH2 0x128 JUMP JUMPDEST SWAP3 SWAP2 POP POP JUMP JUMPDEST PUSH0 DUP1 PUSH1 0x40 DUP4 DUP6 SUB SLT ISZERO PUSH2 0x168 JUMPI PUSH2 0x167 PUSH2 0xF1 JUMP JUMPDEST JUMPDEST PUSH0 PUSH2 0x175 DUP6 DUP3 DUP7 ADD PUSH2 0x10B JUMP JUMPDEST SWAP3 POP POP PUSH1 0x20 PUSH2 0x186 DUP6 DUP3 DUP7 ADD PUSH2 0x13E JUMP JUMPDEST SWAP2 POP POP SWAP3 POP SWAP3 SWAP1 POP JUMP INVALID LOG2 PUSH5 0x6970667358 0x22 SLT KECCAK256 0x49 0xC3 LOG3 DUP7 BLOCKHASH PUSH16 0x4768F5C1C4700085DB05847AFBF6C180 NUMBER 0xC2 MOD 0xD4 0x27 SDIV KECCAK256 SWAP11 STATICCALL PC PUSH5 0x736F6C6343 STOP ADDMOD AND STOP CALLER "
				},
				"gasEstimates": {
					"creation": {
						"codeDepositCost": "90800",
						"executionCost": "24380",
						"totalCost": "115180"
					},
					"external": {
						"owner()": "2483",
						"transfer(address,uint256)": "620"
					}
				},
				"methodIdentifiers": {
					"owner()": "8da5cb5b",
					"transfer(address,uint256)": "a9059cbb"
				}
			},
			"storageLayout": {
				"storage": [
					{
						"astId": 3,
						"contract": "contracts/test.sol:Payable",
						"label": "owner",
						"offset": 0,
						"slot": "0",
						"type": "t_address_payable"
					}
				],
				"types": {
					"t_address_payable": {
						"encoding": "inplace",
						"label": "address payable",
						"numberOfBytes": "20"
					}
				}
			},
			"userdoc": {
				"kind": "user",
				"methods": {},
				"version": 1
			}
		}
	}
}