{
	"contracts/user.sol": {
		"Struct": {
			"abi": [
				{
					"inputs": [
						{
							"internalType": "string",
							"name": "_username",
							"type": "string"
						},
						{
							"internalType": "uint256",
							"name": "_age",
							"type": "uint256"
						},
						{
							"internalType": "address",
							"name": "_account",
							"type": "address"
						},
						{
							"internalType": "uint256",
							"name": "_grade",
							"type": "uint256"
						},
						{
							"internalType": "bool",
							"name": "_isAlive",
							"type": "bool"
						}
					],
					"name": "addUser",
					"outputs": [],
					"stateMutability": "nonpayable",
					"type": "function"
				},
				{
					"inputs": [
						{
							"internalType": "uint256",
							"name": "index",
							"type": "uint256"
						}
					],
					"name": "getUserInfo",
					"outputs": [
						{
							"internalType": "string",
							"name": "",
							"type": "string"
						},
						{
							"internalType": "uint256",
							"name": "",
							"type": "uint256"
						},
						{
							"internalType": "address",
							"name": "",
							"type": "address"
						},
						{
							"internalType": "uint256",
							"name": "",
							"type": "uint256"
						},
						{
							"internalType": "bool",
							"name": "",
							"type": "bool"
						}
					],
					"stateMutability": "view",
					"type": "function"
				},
				{
					"inputs": [
						{
							"internalType": "uint256",
							"name": "index",
							"type": "uint256"
						}
					],
					"name": "removeUser",
					"outputs": [],
					"stateMutability": "nonpayable",
					"type": "function"
				},
				{
					"inputs": [
						{
							"internalType": "uint256",
							"name": "index",
							"type": "uint256"
						},
						{
							"internalType": "string",
							"name": "_username",
							"type": "string"
						},
						{
							"internalType": "uint256",
							"name": "_age",
							"type": "uint256"
						},
						{
							"internalType": "uint256",
							"name": "_grade",
							"type": "uint256"
						},
						{
							"internalType": "bool",
							"name": "_isAlive",
							"type": "bool"
						}
					],
					"name": "updateUser",
					"outputs": [],
					"stateMutability": "nonpayable",
					"type": "function"
				},
				{
					"inputs": [
						{
							"internalType": "uint256",
							"name": "",
							"type": "uint256"
						}
					],
					"name": "users",
					"outputs": [
						{
							"internalType": "string",
							"name": "username",
							"type": "string"
						},
						{
							"internalType": "uint256",
							"name": "age",
							"type": "uint256"
						},
						{
							"internalType": "address",
							"name": "account",
							"type": "address"
						},
						{
							"internalType": "uint256",
							"name": "grade",
							"type": "uint256"
						},
						{
							"internalType": "bool",
							"name": "isAlive",
							"type": "bool"
						}
					],
					"stateMutability": "view",
					"type": "function"
				}
			],
			"devdoc": {
				"kind": "dev",
				"methods": {},
				"version": 1
			},
			"evm": {
				"assembly": "    /* \"contracts/user.sol\":66:1307  contract Struct {... */\n  mstore(0x40, 0x80)\n  callvalue\n  dup1\n  iszero\n  tag_1\n  jumpi\n  0x00\n  dup1\n  revert\ntag_1:\n  pop\n  dataSize(sub_0)\n  dup1\n  dataOffset(sub_0)\n  0x00\n  codecopy\n  0x00\n  return\nstop\n\nsub_0: assembly {\n        /* \"contracts/user.sol\":66:1307  contract Struct {... */\n      mstore(0x40, 0x80)\n      callvalue\n      dup1\n      iszero\n      tag_1\n      jumpi\n      0x00\n      dup1\n      revert\n    tag_1:\n      pop\n      jumpi(tag_2, lt(calldatasize, 0x04))\n      shr(0xe0, calldataload(0x00))\n      dup1\n      0x11dc4703\n      eq\n      tag_3\n      jumpi\n      dup1\n      0x365b98b2\n      eq\n      tag_4\n      jumpi\n      dup1\n      0x9ed29554\n      eq\n      tag_5\n      jumpi\n      dup1\n      0xadd4e5c2\n      eq\n      tag_6\n      jumpi\n      dup1\n      0xd379dadf\n      eq\n      tag_7\n      jumpi\n    tag_2:\n      0x00\n      dup1\n      revert\n        /* \"contracts/user.sol\":520:640  function removeUser(uint256 index) public {... */\n    tag_3:\n      tag_8\n      0x04\n      dup1\n      calldatasize\n      sub\n      dup2\n      add\n      swap1\n      tag_9\n      swap2\n      swap1\n      tag_10\n      jump\t// in\n    tag_9:\n      tag_11\n      jump\t// in\n    tag_8:\n      stop\n        /* \"contracts/user.sol\":240:259  User[] public users */\n    tag_4:\n      tag_12\n      0x04\n      dup1\n      calldatasize\n      sub\n      dup2\n      add\n      swap1\n      tag_13\n      swap2\n      swap1\n      tag_10\n      jump\t// in\n    tag_13:\n      tag_14\n      jump\t// in\n    tag_12:\n      mload(0x40)\n      tag_15\n      swap6\n      swap5\n      swap4\n      swap3\n      swap2\n      swap1\n      tag_16\n      jump\t// in\n    tag_15:\n      mload(0x40)\n      dup1\n      swap2\n      sub\n      swap1\n      return\n        /* \"contracts/user.sol\":268:512  function addUser(... */\n    tag_5:\n      tag_17\n      0x04\n      dup1\n      calldatasize\n      sub\n      dup2\n      add\n      swap1\n      tag_18\n      swap2\n      swap1\n      tag_19\n      jump\t// in\n    tag_18:\n      tag_20\n      jump\t// in\n    tag_17:\n      stop\n        /* \"contracts/user.sol\":648:1018  function updateUser(... */\n    tag_6:\n      tag_21\n      0x04\n      dup1\n      calldatasize\n      sub\n      dup2\n      add\n      swap1\n      tag_22\n      swap2\n      swap1\n      tag_23\n      jump\t// in\n    tag_22:\n      tag_24\n      jump\t// in\n    tag_21:\n      stop\n        /* \"contracts/user.sol\":1026:1304  function getUserInfo(uint256 index) public view returns (string memory, uint256, address, uint256, bool) {... */\n    tag_7:\n      tag_25\n      0x04\n      dup1\n      calldatasize\n      sub\n      dup2\n      add\n      swap1\n      tag_26\n      swap2\n      swap1\n      tag_10\n      jump\t// in\n    tag_26:\n      tag_27\n      jump\t// in\n    tag_25:\n      mload(0x40)\n      tag_28\n      swap6\n      swap5\n      swap4\n      swap3\n      swap2\n      swap1\n      tag_16\n      jump\t// in\n    tag_28:\n      mload(0x40)\n      dup1\n      swap2\n      sub\n      swap1\n      return\n        /* \"contracts/user.sol\":520:640  function removeUser(uint256 index) public {... */\n    tag_11:\n        /* \"contracts/user.sol\":589:594  users */\n      0x00\n        /* \"contracts/user.sol\":589:601  users.length */\n      dup1\n      sload\n      swap1\n      pop\n        /* \"contracts/user.sol\":581:586  index */\n      dup2\n        /* \"contracts/user.sol\":581:601  index < users.length */\n      lt\n        /* \"contracts/user.sol\":573:602  require(index < users.length) */\n      tag_30\n      jumpi\n      0x00\n      dup1\n      revert\n    tag_30:\n        /* \"contracts/user.sol\":620:625  users */\n      0x00\n        /* \"contracts/user.sol\":626:631  index */\n      dup2\n        /* \"contracts/user.sol\":620:632  users[index] */\n      dup2\n      sload\n      dup2\n      lt\n      tag_31\n      jumpi\n      tag_32\n      tag_33\n      jump\t// in\n    tag_32:\n    tag_31:\n      swap1\n      0x00\n      mstore\n      keccak256(0x00, 0x20)\n      swap1\n      0x05\n      mul\n      add\n      0x00\n        /* \"contracts/user.sol\":613:632  delete users[index] */\n      dup1\n      dup3\n      add\n      0x00\n      tag_35\n      swap2\n      swap1\n      tag_36\n      jump\t// in\n    tag_35:\n      0x01\n      dup3\n      add\n      0x00\n      swap1\n      sstore\n      0x02\n      dup3\n      add\n      exp(0x0100, 0x00)\n      dup2\n      sload\n      swap1\n      0xffffffffffffffffffffffffffffffffffffffff\n      mul\n      not\n      and\n      swap1\n      sstore\n      0x03\n      dup3\n      add\n      0x00\n      swap1\n      sstore\n      0x04\n      dup3\n      add\n      exp(0x0100, 0x00)\n      dup2\n      sload\n      swap1\n      0xff\n      mul\n      not\n      and\n      swap1\n      sstore\n      pop\n      pop\n        /* \"contracts/user.sol\":520:640  function removeUser(uint256 index) public {... */\n      pop\n      jump\t// out\n        /* \"contracts/user.sol\":240:259  User[] public users */\n    tag_14:\n      0x00\n      dup2\n      dup2\n      sload\n      dup2\n      lt\n      tag_37\n      jumpi\n      0x00\n      dup1\n      revert\n    tag_37:\n      swap1\n      0x00\n      mstore\n      keccak256(0x00, 0x20)\n      swap1\n      0x05\n      mul\n      add\n      0x00\n      swap2\n      pop\n      swap1\n      pop\n      dup1\n      0x00\n      add\n      dup1\n      sload\n      tag_39\n      swap1\n      tag_40\n      jump\t// in\n    tag_39:\n      dup1\n      0x1f\n      add\n      0x20\n      dup1\n      swap2\n      div\n      mul\n      0x20\n      add\n      mload(0x40)\n      swap1\n      dup2\n      add\n      0x40\n      mstore\n      dup1\n      swap3\n      swap2\n      swap1\n      dup2\n      dup2\n      mstore\n      0x20\n      add\n      dup3\n      dup1\n      sload\n      tag_41\n      swap1\n      tag_40\n      jump\t// in\n    tag_41:\n      dup1\n      iszero\n      tag_42\n      jumpi\n      dup1\n      0x1f\n      lt\n      tag_43\n      jumpi\n      0x0100\n      dup1\n      dup4\n      sload\n      div\n      mul\n      dup4\n      mstore\n      swap2\n      0x20\n      add\n      swap2\n      jump(tag_42)\n    tag_43:\n      dup3\n      add\n      swap2\n      swap1\n      0x00\n      mstore\n      keccak256(0x00, 0x20)\n      swap1\n    tag_44:\n      dup2\n      sload\n      dup2\n      mstore\n      swap1\n      0x01\n      add\n      swap1\n      0x20\n      add\n      dup1\n      dup4\n      gt\n      tag_44\n      jumpi\n      dup3\n      swap1\n      sub\n      0x1f\n      and\n      dup3\n      add\n      swap2\n    tag_42:\n      pop\n      pop\n      pop\n      pop\n      pop\n      swap1\n      dup1\n      0x01\n      add\n      sload\n      swap1\n      dup1\n      0x02\n      add\n      0x00\n      swap1\n      sload\n      swap1\n      0x0100\n      exp\n      swap1\n      div\n      0xffffffffffffffffffffffffffffffffffffffff\n      and\n      swap1\n      dup1\n      0x03\n      add\n      sload\n      swap1\n      dup1\n      0x04\n      add\n      0x00\n      swap1\n      sload\n      swap1\n      0x0100\n      exp\n      swap1\n      div\n      0xff\n      and\n      swap1\n      pop\n      dup6\n      jump\t// out\n        /* \"contracts/user.sol\":268:512  function addUser(... */\n    tag_20:\n        /* \"contracts/user.sol\":443:448  users */\n      0x00\n        /* \"contracts/user.sol\":454:503  User(_username, _age, _account, _grade, _isAlive) */\n      mload(0x40)\n      dup1\n      0xa0\n      add\n      0x40\n      mstore\n      dup1\n        /* \"contracts/user.sol\":459:468  _username */\n      dup8\n        /* \"contracts/user.sol\":454:503  User(_username, _age, _account, _grade, _isAlive) */\n      dup2\n      mstore\n      0x20\n      add\n        /* \"contracts/user.sol\":470:474  _age */\n      dup7\n        /* \"contracts/user.sol\":454:503  User(_username, _age, _account, _grade, _isAlive) */\n      dup2\n      mstore\n      0x20\n      add\n        /* \"contracts/user.sol\":476:484  _account */\n      dup6\n        /* \"contracts/user.sol\":454:503  User(_username, _age, _account, _grade, _isAlive) */\n      0xffffffffffffffffffffffffffffffffffffffff\n      and\n      dup2\n      mstore\n      0x20\n      add\n        /* \"contracts/user.sol\":486:492  _grade */\n      dup5\n        /* \"contracts/user.sol\":454:503  User(_username, _age, _account, _grade, _isAlive) */\n      dup2\n      mstore\n      0x20\n      add\n        /* \"contracts/user.sol\":494:502  _isAlive */\n      dup4\n        /* \"contracts/user.sol\":454:503  User(_username, _age, _account, _grade, _isAlive) */\n      iszero\n      iszero\n      dup2\n      mstore\n      pop\n        /* \"contracts/user.sol\":443:504  users.push(User(_username, _age, _account, _grade, _isAlive)) */\n      swap1\n      dup1\n      0x01\n      dup2\n      sload\n      add\n      dup1\n      dup3\n      sstore\n      dup1\n      swap2\n      pop\n      pop\n      0x01\n      swap1\n      sub\n      swap1\n      0x00\n      mstore\n      keccak256(0x00, 0x20)\n      swap1\n      0x05\n      mul\n      add\n      0x00\n      swap1\n      swap2\n      swap1\n      swap2\n      swap1\n      swap2\n      pop\n      0x00\n      dup3\n      add\n      mload\n      dup2\n      0x00\n      add\n      swap1\n      dup2\n      tag_47\n      swap2\n      swap1\n      tag_48\n      jump\t// in\n    tag_47:\n      pop\n      0x20\n      dup3\n      add\n      mload\n      dup2\n      0x01\n      add\n      sstore\n      0x40\n      dup3\n      add\n      mload\n      dup2\n      0x02\n      add\n      exp(0x0100, 0x00)\n      dup2\n      sload\n      dup2\n      0xffffffffffffffffffffffffffffffffffffffff\n      mul\n      not\n      and\n      swap1\n      dup4\n      0xffffffffffffffffffffffffffffffffffffffff\n      and\n      mul\n      or\n      swap1\n      sstore\n      pop\n      0x60\n      dup3\n      add\n      mload\n      dup2\n      0x03\n      add\n      sstore\n      0x80\n      dup3\n      add\n      mload\n      dup2\n      0x04\n      add\n      exp(0x0100, 0x00)\n      dup2\n      sload\n      dup2\n      0xff\n      mul\n      not\n      and\n      swap1\n      dup4\n      iszero\n      iszero\n      mul\n      or\n      swap1\n      sstore\n      pop\n      pop\n      pop\n        /* \"contracts/user.sol\":268:512  function addUser(... */\n      pop\n      pop\n      pop\n      pop\n      pop\n      jump\t// out\n        /* \"contracts/user.sol\":648:1018  function updateUser(... */\n    tag_24:\n        /* \"contracts/user.sol\":839:844  users */\n      0x00\n        /* \"contracts/user.sol\":839:851  users.length */\n      dup1\n      sload\n      swap1\n      pop\n        /* \"contracts/user.sol\":831:836  index */\n      dup6\n        /* \"contracts/user.sol\":831:851  index < users.length */\n      lt\n        /* \"contracts/user.sol\":823:852  require(index < users.length) */\n      tag_50\n      jumpi\n      0x00\n      dup1\n      revert\n    tag_50:\n        /* \"contracts/user.sol\":887:896  _username */\n      dup4\n        /* \"contracts/user.sol\":863:868  users */\n      0x00\n        /* \"contracts/user.sol\":869:874  index */\n      dup7\n        /* \"contracts/user.sol\":863:875  users[index] */\n      dup2\n      sload\n      dup2\n      lt\n      tag_51\n      jumpi\n      tag_52\n      tag_33\n      jump\t// in\n    tag_52:\n    tag_51:\n      swap1\n      0x00\n      mstore\n      keccak256(0x00, 0x20)\n      swap1\n      0x05\n      mul\n      add\n        /* \"contracts/user.sol\":863:884  users[index].username */\n      0x00\n      add\n        /* \"contracts/user.sol\":863:896  users[index].username = _username */\n      swap1\n      dup2\n      tag_54\n      swap2\n      swap1\n      tag_48\n      jump\t// in\n    tag_54:\n      pop\n        /* \"contracts/user.sol\":926:930  _age */\n      dup3\n        /* \"contracts/user.sol\":907:912  users */\n      0x00\n        /* \"contracts/user.sol\":913:918  index */\n      dup7\n        /* \"contracts/user.sol\":907:919  users[index] */\n      dup2\n      sload\n      dup2\n      lt\n      tag_55\n      jumpi\n      tag_56\n      tag_33\n      jump\t// in\n    tag_56:\n    tag_55:\n      swap1\n      0x00\n      mstore\n      keccak256(0x00, 0x20)\n      swap1\n      0x05\n      mul\n      add\n        /* \"contracts/user.sol\":907:923  users[index].age */\n      0x01\n      add\n        /* \"contracts/user.sol\":907:930  users[index].age = _age */\n      dup2\n      swap1\n      sstore\n      pop\n        /* \"contracts/user.sol\":962:968  _grade */\n      dup2\n        /* \"contracts/user.sol\":941:946  users */\n      0x00\n        /* \"contracts/user.sol\":947:952  index */\n      dup7\n        /* \"contracts/user.sol\":941:953  users[index] */\n      dup2\n      sload\n      dup2\n      lt\n      tag_58\n      jumpi\n      tag_59\n      tag_33\n      jump\t// in\n    tag_59:\n    tag_58:\n      swap1\n      0x00\n      mstore\n      keccak256(0x00, 0x20)\n      swap1\n      0x05\n      mul\n      add\n        /* \"contracts/user.sol\":941:959  users[index].grade */\n      0x03\n      add\n        /* \"contracts/user.sol\":941:968  users[index].grade = _grade */\n      dup2\n      swap1\n      sstore\n      pop\n        /* \"contracts/user.sol\":1002:1010  _isAlive */\n      dup1\n        /* \"contracts/user.sol\":979:984  users */\n      0x00\n        /* \"contracts/user.sol\":985:990  index */\n      dup7\n        /* \"contracts/user.sol\":979:991  users[index] */\n      dup2\n      sload\n      dup2\n      lt\n      tag_61\n      jumpi\n      tag_62\n      tag_33\n      jump\t// in\n    tag_62:\n    tag_61:\n      swap1\n      0x00\n      mstore\n      keccak256(0x00, 0x20)\n      swap1\n      0x05\n      mul\n      add\n        /* \"contracts/user.sol\":979:999  users[index].isAlive */\n      0x04\n      add\n      0x00\n        /* \"contracts/user.sol\":979:1010  users[index].isAlive = _isAlive */\n      0x0100\n      exp\n      dup2\n      sload\n      dup2\n      0xff\n      mul\n      not\n      and\n      swap1\n      dup4\n      iszero\n      iszero\n      mul\n      or\n      swap1\n      sstore\n      pop\n        /* \"contracts/user.sol\":648:1018  function updateUser(... */\n      pop\n      pop\n      pop\n      pop\n      pop\n      jump\t// out\n        /* \"contracts/user.sol\":1026:1304  function getUserInfo(uint256 index) public view returns (string memory, uint256, address, uint256, bool) {... */\n    tag_27:\n        /* \"contracts/user.sol\":1083:1096  string memory */\n      0x60\n        /* \"contracts/user.sol\":1098:1105  uint256 */\n      0x00\n        /* \"contracts/user.sol\":1107:1114  address */\n      dup1\n        /* \"contracts/user.sol\":1116:1123  uint256 */\n      0x00\n        /* \"contracts/user.sol\":1125:1129  bool */\n      dup1\n        /* \"contracts/user.sol\":1158:1163  users */\n      0x00\n        /* \"contracts/user.sol\":1158:1170  users.length */\n      dup1\n      sload\n      swap1\n      pop\n        /* \"contracts/user.sol\":1150:1155  index */\n      dup7\n        /* \"contracts/user.sol\":1150:1170  index < users.length */\n      lt\n        /* \"contracts/user.sol\":1142:1171  require(index < users.length) */\n      tag_65\n      jumpi\n      0x00\n      dup1\n      revert\n    tag_65:\n        /* \"contracts/user.sol\":1182:1198  User memory user */\n      0x00\n        /* \"contracts/user.sol\":1201:1206  users */\n      dup1\n        /* \"contracts/user.sol\":1207:1212  index */\n      dup8\n        /* \"contracts/user.sol\":1201:1213  users[index] */\n      dup2\n      sload\n      dup2\n      lt\n      tag_66\n      jumpi\n      tag_67\n      tag_33\n      jump\t// in\n    tag_67:\n    tag_66:\n      swap1\n      0x00\n      mstore\n      keccak256(0x00, 0x20)\n      swap1\n      0x05\n      mul\n      add\n        /* \"contracts/user.sol\":1182:1213  User memory user = users[index] */\n      mload(0x40)\n      dup1\n      0xa0\n      add\n      0x40\n      mstore\n      swap1\n      dup2\n      0x00\n      dup3\n      add\n      dup1\n      sload\n      tag_69\n      swap1\n      tag_40\n      jump\t// in\n    tag_69:\n      dup1\n      0x1f\n      add\n      0x20\n      dup1\n      swap2\n      div\n      mul\n      0x20\n      add\n      mload(0x40)\n      swap1\n      dup2\n      add\n      0x40\n      mstore\n      dup1\n      swap3\n      swap2\n      swap1\n      dup2\n      dup2\n      mstore\n      0x20\n      add\n      dup3\n      dup1\n      sload\n      tag_70\n      swap1\n      tag_40\n      jump\t// in\n    tag_70:\n      dup1\n      iszero\n      tag_71\n      jumpi\n      dup1\n      0x1f\n      lt\n      tag_72\n      jumpi\n      0x0100\n      dup1\n      dup4\n      sload\n      div\n      mul\n      dup4\n      mstore\n      swap2\n      0x20\n      add\n      swap2\n      jump(tag_71)\n    tag_72:\n      dup3\n      add\n      swap2\n      swap1\n      0x00\n      mstore\n      keccak256(0x00, 0x20)\n      swap1\n    tag_73:\n      dup2\n      sload\n      dup2\n      mstore\n      swap1\n      0x01\n      add\n      swap1\n      0x20\n      add\n      dup1\n      dup4\n      gt\n      tag_73\n      jumpi\n      dup3\n      swap1\n      sub\n      0x1f\n      and\n      dup3\n      add\n      swap2\n    tag_71:\n      pop\n      pop\n      pop\n      pop\n      pop\n      dup2\n      mstore\n      0x20\n      add\n      0x01\n      dup3\n      add\n      sload\n      dup2\n      mstore\n      0x20\n      add\n      0x02\n      dup3\n      add\n      0x00\n      swap1\n      sload\n      swap1\n      0x0100\n      exp\n      swap1\n      div\n      0xffffffffffffffffffffffffffffffffffffffff\n      and\n      0xffffffffffffffffffffffffffffffffffffffff\n      and\n      0xffffffffffffffffffffffffffffffffffffffff\n      and\n      dup2\n      mstore\n      0x20\n      add\n      0x03\n      dup3\n      add\n      sload\n      dup2\n      mstore\n      0x20\n      add\n      0x04\n      dup3\n      add\n      0x00\n      swap1\n      sload\n      swap1\n      0x0100\n      exp\n      swap1\n      div\n      0xff\n      and\n      iszero\n      iszero\n      iszero\n      iszero\n      dup2\n      mstore\n      pop\n      pop\n      swap1\n      pop\n        /* \"contracts/user.sol\":1232:1236  user */\n      dup1\n        /* \"contracts/user.sol\":1232:1245  user.username */\n      0x00\n      add\n      mload\n        /* \"contracts/user.sol\":1247:1251  user */\n      dup2\n        /* \"contracts/user.sol\":1247:1255  user.age */\n      0x20\n      add\n      mload\n        /* \"contracts/user.sol\":1257:1261  user */\n      dup3\n        /* \"contracts/user.sol\":1257:1269  user.account */\n      0x40\n      add\n      mload\n        /* \"contracts/user.sol\":1271:1275  user */\n      dup4\n        /* \"contracts/user.sol\":1271:1281  user.grade */\n      0x60\n      add\n      mload\n        /* \"contracts/user.sol\":1283:1287  user */\n      dup5\n        /* \"contracts/user.sol\":1283:1295  user.isAlive */\n      0x80\n      add\n      mload\n        /* \"contracts/user.sol\":1224:1296  return (user.username, user.age, user.account, user.grade, user.isAlive) */\n      swap6\n      pop\n      swap6\n      pop\n      swap6\n      pop\n      swap6\n      pop\n      swap6\n      pop\n      pop\n        /* \"contracts/user.sol\":1026:1304  function getUserInfo(uint256 index) public view returns (string memory, uint256, address, uint256, bool) {... */\n      swap2\n      swap4\n      swap6\n      swap1\n      swap3\n      swap5\n      pop\n      jump\t// out\n    tag_36:\n      pop\n      dup1\n      sload\n      tag_74\n      swap1\n      tag_40\n      jump\t// in\n    tag_74:\n      0x00\n      dup3\n      sstore\n      dup1\n      0x1f\n      lt\n      tag_76\n      jumpi\n      pop\n      jump(tag_75)\n    tag_76:\n      0x1f\n      add\n      0x20\n      swap1\n      div\n      swap1\n      0x00\n      mstore\n      keccak256(0x00, 0x20)\n      swap1\n      dup2\n      add\n      swap1\n      tag_77\n      swap2\n      swap1\n      tag_78\n      jump\t// in\n    tag_77:\n    tag_75:\n      pop\n      jump\t// out\n    tag_78:\n    tag_79:\n      dup1\n      dup3\n      gt\n      iszero\n      tag_80\n      jumpi\n      0x00\n      dup2\n      0x00\n      swap1\n      sstore\n      pop\n      0x01\n      add\n      jump(tag_79)\n    tag_80:\n      pop\n      swap1\n      jump\t// out\n        /* \"#utility.yul\":7:82   */\n    tag_81:\n        /* \"#utility.yul\":40:46   */\n      0x00\n        /* \"#utility.yul\":73:75   */\n      0x40\n        /* \"#utility.yul\":67:76   */\n      mload\n        /* \"#utility.yul\":57:76   */\n      swap1\n      pop\n        /* \"#utility.yul\":7:82   */\n      swap1\n      jump\t// out\n        /* \"#utility.yul\":88:205   */\n    tag_82:\n        /* \"#utility.yul\":197:198   */\n      0x00\n        /* \"#utility.yul\":194:195   */\n      dup1\n        /* \"#utility.yul\":187:199   */\n      revert\n        /* \"#utility.yul\":211:328   */\n    tag_83:\n        /* \"#utility.yul\":320:321   */\n      0x00\n        /* \"#utility.yul\":317:318   */\n      dup1\n        /* \"#utility.yul\":310:322   */\n      revert\n        /* \"#utility.yul\":334:411   */\n    tag_84:\n        /* \"#utility.yul\":371:378   */\n      0x00\n        /* \"#utility.yul\":400:405   */\n      dup2\n        /* \"#utility.yul\":389:405   */\n      swap1\n      pop\n        /* \"#utility.yul\":334:411   */\n      swap2\n      swap1\n      pop\n      jump\t// out\n        /* \"#utility.yul\":417:539   */\n    tag_85:\n        /* \"#utility.yul\":490:514   */\n      tag_133\n        /* \"#utility.yul\":508:513   */\n      dup2\n        /* \"#utility.yul\":490:514   */\n      tag_84\n      jump\t// in\n    tag_133:\n        /* \"#utility.yul\":483:488   */\n      dup2\n        /* \"#utility.yul\":480:515   */\n      eq\n        /* \"#utility.yul\":470:533   */\n      tag_134\n      jumpi\n        /* \"#utility.yul\":529:530   */\n      0x00\n        /* \"#utility.yul\":526:527   */\n      dup1\n        /* \"#utility.yul\":519:531   */\n      revert\n        /* \"#utility.yul\":470:533   */\n    tag_134:\n        /* \"#utility.yul\":417:539   */\n      pop\n      jump\t// out\n        /* \"#utility.yul\":545:684   */\n    tag_86:\n        /* \"#utility.yul\":591:596   */\n      0x00\n        /* \"#utility.yul\":629:635   */\n      dup2\n        /* \"#utility.yul\":616:636   */\n      calldataload\n        /* \"#utility.yul\":607:636   */\n      swap1\n      pop\n        /* \"#utility.yul\":645:678   */\n      tag_136\n        /* \"#utility.yul\":672:677   */\n      dup2\n        /* \"#utility.yul\":645:678   */\n      tag_85\n      jump\t// in\n    tag_136:\n        /* \"#utility.yul\":545:684   */\n      swap3\n      swap2\n      pop\n      pop\n      jump\t// out\n        /* \"#utility.yul\":690:1019   */\n    tag_10:\n        /* \"#utility.yul\":749:755   */\n      0x00\n        /* \"#utility.yul\":798:800   */\n      0x20\n        /* \"#utility.yul\":786:795   */\n      dup3\n        /* \"#utility.yul\":777:784   */\n      dup5\n        /* \"#utility.yul\":773:796   */\n      sub\n        /* \"#utility.yul\":769:801   */\n      slt\n        /* \"#utility.yul\":766:885   */\n      iszero\n      tag_138\n      jumpi\n        /* \"#utility.yul\":804:883   */\n      tag_139\n      tag_82\n      jump\t// in\n    tag_139:\n        /* \"#utility.yul\":766:885   */\n    tag_138:\n        /* \"#utility.yul\":924:925   */\n      0x00\n        /* \"#utility.yul\":949:1002   */\n      tag_140\n        /* \"#utility.yul\":994:1001   */\n      dup5\n        /* \"#utility.yul\":985:991   */\n      dup3\n        /* \"#utility.yul\":974:983   */\n      dup6\n        /* \"#utility.yul\":970:992   */\n      add\n        /* \"#utility.yul\":949:1002   */\n      tag_86\n      jump\t// in\n    tag_140:\n        /* \"#utility.yul\":939:1002   */\n      swap2\n      pop\n        /* \"#utility.yul\":895:1012   */\n      pop\n        /* \"#utility.yul\":690:1019   */\n      swap3\n      swap2\n      pop\n      pop\n      jump\t// out\n        /* \"#utility.yul\":1025:1124   */\n    tag_87:\n        /* \"#utility.yul\":1077:1083   */\n      0x00\n        /* \"#utility.yul\":1111:1116   */\n      dup2\n        /* \"#utility.yul\":1105:1117   */\n      mload\n        /* \"#utility.yul\":1095:1117   */\n      swap1\n      pop\n        /* \"#utility.yul\":1025:1124   */\n      swap2\n      swap1\n      pop\n      jump\t// out\n        /* \"#utility.yul\":1130:1299   */\n    tag_88:\n        /* \"#utility.yul\":1214:1225   */\n      0x00\n        /* \"#utility.yul\":1248:1254   */\n      dup3\n        /* \"#utility.yul\":1243:1246   */\n      dup3\n        /* \"#utility.yul\":1236:1255   */\n      mstore\n        /* \"#utility.yul\":1288:1292   */\n      0x20\n        /* \"#utility.yul\":1283:1286   */\n      dup3\n        /* \"#utility.yul\":1279:1293   */\n      add\n        /* \"#utility.yul\":1264:1293   */\n      swap1\n      pop\n        /* \"#utility.yul\":1130:1299   */\n      swap3\n      swap2\n      pop\n      pop\n      jump\t// out\n        /* \"#utility.yul\":1305:1551   */\n    tag_89:\n        /* \"#utility.yul\":1386:1387   */\n      0x00\n        /* \"#utility.yul\":1396:1509   */\n    tag_144:\n        /* \"#utility.yul\":1410:1416   */\n      dup4\n        /* \"#utility.yul\":1407:1408   */\n      dup2\n        /* \"#utility.yul\":1404:1417   */\n      lt\n        /* \"#utility.yul\":1396:1509   */\n      iszero\n      tag_146\n      jumpi\n        /* \"#utility.yul\":1495:1496   */\n      dup1\n        /* \"#utility.yul\":1490:1493   */\n      dup3\n        /* \"#utility.yul\":1486:1497   */\n      add\n        /* \"#utility.yul\":1480:1498   */\n      mload\n        /* \"#utility.yul\":1476:1477   */\n      dup2\n        /* \"#utility.yul\":1471:1474   */\n      dup5\n        /* \"#utility.yul\":1467:1478   */\n      add\n        /* \"#utility.yul\":1460:1499   */\n      mstore\n        /* \"#utility.yul\":1432:1434   */\n      0x20\n        /* \"#utility.yul\":1429:1430   */\n      dup2\n        /* \"#utility.yul\":1425:1435   */\n      add\n        /* \"#utility.yul\":1420:1435   */\n      swap1\n      pop\n        /* \"#utility.yul\":1396:1509   */\n      jump(tag_144)\n    tag_146:\n        /* \"#utility.yul\":1543:1544   */\n      0x00\n        /* \"#utility.yul\":1534:1540   */\n      dup5\n        /* \"#utility.yul\":1529:1532   */\n      dup5\n        /* \"#utility.yul\":1525:1541   */\n      add\n        /* \"#utility.yul\":1518:1545   */\n      mstore\n        /* \"#utility.yul\":1367:1551   */\n      pop\n        /* \"#utility.yul\":1305:1551   */\n      pop\n      pop\n      pop\n      jump\t// out\n        /* \"#utility.yul\":1557:1659   */\n    tag_90:\n        /* \"#utility.yul\":1598:1604   */\n      0x00\n        /* \"#utility.yul\":1649:1651   */\n      0x1f\n        /* \"#utility.yul\":1645:1652   */\n      not\n        /* \"#utility.yul\":1640:1642   */\n      0x1f\n        /* \"#utility.yul\":1633:1638   */\n      dup4\n        /* \"#utility.yul\":1629:1643   */\n      add\n        /* \"#utility.yul\":1625:1653   */\n      and\n        /* \"#utility.yul\":1615:1653   */\n      swap1\n      pop\n        /* \"#utility.yul\":1557:1659   */\n      swap2\n      swap1\n      pop\n      jump\t// out\n        /* \"#utility.yul\":1665:2042   */\n    tag_91:\n        /* \"#utility.yul\":1753:1756   */\n      0x00\n        /* \"#utility.yul\":1781:1820   */\n      tag_149\n        /* \"#utility.yul\":1814:1819   */\n      dup3\n        /* \"#utility.yul\":1781:1820   */\n      tag_87\n      jump\t// in\n    tag_149:\n        /* \"#utility.yul\":1836:1907   */\n      tag_150\n        /* \"#utility.yul\":1900:1906   */\n      dup2\n        /* \"#utility.yul\":1895:1898   */\n      dup6\n        /* \"#utility.yul\":1836:1907   */\n      tag_88\n      jump\t// in\n    tag_150:\n        /* \"#utility.yul\":1829:1907   */\n      swap4\n      pop\n        /* \"#utility.yul\":1916:1981   */\n      tag_151\n        /* \"#utility.yul\":1974:1980   */\n      dup2\n        /* \"#utility.yul\":1969:1972   */\n      dup6\n        /* \"#utility.yul\":1962:1966   */\n      0x20\n        /* \"#utility.yul\":1955:1960   */\n      dup7\n        /* \"#utility.yul\":1951:1967   */\n      add\n        /* \"#utility.yul\":1916:1981   */\n      tag_89\n      jump\t// in\n    tag_151:\n        /* \"#utility.yul\":2006:2035   */\n      tag_152\n        /* \"#utility.yul\":2028:2034   */\n      dup2\n        /* \"#utility.yul\":2006:2035   */\n      tag_90\n      jump\t// in\n    tag_152:\n        /* \"#utility.yul\":2001:2004   */\n      dup5\n        /* \"#utility.yul\":1997:2036   */\n      add\n        /* \"#utility.yul\":1990:2036   */\n      swap2\n      pop\n        /* \"#utility.yul\":1757:2042   */\n      pop\n        /* \"#utility.yul\":1665:2042   */\n      swap3\n      swap2\n      pop\n      pop\n      jump\t// out\n        /* \"#utility.yul\":2048:2166   */\n    tag_92:\n        /* \"#utility.yul\":2135:2159   */\n      tag_154\n        /* \"#utility.yul\":2153:2158   */\n      dup2\n        /* \"#utility.yul\":2135:2159   */\n      tag_84\n      jump\t// in\n    tag_154:\n        /* \"#utility.yul\":2130:2133   */\n      dup3\n        /* \"#utility.yul\":2123:2160   */\n      mstore\n        /* \"#utility.yul\":2048:2166   */\n      pop\n      pop\n      jump\t// out\n        /* \"#utility.yul\":2172:2298   */\n    tag_93:\n        /* \"#utility.yul\":2209:2216   */\n      0x00\n        /* \"#utility.yul\":2249:2291   */\n      0xffffffffffffffffffffffffffffffffffffffff\n        /* \"#utility.yul\":2242:2247   */\n      dup3\n        /* \"#utility.yul\":2238:2292   */\n      and\n        /* \"#utility.yul\":2227:2292   */\n      swap1\n      pop\n        /* \"#utility.yul\":2172:2298   */\n      swap2\n      swap1\n      pop\n      jump\t// out\n        /* \"#utility.yul\":2304:2400   */\n    tag_94:\n        /* \"#utility.yul\":2341:2348   */\n      0x00\n        /* \"#utility.yul\":2370:2394   */\n      tag_157\n        /* \"#utility.yul\":2388:2393   */\n      dup3\n        /* \"#utility.yul\":2370:2394   */\n      tag_93\n      jump\t// in\n    tag_157:\n        /* \"#utility.yul\":2359:2394   */\n      swap1\n      pop\n        /* \"#utility.yul\":2304:2400   */\n      swap2\n      swap1\n      pop\n      jump\t// out\n        /* \"#utility.yul\":2406:2524   */\n    tag_95:\n        /* \"#utility.yul\":2493:2517   */\n      tag_159\n        /* \"#utility.yul\":2511:2516   */\n      dup2\n        /* \"#utility.yul\":2493:2517   */\n      tag_94\n      jump\t// in\n    tag_159:\n        /* \"#utility.yul\":2488:2491   */\n      dup3\n        /* \"#utility.yul\":2481:2518   */\n      mstore\n        /* \"#utility.yul\":2406:2524   */\n      pop\n      pop\n      jump\t// out\n        /* \"#utility.yul\":2530:2620   */\n    tag_96:\n        /* \"#utility.yul\":2564:2571   */\n      0x00\n        /* \"#utility.yul\":2607:2612   */\n      dup2\n        /* \"#utility.yul\":2600:2613   */\n      iszero\n        /* \"#utility.yul\":2593:2614   */\n      iszero\n        /* \"#utility.yul\":2582:2614   */\n      swap1\n      pop\n        /* \"#utility.yul\":2530:2620   */\n      swap2\n      swap1\n      pop\n      jump\t// out\n        /* \"#utility.yul\":2626:2735   */\n    tag_97:\n        /* \"#utility.yul\":2707:2728   */\n      tag_162\n        /* \"#utility.yul\":2722:2727   */\n      dup2\n        /* \"#utility.yul\":2707:2728   */\n      tag_96\n      jump\t// in\n    tag_162:\n        /* \"#utility.yul\":2702:2705   */\n      dup3\n        /* \"#utility.yul\":2695:2729   */\n      mstore\n        /* \"#utility.yul\":2626:2735   */\n      pop\n      pop\n      jump\t// out\n        /* \"#utility.yul\":2741:3484   */\n    tag_16:\n        /* \"#utility.yul\":2960:2964   */\n      0x00\n        /* \"#utility.yul\":2998:3001   */\n      0xa0\n        /* \"#utility.yul\":2987:2996   */\n      dup3\n        /* \"#utility.yul\":2983:3002   */\n      add\n        /* \"#utility.yul\":2975:3002   */\n      swap1\n      pop\n        /* \"#utility.yul\":3048:3057   */\n      dup2\n        /* \"#utility.yul\":3042:3046   */\n      dup2\n        /* \"#utility.yul\":3038:3058   */\n      sub\n        /* \"#utility.yul\":3034:3035   */\n      0x00\n        /* \"#utility.yul\":3023:3032   */\n      dup4\n        /* \"#utility.yul\":3019:3036   */\n      add\n        /* \"#utility.yul\":3012:3059   */\n      mstore\n        /* \"#utility.yul\":3076:3154   */\n      tag_164\n        /* \"#utility.yul\":3149:3153   */\n      dup2\n        /* \"#utility.yul\":3140:3146   */\n      dup9\n        /* \"#utility.yul\":3076:3154   */\n      tag_91\n      jump\t// in\n    tag_164:\n        /* \"#utility.yul\":3068:3154   */\n      swap1\n      pop\n        /* \"#utility.yul\":3164:3236   */\n      tag_165\n        /* \"#utility.yul\":3232:3234   */\n      0x20\n        /* \"#utility.yul\":3221:3230   */\n      dup4\n        /* \"#utility.yul\":3217:3235   */\n      add\n        /* \"#utility.yul\":3208:3214   */\n      dup8\n        /* \"#utility.yul\":3164:3236   */\n      tag_92\n      jump\t// in\n    tag_165:\n        /* \"#utility.yul\":3246:3318   */\n      tag_166\n        /* \"#utility.yul\":3314:3316   */\n      0x40\n        /* \"#utility.yul\":3303:3312   */\n      dup4\n        /* \"#utility.yul\":3299:3317   */\n      add\n        /* \"#utility.yul\":3290:3296   */\n      dup7\n        /* \"#utility.yul\":3246:3318   */\n      tag_95\n      jump\t// in\n    tag_166:\n        /* \"#utility.yul\":3328:3400   */\n      tag_167\n        /* \"#utility.yul\":3396:3398   */\n      0x60\n        /* \"#utility.yul\":3385:3394   */\n      dup4\n        /* \"#utility.yul\":3381:3399   */\n      add\n        /* \"#utility.yul\":3372:3378   */\n      dup6\n        /* \"#utility.yul\":3328:3400   */\n      tag_92\n      jump\t// in\n    tag_167:\n        /* \"#utility.yul\":3410:3477   */\n      tag_168\n        /* \"#utility.yul\":3472:3475   */\n      0x80\n        /* \"#utility.yul\":3461:3470   */\n      dup4\n        /* \"#utility.yul\":3457:3476   */\n      add\n        /* \"#utility.yul\":3448:3454   */\n      dup5\n        /* \"#utility.yul\":3410:3477   */\n      tag_97\n      jump\t// in\n    tag_168:\n        /* \"#utility.yul\":2741:3484   */\n      swap7\n      swap6\n      pop\n      pop\n      pop\n      pop\n      pop\n      pop\n      jump\t// out\n        /* \"#utility.yul\":3490:3607   */\n    tag_98:\n        /* \"#utility.yul\":3599:3600   */\n      0x00\n        /* \"#utility.yul\":3596:3597   */\n      dup1\n        /* \"#utility.yul\":3589:3601   */\n      revert\n        /* \"#utility.yul\":3613:3730   */\n    tag_99:\n        /* \"#utility.yul\":3722:3723   */\n      0x00\n        /* \"#utility.yul\":3719:3720   */\n      dup1\n        /* \"#utility.yul\":3712:3724   */\n      revert\n        /* \"#utility.yul\":3736:3916   */\n    tag_100:\n        /* \"#utility.yul\":3784:3861   */\n      0x4e487b7100000000000000000000000000000000000000000000000000000000\n        /* \"#utility.yul\":3781:3782   */\n      0x00\n        /* \"#utility.yul\":3774:3862   */\n      mstore\n        /* \"#utility.yul\":3881:3885   */\n      0x41\n        /* \"#utility.yul\":3878:3879   */\n      0x04\n        /* \"#utility.yul\":3871:3886   */\n      mstore\n        /* \"#utility.yul\":3905:3909   */\n      0x24\n        /* \"#utility.yul\":3902:3903   */\n      0x00\n        /* \"#utility.yul\":3895:3910   */\n      revert\n        /* \"#utility.yul\":3922:4203   */\n    tag_101:\n        /* \"#utility.yul\":4005:4032   */\n      tag_173\n        /* \"#utility.yul\":4027:4031   */\n      dup3\n        /* \"#utility.yul\":4005:4032   */\n      tag_90\n      jump\t// in\n    tag_173:\n        /* \"#utility.yul\":3997:4003   */\n      dup2\n        /* \"#utility.yul\":3993:4033   */\n      add\n        /* \"#utility.yul\":4135:4141   */\n      dup2\n        /* \"#utility.yul\":4123:4133   */\n      dup2\n        /* \"#utility.yul\":4120:4142   */\n      lt\n        /* \"#utility.yul\":4099:4117   */\n      0xffffffffffffffff\n        /* \"#utility.yul\":4087:4097   */\n      dup3\n        /* \"#utility.yul\":4084:4118   */\n      gt\n        /* \"#utility.yul\":4081:4143   */\n      or\n        /* \"#utility.yul\":4078:4166   */\n      iszero\n      tag_174\n      jumpi\n        /* \"#utility.yul\":4146:4164   */\n      tag_175\n      tag_100\n      jump\t// in\n    tag_175:\n        /* \"#utility.yul\":4078:4166   */\n    tag_174:\n        /* \"#utility.yul\":4186:4196   */\n      dup1\n        /* \"#utility.yul\":4182:4184   */\n      0x40\n        /* \"#utility.yul\":4175:4197   */\n      mstore\n        /* \"#utility.yul\":3965:4203   */\n      pop\n        /* \"#utility.yul\":3922:4203   */\n      pop\n      pop\n      jump\t// out\n        /* \"#utility.yul\":4209:4338   */\n    tag_102:\n        /* \"#utility.yul\":4243:4249   */\n      0x00\n        /* \"#utility.yul\":4270:4290   */\n      tag_177\n      tag_81\n      jump\t// in\n    tag_177:\n        /* \"#utility.yul\":4260:4290   */\n      swap1\n      pop\n        /* \"#utility.yul\":4299:4332   */\n      tag_178\n        /* \"#utility.yul\":4327:4331   */\n      dup3\n        /* \"#utility.yul\":4319:4325   */\n      dup3\n        /* \"#utility.yul\":4299:4332   */\n      tag_101\n      jump\t// in\n    tag_178:\n        /* \"#utility.yul\":4209:4338   */\n      swap2\n      swap1\n      pop\n      jump\t// out\n        /* \"#utility.yul\":4344:4652   */\n    tag_103:\n        /* \"#utility.yul\":4406:4410   */\n      0x00\n        /* \"#utility.yul\":4496:4514   */\n      0xffffffffffffffff\n        /* \"#utility.yul\":4488:4494   */\n      dup3\n        /* \"#utility.yul\":4485:4515   */\n      gt\n        /* \"#utility.yul\":4482:4538   */\n      iszero\n      tag_180\n      jumpi\n        /* \"#utility.yul\":4518:4536   */\n      tag_181\n      tag_100\n      jump\t// in\n    tag_181:\n        /* \"#utility.yul\":4482:4538   */\n    tag_180:\n        /* \"#utility.yul\":4556:4585   */\n      tag_182\n        /* \"#utility.yul\":4578:4584   */\n      dup3\n        /* \"#utility.yul\":4556:4585   */\n      tag_90\n      jump\t// in\n    tag_182:\n        /* \"#utility.yul\":4548:4585   */\n      swap1\n      pop\n        /* \"#utility.yul\":4640:4644   */\n      0x20\n        /* \"#utility.yul\":4634:4638   */\n      dup2\n        /* \"#utility.yul\":4630:4645   */\n      add\n        /* \"#utility.yul\":4622:4645   */\n      swap1\n      pop\n        /* \"#utility.yul\":4344:4652   */\n      swap2\n      swap1\n      pop\n      jump\t// out\n        /* \"#utility.yul\":4658:4804   */\n    tag_104:\n        /* \"#utility.yul\":4755:4761   */\n      dup3\n        /* \"#utility.yul\":4750:4753   */\n      dup2\n        /* \"#utility.yul\":4745:4748   */\n      dup4\n        /* \"#utility.yul\":4732:4762   */\n      calldatacopy\n        /* \"#utility.yul\":4796:4797   */\n      0x00\n        /* \"#utility.yul\":4787:4793   */\n      dup4\n        /* \"#utility.yul\":4782:4785   */\n      dup4\n        /* \"#utility.yul\":4778:4794   */\n      add\n        /* \"#utility.yul\":4771:4798   */\n      mstore\n        /* \"#utility.yul\":4658:4804   */\n      pop\n      pop\n      pop\n      jump\t// out\n        /* \"#utility.yul\":4810:5235   */\n    tag_105:\n        /* \"#utility.yul\":4888:4893   */\n      0x00\n        /* \"#utility.yul\":4913:4979   */\n      tag_185\n        /* \"#utility.yul\":4929:4978   */\n      tag_186\n        /* \"#utility.yul\":4971:4977   */\n      dup5\n        /* \"#utility.yul\":4929:4978   */\n      tag_103\n      jump\t// in\n    tag_186:\n        /* \"#utility.yul\":4913:4979   */\n      tag_102\n      jump\t// in\n    tag_185:\n        /* \"#utility.yul\":4904:4979   */\n      swap1\n      pop\n        /* \"#utility.yul\":5002:5008   */\n      dup3\n        /* \"#utility.yul\":4995:5000   */\n      dup2\n        /* \"#utility.yul\":4988:5009   */\n      mstore\n        /* \"#utility.yul\":5040:5044   */\n      0x20\n        /* \"#utility.yul\":5033:5038   */\n      dup2\n        /* \"#utility.yul\":5029:5045   */\n      add\n        /* \"#utility.yul\":5078:5081   */\n      dup5\n        /* \"#utility.yul\":5069:5075   */\n      dup5\n        /* \"#utility.yul\":5064:5067   */\n      dup5\n        /* \"#utility.yul\":5060:5076   */\n      add\n        /* \"#utility.yul\":5057:5082   */\n      gt\n        /* \"#utility.yul\":5054:5166   */\n      iszero\n      tag_187\n      jumpi\n        /* \"#utility.yul\":5085:5164   */\n      tag_188\n      tag_99\n      jump\t// in\n    tag_188:\n        /* \"#utility.yul\":5054:5166   */\n    tag_187:\n        /* \"#utility.yul\":5175:5229   */\n      tag_189\n        /* \"#utility.yul\":5222:5228   */\n      dup5\n        /* \"#utility.yul\":5217:5220   */\n      dup3\n        /* \"#utility.yul\":5212:5215   */\n      dup6\n        /* \"#utility.yul\":5175:5229   */\n      tag_104\n      jump\t// in\n    tag_189:\n        /* \"#utility.yul\":4894:5235   */\n      pop\n        /* \"#utility.yul\":4810:5235   */\n      swap4\n      swap3\n      pop\n      pop\n      pop\n      jump\t// out\n        /* \"#utility.yul\":5255:5595   */\n    tag_106:\n        /* \"#utility.yul\":5311:5316   */\n      0x00\n        /* \"#utility.yul\":5360:5363   */\n      dup3\n        /* \"#utility.yul\":5353:5357   */\n      0x1f\n        /* \"#utility.yul\":5345:5351   */\n      dup4\n        /* \"#utility.yul\":5341:5358   */\n      add\n        /* \"#utility.yul\":5337:5364   */\n      slt\n        /* \"#utility.yul\":5327:5449   */\n      tag_191\n      jumpi\n        /* \"#utility.yul\":5368:5447   */\n      tag_192\n      tag_98\n      jump\t// in\n    tag_192:\n        /* \"#utility.yul\":5327:5449   */\n    tag_191:\n        /* \"#utility.yul\":5485:5491   */\n      dup2\n        /* \"#utility.yul\":5472:5492   */\n      calldataload\n        /* \"#utility.yul\":5510:5589   */\n      tag_193\n        /* \"#utility.yul\":5585:5588   */\n      dup5\n        /* \"#utility.yul\":5577:5583   */\n      dup3\n        /* \"#utility.yul\":5570:5574   */\n      0x20\n        /* \"#utility.yul\":5562:5568   */\n      dup7\n        /* \"#utility.yul\":5558:5575   */\n      add\n        /* \"#utility.yul\":5510:5589   */\n      tag_105\n      jump\t// in\n    tag_193:\n        /* \"#utility.yul\":5501:5589   */\n      swap2\n      pop\n        /* \"#utility.yul\":5317:5595   */\n      pop\n        /* \"#utility.yul\":5255:5595   */\n      swap3\n      swap2\n      pop\n      pop\n      jump\t// out\n        /* \"#utility.yul\":5601:5723   */\n    tag_107:\n        /* \"#utility.yul\":5674:5698   */\n      tag_195\n        /* \"#utility.yul\":5692:5697   */\n      dup2\n        /* \"#utility.yul\":5674:5698   */\n      tag_94\n      jump\t// in\n    tag_195:\n        /* \"#utility.yul\":5667:5672   */\n      dup2\n        /* \"#utility.yul\":5664:5699   */\n      eq\n        /* \"#utility.yul\":5654:5717   */\n      tag_196\n      jumpi\n        /* \"#utility.yul\":5713:5714   */\n      0x00\n        /* \"#utility.yul\":5710:5711   */\n      dup1\n        /* \"#utility.yul\":5703:5715   */\n      revert\n        /* \"#utility.yul\":5654:5717   */\n    tag_196:\n        /* \"#utility.yul\":5601:5723   */\n      pop\n      jump\t// out\n        /* \"#utility.yul\":5729:5868   */\n    tag_108:\n        /* \"#utility.yul\":5775:5780   */\n      0x00\n        /* \"#utility.yul\":5813:5819   */\n      dup2\n        /* \"#utility.yul\":5800:5820   */\n      calldataload\n        /* \"#utility.yul\":5791:5820   */\n      swap1\n      pop\n        /* \"#utility.yul\":5829:5862   */\n      tag_198\n        /* \"#utility.yul\":5856:5861   */\n      dup2\n        /* \"#utility.yul\":5829:5862   */\n      tag_107\n      jump\t// in\n    tag_198:\n        /* \"#utility.yul\":5729:5868   */\n      swap3\n      swap2\n      pop\n      pop\n      jump\t// out\n        /* \"#utility.yul\":5874:5990   */\n    tag_109:\n        /* \"#utility.yul\":5944:5965   */\n      tag_200\n        /* \"#utility.yul\":5959:5964   */\n      dup2\n        /* \"#utility.yul\":5944:5965   */\n      tag_96\n      jump\t// in\n    tag_200:\n        /* \"#utility.yul\":5937:5942   */\n      dup2\n        /* \"#utility.yul\":5934:5966   */\n      eq\n        /* \"#utility.yul\":5924:5984   */\n      tag_201\n      jumpi\n        /* \"#utility.yul\":5980:5981   */\n      0x00\n        /* \"#utility.yul\":5977:5978   */\n      dup1\n        /* \"#utility.yul\":5970:5982   */\n      revert\n        /* \"#utility.yul\":5924:5984   */\n    tag_201:\n        /* \"#utility.yul\":5874:5990   */\n      pop\n      jump\t// out\n        /* \"#utility.yul\":5996:6129   */\n    tag_110:\n        /* \"#utility.yul\":6039:6044   */\n      0x00\n        /* \"#utility.yul\":6077:6083   */\n      dup2\n        /* \"#utility.yul\":6064:6084   */\n      calldataload\n        /* \"#utility.yul\":6055:6084   */\n      swap1\n      pop\n        /* \"#utility.yul\":6093:6123   */\n      tag_203\n        /* \"#utility.yul\":6117:6122   */\n      dup2\n        /* \"#utility.yul\":6093:6123   */\n      tag_109\n      jump\t// in\n    tag_203:\n        /* \"#utility.yul\":5996:6129   */\n      swap3\n      swap2\n      pop\n      pop\n      jump\t// out\n        /* \"#utility.yul\":6135:7220   */\n    tag_19:\n        /* \"#utility.yul\":6237:6243   */\n      0x00\n        /* \"#utility.yul\":6245:6251   */\n      dup1\n        /* \"#utility.yul\":6253:6259   */\n      0x00\n        /* \"#utility.yul\":6261:6267   */\n      dup1\n        /* \"#utility.yul\":6269:6275   */\n      0x00\n        /* \"#utility.yul\":6318:6321   */\n      0xa0\n        /* \"#utility.yul\":6306:6315   */\n      dup7\n        /* \"#utility.yul\":6297:6304   */\n      dup9\n        /* \"#utility.yul\":6293:6316   */\n      sub\n        /* \"#utility.yul\":6289:6322   */\n      slt\n        /* \"#utility.yul\":6286:6406   */\n      iszero\n      tag_205\n      jumpi\n        /* \"#utility.yul\":6325:6404   */\n      tag_206\n      tag_82\n      jump\t// in\n    tag_206:\n        /* \"#utility.yul\":6286:6406   */\n    tag_205:\n        /* \"#utility.yul\":6473:6474   */\n      0x00\n        /* \"#utility.yul\":6462:6471   */\n      dup7\n        /* \"#utility.yul\":6458:6475   */\n      add\n        /* \"#utility.yul\":6445:6476   */\n      calldataload\n        /* \"#utility.yul\":6503:6521   */\n      0xffffffffffffffff\n        /* \"#utility.yul\":6495:6501   */\n      dup2\n        /* \"#utility.yul\":6492:6522   */\n      gt\n        /* \"#utility.yul\":6489:6606   */\n      iszero\n      tag_207\n      jumpi\n        /* \"#utility.yul\":6525:6604   */\n      tag_208\n      tag_83\n      jump\t// in\n    tag_208:\n        /* \"#utility.yul\":6489:6606   */\n    tag_207:\n        /* \"#utility.yul\":6630:6693   */\n      tag_209\n        /* \"#utility.yul\":6685:6692   */\n      dup9\n        /* \"#utility.yul\":6676:6682   */\n      dup3\n        /* \"#utility.yul\":6665:6674   */\n      dup10\n        /* \"#utility.yul\":6661:6683   */\n      add\n        /* \"#utility.yul\":6630:6693   */\n      tag_106\n      jump\t// in\n    tag_209:\n        /* \"#utility.yul\":6620:6693   */\n      swap6\n      pop\n        /* \"#utility.yul\":6416:6703   */\n      pop\n        /* \"#utility.yul\":6742:6744   */\n      0x20\n        /* \"#utility.yul\":6768:6821   */\n      tag_210\n        /* \"#utility.yul\":6813:6820   */\n      dup9\n        /* \"#utility.yul\":6804:6810   */\n      dup3\n        /* \"#utility.yul\":6793:6802   */\n      dup10\n        /* \"#utility.yul\":6789:6811   */\n      add\n        /* \"#utility.yul\":6768:6821   */\n      tag_86\n      jump\t// in\n    tag_210:\n        /* \"#utility.yul\":6758:6821   */\n      swap5\n      pop\n        /* \"#utility.yul\":6713:6831   */\n      pop\n        /* \"#utility.yul\":6870:6872   */\n      0x40\n        /* \"#utility.yul\":6896:6949   */\n      tag_211\n        /* \"#utility.yul\":6941:6948   */\n      dup9\n        /* \"#utility.yul\":6932:6938   */\n      dup3\n        /* \"#utility.yul\":6921:6930   */\n      dup10\n        /* \"#utility.yul\":6917:6939   */\n      add\n        /* \"#utility.yul\":6896:6949   */\n      tag_108\n      jump\t// in\n    tag_211:\n        /* \"#utility.yul\":6886:6949   */\n      swap4\n      pop\n        /* \"#utility.yul\":6841:6959   */\n      pop\n        /* \"#utility.yul\":6998:7000   */\n      0x60\n        /* \"#utility.yul\":7024:7077   */\n      tag_212\n        /* \"#utility.yul\":7069:7076   */\n      dup9\n        /* \"#utility.yul\":7060:7066   */\n      dup3\n        /* \"#utility.yul\":7049:7058   */\n      dup10\n        /* \"#utility.yul\":7045:7067   */\n      add\n        /* \"#utility.yul\":7024:7077   */\n      tag_86\n      jump\t// in\n    tag_212:\n        /* \"#utility.yul\":7014:7077   */\n      swap3\n      pop\n        /* \"#utility.yul\":6969:7087   */\n      pop\n        /* \"#utility.yul\":7126:7129   */\n      0x80\n        /* \"#utility.yul\":7153:7203   */\n      tag_213\n        /* \"#utility.yul\":7195:7202   */\n      dup9\n        /* \"#utility.yul\":7186:7192   */\n      dup3\n        /* \"#utility.yul\":7175:7184   */\n      dup10\n        /* \"#utility.yul\":7171:7193   */\n      add\n        /* \"#utility.yul\":7153:7203   */\n      tag_110\n      jump\t// in\n    tag_213:\n        /* \"#utility.yul\":7143:7203   */\n      swap2\n      pop\n        /* \"#utility.yul\":7097:7213   */\n      pop\n        /* \"#utility.yul\":6135:7220   */\n      swap3\n      swap6\n      pop\n      swap3\n      swap6\n      swap1\n      swap4\n      pop\n      jump\t// out\n        /* \"#utility.yul\":7226:8311   */\n    tag_23:\n        /* \"#utility.yul\":7328:7334   */\n      0x00\n        /* \"#utility.yul\":7336:7342   */\n      dup1\n        /* \"#utility.yul\":7344:7350   */\n      0x00\n        /* \"#utility.yul\":7352:7358   */\n      dup1\n        /* \"#utility.yul\":7360:7366   */\n      0x00\n        /* \"#utility.yul\":7409:7412   */\n      0xa0\n        /* \"#utility.yul\":7397:7406   */\n      dup7\n        /* \"#utility.yul\":7388:7395   */\n      dup9\n        /* \"#utility.yul\":7384:7407   */\n      sub\n        /* \"#utility.yul\":7380:7413   */\n      slt\n        /* \"#utility.yul\":7377:7497   */\n      iszero\n      tag_215\n      jumpi\n        /* \"#utility.yul\":7416:7495   */\n      tag_216\n      tag_82\n      jump\t// in\n    tag_216:\n        /* \"#utility.yul\":7377:7497   */\n    tag_215:\n        /* \"#utility.yul\":7536:7537   */\n      0x00\n        /* \"#utility.yul\":7561:7614   */\n      tag_217\n        /* \"#utility.yul\":7606:7613   */\n      dup9\n        /* \"#utility.yul\":7597:7603   */\n      dup3\n        /* \"#utility.yul\":7586:7595   */\n      dup10\n        /* \"#utility.yul\":7582:7604   */\n      add\n        /* \"#utility.yul\":7561:7614   */\n      tag_86\n      jump\t// in\n    tag_217:\n        /* \"#utility.yul\":7551:7614   */\n      swap6\n      pop\n        /* \"#utility.yul\":7507:7624   */\n      pop\n        /* \"#utility.yul\":7691:7693   */\n      0x20\n        /* \"#utility.yul\":7680:7689   */\n      dup7\n        /* \"#utility.yul\":7676:7694   */\n      add\n        /* \"#utility.yul\":7663:7695   */\n      calldataload\n        /* \"#utility.yul\":7722:7740   */\n      0xffffffffffffffff\n        /* \"#utility.yul\":7714:7720   */\n      dup2\n        /* \"#utility.yul\":7711:7741   */\n      gt\n        /* \"#utility.yul\":7708:7825   */\n      iszero\n      tag_218\n      jumpi\n        /* \"#utility.yul\":7744:7823   */\n      tag_219\n      tag_83\n      jump\t// in\n    tag_219:\n        /* \"#utility.yul\":7708:7825   */\n    tag_218:\n        /* \"#utility.yul\":7849:7912   */\n      tag_220\n        /* \"#utility.yul\":7904:7911   */\n      dup9\n        /* \"#utility.yul\":7895:7901   */\n      dup3\n        /* \"#utility.yul\":7884:7893   */\n      dup10\n        /* \"#utility.yul\":7880:7902   */\n      add\n        /* \"#utility.yul\":7849:7912   */\n      tag_106\n      jump\t// in\n    tag_220:\n        /* \"#utility.yul\":7839:7912   */\n      swap5\n      pop\n        /* \"#utility.yul\":7634:7922   */\n      pop\n        /* \"#utility.yul\":7961:7963   */\n      0x40\n        /* \"#utility.yul\":7987:8040   */\n      tag_221\n        /* \"#utility.yul\":8032:8039   */\n      dup9\n        /* \"#utility.yul\":8023:8029   */\n      dup3\n        /* \"#utility.yul\":8012:8021   */\n      dup10\n        /* \"#utility.yul\":8008:8030   */\n      add\n        /* \"#utility.yul\":7987:8040   */\n      tag_86\n      jump\t// in\n    tag_221:\n        /* \"#utility.yul\":7977:8040   */\n      swap4\n      pop\n        /* \"#utility.yul\":7932:8050   */\n      pop\n        /* \"#utility.yul\":8089:8091   */\n      0x60\n        /* \"#utility.yul\":8115:8168   */\n      tag_222\n        /* \"#utility.yul\":8160:8167   */\n      dup9\n        /* \"#utility.yul\":8151:8157   */\n      dup3\n        /* \"#utility.yul\":8140:8149   */\n      dup10\n        /* \"#utility.yul\":8136:8158   */\n      add\n        /* \"#utility.yul\":8115:8168   */\n      tag_86\n      jump\t// in\n    tag_222:\n        /* \"#utility.yul\":8105:8168   */\n      swap3\n      pop\n        /* \"#utility.yul\":8060:8178   */\n      pop\n        /* \"#utility.yul\":8217:8220   */\n      0x80\n        /* \"#utility.yul\":8244:8294   */\n      tag_223\n        /* \"#utility.yul\":8286:8293   */\n      dup9\n        /* \"#utility.yul\":8277:8283   */\n      dup3\n        /* \"#utility.yul\":8266:8275   */\n      dup10\n        /* \"#utility.yul\":8262:8284   */\n      add\n        /* \"#utility.yul\":8244:8294   */\n      tag_110\n      jump\t// in\n    tag_223:\n        /* \"#utility.yul\":8234:8294   */\n      swap2\n      pop\n        /* \"#utility.yul\":8188:8304   */\n      pop\n        /* \"#utility.yul\":7226:8311   */\n      swap3\n      swap6\n      pop\n      swap3\n      swap6\n      swap1\n      swap4\n      pop\n      jump\t// out\n        /* \"#utility.yul\":8317:8497   */\n    tag_33:\n        /* \"#utility.yul\":8365:8442   */\n      0x4e487b7100000000000000000000000000000000000000000000000000000000\n        /* \"#utility.yul\":8362:8363   */\n      0x00\n        /* \"#utility.yul\":8355:8443   */\n      mstore\n        /* \"#utility.yul\":8462:8466   */\n      0x32\n        /* \"#utility.yul\":8459:8460   */\n      0x04\n        /* \"#utility.yul\":8452:8467   */\n      mstore\n        /* \"#utility.yul\":8486:8490   */\n      0x24\n        /* \"#utility.yul\":8483:8484   */\n      0x00\n        /* \"#utility.yul\":8476:8491   */\n      revert\n        /* \"#utility.yul\":8503:8683   */\n    tag_111:\n        /* \"#utility.yul\":8551:8628   */\n      0x4e487b7100000000000000000000000000000000000000000000000000000000\n        /* \"#utility.yul\":8548:8549   */\n      0x00\n        /* \"#utility.yul\":8541:8629   */\n      mstore\n        /* \"#utility.yul\":8648:8652   */\n      0x22\n        /* \"#utility.yul\":8645:8646   */\n      0x04\n        /* \"#utility.yul\":8638:8653   */\n      mstore\n        /* \"#utility.yul\":8672:8676   */\n      0x24\n        /* \"#utility.yul\":8669:8670   */\n      0x00\n        /* \"#utility.yul\":8662:8677   */\n      revert\n        /* \"#utility.yul\":8689:9009   */\n    tag_40:\n        /* \"#utility.yul\":8733:8739   */\n      0x00\n        /* \"#utility.yul\":8770:8771   */\n      0x02\n        /* \"#utility.yul\":8764:8768   */\n      dup3\n        /* \"#utility.yul\":8760:8772   */\n      div\n        /* \"#utility.yul\":8750:8772   */\n      swap1\n      pop\n        /* \"#utility.yul\":8817:8818   */\n      0x01\n        /* \"#utility.yul\":8811:8815   */\n      dup3\n        /* \"#utility.yul\":8807:8819   */\n      and\n        /* \"#utility.yul\":8838:8856   */\n      dup1\n        /* \"#utility.yul\":8828:8909   */\n      tag_227\n      jumpi\n        /* \"#utility.yul\":8894:8898   */\n      0x7f\n        /* \"#utility.yul\":8886:8892   */\n      dup3\n        /* \"#utility.yul\":8882:8899   */\n      and\n        /* \"#utility.yul\":8872:8899   */\n      swap2\n      pop\n        /* \"#utility.yul\":8828:8909   */\n    tag_227:\n        /* \"#utility.yul\":8956:8958   */\n      0x20\n        /* \"#utility.yul\":8948:8954   */\n      dup3\n        /* \"#utility.yul\":8945:8959   */\n      lt\n        /* \"#utility.yul\":8925:8943   */\n      dup2\n        /* \"#utility.yul\":8922:8960   */\n      sub\n        /* \"#utility.yul\":8919:9003   */\n      tag_228\n      jumpi\n        /* \"#utility.yul\":8975:8993   */\n      tag_229\n      tag_111\n      jump\t// in\n    tag_229:\n        /* \"#utility.yul\":8919:9003   */\n    tag_228:\n        /* \"#utility.yul\":8740:9009   */\n      pop\n        /* \"#utility.yul\":8689:9009   */\n      swap2\n      swap1\n      pop\n      jump\t// out\n        /* \"#utility.yul\":9015:9156   */\n    tag_112:\n        /* \"#utility.yul\":9064:9068   */\n      0x00\n        /* \"#utility.yul\":9087:9090   */\n      dup2\n        /* \"#utility.yul\":9079:9090   */\n      swap1\n      pop\n        /* \"#utility.yul\":9110:9113   */\n      dup2\n        /* \"#utility.yul\":9107:9108   */\n      0x00\n        /* \"#utility.yul\":9100:9114   */\n      mstore\n        /* \"#utility.yul\":9144:9148   */\n      0x20\n        /* \"#utility.yul\":9141:9142   */\n      0x00\n        /* \"#utility.yul\":9131:9149   */\n      keccak256\n        /* \"#utility.yul\":9123:9149   */\n      swap1\n      pop\n        /* \"#utility.yul\":9015:9156   */\n      swap2\n      swap1\n      pop\n      jump\t// out\n        /* \"#utility.yul\":9162:9255   */\n    tag_113:\n        /* \"#utility.yul\":9199:9205   */\n      0x00\n        /* \"#utility.yul\":9246:9248   */\n      0x20\n        /* \"#utility.yul\":9241:9243   */\n      0x1f\n        /* \"#utility.yul\":9234:9239   */\n      dup4\n        /* \"#utility.yul\":9230:9244   */\n      add\n        /* \"#utility.yul\":9226:9249   */\n      div\n        /* \"#utility.yul\":9216:9249   */\n      swap1\n      pop\n        /* \"#utility.yul\":9162:9255   */\n      swap2\n      swap1\n      pop\n      jump\t// out\n        /* \"#utility.yul\":9261:9368   */\n    tag_114:\n        /* \"#utility.yul\":9305:9313   */\n      0x00\n        /* \"#utility.yul\":9355:9360   */\n      dup3\n        /* \"#utility.yul\":9349:9353   */\n      dup3\n        /* \"#utility.yul\":9345:9361   */\n      shl\n        /* \"#utility.yul\":9324:9361   */\n      swap1\n      pop\n        /* \"#utility.yul\":9261:9368   */\n      swap3\n      swap2\n      pop\n      pop\n      jump\t// out\n        /* \"#utility.yul\":9374:9767   */\n    tag_115:\n        /* \"#utility.yul\":9443:9449   */\n      0x00\n        /* \"#utility.yul\":9493:9494   */\n      0x08\n        /* \"#utility.yul\":9481:9491   */\n      dup4\n        /* \"#utility.yul\":9477:9495   */\n      mul\n        /* \"#utility.yul\":9516:9613   */\n      tag_234\n        /* \"#utility.yul\":9546:9612   */\n      0xffffffffffffffffffffffffffffffffffffffffffffffffffffffffffffffff\n        /* \"#utility.yul\":9535:9544   */\n      dup3\n        /* \"#utility.yul\":9516:9613   */\n      tag_114\n      jump\t// in\n    tag_234:\n        /* \"#utility.yul\":9634:9673   */\n      tag_235\n        /* \"#utility.yul\":9664:9672   */\n      dup7\n        /* \"#utility.yul\":9653:9662   */\n      dup4\n        /* \"#utility.yul\":9634:9673   */\n      tag_114\n      jump\t// in\n    tag_235:\n        /* \"#utility.yul\":9622:9673   */\n      swap6\n      pop\n        /* \"#utility.yul\":9706:9710   */\n      dup1\n        /* \"#utility.yul\":9702:9711   */\n      not\n        /* \"#utility.yul\":9695:9700   */\n      dup5\n        /* \"#utility.yul\":9691:9712   */\n      and\n        /* \"#utility.yul\":9682:9712   */\n      swap4\n      pop\n        /* \"#utility.yul\":9755:9759   */\n      dup1\n        /* \"#utility.yul\":9745:9753   */\n      dup7\n        /* \"#utility.yul\":9741:9760   */\n      and\n        /* \"#utility.yul\":9734:9739   */\n      dup5\n        /* \"#utility.yul\":9731:9761   */\n      or\n        /* \"#utility.yul\":9721:9761   */\n      swap3\n      pop\n        /* \"#utility.yul\":9450:9767   */\n      pop\n      pop\n        /* \"#utility.yul\":9374:9767   */\n      swap4\n      swap3\n      pop\n      pop\n      pop\n      jump\t// out\n        /* \"#utility.yul\":9773:9833   */\n    tag_116:\n        /* \"#utility.yul\":9801:9804   */\n      0x00\n        /* \"#utility.yul\":9822:9827   */\n      dup2\n        /* \"#utility.yul\":9815:9827   */\n      swap1\n      pop\n        /* \"#utility.yul\":9773:9833   */\n      swap2\n      swap1\n      pop\n      jump\t// out\n        /* \"#utility.yul\":9839:9981   */\n    tag_117:\n        /* \"#utility.yul\":9889:9898   */\n      0x00\n        /* \"#utility.yul\":9922:9975   */\n      tag_238\n        /* \"#utility.yul\":9940:9974   */\n      tag_239\n        /* \"#utility.yul\":9949:9973   */\n      tag_240\n        /* \"#utility.yul\":9967:9972   */\n      dup5\n        /* \"#utility.yul\":9949:9973   */\n      tag_84\n      jump\t// in\n    tag_240:\n        /* \"#utility.yul\":9940:9974   */\n      tag_116\n      jump\t// in\n    tag_239:\n        /* \"#utility.yul\":9922:9975   */\n      tag_84\n      jump\t// in\n    tag_238:\n        /* \"#utility.yul\":9909:9975   */\n      swap1\n      pop\n        /* \"#utility.yul\":9839:9981   */\n      swap2\n      swap1\n      pop\n      jump\t// out\n        /* \"#utility.yul\":9987:10062   */\n    tag_118:\n        /* \"#utility.yul\":10030:10033   */\n      0x00\n        /* \"#utility.yul\":10051:10056   */\n      dup2\n        /* \"#utility.yul\":10044:10056   */\n      swap1\n      pop\n        /* \"#utility.yul\":9987:10062   */\n      swap2\n      swap1\n      pop\n      jump\t// out\n        /* \"#utility.yul\":10068:10337   */\n    tag_119:\n        /* \"#utility.yul\":10178:10217   */\n      tag_243\n        /* \"#utility.yul\":10209:10216   */\n      dup4\n        /* \"#utility.yul\":10178:10217   */\n      tag_117\n      jump\t// in\n    tag_243:\n        /* \"#utility.yul\":10239:10330   */\n      tag_244\n        /* \"#utility.yul\":10288:10329   */\n      tag_245\n        /* \"#utility.yul\":10312:10328   */\n      dup3\n        /* \"#utility.yul\":10288:10329   */\n      tag_118\n      jump\t// in\n    tag_245:\n        /* \"#utility.yul\":10280:10286   */\n      dup5\n        /* \"#utility.yul\":10273:10277   */\n      dup5\n        /* \"#utility.yul\":10267:10278   */\n      sload\n        /* \"#utility.yul\":10239:10330   */\n      tag_115\n      jump\t// in\n    tag_244:\n        /* \"#utility.yul\":10233:10237   */\n      dup3\n        /* \"#utility.yul\":10226:10331   */\n      sstore\n        /* \"#utility.yul\":10144:10337   */\n      pop\n        /* \"#utility.yul\":10068:10337   */\n      pop\n      pop\n      pop\n      jump\t// out\n        /* \"#utility.yul\":10343:10416   */\n    tag_120:\n        /* \"#utility.yul\":10388:10391   */\n      0x00\n        /* \"#utility.yul\":10343:10416   */\n      swap1\n      jump\t// out\n        /* \"#utility.yul\":10422:10611   */\n    tag_121:\n        /* \"#utility.yul\":10499:10531   */\n      tag_248\n      tag_120\n      jump\t// in\n    tag_248:\n        /* \"#utility.yul\":10540:10605   */\n      tag_249\n        /* \"#utility.yul\":10598:10604   */\n      dup2\n        /* \"#utility.yul\":10590:10596   */\n      dup5\n        /* \"#utility.yul\":10584:10588   */\n      dup5\n        /* \"#utility.yul\":10540:10605   */\n      tag_119\n      jump\t// in\n    tag_249:\n        /* \"#utility.yul\":10475:10611   */\n      pop\n        /* \"#utility.yul\":10422:10611   */\n      pop\n      pop\n      jump\t// out\n        /* \"#utility.yul\":10617:10803   */\n    tag_122:\n        /* \"#utility.yul\":10677:10797   */\n    tag_251:\n        /* \"#utility.yul\":10694:10697   */\n      dup2\n        /* \"#utility.yul\":10687:10692   */\n      dup2\n        /* \"#utility.yul\":10684:10698   */\n      lt\n        /* \"#utility.yul\":10677:10797   */\n      iszero\n      tag_253\n      jumpi\n        /* \"#utility.yul\":10748:10787   */\n      tag_254\n        /* \"#utility.yul\":10785:10786   */\n      0x00\n        /* \"#utility.yul\":10778:10783   */\n      dup3\n        /* \"#utility.yul\":10748:10787   */\n      tag_121\n      jump\t// in\n    tag_254:\n        /* \"#utility.yul\":10721:10722   */\n      0x01\n        /* \"#utility.yul\":10714:10719   */\n      dup2\n        /* \"#utility.yul\":10710:10723   */\n      add\n        /* \"#utility.yul\":10701:10723   */\n      swap1\n      pop\n        /* \"#utility.yul\":10677:10797   */\n      jump(tag_251)\n    tag_253:\n        /* \"#utility.yul\":10617:10803   */\n      pop\n      pop\n      jump\t// out\n        /* \"#utility.yul\":10809:11352   */\n    tag_123:\n        /* \"#utility.yul\":10910:10912   */\n      0x1f\n        /* \"#utility.yul\":10905:10908   */\n      dup3\n        /* \"#utility.yul\":10902:10913   */\n      gt\n        /* \"#utility.yul\":10899:11345   */\n      iszero\n      tag_256\n      jumpi\n        /* \"#utility.yul\":10944:10982   */\n      tag_257\n        /* \"#utility.yul\":10976:10981   */\n      dup2\n        /* \"#utility.yul\":10944:10982   */\n      tag_112\n      jump\t// in\n    tag_257:\n        /* \"#utility.yul\":11028:11057   */\n      tag_258\n        /* \"#utility.yul\":11046:11056   */\n      dup5\n        /* \"#utility.yul\":11028:11057   */\n      tag_113\n      jump\t// in\n    tag_258:\n        /* \"#utility.yul\":11018:11026   */\n      dup2\n        /* \"#utility.yul\":11014:11058   */\n      add\n        /* \"#utility.yul\":11211:11213   */\n      0x20\n        /* \"#utility.yul\":11199:11209   */\n      dup6\n        /* \"#utility.yul\":11196:11214   */\n      lt\n        /* \"#utility.yul\":11193:11242   */\n      iszero\n      tag_259\n      jumpi\n        /* \"#utility.yul\":11232:11240   */\n      dup2\n        /* \"#utility.yul\":11217:11240   */\n      swap1\n      pop\n        /* \"#utility.yul\":11193:11242   */\n    tag_259:\n        /* \"#utility.yul\":11255:11335   */\n      tag_260\n        /* \"#utility.yul\":11311:11333   */\n      tag_261\n        /* \"#utility.yul\":11329:11332   */\n      dup6\n        /* \"#utility.yul\":11311:11333   */\n      tag_113\n      jump\t// in\n    tag_261:\n        /* \"#utility.yul\":11301:11309   */\n      dup4\n        /* \"#utility.yul\":11297:11334   */\n      add\n        /* \"#utility.yul\":11284:11295   */\n      dup3\n        /* \"#utility.yul\":11255:11335   */\n      tag_122\n      jump\t// in\n    tag_260:\n        /* \"#utility.yul\":10914:11345   */\n      pop\n      pop\n        /* \"#utility.yul\":10899:11345   */\n    tag_256:\n        /* \"#utility.yul\":10809:11352   */\n      pop\n      pop\n      pop\n      jump\t// out\n        /* \"#utility.yul\":11358:11475   */\n    tag_124:\n        /* \"#utility.yul\":11412:11420   */\n      0x00\n        /* \"#utility.yul\":11462:11467   */\n      dup3\n        /* \"#utility.yul\":11456:11460   */\n      dup3\n        /* \"#utility.yul\":11452:11468   */\n      shr\n        /* \"#utility.yul\":11431:11468   */\n      swap1\n      pop\n        /* \"#utility.yul\":11358:11475   */\n      swap3\n      swap2\n      pop\n      pop\n      jump\t// out\n        /* \"#utility.yul\":11481:11650   */\n    tag_125:\n        /* \"#utility.yul\":11525:11531   */\n      0x00\n        /* \"#utility.yul\":11558:11609   */\n      tag_264\n        /* \"#utility.yul\":11606:11607   */\n      0x00\n        /* \"#utility.yul\":11602:11608   */\n      not\n        /* \"#utility.yul\":11594:11599   */\n      dup5\n        /* \"#utility.yul\":11591:11592   */\n      0x08\n        /* \"#utility.yul\":11587:11600   */\n      mul\n        /* \"#utility.yul\":11558:11609   */\n      tag_124\n      jump\t// in\n    tag_264:\n        /* \"#utility.yul\":11554:11610   */\n      not\n        /* \"#utility.yul\":11639:11643   */\n      dup1\n        /* \"#utility.yul\":11633:11637   */\n      dup4\n        /* \"#utility.yul\":11629:11644   */\n      and\n        /* \"#utility.yul\":11619:11644   */\n      swap2\n      pop\n        /* \"#utility.yul\":11532:11650   */\n      pop\n        /* \"#utility.yul\":11481:11650   */\n      swap3\n      swap2\n      pop\n      pop\n      jump\t// out\n        /* \"#utility.yul\":11655:11950   */\n    tag_126:\n        /* \"#utility.yul\":11731:11735   */\n      0x00\n        /* \"#utility.yul\":11877:11906   */\n      tag_266\n        /* \"#utility.yul\":11902:11905   */\n      dup4\n        /* \"#utility.yul\":11896:11900   */\n      dup4\n        /* \"#utility.yul\":11877:11906   */\n      tag_125\n      jump\t// in\n    tag_266:\n        /* \"#utility.yul\":11869:11906   */\n      swap2\n      pop\n        /* \"#utility.yul\":11939:11942   */\n      dup3\n        /* \"#utility.yul\":11936:11937   */\n      0x02\n        /* \"#utility.yul\":11932:11943   */\n      mul\n        /* \"#utility.yul\":11926:11930   */\n      dup3\n        /* \"#utility.yul\":11923:11944   */\n      or\n        /* \"#utility.yul\":11915:11944   */\n      swap1\n      pop\n        /* \"#utility.yul\":11655:11950   */\n      swap3\n      swap2\n      pop\n      pop\n      jump\t// out\n        /* \"#utility.yul\":11955:13350   */\n    tag_48:\n        /* \"#utility.yul\":12072:12109   */\n      tag_268\n        /* \"#utility.yul\":12105:12108   */\n      dup3\n        /* \"#utility.yul\":12072:12109   */\n      tag_87\n      jump\t// in\n    tag_268:\n        /* \"#utility.yul\":12174:12192   */\n      0xffffffffffffffff\n        /* \"#utility.yul\":12166:12172   */\n      dup2\n        /* \"#utility.yul\":12163:12193   */\n      gt\n        /* \"#utility.yul\":12160:12216   */\n      iszero\n      tag_269\n      jumpi\n        /* \"#utility.yul\":12196:12214   */\n      tag_270\n      tag_100\n      jump\t// in\n    tag_270:\n        /* \"#utility.yul\":12160:12216   */\n    tag_269:\n        /* \"#utility.yul\":12240:12278   */\n      tag_271\n        /* \"#utility.yul\":12272:12276   */\n      dup3\n        /* \"#utility.yul\":12266:12277   */\n      sload\n        /* \"#utility.yul\":12240:12278   */\n      tag_40\n      jump\t// in\n    tag_271:\n        /* \"#utility.yul\":12325:12392   */\n      tag_272\n        /* \"#utility.yul\":12385:12391   */\n      dup3\n        /* \"#utility.yul\":12377:12383   */\n      dup3\n        /* \"#utility.yul\":12371:12375   */\n      dup6\n        /* \"#utility.yul\":12325:12392   */\n      tag_123\n      jump\t// in\n    tag_272:\n        /* \"#utility.yul\":12419:12420   */\n      0x00\n        /* \"#utility.yul\":12443:12447   */\n      0x20\n        /* \"#utility.yul\":12430:12447   */\n      swap1\n      pop\n        /* \"#utility.yul\":12475:12477   */\n      0x1f\n        /* \"#utility.yul\":12467:12473   */\n      dup4\n        /* \"#utility.yul\":12464:12478   */\n      gt\n        /* \"#utility.yul\":12492:12493   */\n      0x01\n        /* \"#utility.yul\":12487:13105   */\n      dup2\n      eq\n      tag_274\n      jumpi\n        /* \"#utility.yul\":13149:13150   */\n      0x00\n        /* \"#utility.yul\":13166:13172   */\n      dup5\n        /* \"#utility.yul\":13163:13240   */\n      iszero\n      tag_275\n      jumpi\n        /* \"#utility.yul\":13215:13224   */\n      dup3\n        /* \"#utility.yul\":13210:13213   */\n      dup8\n        /* \"#utility.yul\":13206:13225   */\n      add\n        /* \"#utility.yul\":13200:13226   */\n      mload\n        /* \"#utility.yul\":13191:13226   */\n      swap1\n      pop\n        /* \"#utility.yul\":13163:13240   */\n    tag_275:\n        /* \"#utility.yul\":13266:13333   */\n      tag_276\n        /* \"#utility.yul\":13326:13332   */\n      dup6\n        /* \"#utility.yul\":13319:13324   */\n      dup3\n        /* \"#utility.yul\":13266:13333   */\n      tag_126\n      jump\t// in\n    tag_276:\n        /* \"#utility.yul\":13260:13264   */\n      dup7\n        /* \"#utility.yul\":13253:13334   */\n      sstore\n        /* \"#utility.yul\":13122:13344   */\n      pop\n        /* \"#utility.yul\":12457:13344   */\n      jump(tag_273)\n        /* \"#utility.yul\":12487:13105   */\n    tag_274:\n        /* \"#utility.yul\":12539:12543   */\n      0x1f\n        /* \"#utility.yul\":12535:12544   */\n      not\n        /* \"#utility.yul\":12527:12533   */\n      dup5\n        /* \"#utility.yul\":12523:12545   */\n      and\n        /* \"#utility.yul\":12573:12610   */\n      tag_277\n        /* \"#utility.yul\":12605:12609   */\n      dup7\n        /* \"#utility.yul\":12573:12610   */\n      tag_112\n      jump\t// in\n    tag_277:\n        /* \"#utility.yul\":12632:12633   */\n      0x00\n        /* \"#utility.yul\":12646:12854   */\n    tag_278:\n        /* \"#utility.yul\":12660:12667   */\n      dup3\n        /* \"#utility.yul\":12657:12658   */\n      dup2\n        /* \"#utility.yul\":12654:12668   */\n      lt\n        /* \"#utility.yul\":12646:12854   */\n      iszero\n      tag_280\n      jumpi\n        /* \"#utility.yul\":12739:12748   */\n      dup5\n        /* \"#utility.yul\":12734:12737   */\n      dup10\n        /* \"#utility.yul\":12730:12749   */\n      add\n        /* \"#utility.yul\":12724:12750   */\n      mload\n        /* \"#utility.yul\":12716:12722   */\n      dup3\n        /* \"#utility.yul\":12709:12751   */\n      sstore\n        /* \"#utility.yul\":12790:12791   */\n      0x01\n        /* \"#utility.yul\":12782:12788   */\n      dup3\n        /* \"#utility.yul\":12778:12792   */\n      add\n        /* \"#utility.yul\":12768:12792   */\n      swap2\n      pop\n        /* \"#utility.yul\":12837:12839   */\n      0x20\n        /* \"#utility.yul\":12826:12835   */\n      dup6\n        /* \"#utility.yul\":12822:12840   */\n      add\n        /* \"#utility.yul\":12809:12840   */\n      swap5\n      pop\n        /* \"#utility.yul\":12683:12687   */\n      0x20\n        /* \"#utility.yul\":12680:12681   */\n      dup2\n        /* \"#utility.yul\":12676:12688   */\n      add\n        /* \"#utility.yul\":12671:12688   */\n      swap1\n      pop\n        /* \"#utility.yul\":12646:12854   */\n      jump(tag_278)\n    tag_280:\n        /* \"#utility.yul\":12882:12888   */\n      dup7\n        /* \"#utility.yul\":12873:12880   */\n      dup4\n        /* \"#utility.yul\":12870:12889   */\n      lt\n        /* \"#utility.yul\":12867:13046   */\n      iszero\n      tag_281\n      jumpi\n        /* \"#utility.yul\":12940:12949   */\n      dup5\n        /* \"#utility.yul\":12935:12938   */\n      dup10\n        /* \"#utility.yul\":12931:12950   */\n      add\n        /* \"#utility.yul\":12925:12951   */\n      mload\n        /* \"#utility.yul\":12983:13031   */\n      tag_282\n        /* \"#utility.yul\":13025:13029   */\n      0x1f\n        /* \"#utility.yul\":13017:13023   */\n      dup10\n        /* \"#utility.yul\":13013:13030   */\n      and\n        /* \"#utility.yul\":13002:13011   */\n      dup3\n        /* \"#utility.yul\":12983:13031   */\n      tag_125\n      jump\t// in\n    tag_282:\n        /* \"#utility.yul\":12975:12981   */\n      dup4\n        /* \"#utility.yul\":12968:13032   */\n      sstore\n        /* \"#utility.yul\":12890:13046   */\n      pop\n        /* \"#utility.yul\":12867:13046   */\n    tag_281:\n        /* \"#utility.yul\":13092:13093   */\n      0x01\n        /* \"#utility.yul\":13088:13089   */\n      0x02\n        /* \"#utility.yul\":13080:13086   */\n      dup9\n        /* \"#utility.yul\":13076:13090   */\n      mul\n        /* \"#utility.yul\":13072:13094   */\n      add\n        /* \"#utility.yul\":13066:13070   */\n      dup9\n        /* \"#utility.yul\":13059:13095   */\n      sstore\n        /* \"#utility.yul\":12494:13105   */\n      pop\n      pop\n      pop\n        /* \"#utility.yul\":12457:13344   */\n    tag_273:\n      pop\n        /* \"#utility.yul\":12047:13350   */\n      pop\n      pop\n      pop\n        /* \"#utility.yul\":11955:13350   */\n      pop\n      pop\n      jump\t// out\n\n    auxdata: 0xa264697066735822122000fb693dc7f0d6e0c3578214575de64a3934a70581ba128e9fb89b53d34440de64736f6c63430008160033\n}\n",
				"bytecode": {
					"linkReferences": {},
					"object": "608060405234801561000f575f80fd5b50610dba8061001d5f395ff3fe608060405234801561000f575f80fd5b5060043610610055575f3560e01c806311dc470314610059578063365b98b2146100755780639ed29554146100a9578063add4e5c2146100c5578063d379dadf146100e1575b5f80fd5b610073600480360381019061006e9190610673565b610115565b005b61008f600480360381019061008a9190610673565b61019e565b6040516100a0959493929190610790565b60405180910390f35b6100c360048036038101906100be9190610968565b61028f565b005b6100df60048036038101906100da91906109fb565b61038b565b005b6100fb60048036038101906100f69190610673565b610457565b60405161010c959493929190610790565b60405180910390f35b5f805490508110610124575f80fd5b5f818154811061013757610136610a8e565b5b905f5260205f2090600502015f8082015f61015291906105d7565b600182015f9055600282015f6101000a81549073ffffffffffffffffffffffffffffffffffffffff0219169055600382015f9055600482015f6101000a81549060ff0219169055505050565b5f81815481106101ac575f80fd5b905f5260205f2090600502015f91509050805f0180546101cb90610ae8565b80601f01602080910402602001604051908101604052809291908181526020018280546101f790610ae8565b80156102425780601f1061021957610100808354040283529160200191610242565b820191905f5260205f20905b81548152906001019060200180831161022557829003601f168201915b505050505090806001015490806002015f9054906101000a900473ffffffffffffffffffffffffffffffffffffffff1690806003015490806004015f9054906101000a900460ff16905085565b5f6040518060a001604052808781526020018681526020018573ffffffffffffffffffffffffffffffffffffffff168152602001848152602001831515815250908060018154018082558091505060019003905f5260205f2090600502015f909190919091505f820151815f0190816103089190610cb5565b50602082015181600101556040820151816002015f6101000a81548173ffffffffffffffffffffffffffffffffffffffff021916908373ffffffffffffffffffffffffffffffffffffffff160217905550606082015181600301556080820151816004015f6101000a81548160ff02191690831515021790555050505050505050565b5f80549050851061039a575f80fd5b835f86815481106103ae576103ad610a8e565b5b905f5260205f2090600502015f0190816103c89190610cb5565b50825f86815481106103dd576103dc610a8e565b5b905f5260205f20906005020160010181905550815f868154811061040457610403610a8e565b5b905f5260205f20906005020160030181905550805f868154811061042b5761042a610a8e565b5b905f5260205f2090600502016004015f6101000a81548160ff0219169083151502179055505050505050565b60605f805f805f80549050861061046c575f80fd5b5f8087815481106104805761047f610a8e565b5b905f5260205f2090600502016040518060a00160405290815f820180546104a690610ae8565b80601f01602080910402602001604051908101604052809291908181526020018280546104d290610ae8565b801561051d5780601f106104f45761010080835404028352916020019161051d565b820191905f5260205f20905b81548152906001019060200180831161050057829003601f168201915b5050505050815260200160018201548152602001600282015f9054906101000a900473ffffffffffffffffffffffffffffffffffffffff1673ffffffffffffffffffffffffffffffffffffffff1673ffffffffffffffffffffffffffffffffffffffff16815260200160038201548152602001600482015f9054906101000a900460ff1615151515815250509050805f01518160200151826040015183606001518460800151955095509550955095505091939590929450565b5080546105e390610ae8565b5f825580601f106105f45750610611565b601f0160209004905f5260205f20908101906106109190610614565b5b50565b5b8082111561062b575f815f905550600101610615565b5090565b5f604051905090565b5f80fd5b5f80fd5b5f819050919050565b61065281610640565b811461065c575f80fd5b50565b5f8135905061066d81610649565b92915050565b5f6020828403121561068857610687610638565b5b5f6106958482850161065f565b91505092915050565b5f81519050919050565b5f82825260208201905092915050565b5f5b838110156106d55780820151818401526020810190506106ba565b5f8484015250505050565b5f601f19601f8301169050919050565b5f6106fa8261069e565b61070481856106a8565b93506107148185602086016106b8565b61071d816106e0565b840191505092915050565b61073181610640565b82525050565b5f73ffffffffffffffffffffffffffffffffffffffff82169050919050565b5f61076082610737565b9050919050565b61077081610756565b82525050565b5f8115159050919050565b61078a81610776565b82525050565b5f60a0820190508181035f8301526107a881886106f0565b90506107b76020830187610728565b6107c46040830186610767565b6107d16060830185610728565b6107de6080830184610781565b9695505050505050565b5f80fd5b5f80fd5b7f4e487b71000000000000000000000000000000000000000000000000000000005f52604160045260245ffd5b610826826106e0565b810181811067ffffffffffffffff82111715610845576108446107f0565b5b80604052505050565b5f61085761062f565b9050610863828261081d565b919050565b5f67ffffffffffffffff821115610882576108816107f0565b5b61088b826106e0565b9050602081019050919050565b828183375f83830152505050565b5f6108b86108b384610868565b61084e565b9050828152602081018484840111156108d4576108d36107ec565b5b6108df848285610898565b509392505050565b5f82601f8301126108fb576108fa6107e8565b5b813561090b8482602086016108a6565b91505092915050565b61091d81610756565b8114610927575f80fd5b50565b5f8135905061093881610914565b92915050565b61094781610776565b8114610951575f80fd5b50565b5f813590506109628161093e565b92915050565b5f805f805f60a0868803121561098157610980610638565b5b5f86013567ffffffffffffffff81111561099e5761099d61063c565b5b6109aa888289016108e7565b95505060206109bb8882890161065f565b94505060406109cc8882890161092a565b93505060606109dd8882890161065f565b92505060806109ee88828901610954565b9150509295509295909350565b5f805f805f60a08688031215610a1457610a13610638565b5b5f610a218882890161065f565b955050602086013567ffffffffffffffff811115610a4257610a4161063c565b5b610a4e888289016108e7565b9450506040610a5f8882890161065f565b9350506060610a708882890161065f565b9250506080610a8188828901610954565b9150509295509295909350565b7f4e487b71000000000000000000000000000000000000000000000000000000005f52603260045260245ffd5b7f4e487b71000000000000000000000000000000000000000000000000000000005f52602260045260245ffd5b5f6002820490506001821680610aff57607f821691505b602082108103610b1257610b11610abb565b5b50919050565b5f819050815f5260205f209050919050565b5f6020601f8301049050919050565b5f82821b905092915050565b5f60088302610b747fffffffffffffffffffffffffffffffffffffffffffffffffffffffffffffffff82610b39565b610b7e8683610b39565b95508019841693508086168417925050509392505050565b5f819050919050565b5f610bb9610bb4610baf84610640565b610b96565b610640565b9050919050565b5f819050919050565b610bd283610b9f565b610be6610bde82610bc0565b848454610b45565b825550505050565b5f90565b610bfa610bee565b610c05818484610bc9565b505050565b5b81811015610c2857610c1d5f82610bf2565b600181019050610c0b565b5050565b601f821115610c6d57610c3e81610b18565b610c4784610b2a565b81016020851015610c56578190505b610c6a610c6285610b2a565b830182610c0a565b50505b505050565b5f82821c905092915050565b5f610c8d5f1984600802610c72565b1980831691505092915050565b5f610ca58383610c7e565b9150826002028217905092915050565b610cbe8261069e565b67ffffffffffffffff811115610cd757610cd66107f0565b5b610ce18254610ae8565b610cec828285610c2c565b5f60209050601f831160018114610d1d575f8415610d0b578287015190505b610d158582610c9a565b865550610d7c565b601f198416610d2b86610b18565b5f5b82811015610d5257848901518255600182019150602085019450602081019050610d2d565b86831015610d6f5784890151610d6b601f891682610c7e565b8355505b6001600288020188555050505b50505050505056fea264697066735822122000fb693dc7f0d6e0c3578214575de64a3934a70581ba128e9fb89b53d34440de64736f6c63430008160033",
					"opcodes": "PUSH1 0x80 PUSH1 0x40 MSTORE CALLVALUE DUP1 ISZERO PUSH2 0xF JUMPI PUSH0 DUP1 REVERT JUMPDEST POP PUSH2 0xDBA DUP1 PUSH2 0x1D PUSH0 CODECOPY PUSH0 RETURN INVALID PUSH1 0x80 PUSH1 0x40 MSTORE CALLVALUE DUP1 ISZERO PUSH2 0xF JUMPI PUSH0 DUP1 REVERT JUMPDEST POP PUSH1 0x4 CALLDATASIZE LT PUSH2 0x55 JUMPI PUSH0 CALLDATALOAD PUSH1 0xE0 SHR DUP1 PUSH4 0x11DC4703 EQ PUSH2 0x59 JUMPI DUP1 PUSH4 0x365B98B2 EQ PUSH2 0x75 JUMPI DUP1 PUSH4 0x9ED29554 EQ PUSH2 0xA9 JUMPI DUP1 PUSH4 0xADD4E5C2 EQ PUSH2 0xC5 JUMPI DUP1 PUSH4 0xD379DADF EQ PUSH2 0xE1 JUMPI JUMPDEST PUSH0 DUP1 REVERT JUMPDEST PUSH2 0x73 PUSH1 0x4 DUP1 CALLDATASIZE SUB DUP2 ADD SWAP1 PUSH2 0x6E SWAP2 SWAP1 PUSH2 0x673 JUMP JUMPDEST PUSH2 0x115 JUMP JUMPDEST STOP JUMPDEST PUSH2 0x8F PUSH1 0x4 DUP1 CALLDATASIZE SUB DUP2 ADD SWAP1 PUSH2 0x8A SWAP2 SWAP1 PUSH2 0x673 JUMP JUMPDEST PUSH2 0x19E JUMP JUMPDEST PUSH1 0x40 MLOAD PUSH2 0xA0 SWAP6 SWAP5 SWAP4 SWAP3 SWAP2 SWAP1 PUSH2 0x790 JUMP JUMPDEST PUSH1 0x40 MLOAD DUP1 SWAP2 SUB SWAP1 RETURN JUMPDEST PUSH2 0xC3 PUSH1 0x4 DUP1 CALLDATASIZE SUB DUP2 ADD SWAP1 PUSH2 0xBE SWAP2 SWAP1 PUSH2 0x968 JUMP JUMPDEST PUSH2 0x28F JUMP JUMPDEST STOP JUMPDEST PUSH2 0xDF PUSH1 0x4 DUP1 CALLDATASIZE SUB DUP2 ADD SWAP1 PUSH2 0xDA SWAP2 SWAP1 PUSH2 0x9FB JUMP JUMPDEST PUSH2 0x38B JUMP JUMPDEST STOP JUMPDEST PUSH2 0xFB PUSH1 0x4 DUP1 CALLDATASIZE SUB DUP2 ADD SWAP1 PUSH2 0xF6 SWAP2 SWAP1 PUSH2 0x673 JUMP JUMPDEST PUSH2 0x457 JUMP JUMPDEST PUSH1 0x40 MLOAD PUSH2 0x10C SWAP6 SWAP5 SWAP4 SWAP3 SWAP2 SWAP1 PUSH2 0x790 JUMP JUMPDEST PUSH1 0x40 MLOAD DUP1 SWAP2 SUB SWAP1 RETURN JUMPDEST PUSH0 DUP1 SLOAD SWAP1 POP DUP2 LT PUSH2 0x124 JUMPI PUSH0 DUP1 REVERT JUMPDEST PUSH0 DUP2 DUP2 SLOAD DUP2 LT PUSH2 0x137 JUMPI PUSH2 0x136 PUSH2 0xA8E JUMP JUMPDEST JUMPDEST SWAP1 PUSH0 MSTORE PUSH1 0x20 PUSH0 KECCAK256 SWAP1 PUSH1 0x5 MUL ADD PUSH0 DUP1 DUP3 ADD PUSH0 PUSH2 0x152 SWAP2 SWAP1 PUSH2 0x5D7 JUMP JUMPDEST PUSH1 0x1 DUP3 ADD PUSH0 SWAP1 SSTORE PUSH1 0x2 DUP3 ADD PUSH0 PUSH2 0x100 EXP DUP2 SLOAD SWAP1 PUSH20 0xFFFFFFFFFFFFFFFFFFFFFFFFFFFFFFFFFFFFFFFF MUL NOT AND SWAP1 SSTORE PUSH1 0x3 DUP3 ADD PUSH0 SWAP1 SSTORE PUSH1 0x4 DUP3 ADD PUSH0 PUSH2 0x100 EXP DUP2 SLOAD SWAP1 PUSH1 0xFF MUL NOT AND SWAP1 SSTORE POP POP POP JUMP JUMPDEST PUSH0 DUP2 DUP2 SLOAD DUP2 LT PUSH2 0x1AC JUMPI PUSH0 DUP1 REVERT JUMPDEST SWAP1 PUSH0 MSTORE PUSH1 0x20 PUSH0 KECCAK256 SWAP1 PUSH1 0x5 MUL ADD PUSH0 SWAP2 POP SWAP1 POP DUP1 PUSH0 ADD DUP1 SLOAD PUSH2 0x1CB SWAP1 PUSH2 0xAE8 JUMP JUMPDEST DUP1 PUSH1 0x1F ADD PUSH1 0x20 DUP1 SWAP2 DIV MUL PUSH1 0x20 ADD PUSH1 0x40 MLOAD SWAP1 DUP2 ADD PUSH1 0x40 MSTORE DUP1 SWAP3 SWAP2 SWAP1 DUP2 DUP2 MSTORE PUSH1 0x20 ADD DUP3 DUP1 SLOAD PUSH2 0x1F7 SWAP1 PUSH2 0xAE8 JUMP JUMPDEST DUP1 ISZERO PUSH2 0x242 JUMPI DUP1 PUSH1 0x1F LT PUSH2 0x219 JUMPI PUSH2 0x100 DUP1 DUP4 SLOAD DIV MUL DUP4 MSTORE SWAP2 PUSH1 0x20 ADD SWAP2 PUSH2 0x242 JUMP JUMPDEST DUP3 ADD SWAP2 SWAP1 PUSH0 MSTORE PUSH1 0x20 PUSH0 KECCAK256 SWAP1 JUMPDEST DUP2 SLOAD DUP2 MSTORE SWAP1 PUSH1 0x1 ADD SWAP1 PUSH1 0x20 ADD DUP1 DUP4 GT PUSH2 0x225 JUMPI DUP3 SWAP1 SUB PUSH1 0x1F AND DUP3 ADD SWAP2 JUMPDEST POP POP POP POP POP SWAP1 DUP1 PUSH1 0x1 ADD SLOAD SWAP1 DUP1 PUSH1 0x2 ADD PUSH0 SWAP1 SLOAD SWAP1 PUSH2 0x100 EXP SWAP1 DIV PUSH20 0xFFFFFFFFFFFFFFFFFFFFFFFFFFFFFFFFFFFFFFFF AND SWAP1 DUP1 PUSH1 0x3 ADD SLOAD SWAP1 DUP1 PUSH1 0x4 ADD PUSH0 SWAP1 SLOAD SWAP1 PUSH2 0x100 EXP SWAP1 DIV PUSH1 0xFF AND SWAP1 POP DUP6 JUMP JUMPDEST PUSH0 PUSH1 0x40 MLOAD DUP1 PUSH1 0xA0 ADD PUSH1 0x40 MSTORE DUP1 DUP8 DUP2 MSTORE PUSH1 0x20 ADD DUP7 DUP2 MSTORE PUSH1 0x20 ADD DUP6 PUSH20 0xFFFFFFFFFFFFFFFFFFFFFFFFFFFFFFFFFFFFFFFF AND DUP2 MSTORE PUSH1 0x20 ADD DUP5 DUP2 MSTORE PUSH1 0x20 ADD DUP4 ISZERO ISZERO DUP2 MSTORE POP SWAP1 DUP1 PUSH1 0x1 DUP2 SLOAD ADD DUP1 DUP3 SSTORE DUP1 SWAP2 POP POP PUSH1 0x1 SWAP1 SUB SWAP1 PUSH0 MSTORE PUSH1 0x20 PUSH0 KECCAK256 SWAP1 PUSH1 0x5 MUL ADD PUSH0 SWAP1 SWAP2 SWAP1 SWAP2 SWAP1 SWAP2 POP PUSH0 DUP3 ADD MLOAD DUP2 PUSH0 ADD SWAP1 DUP2 PUSH2 0x308 SWAP2 SWAP1 PUSH2 0xCB5 JUMP JUMPDEST POP PUSH1 0x20 DUP3 ADD MLOAD DUP2 PUSH1 0x1 ADD SSTORE PUSH1 0x40 DUP3 ADD MLOAD DUP2 PUSH1 0x2 ADD PUSH0 PUSH2 0x100 EXP DUP2 SLOAD DUP2 PUSH20 0xFFFFFFFFFFFFFFFFFFFFFFFFFFFFFFFFFFFFFFFF MUL NOT AND SWAP1 DUP4 PUSH20 0xFFFFFFFFFFFFFFFFFFFFFFFFFFFFFFFFFFFFFFFF AND MUL OR SWAP1 SSTORE POP PUSH1 0x60 DUP3 ADD MLOAD DUP2 PUSH1 0x3 ADD SSTORE PUSH1 0x80 DUP3 ADD MLOAD DUP2 PUSH1 0x4 ADD PUSH0 PUSH2 0x100 EXP DUP2 SLOAD DUP2 PUSH1 0xFF MUL NOT AND SWAP1 DUP4 ISZERO ISZERO MUL OR SWAP1 SSTORE POP POP POP POP POP POP POP POP JUMP JUMPDEST PUSH0 DUP1 SLOAD SWAP1 POP DUP6 LT PUSH2 0x39A JUMPI PUSH0 DUP1 REVERT JUMPDEST DUP4 PUSH0 DUP7 DUP2 SLOAD DUP2 LT PUSH2 0x3AE JUMPI PUSH2 0x3AD PUSH2 0xA8E JUMP JUMPDEST JUMPDEST SWAP1 PUSH0 MSTORE PUSH1 0x20 PUSH0 KECCAK256 SWAP1 PUSH1 0x5 MUL ADD PUSH0 ADD SWAP1 DUP2 PUSH2 0x3C8 SWAP2 SWAP1 PUSH2 0xCB5 JUMP JUMPDEST POP DUP3 PUSH0 DUP7 DUP2 SLOAD DUP2 LT PUSH2 0x3DD JUMPI PUSH2 0x3DC PUSH2 0xA8E JUMP JUMPDEST JUMPDEST SWAP1 PUSH0 MSTORE PUSH1 0x20 PUSH0 KECCAK256 SWAP1 PUSH1 0x5 MUL ADD PUSH1 0x1 ADD DUP2 SWAP1 SSTORE POP DUP2 PUSH0 DUP7 DUP2 SLOAD DUP2 LT PUSH2 0x404 JUMPI PUSH2 0x403 PUSH2 0xA8E JUMP JUMPDEST JUMPDEST SWAP1 PUSH0 MSTORE PUSH1 0x20 PUSH0 KECCAK256 SWAP1 PUSH1 0x5 MUL ADD PUSH1 0x3 ADD DUP2 SWAP1 SSTORE POP DUP1 PUSH0 DUP7 DUP2 SLOAD DUP2 LT PUSH2 0x42B JUMPI PUSH2 0x42A PUSH2 0xA8E JUMP JUMPDEST JUMPDEST SWAP1 PUSH0 MSTORE PUSH1 0x20 PUSH0 KECCAK256 SWAP1 PUSH1 0x5 MUL ADD PUSH1 0x4 ADD PUSH0 PUSH2 0x100 EXP DUP2 SLOAD DUP2 PUSH1 0xFF MUL NOT AND SWAP1 DUP4 ISZERO ISZERO MUL OR SWAP1 SSTORE POP POP POP POP POP POP JUMP JUMPDEST PUSH1 0x60 PUSH0 DUP1 PUSH0 DUP1 PUSH0 DUP1 SLOAD SWAP1 POP DUP7 LT PUSH2 0x46C JUMPI PUSH0 DUP1 REVERT JUMPDEST PUSH0 DUP1 DUP8 DUP2 SLOAD DUP2 LT PUSH2 0x480 JUMPI PUSH2 0x47F PUSH2 0xA8E JUMP JUMPDEST JUMPDEST SWAP1 PUSH0 MSTORE PUSH1 0x20 PUSH0 KECCAK256 SWAP1 PUSH1 0x5 MUL ADD PUSH1 0x40 MLOAD DUP1 PUSH1 0xA0 ADD PUSH1 0x40 MSTORE SWAP1 DUP2 PUSH0 DUP3 ADD DUP1 SLOAD PUSH2 0x4A6 SWAP1 PUSH2 0xAE8 JUMP JUMPDEST DUP1 PUSH1 0x1F ADD PUSH1 0x20 DUP1 SWAP2 DIV MUL PUSH1 0x20 ADD PUSH1 0x40 MLOAD SWAP1 DUP2 ADD PUSH1 0x40 MSTORE DUP1 SWAP3 SWAP2 SWAP1 DUP2 DUP2 MSTORE PUSH1 0x20 ADD DUP3 DUP1 SLOAD PUSH2 0x4D2 SWAP1 PUSH2 0xAE8 JUMP JUMPDEST DUP1 ISZERO PUSH2 0x51D JUMPI DUP1 PUSH1 0x1F LT PUSH2 0x4F4 JUMPI PUSH2 0x100 DUP1 DUP4 SLOAD DIV MUL DUP4 MSTORE SWAP2 PUSH1 0x20 ADD SWAP2 PUSH2 0x51D JUMP JUMPDEST DUP3 ADD SWAP2 SWAP1 PUSH0 MSTORE PUSH1 0x20 PUSH0 KECCAK256 SWAP1 JUMPDEST DUP2 SLOAD DUP2 MSTORE SWAP1 PUSH1 0x1 ADD SWAP1 PUSH1 0x20 ADD DUP1 DUP4 GT PUSH2 0x500 JUMPI DUP3 SWAP1 SUB PUSH1 0x1F AND DUP3 ADD SWAP2 JUMPDEST POP POP POP POP POP DUP2 MSTORE PUSH1 0x20 ADD PUSH1 0x1 DUP3 ADD SLOAD DUP2 MSTORE PUSH1 0x20 ADD PUSH1 0x2 DUP3 ADD PUSH0 SWAP1 SLOAD SWAP1 PUSH2 0x100 EXP SWAP1 DIV PUSH20 0xFFFFFFFFFFFFFFFFFFFFFFFFFFFFFFFFFFFFFFFF AND PUSH20 0xFFFFFFFFFFFFFFFFFFFFFFFFFFFFFFFFFFFFFFFF AND PUSH20 0xFFFFFFFFFFFFFFFFFFFFFFFFFFFFFFFFFFFFFFFF AND DUP2 MSTORE PUSH1 0x20 ADD PUSH1 0x3 DUP3 ADD SLOAD DUP2 MSTORE PUSH1 0x20 ADD PUSH1 0x4 DUP3 ADD PUSH0 SWAP1 SLOAD SWAP1 PUSH2 0x100 EXP SWAP1 DIV PUSH1 0xFF AND ISZERO ISZERO ISZERO ISZERO DUP2 MSTORE POP POP SWAP1 POP DUP1 PUSH0 ADD MLOAD DUP2 PUSH1 0x20 ADD MLOAD DUP3 PUSH1 0x40 ADD MLOAD DUP4 PUSH1 0x60 ADD MLOAD DUP5 PUSH1 0x80 ADD MLOAD SWAP6 POP SWAP6 POP SWAP6 POP SWAP6 POP SWAP6 POP POP SWAP2 SWAP4 SWAP6 SWAP1 SWAP3 SWAP5 POP JUMP JUMPDEST POP DUP1 SLOAD PUSH2 0x5E3 SWAP1 PUSH2 0xAE8 JUMP JUMPDEST PUSH0 DUP3 SSTORE DUP1 PUSH1 0x1F LT PUSH2 0x5F4 JUMPI POP PUSH2 0x611 JUMP JUMPDEST PUSH1 0x1F ADD PUSH1 0x20 SWAP1 DIV SWAP1 PUSH0 MSTORE PUSH1 0x20 PUSH0 KECCAK256 SWAP1 DUP2 ADD SWAP1 PUSH2 0x610 SWAP2 SWAP1 PUSH2 0x614 JUMP JUMPDEST JUMPDEST POP JUMP JUMPDEST JUMPDEST DUP1 DUP3 GT ISZERO PUSH2 0x62B JUMPI PUSH0 DUP2 PUSH0 SWAP1 SSTORE POP PUSH1 0x1 ADD PUSH2 0x615 JUMP JUMPDEST POP SWAP1 JUMP JUMPDEST PUSH0 PUSH1 0x40 MLOAD SWAP1 POP SWAP1 JUMP JUMPDEST PUSH0 DUP1 REVERT JUMPDEST PUSH0 DUP1 REVERT JUMPDEST PUSH0 DUP2 SWAP1 POP SWAP2 SWAP1 POP JUMP JUMPDEST PUSH2 0x652 DUP2 PUSH2 0x640 JUMP JUMPDEST DUP2 EQ PUSH2 0x65C JUMPI PUSH0 DUP1 REVERT JUMPDEST POP JUMP JUMPDEST PUSH0 DUP2 CALLDATALOAD SWAP1 POP PUSH2 0x66D DUP2 PUSH2 0x649 JUMP JUMPDEST SWAP3 SWAP2 POP POP JUMP JUMPDEST PUSH0 PUSH1 0x20 DUP3 DUP5 SUB SLT ISZERO PUSH2 0x688 JUMPI PUSH2 0x687 PUSH2 0x638 JUMP JUMPDEST JUMPDEST PUSH0 PUSH2 0x695 DUP5 DUP3 DUP6 ADD PUSH2 0x65F JUMP JUMPDEST SWAP2 POP POP SWAP3 SWAP2 POP POP JUMP JUMPDEST PUSH0 DUP2 MLOAD SWAP1 POP SWAP2 SWAP1 POP JUMP JUMPDEST PUSH0 DUP3 DUP3 MSTORE PUSH1 0x20 DUP3 ADD SWAP1 POP SWAP3 SWAP2 POP POP JUMP JUMPDEST PUSH0 JUMPDEST DUP4 DUP2 LT ISZERO PUSH2 0x6D5 JUMPI DUP1 DUP3 ADD MLOAD DUP2 DUP5 ADD MSTORE PUSH1 0x20 DUP2 ADD SWAP1 POP PUSH2 0x6BA JUMP JUMPDEST PUSH0 DUP5 DUP5 ADD MSTORE POP POP POP POP JUMP JUMPDEST PUSH0 PUSH1 0x1F NOT PUSH1 0x1F DUP4 ADD AND SWAP1 POP SWAP2 SWAP1 POP JUMP JUMPDEST PUSH0 PUSH2 0x6FA DUP3 PUSH2 0x69E JUMP JUMPDEST PUSH2 0x704 DUP2 DUP6 PUSH2 0x6A8 JUMP JUMPDEST SWAP4 POP PUSH2 0x714 DUP2 DUP6 PUSH1 0x20 DUP7 ADD PUSH2 0x6B8 JUMP JUMPDEST PUSH2 0x71D DUP2 PUSH2 0x6E0 JUMP JUMPDEST DUP5 ADD SWAP2 POP POP SWAP3 SWAP2 POP POP JUMP JUMPDEST PUSH2 0x731 DUP2 PUSH2 0x640 JUMP JUMPDEST DUP3 MSTORE POP POP JUMP JUMPDEST PUSH0 PUSH20 0xFFFFFFFFFFFFFFFFFFFFFFFFFFFFFFFFFFFFFFFF DUP3 AND SWAP1 POP SWAP2 SWAP1 POP JUMP JUMPDEST PUSH0 PUSH2 0x760 DUP3 PUSH2 0x737 JUMP JUMPDEST SWAP1 POP SWAP2 SWAP1 POP JUMP JUMPDEST PUSH2 0x770 DUP2 PUSH2 0x756 JUMP JUMPDEST DUP3 MSTORE POP POP JUMP JUMPDEST PUSH0 DUP2 ISZERO ISZERO SWAP1 POP SWAP2 SWAP1 POP JUMP JUMPDEST PUSH2 0x78A DUP2 PUSH2 0x776 JUMP JUMPDEST DUP3 MSTORE POP POP JUMP JUMPDEST PUSH0 PUSH1 0xA0 DUP3 ADD SWAP1 POP DUP2 DUP2 SUB PUSH0 DUP4 ADD MSTORE PUSH2 0x7A8 DUP2 DUP9 PUSH2 0x6F0 JUMP JUMPDEST SWAP1 POP PUSH2 0x7B7 PUSH1 0x20 DUP4 ADD DUP8 PUSH2 0x728 JUMP JUMPDEST PUSH2 0x7C4 PUSH1 0x40 DUP4 ADD DUP7 PUSH2 0x767 JUMP JUMPDEST PUSH2 0x7D1 PUSH1 0x60 DUP4 ADD DUP6 PUSH2 0x728 JUMP JUMPDEST PUSH2 0x7DE PUSH1 0x80 DUP4 ADD DUP5 PUSH2 0x781 JUMP JUMPDEST SWAP7 SWAP6 POP POP POP POP POP POP JUMP JUMPDEST PUSH0 DUP1 REVERT JUMPDEST PUSH0 DUP1 REVERT JUMPDEST PUSH32 0x4E487B7100000000000000000000000000000000000000000000000000000000 PUSH0 MSTORE PUSH1 0x41 PUSH1 0x4 MSTORE PUSH1 0x24 PUSH0 REVERT JUMPDEST PUSH2 0x826 DUP3 PUSH2 0x6E0 JUMP JUMPDEST DUP2 ADD DUP2 DUP2 LT PUSH8 0xFFFFFFFFFFFFFFFF DUP3 GT OR ISZERO PUSH2 0x845 JUMPI PUSH2 0x844 PUSH2 0x7F0 JUMP JUMPDEST JUMPDEST DUP1 PUSH1 0x40 MSTORE POP POP POP JUMP JUMPDEST PUSH0 PUSH2 0x857 PUSH2 0x62F JUMP JUMPDEST SWAP1 POP PUSH2 0x863 DUP3 DUP3 PUSH2 0x81D JUMP JUMPDEST SWAP2 SWAP1 POP JUMP JUMPDEST PUSH0 PUSH8 0xFFFFFFFFFFFFFFFF DUP3 GT ISZERO PUSH2 0x882 JUMPI PUSH2 0x881 PUSH2 0x7F0 JUMP JUMPDEST JUMPDEST PUSH2 0x88B DUP3 PUSH2 0x6E0 JUMP JUMPDEST SWAP1 POP PUSH1 0x20 DUP2 ADD SWAP1 POP SWAP2 SWAP1 POP JUMP JUMPDEST DUP3 DUP2 DUP4 CALLDATACOPY PUSH0 DUP4 DUP4 ADD MSTORE POP POP POP JUMP JUMPDEST PUSH0 PUSH2 0x8B8 PUSH2 0x8B3 DUP5 PUSH2 0x868 JUMP JUMPDEST PUSH2 0x84E JUMP JUMPDEST SWAP1 POP DUP3 DUP2 MSTORE PUSH1 0x20 DUP2 ADD DUP5 DUP5 DUP5 ADD GT ISZERO PUSH2 0x8D4 JUMPI PUSH2 0x8D3 PUSH2 0x7EC JUMP JUMPDEST JUMPDEST PUSH2 0x8DF DUP5 DUP3 DUP6 PUSH2 0x898 JUMP JUMPDEST POP SWAP4 SWAP3 POP POP POP JUMP JUMPDEST PUSH0 DUP3 PUSH1 0x1F DUP4 ADD SLT PUSH2 0x8FB JUMPI PUSH2 0x8FA PUSH2 0x7E8 JUMP JUMPDEST JUMPDEST DUP2 CALLDATALOAD PUSH2 0x90B DUP5 DUP3 PUSH1 0x20 DUP7 ADD PUSH2 0x8A6 JUMP JUMPDEST SWAP2 POP POP SWAP3 SWAP2 POP POP JUMP JUMPDEST PUSH2 0x91D DUP2 PUSH2 0x756 JUMP JUMPDEST DUP2 EQ PUSH2 0x927 JUMPI PUSH0 DUP1 REVERT JUMPDEST POP JUMP JUMPDEST PUSH0 DUP2 CALLDATALOAD SWAP1 POP PUSH2 0x938 DUP2 PUSH2 0x914 JUMP JUMPDEST SWAP3 SWAP2 POP POP JUMP JUMPDEST PUSH2 0x947 DUP2 PUSH2 0x776 JUMP JUMPDEST DUP2 EQ PUSH2 0x951 JUMPI PUSH0 DUP1 REVERT JUMPDEST POP JUMP JUMPDEST PUSH0 DUP2 CALLDATALOAD SWAP1 POP PUSH2 0x962 DUP2 PUSH2 0x93E JUMP JUMPDEST SWAP3 SWAP2 POP POP JUMP JUMPDEST PUSH0 DUP1 PUSH0 DUP1 PUSH0 PUSH1 0xA0 DUP7 DUP9 SUB SLT ISZERO PUSH2 0x981 JUMPI PUSH2 0x980 PUSH2 0x638 JUMP JUMPDEST JUMPDEST PUSH0 DUP7 ADD CALLDATALOAD PUSH8 0xFFFFFFFFFFFFFFFF DUP2 GT ISZERO PUSH2 0x99E JUMPI PUSH2 0x99D PUSH2 0x63C JUMP JUMPDEST JUMPDEST PUSH2 0x9AA DUP9 DUP3 DUP10 ADD PUSH2 0x8E7 JUMP JUMPDEST SWAP6 POP POP PUSH1 0x20 PUSH2 0x9BB DUP9 DUP3 DUP10 ADD PUSH2 0x65F JUMP JUMPDEST SWAP5 POP POP PUSH1 0x40 PUSH2 0x9CC DUP9 DUP3 DUP10 ADD PUSH2 0x92A JUMP JUMPDEST SWAP4 POP POP PUSH1 0x60 PUSH2 0x9DD DUP9 DUP3 DUP10 ADD PUSH2 0x65F JUMP JUMPDEST SWAP3 POP POP PUSH1 0x80 PUSH2 0x9EE DUP9 DUP3 DUP10 ADD PUSH2 0x954 JUMP JUMPDEST SWAP2 POP POP SWAP3 SWAP6 POP SWAP3 SWAP6 SWAP1 SWAP4 POP JUMP JUMPDEST PUSH0 DUP1 PUSH0 DUP1 PUSH0 PUSH1 0xA0 DUP7 DUP9 SUB SLT ISZERO PUSH2 0xA14 JUMPI PUSH2 0xA13 PUSH2 0x638 JUMP JUMPDEST JUMPDEST PUSH0 PUSH2 0xA21 DUP9 DUP3 DUP10 ADD PUSH2 0x65F JUMP JUMPDEST SWAP6 POP POP PUSH1 0x20 DUP7 ADD CALLDATALOAD PUSH8 0xFFFFFFFFFFFFFFFF DUP2 GT ISZERO PUSH2 0xA42 JUMPI PUSH2 0xA41 PUSH2 0x63C JUMP JUMPDEST JUMPDEST PUSH2 0xA4E DUP9 DUP3 DUP10 ADD PUSH2 0x8E7 JUMP JUMPDEST SWAP5 POP POP PUSH1 0x40 PUSH2 0xA5F DUP9 DUP3 DUP10 ADD PUSH2 0x65F JUMP JUMPDEST SWAP4 POP POP PUSH1 0x60 PUSH2 0xA70 DUP9 DUP3 DUP10 ADD PUSH2 0x65F JUMP JUMPDEST SWAP3 POP POP PUSH1 0x80 PUSH2 0xA81 DUP9 DUP3 DUP10 ADD PUSH2 0x954 JUMP JUMPDEST SWAP2 POP POP SWAP3 SWAP6 POP SWAP3 SWAP6 SWAP1 SWAP4 POP JUMP JUMPDEST PUSH32 0x4E487B7100000000000000000000000000000000000000000000000000000000 PUSH0 MSTORE PUSH1 0x32 PUSH1 0x4 MSTORE PUSH1 0x24 PUSH0 REVERT JUMPDEST PUSH32 0x4E487B7100000000000000000000000000000000000000000000000000000000 PUSH0 MSTORE PUSH1 0x22 PUSH1 0x4 MSTORE PUSH1 0x24 PUSH0 REVERT JUMPDEST PUSH0 PUSH1 0x2 DUP3 DIV SWAP1 POP PUSH1 0x1 DUP3 AND DUP1 PUSH2 0xAFF JUMPI PUSH1 0x7F DUP3 AND SWAP2 POP JUMPDEST PUSH1 0x20 DUP3 LT DUP2 SUB PUSH2 0xB12 JUMPI PUSH2 0xB11 PUSH2 0xABB JUMP JUMPDEST JUMPDEST POP SWAP2 SWAP1 POP JUMP JUMPDEST PUSH0 DUP2 SWAP1 POP DUP2 PUSH0 MSTORE PUSH1 0x20 PUSH0 KECCAK256 SWAP1 POP SWAP2 SWAP1 POP JUMP JUMPDEST PUSH0 PUSH1 0x20 PUSH1 0x1F DUP4 ADD DIV SWAP1 POP SWAP2 SWAP1 POP JUMP JUMPDEST PUSH0 DUP3 DUP3 SHL SWAP1 POP SWAP3 SWAP2 POP POP JUMP JUMPDEST PUSH0 PUSH1 0x8 DUP4 MUL PUSH2 0xB74 PUSH32 0xFFFFFFFFFFFFFFFFFFFFFFFFFFFFFFFFFFFFFFFFFFFFFFFFFFFFFFFFFFFFFFFF DUP3 PUSH2 0xB39 JUMP JUMPDEST PUSH2 0xB7E DUP7 DUP4 PUSH2 0xB39 JUMP JUMPDEST SWAP6 POP DUP1 NOT DUP5 AND SWAP4 POP DUP1 DUP7 AND DUP5 OR SWAP3 POP POP POP SWAP4 SWAP3 POP POP POP JUMP JUMPDEST PUSH0 DUP2 SWAP1 POP SWAP2 SWAP1 POP JUMP JUMPDEST PUSH0 PUSH2 0xBB9 PUSH2 0xBB4 PUSH2 0xBAF DUP5 PUSH2 0x640 JUMP JUMPDEST PUSH2 0xB96 JUMP JUMPDEST PUSH2 0x640 JUMP JUMPDEST SWAP1 POP SWAP2 SWAP1 POP JUMP JUMPDEST PUSH0 DUP2 SWAP1 POP SWAP2 SWAP1 POP JUMP JUMPDEST PUSH2 0xBD2 DUP4 PUSH2 0xB9F JUMP JUMPDEST PUSH2 0xBE6 PUSH2 0xBDE DUP3 PUSH2 0xBC0 JUMP JUMPDEST DUP5 DUP5 SLOAD PUSH2 0xB45 JUMP JUMPDEST DUP3 SSTORE POP POP POP POP JUMP JUMPDEST PUSH0 SWAP1 JUMP JUMPDEST PUSH2 0xBFA PUSH2 0xBEE JUMP JUMPDEST PUSH2 0xC05 DUP2 DUP5 DUP5 PUSH2 0xBC9 JUMP JUMPDEST POP POP POP JUMP JUMPDEST JUMPDEST DUP2 DUP2 LT ISZERO PUSH2 0xC28 JUMPI PUSH2 0xC1D PUSH0 DUP3 PUSH2 0xBF2 JUMP JUMPDEST PUSH1 0x1 DUP2 ADD SWAP1 POP PUSH2 0xC0B JUMP JUMPDEST POP POP JUMP JUMPDEST PUSH1 0x1F DUP3 GT ISZERO PUSH2 0xC6D JUMPI PUSH2 0xC3E DUP2 PUSH2 0xB18 JUMP JUMPDEST PUSH2 0xC47 DUP5 PUSH2 0xB2A JUMP JUMPDEST DUP2 ADD PUSH1 0x20 DUP6 LT ISZERO PUSH2 0xC56 JUMPI DUP2 SWAP1 POP JUMPDEST PUSH2 0xC6A PUSH2 0xC62 DUP6 PUSH2 0xB2A JUMP JUMPDEST DUP4 ADD DUP3 PUSH2 0xC0A JUMP JUMPDEST POP POP JUMPDEST POP POP POP JUMP JUMPDEST PUSH0 DUP3 DUP3 SHR SWAP1 POP SWAP3 SWAP2 POP POP JUMP JUMPDEST PUSH0 PUSH2 0xC8D PUSH0 NOT DUP5 PUSH1 0x8 MUL PUSH2 0xC72 JUMP JUMPDEST NOT DUP1 DUP4 AND SWAP2 POP POP SWAP3 SWAP2 POP POP JUMP JUMPDEST PUSH0 PUSH2 0xCA5 DUP4 DUP4 PUSH2 0xC7E JUMP JUMPDEST SWAP2 POP DUP3 PUSH1 0x2 MUL DUP3 OR SWAP1 POP SWAP3 SWAP2 POP POP JUMP JUMPDEST PUSH2 0xCBE DUP3 PUSH2 0x69E JUMP JUMPDEST PUSH8 0xFFFFFFFFFFFFFFFF DUP2 GT ISZERO PUSH2 0xCD7 JUMPI PUSH2 0xCD6 PUSH2 0x7F0 JUMP JUMPDEST JUMPDEST PUSH2 0xCE1 DUP3 SLOAD PUSH2 0xAE8 JUMP JUMPDEST PUSH2 0xCEC DUP3 DUP3 DUP6 PUSH2 0xC2C JUMP JUMPDEST PUSH0 PUSH1 0x20 SWAP1 POP PUSH1 0x1F DUP4 GT PUSH1 0x1 DUP2 EQ PUSH2 0xD1D JUMPI PUSH0 DUP5 ISZERO PUSH2 0xD0B JUMPI DUP3 DUP8 ADD MLOAD SWAP1 POP JUMPDEST PUSH2 0xD15 DUP6 DUP3 PUSH2 0xC9A JUMP JUMPDEST DUP7 SSTORE POP PUSH2 0xD7C JUMP JUMPDEST PUSH1 0x1F NOT DUP5 AND PUSH2 0xD2B DUP7 PUSH2 0xB18 JUMP JUMPDEST PUSH0 JUMPDEST DUP3 DUP2 LT ISZERO PUSH2 0xD52 JUMPI DUP5 DUP10 ADD MLOAD DUP3 SSTORE PUSH1 0x1 DUP3 ADD SWAP2 POP PUSH1 0x20 DUP6 ADD SWAP5 POP PUSH1 0x20 DUP2 ADD SWAP1 POP PUSH2 0xD2D JUMP JUMPDEST DUP7 DUP4 LT ISZERO PUSH2 0xD6F JUMPI DUP5 DUP10 ADD MLOAD PUSH2 0xD6B PUSH1 0x1F DUP10 AND DUP3 PUSH2 0xC7E JUMP JUMPDEST DUP4 SSTORE POP JUMPDEST PUSH1 0x1 PUSH1 0x2 DUP9 MUL ADD DUP9 SSTORE POP POP POP JUMPDEST POP POP POP POP POP POP JUMP INVALID LOG2 PUSH5 0x6970667358 0x22 SLT KECCAK256 STOP 0xFB PUSH10 0x3DC7F0D6E0C357821457 0x5D 0xE6 0x4A CODECOPY CALLVALUE 0xA7 SDIV DUP2 0xBA SLT DUP15 SWAP16 0xB8 SWAP12 MSTORE8 0xD3 PREVRANDAO BLOCKHASH 0xDE PUSH5 0x736F6C6343 STOP ADDMOD AND STOP CALLER "
				},
				"gasEstimates": {
					"creation": {
						"codeDepositCost": "702800",
						"executionCost": "732",
						"totalCost": "703532"
					},
					"external": {
						"addUser(string,uint256,address,uint256,bool)": "infinite",
						"getUserInfo(uint256)": "infinite",
						"removeUser(uint256)": "infinite",
						"updateUser(uint256,string,uint256,uint256,bool)": "infinite",
						"users(uint256)": "infinite"
					}
				},
				"methodIdentifiers": {
					"addUser(string,uint256,address,uint256,bool)": "9ed29554",
					"getUserInfo(uint256)": "d379dadf",
					"removeUser(uint256)": "11dc4703",
					"updateUser(uint256,string,uint256,uint256,bool)": "add4e5c2",
					"users(uint256)": "365b98b2"
				}
			},
			"storageLayout": {
				"storage": [
					{
						"astId": 16,
						"contract": "contracts/user.sol:Struct",
						"label": "users",
						"offset": 0,
						"slot": "0",
						"type": "t_array(t_struct(User)12_storage)dyn_storage"
					}
				],
				"types": {
					"t_address": {
						"encoding": "inplace",
						"label": "address",
						"numberOfBytes": "20"
					},
					"t_array(t_struct(User)12_storage)dyn_storage": {
						"base": "t_struct(User)12_storage",
						"encoding": "dynamic_array",
						"label": "struct Struct.User[]",
						"numberOfBytes": "32"
					},
					"t_bool": {
						"encoding": "inplace",
						"label": "bool",
						"numberOfBytes": "1"
					},
					"t_string_storage": {
						"encoding": "bytes",
						"label": "string",
						"numberOfBytes": "32"
					},
					"t_struct(User)12_storage": {
						"encoding": "inplace",
						"label": "struct Struct.User",
						"members": [
							{
								"astId": 3,
								"contract": "contracts/user.sol:Struct",
								"label": "username",
								"offset": 0,
								"slot": "0",
								"type": "t_string_storage"
							},
							{
								"astId": 5,
								"contract": "contracts/user.sol:Struct",
								"label": "age",
								"offset": 0,
								"slot": "1",
								"type": "t_uint256"
							},
							{
								"astId": 7,
								"contract": "contracts/user.sol:Struct",
								"label": "account",
								"offset": 0,
								"slot": "2",
								"type": "t_address"
							},
							{
								"astId": 9,
								"contract": "contracts/user.sol:Struct",
								"label": "grade",
								"offset": 0,
								"slot": "3",
								"type": "t_uint256"
							},
							{
								"astId": 11,
								"contract": "contracts/user.sol:Struct",
								"label": "isAlive",
								"offset": 0,
								"slot": "4",
								"type": "t_bool"
							}
						],
						"numberOfBytes": "160"
					},
					"t_uint256": {
						"encoding": "inplace",
						"label": "uint256",
						"numberOfBytes": "32"
					}
				}
			},
			"userdoc": {
				"kind": "user",
				"methods": {},
				"version": 1
			}
		}
	}
}