{
	"data": {
		"bytecode": {
			"linkReferences": {},
			"object": "608060405234801561000f575f80fd5b50602a5f80600a8110610025576100246100d9565b5b01819055507fffffffffffffffffffffffffffffffffffffffffffffffffffffffffffffffaa5f6001600a811061005f5761005e6100d9565b5b018190555060455f6002600a811061007a576100796100d9565b5b0181905550601e5f6003600a8110610095576100946100d9565b5b01819055507ffffffffffffffffffffffffffffffffffffffffffffffffffffffffffffeb1c55f6004600a81106100cf576100ce6100d9565b5b0181905550610106565b7f4e487b71000000000000000000000000000000000000000000000000000000005f52603260045260245ffd5b6102f4806101135f395ff3fe608060405234801561000f575f80fd5b506004361061003f575f3560e01c80634ac56d5714610043578063cc3e57d91461005f578063f72d0b3b1461008f575b5f80fd5b61005d600480360381019061005891906101a2565b6100bf565b005b61007960048036038101906100749190610213565b6100ee565b604051610086919061024d565b60405180910390f35b6100a960048036038101906100a49190610266565b610106565b6040516100b6919061024d565b60405180910390f35b600a8260ff16106100ce575f80fd5b805f8360ff16600a81106100e5576100e4610291565b5b01819055505050565b5f81600a81106100fc575f80fd5b015f915090505481565b5f600a8260ff1610610116575f80fd5b5f8260ff16600a811061012c5761012b610291565b5b01549050919050565b5f80fd5b5f60ff82169050919050565b61014e81610139565b8114610158575f80fd5b50565b5f8135905061016981610145565b92915050565b5f819050919050565b6101818161016f565b811461018b575f80fd5b50565b5f8135905061019c81610178565b92915050565b5f80604083850312156101b8576101b7610135565b5b5f6101c58582860161015b565b92505060206101d68582860161018e565b9150509250929050565b5f819050919050565b6101f2816101e0565b81146101fc575f80fd5b50565b5f8135905061020d816101e9565b92915050565b5f6020828403121561022857610227610135565b5b5f610235848285016101ff565b91505092915050565b6102478161016f565b82525050565b5f6020820190506102605f83018461023e565b92915050565b5f6020828403121561027b5761027a610135565b5b5f6102888482850161015b565b91505092915050565b7f4e487b71000000000000000000000000000000000000000000000000000000005f52603260045260245ffdfea26469706673582212204f6b4acec192f6ac23e4ec32eab2ad14cc6bb5006a41c556e987bb3ec4fcf6f164736f6c63430008160033",
			"opcodes": "PUSH1 0x80 PUSH1 0x40 MSTORE CALLVALUE DUP1 ISZERO PUSH2 0xF JUMPI PUSH0 DUP1 REVERT JUMPDEST POP PUSH1 0x2A PUSH0 DUP1 PUSH1 0xA DUP2 LT PUSH2 0x25 JUMPI PUSH2 0x24 PUSH2 0xD9 JUMP JUMPDEST JUMPDEST ADD DUP2 SWAP1 SSTORE POP PUSH32 0xFFFFFFFFFFFFFFFFFFFFFFFFFFFFFFFFFFFFFFFFFFFFFFFFFFFFFFFFFFFFFFAA PUSH0 PUSH1 0x1 PUSH1 0xA DUP2 LT PUSH2 0x5F JUMPI PUSH2 0x5E PUSH2 0xD9 JUMP JUMPDEST JUMPDEST ADD DUP2 SWAP1 SSTORE POP PUSH1 0x45 PUSH0 PUSH1 0x2 PUSH1 0xA DUP2 LT PUSH2 0x7A JUMPI PUSH2 0x79 PUSH2 0xD9 JUMP JUMPDEST JUMPDEST ADD DUP2 SWAP1 SSTORE POP PUSH1 0x1E PUSH0 PUSH1 0x3 PUSH1 0xA DUP2 LT PUSH2 0x95 JUMPI PUSH2 0x94 PUSH2 0xD9 JUMP JUMPDEST JUMPDEST ADD DUP2 SWAP1 SSTORE POP PUSH32 0xFFFFFFFFFFFFFFFFFFFFFFFFFFFFFFFFFFFFFFFFFFFFFFFFFFFFFFFFFFFEB1C5 PUSH0 PUSH1 0x4 PUSH1 0xA DUP2 LT PUSH2 0xCF JUMPI PUSH2 0xCE PUSH2 0xD9 JUMP JUMPDEST JUMPDEST ADD DUP2 SWAP1 SSTORE POP PUSH2 0x106 JUMP JUMPDEST PUSH32 0x4E487B7100000000000000000000000000000000000000000000000000000000 PUSH0 MSTORE PUSH1 0x32 PUSH1 0x4 MSTORE PUSH1 0x24 PUSH0 REVERT JUMPDEST PUSH2 0x2F4 DUP1 PUSH2 0x113 PUSH0 CODECOPY PUSH0 RETURN INVALID PUSH1 0x80 PUSH1 0x40 MSTORE CALLVALUE DUP1 ISZERO PUSH2 0xF JUMPI PUSH0 DUP1 REVERT JUMPDEST POP PUSH1 0x4 CALLDATASIZE LT PUSH2 0x3F JUMPI PUSH0 CALLDATALOAD PUSH1 0xE0 SHR DUP1 PUSH4 0x4AC56D57 EQ PUSH2 0x43 JUMPI DUP1 PUSH4 0xCC3E57D9 EQ PUSH2 0x5F JUMPI DUP1 PUSH4 0xF72D0B3B EQ PUSH2 0x8F JUMPI JUMPDEST PUSH0 DUP1 REVERT JUMPDEST PUSH2 0x5D PUSH1 0x4 DUP1 CALLDATASIZE SUB DUP2 ADD SWAP1 PUSH2 0x58 SWAP2 SWAP1 PUSH2 0x1A2 JUMP JUMPDEST PUSH2 0xBF JUMP JUMPDEST STOP JUMPDEST PUSH2 0x79 PUSH1 0x4 DUP1 CALLDATASIZE SUB DUP2 ADD SWAP1 PUSH2 0x74 SWAP2 SWAP1 PUSH2 0x213 JUMP JUMPDEST PUSH2 0xEE JUMP JUMPDEST PUSH1 0x40 MLOAD PUSH2 0x86 SWAP2 SWAP1 PUSH2 0x24D JUMP JUMPDEST PUSH1 0x40 MLOAD DUP1 SWAP2 SUB SWAP1 RETURN JUMPDEST PUSH2 0xA9 PUSH1 0x4 DUP1 CALLDATASIZE SUB DUP2 ADD SWAP1 PUSH2 0xA4 SWAP2 SWAP1 PUSH2 0x266 JUMP JUMPDEST PUSH2 0x106 JUMP JUMPDEST PUSH1 0x40 MLOAD PUSH2 0xB6 SWAP2 SWAP1 PUSH2 0x24D JUMP JUMPDEST PUSH1 0x40 MLOAD DUP1 SWAP2 SUB SWAP1 RETURN JUMPDEST PUSH1 0xA DUP3 PUSH1 0xFF AND LT PUSH2 0xCE JUMPI PUSH0 DUP1 REVERT JUMPDEST DUP1 PUSH0 DUP4 PUSH1 0xFF AND PUSH1 0xA DUP2 LT PUSH2 0xE5 JUMPI PUSH2 0xE4 PUSH2 0x291 JUMP JUMPDEST JUMPDEST ADD DUP2 SWAP1 SSTORE POP POP POP JUMP JUMPDEST PUSH0 DUP2 PUSH1 0xA DUP2 LT PUSH2 0xFC JUMPI PUSH0 DUP1 REVERT JUMPDEST ADD PUSH0 SWAP2 POP SWAP1 POP SLOAD DUP2 JUMP JUMPDEST PUSH0 PUSH1 0xA DUP3 PUSH1 0xFF AND LT PUSH2 0x116 JUMPI PUSH0 DUP1 REVERT JUMPDEST PUSH0 DUP3 PUSH1 0xFF AND PUSH1 0xA DUP2 LT PUSH2 0x12C JUMPI PUSH2 0x12B PUSH2 0x291 JUMP JUMPDEST JUMPDEST ADD SLOAD SWAP1 POP SWAP2 SWAP1 POP JUMP JUMPDEST PUSH0 DUP1 REVERT JUMPDEST PUSH0 PUSH1 0xFF DUP3 AND SWAP1 POP SWAP2 SWAP1 POP JUMP JUMPDEST PUSH2 0x14E DUP2 PUSH2 0x139 JUMP JUMPDEST DUP2 EQ PUSH2 0x158 JUMPI PUSH0 DUP1 REVERT JUMPDEST POP JUMP JUMPDEST PUSH0 DUP2 CALLDATALOAD SWAP1 POP PUSH2 0x169 DUP2 PUSH2 0x145 JUMP JUMPDEST SWAP3 SWAP2 POP POP JUMP JUMPDEST PUSH0 DUP2 SWAP1 POP SWAP2 SWAP1 POP JUMP JUMPDEST PUSH2 0x181 DUP2 PUSH2 0x16F JUMP JUMPDEST DUP2 EQ PUSH2 0x18B JUMPI PUSH0 DUP1 REVERT JUMPDEST POP JUMP JUMPDEST PUSH0 DUP2 CALLDATALOAD SWAP1 POP PUSH2 0x19C DUP2 PUSH2 0x178 JUMP JUMPDEST SWAP3 SWAP2 POP POP JUMP JUMPDEST PUSH0 DUP1 PUSH1 0x40 DUP4 DUP6 SUB SLT ISZERO PUSH2 0x1B8 JUMPI PUSH2 0x1B7 PUSH2 0x135 JUMP JUMPDEST JUMPDEST PUSH0 PUSH2 0x1C5 DUP6 DUP3 DUP7 ADD PUSH2 0x15B JUMP JUMPDEST SWAP3 POP POP PUSH1 0x20 PUSH2 0x1D6 DUP6 DUP3 DUP7 ADD PUSH2 0x18E JUMP JUMPDEST SWAP2 POP POP SWAP3 POP SWAP3 SWAP1 POP JUMP JUMPDEST PUSH0 DUP2 SWAP1 POP SWAP2 SWAP1 POP JUMP JUMPDEST PUSH2 0x1F2 DUP2 PUSH2 0x1E0 JUMP JUMPDEST DUP2 EQ PUSH2 0x1FC JUMPI PUSH0 DUP1 REVERT JUMPDEST POP JUMP JUMPDEST PUSH0 DUP2 CALLDATALOAD SWAP1 POP PUSH2 0x20D DUP2 PUSH2 0x1E9 JUMP JUMPDEST SWAP3 SWAP2 POP POP JUMP JUMPDEST PUSH0 PUSH1 0x20 DUP3 DUP5 SUB SLT ISZERO PUSH2 0x228 JUMPI PUSH2 0x227 PUSH2 0x135 JUMP JUMPDEST JUMPDEST PUSH0 PUSH2 0x235 DUP5 DUP3 DUP6 ADD PUSH2 0x1FF JUMP JUMPDEST SWAP2 POP POP SWAP3 SWAP2 POP POP JUMP JUMPDEST PUSH2 0x247 DUP2 PUSH2 0x16F JUMP JUMPDEST DUP3 MSTORE POP POP JUMP JUMPDEST PUSH0 PUSH1 0x20 DUP3 ADD SWAP1 POP PUSH2 0x260 PUSH0 DUP4 ADD DUP5 PUSH2 0x23E JUMP JUMPDEST SWAP3 SWAP2 POP POP JUMP JUMPDEST PUSH0 PUSH1 0x20 DUP3 DUP5 SUB SLT ISZERO PUSH2 0x27B JUMPI PUSH2 0x27A PUSH2 0x135 JUMP JUMPDEST JUMPDEST PUSH0 PUSH2 0x288 DUP5 DUP3 DUP6 ADD PUSH2 0x15B JUMP JUMPDEST SWAP2 POP POP SWAP3 SWAP2 POP POP JUMP JUMPDEST PUSH32 0x4E487B7100000000000000000000000000000000000000000000000000000000 PUSH0 MSTORE PUSH1 0x32 PUSH1 0x4 MSTORE PUSH1 0x24 PUSH0 REVERT INVALID LOG2 PUSH5 0x6970667358 0x22 SLT KECCAK256 0x4F PUSH12 0x4ACEC192F6AC23E4EC32EAB2 0xAD EQ 0xCC PUSH12 0xB5006A41C556E987BB3EC4FC 0xF6 CALL PUSH5 0x736F6C6343 STOP ADDMOD AND STOP CALLER "
		},
		"gasEstimates": {
			"creation": {
				"codeDepositCost": "151200",
				"executionCost": "110916",
				"totalCost": "262116"
			},
			"external": {
				"get(uint8)": "2784",
				"myArray(uint256)": "2721",
				"set(uint8,int256)": "22733"
			}
		},
		"methodIdentifiers": {
			"get(uint8)": "f72d0b3b",
			"myArray(uint256)": "cc3e57d9",
			"set(uint8,int256)": "4ac56d57"
		}
	},
	"abi": [
		{
			"inputs": [],
			"stateMutability": "nonpayable",
			"type": "constructor"
		},
		{
			"inputs": [
				{
					"internalType": "uint8",
					"name": "index",
					"type": "uint8"
				}
			],
			"name": "get",
			"outputs": [
				{
					"internalType": "int256",
					"name": "",
					"type": "int256"
				}
			],
			"stateMutability": "view",
			"type": "function"
		},
		{
			"inputs": [
				{
					"internalType": "uint256",
					"name": "",
					"type": "uint256"
				}
			],
			"name": "myArray",
			"outputs": [
				{
					"internalType": "int256",
					"name": "",
					"type": "int256"
				}
			],
			"stateMutability": "view",
			"type": "function"
		},
		{
			"inputs": [
				{
					"internalType": "uint8",
					"name": "index",
					"type": "uint8"
				},
				{
					"internalType": "int256",
					"name": "value",
					"type": "int256"
				}
			],
			"name": "set",
			"outputs": [],
			"stateMutability": "nonpayable",
			"type": "function"
		}
	]
}