{
	"data": {
		"bytecode": {
			"linkReferences": {},
			"object": "60806040527f49274d7a337034537357307264000000000000000000000000000000000000005f55348015610032575f80fd5b505f60015f6101000a81548160ff02191690831515021790555061025d806100595f395ff3fe608060405234801561000f575f80fd5b5060043610610034575f3560e01c8063074d1dcc146100385780634e71d92d14610054575b5f80fd5b610052600480360381019061004d9190610151565b610072565b005b61005c610108565b6040516100699190610196565b60405180910390f35b3373ffffffffffffffffffffffffffffffffffffffff163273ffffffffffffffffffffffffffffffffffffffff16036100a9575f80fd5b5f5481146100ec576040517f08c379a00000000000000000000000000000000000000000000000000000000081526004016100e390610209565b60405180910390fd5b6001805f6101000a81548160ff02191690831515021790555050565b60015f9054906101000a900460ff1681565b5f80fd5b5f819050919050565b6101308161011e565b811461013a575f80fd5b50565b5f8135905061014b81610127565b92915050565b5f602082840312156101665761016561011a565b5b5f6101738482850161013d565b91505092915050565b5f8115159050919050565b6101908161017c565b82525050565b5f6020820190506101a95f830184610187565b92915050565b5f82825260208201905092915050565b7f4261642050617373776f726400000000000000000000000000000000000000005f82015250565b5f6101f3600c836101af565b91506101fe826101bf565b602082019050919050565b5f6020820190508181035f830152610220816101e7565b905091905056fea2646970667358221220a21ae221137b1948daaf1e09797b829d767e89eeb648f7f44c8610c6ae9e009d64736f6c63430008160033",
			"opcodes": "PUSH1 0x80 PUSH1 0x40 MSTORE PUSH32 0x49274D7A33703453735730726400000000000000000000000000000000000000 PUSH0 SSTORE CALLVALUE DUP1 ISZERO PUSH2 0x32 JUMPI PUSH0 DUP1 REVERT JUMPDEST POP PUSH0 PUSH1 0x1 PUSH0 PUSH2 0x100 EXP DUP2 SLOAD DUP2 PUSH1 0xFF MUL NOT AND SWAP1 DUP4 ISZERO ISZERO MUL OR SWAP1 SSTORE POP PUSH2 0x25D DUP1 PUSH2 0x59 PUSH0 CODECOPY PUSH0 RETURN INVALID PUSH1 0x80 PUSH1 0x40 MSTORE CALLVALUE DUP1 ISZERO PUSH2 0xF JUMPI PUSH0 DUP1 REVERT JUMPDEST POP PUSH1 0x4 CALLDATASIZE LT PUSH2 0x34 JUMPI PUSH0 CALLDATALOAD PUSH1 0xE0 SHR DUP1 PUSH4 0x74D1DCC EQ PUSH2 0x38 JUMPI DUP1 PUSH4 0x4E71D92D EQ PUSH2 0x54 JUMPI JUMPDEST PUSH0 DUP1 REVERT JUMPDEST PUSH2 0x52 PUSH1 0x4 DUP1 CALLDATASIZE SUB DUP2 ADD SWAP1 PUSH2 0x4D SWAP2 SWAP1 PUSH2 0x151 JUMP JUMPDEST PUSH2 0x72 JUMP JUMPDEST STOP JUMPDEST PUSH2 0x5C PUSH2 0x108 JUMP JUMPDEST PUSH1 0x40 MLOAD PUSH2 0x69 SWAP2 SWAP1 PUSH2 0x196 JUMP JUMPDEST PUSH1 0x40 MLOAD DUP1 SWAP2 SUB SWAP1 RETURN JUMPDEST CALLER PUSH20 0xFFFFFFFFFFFFFFFFFFFFFFFFFFFFFFFFFFFFFFFF AND ORIGIN PUSH20 0xFFFFFFFFFFFFFFFFFFFFFFFFFFFFFFFFFFFFFFFF AND SUB PUSH2 0xA9 JUMPI PUSH0 DUP1 REVERT JUMPDEST PUSH0 SLOAD DUP2 EQ PUSH2 0xEC JUMPI PUSH1 0x40 MLOAD PUSH32 0x8C379A000000000000000000000000000000000000000000000000000000000 DUP2 MSTORE PUSH1 0x4 ADD PUSH2 0xE3 SWAP1 PUSH2 0x209 JUMP JUMPDEST PUSH1 0x40 MLOAD DUP1 SWAP2 SUB SWAP1 REVERT JUMPDEST PUSH1 0x1 DUP1 PUSH0 PUSH2 0x100 EXP DUP2 SLOAD DUP2 PUSH1 0xFF MUL NOT AND SWAP1 DUP4 ISZERO ISZERO MUL OR SWAP1 SSTORE POP POP JUMP JUMPDEST PUSH1 0x1 PUSH0 SWAP1 SLOAD SWAP1 PUSH2 0x100 EXP SWAP1 DIV PUSH1 0xFF AND DUP2 JUMP JUMPDEST PUSH0 DUP1 REVERT JUMPDEST PUSH0 DUP2 SWAP1 POP SWAP2 SWAP1 POP JUMP JUMPDEST PUSH2 0x130 DUP2 PUSH2 0x11E JUMP JUMPDEST DUP2 EQ PUSH2 0x13A JUMPI PUSH0 DUP1 REVERT JUMPDEST POP JUMP JUMPDEST PUSH0 DUP2 CALLDATALOAD SWAP1 POP PUSH2 0x14B DUP2 PUSH2 0x127 JUMP JUMPDEST SWAP3 SWAP2 POP POP JUMP JUMPDEST PUSH0 PUSH1 0x20 DUP3 DUP5 SUB SLT ISZERO PUSH2 0x166 JUMPI PUSH2 0x165 PUSH2 0x11A JUMP JUMPDEST JUMPDEST PUSH0 PUSH2 0x173 DUP5 DUP3 DUP6 ADD PUSH2 0x13D JUMP JUMPDEST SWAP2 POP POP SWAP3 SWAP2 POP POP JUMP JUMPDEST PUSH0 DUP2 ISZERO ISZERO SWAP1 POP SWAP2 SWAP1 POP JUMP JUMPDEST PUSH2 0x190 DUP2 PUSH2 0x17C JUMP JUMPDEST DUP3 MSTORE POP POP JUMP JUMPDEST PUSH0 PUSH1 0x20 DUP3 ADD SWAP1 POP PUSH2 0x1A9 PUSH0 DUP4 ADD DUP5 PUSH2 0x187 JUMP JUMPDEST SWAP3 SWAP2 POP POP JUMP JUMPDEST PUSH0 DUP3 DUP3 MSTORE PUSH1 0x20 DUP3 ADD SWAP1 POP SWAP3 SWAP2 POP POP JUMP JUMPDEST PUSH32 0x4261642050617373776F72640000000000000000000000000000000000000000 PUSH0 DUP3 ADD MSTORE POP JUMP JUMPDEST PUSH0 PUSH2 0x1F3 PUSH1 0xC DUP4 PUSH2 0x1AF JUMP JUMPDEST SWAP2 POP PUSH2 0x1FE DUP3 PUSH2 0x1BF JUMP JUMPDEST PUSH1 0x20 DUP3 ADD SWAP1 POP SWAP2 SWAP1 POP JUMP JUMPDEST PUSH0 PUSH1 0x20 DUP3 ADD SWAP1 POP DUP2 DUP2 SUB PUSH0 DUP4 ADD MSTORE PUSH2 0x220 DUP2 PUSH2 0x1E7 JUMP JUMPDEST SWAP1 POP SWAP2 SWAP1 POP JUMP INVALID LOG2 PUSH5 0x6970667358 0x22 SLT KECCAK256 LOG2 BYTE 0xE2 0x21 SGT PUSH28 0x1948DAAF1E09797B829D767E89EEB648F7F44C8610C6AE9E009D6473 PUSH16 0x6C634300081600330000000000000000 "
		},
		"gasEstimates": {
			"creation": {
				"codeDepositCost": "121000",
				"executionCost": "46533",
				"totalCost": "167533"
			},
			"external": {
				"claim()": "2466",
				"guessMyPassword(bytes32)": "26800"
			}
		},
		"methodIdentifiers": {
			"claim()": "4e71d92d",
			"guessMyPassword(bytes32)": "074d1dcc"
		}
	},
	"abi": [
		{
			"inputs": [],
			"stateMutability": "nonpayable",
			"type": "constructor"
		},
		{
			"inputs": [],
			"name": "claim",
			"outputs": [
				{
					"internalType": "bool",
					"name": "",
					"type": "bool"
				}
			],
			"stateMutability": "view",
			"type": "function"
		},
		{
			"inputs": [
				{
					"internalType": "bytes32",
					"name": "_password",
					"type": "bytes32"
				}
			],
			"name": "guessMyPassword",
			"outputs": [],
			"stateMutability": "nonpayable",
			"type": "function"
		}
	]
}